:020000040800F2
:1000000000000110013F0808CD2C0008EDA70208F0
:10001000A13F0808A13F0808A13F08080000000010
:10002000000000000000000000000000D9460008A9
:10003000DD46000800000000E1460008C1FB0008A2
:10004000A13F0808A13F0808A13F0808A13F0808F0
:10005000A13F0808A13F0808A5C60008A9C60008D6
:10006000A13F0808ADC60008B1C600089D340008CD
:10007000AD340008BD340008CD340008DD3400087C
:10008000F134000805350008A13F0808A13F080821
:10009000A13F0808A13F0808A13F0808B5C600080D
:1000A00049330008713300089933000835330008DC
:1000B000C1330008D5330008E9330008A13F080820
:1000C000A13F0808A13F0808A13F0808A13F080870
:1000D000A13F0808512E00085D2E0008692E000877
:1000E000B9C60008A13F0808E54600082534000805
:1000F0004D34000875340008113400081935000823
:10010000A13F0808A13F0808FD330008A13F0808E7
:10011000752E0008812E0008A13F0808A13F08089D
:100120002D350008413500085535000869350008AF
:100130007D350008A13F0808A13F0808A13F080835
:10014000A13F0808A13F0808A13F0808314700085F
:1001500091350008A5350008B93500088D2E000836
:10016000A13F0808A13F0808A13F0808A13F0808CF
:10017000A13F0808A13F0808A13F0808A13F0808BF
:08018000A13F0808A13F080897
:10019000D0E907239A423CBFC1685218D01A704771
:1001A000D0E9092300699A4238BF1218D31A0138DE
:1001B000C01A7047D0E90902101AB0FA80F040095D
:1001C000704700BF0246036A4069D168C05C0133D2
:1001D0008B4228BF00231362704700BF436A8269C5
:1001E000D154436A0169426B01338B4228BF00231B
:1001F0004362D36843F08003D3607047436B188831
:1002000010F0100002D01A889B880120704700BFB0
:10021000436B99891A88890610B504460AD592B2AB
:10022000900607D5E26A002A2AD09888216B80B20E
:100230009047636B99891A88090692B210D5100607
:100240000ED5D4E909128A4215D0A1692069895CCA
:100250000132C9B29980B2FBF0F100FB1122A26217
:10026000998A1A88C90592B204D5D20744BF4FF6BD
:10027000F7721A8010BDDA6822F08002DA60EFE7C8
:100280009B88E2696169DBB28B54E269E168636B68
:100290000132B2FBF1F001FB1022E261CAE700BFBC
:1002A000036942681F2B10B423D95168203B4FF0DB
:1002B000200C0CFA03F3194218D08169087C03283A
:1002C00013D000240C744868C968046890F805C00D
:1002D0008868194931F81CC0A18989B221EA0C014A
:1002E000A181016821F001010160D3605DF8044B38
:1002F000704711684FF0200C0CFA03F31942F5D047
:100300008169087C032813D000240C744868C968EC
:10031000046890F805C08868074931F81CC0A189B5
:1003200089B221EA0C01A181016821F0010101607B
:100330005DF8044B936070473C72080882B0092254
:10034000274B8DF80720DA68D00319D4DA68D10674
:1003500040D4DA68D20541D4DA6812F0E00F3BD11C
:10036000DB6813F0020F0CBF092308238DF8073058
:100370009DF80730012B0AD09DF8070002B07047A6
:1003800001238DF807309DF80730012BF4D1144A72
:1003900012E0D368DB0519D4D36813F0E00F17D14E
:1003A000D36813F0020F0CBF092308238DF8073020
:1003B0009DF80730012BDFD1D168C8034FF001034E
:1003C000F4D4D368D906E4D50623EFE70223EDE79A
:1003D0000723EBE70623D4E70723D2E70223D0E77E
:1003E000003C0240024B01F001011970704700BF50
:1003F00000000020704700BF704700BF704700BF7B
:1004000001207047034B18685B68C01AC0F30A00EC
:10041000704700BF88230020064B986800B97047DA
:100420009B68052B03D1044B1878C0B2704700209D
:10043000704700BF8823002000000020012380F8BF
:1004400049307047054BD8681B69984234BF03F1A7
:10045000FF3303F2FF73181A704700BF8823002090
:1004600010B5D0F8E83504461B699847032384F893
:100470001231002010BD00BF08B5042290F81211FF
:10048000D0F8E83580F8131180F81221DB6898471E
:10049000002008BD08B5D0F8E435DB6903B1984702
:1004A000002008BD08B5D0F8E4351B6A9847002045
:1004B00008BD00BF08B5D0F8E4355B6A9847002056
:1004C00008BD00BF70B5037805460E461446DBB183
:1004D000013082F0EFFE431CDBB201335B00DAB285
:1004E00023800323327073702C7864B12846022372
:1004F00000215A1CD2B2F454B15410F8014F023307
:10050000DBB2002CF5D170BD02221346E8E700BF34
:1005100010B5064C6068FF2806D005494A691831B5
:1005200000F088F8FF236360002010BD0000002069
:1005300088230020432301480B80704708000020D7
:10054000122301480B8070474C000020042301480F
:100550000B8070476000002010B5044C04480A4628
:100560002146FFF7AFFF204610BD00BFA8230020A3
:100570003C1D090810B5044C04480A462146FFF703
:10058000A1FF204610BD00BFA8230020501D090870
:1005900010B5044C04480A462146FFF793FF204655
:1005A00010BD00BFA8230020581D090810B5044C39
:1005B00004480A462146FFF785FF204610BD00BFCC
:1005C000A8230020641D090810B5044C04480A46FD
:1005D0002146FFF777FF204610BD00BFA82300206B
:1005E000701D0908704700BF704700BF704700BF0B
:1005F000704700BF704700BF014B00229A607047F0
:1006000088230020704700BF064B002005229A6017
:10061000C3F820011860C3F82401586083F828014A
:10062000704700BF88230020014B0020986070476E
:1006300088230020212838B50C4626D0222816D041
:10064000202812D189B1072A0FD1174DD5F82431AE
:1006500013B10968002098472168A288A379C5F8DA
:100660002C11A5F8302185F83231002038BD002941
:10067000FBD0022AF9D10C4AD2F82031002BF4D059
:100680000988D2F834019847EFE70029EDD0072A0E
:10069000EBD1054BD3F82C210A60B3F830218A80C6
:1006A00093F832318B71E0E7882300202DE9F8437D
:1006B000194D2C68C4F5006888450E46074619D3C5
:1006C00005F59C7020443946324686F077F934446B
:1006D000C4F30A042C606B6803F2FF731B1BC3F3A3
:1006E0000A03802B9DBF012385F8283102200020BA
:1006F000BDE8F88305F59C79014609EB0400A4F5F3
:1007000000644246344486F059F907EB080122465A
:10071000484686F053F9DDE7882300202548D0F8C5
:100720008C291379022B00D0704710B4224B234C34
:1007300092F9101001EB810104EB8101496EB1F8CF
:1007400008C01CF0020F08D00989090605D4936877
:100750009B0718D45DF8044B7047013B08D000BFDD
:10076000D0F88C2911790229E2D05DF8044B70474A
:1007700090F850190131C9B2072980F85019E6D90B
:1007800080F85C39E3E7D0F890190D4B0D484FF431
:10079000FA7404FB01F1A3FB013144688909436841
:1007A0001B1B9942FBD25369002BD3D01A689B883C
:1007B0001383CFE788230020A186010000000020DA
:1007C000D34D6210001000E0034B93F85C09003831
:1007D00018BF0120704700BF882300200E4BD3F8BC
:1007E000882942B1106891880269114203D1002220
:1007F00083F85C29704793F850290132D2B2072A56
:1008000083F85029F3D8D3F89429C3F84C2901224E
:1008100083F85C29704700BF88230020034B93F8BE
:100820005C09032894BF0020012070478823002022
:1008300000487047E82C002030B4184B00209C7B07
:1008400014B11D688D4206D00130082803F1100351
:10085000F5D130BC7047D2B1114B03EB40218A4235
:1008600011D0104B93F8B42112B9012283F8B421AE
:100870000D4B01225A7000F5817003EB0013012229
:100880009A7130BC7047022CEBD1183BF3E7064B52
:1008900000F5817003EB00139A71DAE74C6A0020CF
:1008A0004C5A0020346A0020345A002030B41D4CC9
:1008B000002384F8A03004F1180004E00133082B71
:1008C00000F110001ED005688D42F7D190F80EC0DF
:1008D000BCF1030FF2D1BAB1134901EB43208242BC
:1008E00009D094F8B42112B9012284F8B4210F4937
:1008F00001224A7000E0183903F5817301EB0311FE
:1009000001238B7130BC70470849D4F89C2003F553
:10091000817301EB0313013204219971C4F89C2007
:10092000F0E700BF346A00204C5A0020345A0020FF
:10093000A8B183681BB10E4B07229A7070470C4A0E
:100940001178D36003294FF0040014BF4FF4807175
:100950008021C2E901111361137590707047044A38
:1009600002F580510123537081F8B431704700BF04
:10097000345A002010B58121044681F04DFF2046F5
:10098000012181F049FF2046822181F045FFFFF7D8
:100990004BFE002010BD00BF034610B4D9691A6990
:1009A000002040F20114A3F844410860D1699C6D15
:1009B00021F002014FF0010CD161A3F89CC320602B
:1009C000D369044923F4003381F898095DF8044B96
:1009D000D361704788230020202301480B80704793
:1009E000B4000020122301480B807047D40000207F
:1009F000042301480B807047E80000200A4608B530
:100A0000054920B90548FFF75DFD034808BD0448C6
:100A1000FFF758FD004808BD242D0020801D09085F
:100A2000981D090810B5044C04480A462146FFF7F2
:100A300049FD204610BD00BF242D0020B01D09082F
:100A40001C48D0F8E837D0F8EC2710B59B184FF0C9
:100A50001A040C8001D1184810BD174AD0F8EA07D3
:100A600002F1100411464FF0000E4FEA137CB3F16F
:100A7000204F34BF0CF1300C0CF1370C81F802C060
:100A800081F803E002318C424FEA0313EDD102F109
:100A900008040021030FB0F1204F34BF3033373347
:100AA0009374D174023294424FEA0010F2D102489A
:100AB00010BD00BF00F0FF1FEC00002010B5044C7B
:100AC00004480A462146FFF7FDFC204610BD00BF42
:100AD000242D0020C41D090810B5044C04480A4602
:100AE0002146FFF7EFFC204610BD00BF242D00205B
:100AF000D01D090838B5084BD3F89C3A53B1DB69CF
:100B000014460D4698474FF4007302682A6000208F
:100B1000236038BD1B68FFDE8823002008B5064B24
:100B2000D3F89C3A23B11B699847013840B208BDFD
:100B30004FF0FF3008BD00BF882300200020704721
:100B400000207047704700BF704700BFD0ED007AAB
:100B5000D0ED036A30EE677AE6EE877AB0EE670A88
:100B6000C0ED007A704700BF90ED017AB5EE407A93
:100B7000F1EE10FAF0EE407A09D19FED0D7A60EEB9
:100B8000870AF7EE006A86EEA07A80ED017A31EEF0
:100B9000077A90ED000A80ED021AC1EE076A77EE3F
:100BA000C07AC0ED036AA6EEA70A80ED000A70477E
:100BB000DB0FC940D0ED056AD0ED017A90ED066AF1
:100BC000D0ED025A90ED035AC0ED066AB0EE407ABD
:100BD00026EEA70AD0ED007A80ED057AA7EE870A07
:100BE000D0ED077AA5EE860A90ED086AD0ED045A9A
:100BF000C0ED087AA5EE670AA5EEC60A80ED070AE1
:100C0000704700BFF0EE406AD0ED007A90ED050A23
:100C100090ED037A90ED016AD0ED025AA7EEA60A94
:100C2000D0ED047A27EE407A67EEC07AA6EE267AF7
:100C3000E5EEA67A90ED066AC0ED067A36EE076A12
:100C400080ED056A704700BF03685A1C0260197086
:100C5000704700BF2DE9F04FD0E90031856889B0B9
:100C60004A1C00EB81045918F1EE407A0591002DE1
:100C700092FBF3F103FB1122426000F1800A84ED44
:100C8000200AC4ED407A00F5807240F38780691C29
:100C9000012603F1FF3B06914FF002090795B64686
:100CA0000599A1EB090090FBF3F103FB1100411C36
:100CB00091FBF3F403FB14110AEB800802EB800CA8
:100CC000F14501EB0E00D8ED006A90FBF3F49CEDCA
:100CD000006AA3EB090603FB140055DDCDE901987A
:100CE000CDE903C637460D46044641E0AB420AEB68
:100CF000840902EB840804F1010441DD0AEB850C50
:100D000002EB85060135DCED007AD8ED005A96ED50
:100D1000007AF4EEE67AF1EE10FA0FDD99ED005A62
:100D2000F4EEC57AF1EE10FA08DDB4EEE65AF1EE13
:100D300010FA58BFF0EE456ACCED006AB4EEC67A00
:100D4000F1EE10FA0DDDB4EEE57AF1EE10FA08DD01
:100D5000F4EEC65AF1EE10FA58BFB0EE656A86EDB1
:100D6000006A01375F4530DAB0EE476AF0EE676A35
:100D7000A342BBDCAB429046D1464FF00104BDDC40
:100D80001646D4460125BEE706990EF1010E7145BF
:100D900009F102090BF1FF3B82D1079D0599491B1F
:100DA00091FBF3F003FB10130AEB830102EB8303C7
:100DB00091ED000A93ED007A30EE470AF6EE007AE4
:100DC00020EE270A09B0BDE8F08FDDE90198DDE9E2
:100DD00003C698ED006ADCED006A41E08B420AEB45
:100DE000800C02EB800700F1010041DD0AEB810578
:100DF00002EB81040131D5ED007AD7ED005A94ED74
:100E0000007AF4EEC67AF1EE10FA0FD59CED005A96
:100E1000F4EEC57AF1EE10FA08D5B4EEC65AF1EE4A
:100E200010FAD8BFB0EE456A85ED006AB4EEE67AF6
:100E3000F1EE10FA0DD5B4EEE57AF1EE10FA08D520
:100E4000F4EEE65AF1EE10FAD8BFF0EE656AC4EDA2
:100E5000006A01365E4597DAF0EE476AB0EE676ADF
:100E60008342BBDC8B421746D4464FF00100BDDC09
:100E7000144655460121BEE703685A1C02601970EA
:100E8000704700BF024BD3F8A00A03681B681847DD
:100E9000882300202DE9F843234E8146D6F8947923
:100EA0000A4604E0D6F89439DB1B322B39D896F881
:100EB000A43A002BF6D192B34A4402F1FF3809F16B
:100EC000FF39F36832690133C3F30A039A4219D137
:100ED000D6F89439DB1B322B23D80EF0BDFE044626
:100EE0000D460EF0B9FE001B61EB0501B0F57A7FEF
:100EF00071F10001F5D3F36832690133C3F30A03DA
:100F00009342E5D0F268F36819F8011F32440133C7
:100F1000C3F30A03C14582F8A81AF360D1D10020B7
:100F200000E00220BDE8F88388230020F8B50E4ECB
:100F3000B36803B9F8BDB368052BFBD10B4B1B7825
:100F4000002BF7D0002AD6F894790D461446F1DD2F
:100F500021462846FFF79EFFD6F894390028E9D0AD
:100F6000DB1B322BF4D9F8BD8823002000000020C1
:100F70002DE9F041DFF89480224FD8F85822D7F8B5
:100F80009C3AB8F85C1211834BB39B69984730B315
:100F90000026D7F89C3A13B11B69984790B9B6F56B
:100FA0007A7F25D00EF058FE013604460D460EF02D
:100FB00053FE001B61EB0501B0F57A7F71F1000172
:100FC000F5D3E6E7D8F85832B8F85C225A83B6F57C
:100FD0007A7F4FF0FF3018BF0020BDE8F0810A4B48
:100FE00003F58472C7F89C2AD3F808319847CFE7F5
:100FF000D8F85832B8F85C225A834FF0FF30BDE879
:10100000F08100BF882300200000002080340020F1
:101010002DE9F84FDFF8C0A0DAF84C029046BAF894
:1010200050224283002B48D09B462A4F8946C34416
:1010300041F28936D7F89C2A5AB1002354684946B0
:101040001A464046A047A8B9D7F89C3A0BB11B698D
:101050009847013E35D00EF0FFFD04460D460EF0D8
:10106000FBFD001B61EB0501B0F57A7F71F100011A
:10107000F5D3DFE741F28936D7F89C3A13B11B6903
:10108000984780B9013E1CD00EF0E6FD04460D469F
:101090000EF0E2FD001B61EB0501B0F57A7F71F106
:1010A0000001F5D3E8E708F10108D84509F5007912
:1010B000BED1DAF84C02BAF8502202830020BDE813
:1010C000F88FDAF84C32BAF850221A834FF0FF301A
:1010D000BDE8F88F88230020803400202DE9F84FE8
:1010E000DFF8C8A0DAF84C029046BAF850224283E2
:1010F000002B4CD09B462C4E8946C344D6F89C2AE4
:101100000AB341F289370023D46849461A4640465B
:10111000A047D6F89C3AB8B10BB11B699847013F7C
:1011200039D00EF099FD04460D460EF095FD001BDA
:1011300061EB0501B0F57A7F71F10001F5D3D6F8C6
:101140009C2A002ADFD1002341F2893713B11B69A1
:10115000984790B9013F1ED00EF07EFD04460D4623
:101160000EF07AFD001B61EB0501B0F57A7F71F19D
:101170000001F5D3D6F89C3AE8E708F10108D84514
:1011800009F50079BAD1DAF84C02BAF85022028394
:101190000020BDE8F88FDAF84C32BAF850221A83F2
:1011A0004FF0FF30BDE8F88F882300208034002006
:1011B0002DE9F047544E1F4606EB80039C68002C37
:1011C00000F09E8004F13E03A36104F59F73E36188
:1011D0004FF48073C4E904332836236866600546FB
:1011E000E16094F83D00A36391460BF0F5FA804668
:1011F00094F8440294F83CA0261D002852D194F89B
:10120000450250BBD4F840326BBB3B0731D419F0D8
:10121000020F5BD119F0010F47D1D4F8483294F98D
:10122000471294F847221B010029DBB20DDB374936
:10123000881880F800335009012302F01F02934000
:1012400041F820303046BDE8F087314902F00F0206
:10125000114430460B76BDE8F0877AF08FFED4F863
:101260004032002BD1D02B4A116B0B4313633B0749
:10127000CDD50135EDB207F01003B8F1000FCCD099
:1012800040F2067288F80850A8F8062094F8462222
:101290008BBB17F0200F0CBF3221122140460BF000
:1012A00095FCBAE77AF06AFEA9E750460BF094FA8B
:1012B0000135EDB20028B0D040F206620572C2805E
:1012C00094F8462202210BF081FCA6E76B1CDBB2EE
:1012D000B8F1000F9ED088F8083040F20653A8F805
:1012E000063094F84622404602210BF06FFC19F0BC
:1012F000010F92D0D9E7022140460BF067FC8CE742
:1013000026463046BDE8F0873C72080800E100E060
:10131000FCEC00E0003802402DE9F047038A8489A4
:10132000A4B21C4082B047D0814688464FF00045A9
:1013300001F14C0701F13406B4FA84F325FA03F203
:10134000D24391B2A9F8101014401B3BB8F1000F22
:101350005FD0042B2ED8DFE803F052483D32030063
:10136000D8F80C30D9F82CA033B19B6823B11FFA00
:101370008AF108F104009847D8F8243033B19B680B
:1013800023B11FFA8AF108F11C009847D8F83C30C5
:1013900033B19B6823B11FFA8AF108F134009847F2
:1013A000D8F8543033B19B6823B11FFA8AF108F1A1
:1013B0004C009847002CBFD102B0BDE8F087D8F8A8
:1013C0000C30D9F834105B6808F104009847002C01
:1013D000B2D1F1E7D8F82430D9F838105B6808F1B9
:1013E0001C009847002CA7D1E6E7D8F83C30D9F884
:1013F0003C105B6830469847002C9DD1DCE7D8F85C
:101400005430D9F840105B6838469847002C93D187
:10141000D2E7042B07D8DFE803F01903140F0A0002
:10142000D9F83C300193019B002C85D1C4E7D9F851
:101430002C300193019BF7E7D9F834300193019BDD
:10144000F2E7D9F838300193019BEDE7D9F8403045
:101450000193019BE8E700BF10B5044629B990F855
:101460001121032A0DD0002010BDD0F8E4359B696E
:10147000002BF8D090F81221032AF4D198470020CD
:1014800010BDD0F890230B46D0F87C138A4219D9AE
:10149000521AC0F8902394F803C0D0F880038A420F
:1014A00028BF0A46BCF1010F92B234D0C4E9E2234E
:1014B00004F55D71C4F88003A4F87433204681F00C
:1014C00045FAD0E7D0F8E4351B691BB190F812213A
:1014D000032A1ED000234FF480720421C4E94A334A
:1014E000C4E94C3384F81111A4F81C2104F58E7161
:1014F000204681F02BFA636D0D4A1A61E278012AC9
:10150000B1D104F2CC545C614FF0802219681A60AA
:10151000A9E79847DEE70844C4E9E22304F55D71D2
:10152000C4F88003A4F87433C4F88403C6E700BF8A
:101530001800086038B5044649B990F81131022BFB
:1015400011D094F81631012B39D0002038BDD0F8D5
:10155000E4355B69002BF8D090F81221032AF4D10E
:101560009847002038BDD0F83831D0F82421934274
:101570002FD990F803C09B1ABCF1010F0D46C0F89B
:101580003831D0F828116ED09BB2C0F830314FF40A
:101590008073C0E94A11C0F8345100F58E71A0F88B
:1015A0001C3181F0D3F9C4E9E255C4F8805304F545
:1015B0005D71A4F87453204681F0C8F9C1E73F4B30
:1015C0002269D3F8FC135160002384F816310020FF
:1015D00038BDD0F83C31B3FBF2F502FB15350DBB3D
:1015E0009A421FD8D0F8402193421BD24FF4807307
:1015F000A0F81C3100F58E71C0E94A55C0E94C5580
:1016000081F0A4F9E378C4F84051012BC4E9E25514
:10161000C4F88053A4F8745308BFC4F8845304F585
:101620005D71C8E7D4F8E435DB681BB194F812218A
:10163000032A15D0E27800230521012A84F811112C
:10164000C4E9E233C4F88033A4F8743304F55D715F
:1016500024D0204681F07AF9636D194A1A6170E747
:1016600020469847E6E79BB21144C0F830314FF46A
:101670008073C0E94A11C0F8345100F58E71A0F8AA
:101680001C3181F063F9C4E9E255C4F8805304F5D4
:101690005D71A4F87453C4F884538CE7C4F88433A0
:1016A000204681F053F9636D0548186104F2CC526D
:1016B0005A614FF080211A68196042E78034002097
:1016C0001800086070B5264C0025636822689A42AD
:1016D0001FD0626863680133C3F30A036360616803
:1016E000236894F82831224492F838510BB92846DF
:1016F00070BD01266368226803F2FF739B1AC3F36F
:101700000A03802B0BD8002EF1D1636822689A421D
:10171000DFD194F82831002BD7D00026EAE7114B0F
:1017200093F80314002201290F4984F828214FF06F
:101730004000C3F8B4274FF00102A3F89C27C3F878
:10174000B00703F6F412A1F5677008BFC3F8AC2721
:10175000C3F8A82781F05CF9002ED6D0C7E700BFF8
:1017600088230020803400201C3C0020F8B5244C45
:1017700094F8A42A012A034603D0022A09D00020A3
:10178000F8BD204ED6F8345A8DB984F8A45A0020FA
:10179000F8BD002540F20112C0E95455C0E9565584
:1017A000A0F8442100F5A27181F032F9EDE7402D57
:1017B0001DD940272169144AC3F858710A44C3E966
:1017C000542240F20112A3F844210022C3F85C2104
:1017D00003F5A271184681F01BF923693B44ED1B08
:1017E000C3F30A032361C6F8345A0020F8BDAAB235
:1017F000402A01D02F46DDE7022284F8A42AD8E748
:101800008823002080340020302E002001EB81014D
:1018100038B500EBC1010E4DB1F88C1304462846D3
:10182000FEF744FF88B9E378C4F8A85301214022A9
:10183000012BC4E9EC20A4F89C1308BFC4F8AC53F6
:1018400004F56771204681F0E3F8002038BD00BF41
:10185000743E0020F8B5254CD4F8383A0E2B04D845
:101860000133C4F8383A0020F8BD214D95F8A43A68
:101870000022C4F8382A002BF5D12A69EB689A4275
:10188000F1D02A69EB689A4229D92E69C6F500661B
:10189000402E28D8B3B2402B13BF3746402702232F
:1018A00001232A6985F8A43A124BC0F858711344F1
:1018B000C0E9543340F20113A0F844310023C0F8CA
:1018C0005C3100F5A27181F0A3F82B693B44F61B53
:1018D000C3F30A032B61C4F8346A0020F8BDEE6834
:1018E0002B69F61AD4E701234027DAE78034002079
:1018F00088230020302E002010B5324B93F8482A60
:1019000093F85CCAD3F8443A044613B152EA0C0285
:1019100031D00123E06984F8463140F20112A4F885
:10192000442102682849002AA8BFC2F380739B03A0
:1019300001EA124143F020030B4363F31F42BCF161
:10194000020F026000D010BDE278204BC4F8A8332B
:101950001F200021C4E9EC01012A4FF00101A4F885
:101960009C1308BFC4F8AC3304F567712046BDE88A
:10197000104081F04DB8012180F014FF0122E06990
:1019800084F8462140F20113A4F84431016800298B
:101990000A460CDBC1F380730B4C9B0343F020031E
:1019A00004EA11410B4363F31F42026010BD064B72
:1019B00003EA114343F4804343F0200363F31F42DF
:1019C000026010BD80340020DFBFFFFFBC3E00205E
:1019D00090F848305A1C0344D2B280F8482083F86B
:1019E000341090F849300BB1132A01D981F0C4B8F2
:1019F000704700BF002280F8492081F0BDB800BFC9
:101A00002DE9F041B0F8CC15D0F8CE35B0F8D2556C
:101A1000B0F8D085C0F84051012284B080F811217F
:101A200001F01F02012A044600F2CC56ADF808105E
:101A3000C1F3072ECDF80A30ADF80E504FEA134C23
:101A400051D0022A7746C9B29BB210D0002A55D194
:101A5000BEF1090F4BD8DFE81EF08900AD004A0047
:101A6000C8004A005C01DF004A001301330101F0A5
:101A7000600120295FFA8CF272D0012F00F0B8814A
:101A8000032F00F0A181AFBB90F81231022B00F0C0
:101A9000E381032B2BD11CF0800F40F0E98102EB96
:101AA000820200EBC20393F87623003A18BF0122AA
:101AB000C24D02234FF48071C4E94E3384F81131D2
:101AC000C4F83031A4F81C1105F668230021C4F8CD
:101AD0003411C4E94A3304F58E712046C5F8682AEA
:101AE00080F034FF06E090F81231032B0ED0204630
:101AF00080F020FE002004B0BDE8F08101F08001FC
:101B000080F050FE002004B0BDE8F0815FFA8CFC4C
:101B1000BCF1010FEBD8D0F8E43502A99B689847D7
:101B2000BDF80E30002BE5D1C4E94A33C4E94C338B
:101B300004214FF4807284F81111A4F81C2104F5DB
:101B40008E71204680F002FF636D9D4A1A61E27833
:101B5000012ACFD15E614FF0802219681A60C9E76F
:101B6000D0F8E43502A99B689847C3E790F8123192
:101B7000023B012BBBD8914BD0F818210021C3F8B0
:101B8000641A12B10222C3F8642A8E4A02234FF467
:101B900080700021C4E94C31A4F81C01C4E94E3323
:101BA000C4E94A2284F8113104F58E71204680F090
:101BB000CDFE9FE790F81221023A012A97D8012B17
:101BC00098D1D0F8E43500259B68C0F8185102A9D7
:101BD000984704224FF48073C4E94A55C4E94C5530
:101BE00084F81121A4F81C31A9E7012B00F03B81F6
:101BF000022B7FF47FAF5FFA8CF3002B7FF47AAF78
:101C000003694FEA1C22023A5B68032A00F2BD8195
:101C1000DFE802F0B6CED2D01E0A022EADF8065092
:101C200000F08A81032E00F04E81012E7FF45FAF19
:101C3000D0F8EC3580781B680DF106019847BDF8A7
:101C40000630002B3FF456AFBDF80E20002A3FF4BB
:101C500051AF934228BF13464FF480720221A4F87B
:101C60001C210022C4E94A0084F81111C4E94E3352
:101C7000C4E94C3204F58E71204680F067FE39E7E6
:101C8000012D7FF434AF90F81231022B00F008815F
:101C9000032B7FF42CAF4FF4807200F58873022180
:101CA000A0F81C21002280F81111C0E94E55C0E9AE
:101CB0004A33C0E94C5200F58E7180F047FE19E7B7
:101CC000DDB23E4F012D87F85D5A3FF610AF90F818
:101CD0001231022B00F0D880032B7FF408AF002DC7
:101CE00000F0358190F81011012910D0D0F8E435BA
:101CF0005B68984797F85D1AD4F8E43584F81011BA
:101D00001B6820469847D4F8E8359B68984700231D
:101D10000AE758EA05027FF4EAAE90F812110329A7
:101D20003FF4E5AE03F07F0580F8145100691146D9
:101D300063F30A11036819430423016084F8113125
:101D40004FF48073C4E94A22C4E94C22A4F81C3140
:101D500004F58E71204680F0F9FD636D184A1A6112
:101D6000E278012A06D0002D00F0FC80022384F8DE
:101D70001231BFE65E614FF0802219681A60F2E707
:101D800002210E4861F306130022C0F8FC3304233D
:101D9000C4E94A22C4E94C2284F8113101224FF4EB
:101DA000807304F58E7184F81621A4F81C31C8E6FE
:101DB0000321E6E70521E4E70421E2E7803400207F
:101DC00018000860E43E002090F81211022943D068
:101DD00003297FF48CAE23B9510602D0114680F05E
:101DE000E1FCD4F8E4359B6802A9204698478EE7C9
:101DF00090F8121102292FD003297FF478AE002B1E
:101E00007FF478AE12F07F0181D01CF0800F40F09B
:101E1000AD8002EB820100EBC10181F8763381F8DD
:101E20007533282381F8742303FB020300EB82013E
:101E300093F87723496D0B68023A012A23F40013C3
:101E40008CBFC3F30072012262F31C73D4F8E42543
:101E50000B60936802A9C8E753063FF44BAE1146E6
:101E600080F0A0FC46E6D0F8E425C0F81831F0E791
:101E700002F07F0202EB820200EBC20393F81E2104
:101E8000003A18BF012213E6002D3FF4A2AE012153
:101E90000322D0F8E43580F8101180F812212FE7E2
:101EA0003B4A80F811314FF480710023A0F81C11D7
:101EB000C0E94E55C0E94A22C0E94C5300F58E7185
:101EC00080F044FD16E6DBB2052B3FF610AEDFE8EE
:101ED00003F02B231B130B03D0F8EC3580789B69A0
:101EE0000DF106019847AAE6D0F8EC3580785B69D9
:101EF0000DF106019847A2E6D0F8EC3580781B6911
:101F00000DF1060198479AE6D0F8EC358078DB6849
:101F10000DF10601984792E6D0F8EC3580789B6881
:101F20000DF1060198478AE6D0F8EC3580785B68B9
:101F30000DF10601984782E6D0F8E43580789B6A77
:101F40000DF1060198474670C4F8F00577E60222C5
:101F5000D0F8E43580F8122180F810515B682946EA
:101F6000984736E6012384F81231C3E5282202FBA4
:101F7000010080F81C1104EB810180F81E3180F80B
:101F80001DE190F81F21896955E70121F9E600BF9D
:101F9000E03E002070B50B7813F060020D46044659
:101FA00024D0202A04D0204680F0C4FB022070BD3B
:101FB000CA8848781AB31B0640D5314E3146FEF721
:101FC00039FBEB884FF480720221A4F81C21002217
:101FD00084F81111C4E94E33C4E94A66C4E94C32AD
:101FE00004F58E71204680F0B1FC06E04B780A2B98
:101FF00010D00B2B08D0062BD5D0002070BD0222AC
:102000001144FEF717FBF8E78B78B3BB1D4AC2F803
:102010006C3AF2E7022180F811114FF48071A0F8B8
:102020001C1119490123C0E94A11C0E94E33C0E926
:102030004C3200F58E7180F089FCDEE71349144BB9
:102040004860E0785A610021183301284FF00305F9
:10205000C4F88C13A4F87413C4E9E42284F8115171
:10206000C4F88823C4F8803304F55D7108BFC4F850
:102070008433204680F06AFCBFE780F05BFBBCE75E
:10208000A023002080340020EC3E0020000000202F
:1020900088230020002310B519460446402280F012
:1020A000EBFB802120460023402280F0E5FBD4F8A2
:1020B000E835A078012284F812215B689847002057
:1020C00010BD00BF10B5022304464022812180F0DC
:1020D000D3FB204602234022012180F0CDFB204685
:1020E00003230822822180F0C7FB104B0222A3F8B1
:1020F0005020FEF789FAE2780D4BC4F8A83340214E
:10210000C4F8B013012A4FF000004FF00101C4F8E9
:10211000B403A4F89C13204604F5677108BFC4F803
:10212000AC3380F075FC002010BD00BF0000002023
:10213000743E002030B5812183B0044680F06CFBF2
:102140000121204680F068FB2A4900250223402215
:1021500081F898592046812180F08EFB01210223CD
:102160004022204680F088FB234BD3F8702A83F866
:102170005C5A1268284690470095009AE1681F4B08
:1021800042F010020092009A0A610A690092013B33
:1021900002D0009AD006F8D400230193019B43F0AB
:1021A00020030193019A154B012060F38A120192DA
:1021B000019A0A610A690192013B02D0019A9206D2
:1021C000F8D4E2780E4BC4F8A8331F200021C4E9EC
:1021D000EC01012A4FF00101A4F89C13204604F5FC
:1021E000677108BFC4F8AC3380F012FC002003B064
:1021F00030BD00BF8823002080340020410D030043
:10220000BC3E00202DE9F047294FDFF8AC90294C67
:10221000DFF8A8A082B000F10108002606E09DF8D2
:102220000700FF282FD1013646452CD0D7F88C590E
:1022300095F91030AA6803EB830309EB8303920737
:10224000586E23D5012300220DF1070180F012FD05
:10225000AB689B07E3D4D7F8902961684FF4FA7311
:1022600003FB02F2AAFB0232920963685B1A9A42EC
:10227000FBD26B69002BD2D09DF807001A689B88AF
:102280001383FF28CFD002B0BDE8F0876B6913B18C
:102290001A689B885383D7F890296168D200AAFBFB
:1022A0000232920963685B1A9A42FBD2CAE700BF06
:1022B00088230020001000E000000020D34D6210B1
:1022C00070B5044608200D46FFF79CFFFF2814D088
:1022D000FE2801D0022070BD094E2B46D6F88C098D
:1022E0002146002280F012FD0022D6F88C0902233C
:1022F000114680F00BFD002070BD012070BD00BFB5
:102300008823002070B52E4C2E4AD4F88C5995F9AC
:10231000103003EB830302EB8303AA6882B0002032
:102320004FF6FF519207C4F85809ADF80410586EE3
:1023300033D5022301AA002180F09CFCAB689B07E7
:1023400014D50120FFF75EFFFF2809D0D4F8943997
:10235000C4F84C390020092384F85C3902B070BD00
:102360000423022084F85C3902B070BDD4F89029AF
:102370001549164B48684FF4FA7606FB02F2A3FBA8
:10238000023292094B681B1A9A42FBD26B69002BEE
:10239000D7D01A689B881383D3E76B6913B11A6887
:1023A0009B885383D4F890290749084B4E68D20084
:1023B000A3FB023292094B689B1B9A42FBD2B8E7FF
:1023C0008823002000000020001000E0D34D6210A0
:1023D00070B540F04002002362F307030A0E62F377
:1023E0000F230A0C82B062F317430A0A62F31F63D9
:1023F0009522044600938DF804108DF8052079F09D
:10240000FFF908B9002C48D1254D264AD5F88C494A
:1024100094F91030A16803EB830302EB83038A076E
:10242000586E0CD506236A46002180F023FCA36871
:102430009B0717D5082002B0BDE87040E2E663694B
:1024400013B11A689B885383D5F890291649174B06
:102450004E68D200A3FB023292094B689B1B9A4242
:10246000FBD2DFE7D5F890290F49104B4FF4FA70F3
:1024700000FB02F2A3FB0232486892094B681B1A68
:102480009A42FBD26369002BD4D01A689B881383CD
:10249000082002B0BDE87040B4E6FF2002B070BD75
:1024A0008823002000000020001000E0D34D6210BF
:1024B0002DE9F0412A4C82B00546884617461E4653
:1024C00094F85C0904280BD0082807D1D4F85439B3
:1024D000AB423DD0FFF716FF0228F1D0012032E0D9
:1024E000D4F88C0907F00AF994F8533973BB6902E0
:1024F0001820FFF76DFF68BB94F85C39082B27D0D4
:10250000FE238DF80530FF23D4F88C098DF80430B4
:1025100001AA0223002180F0F9FBD4F88C09802362
:102520004246002180F0F2FB01220623C4F83889DC
:10253000C4F83C59C4F84479C4F8486984F840297F
:1025400084F85C39002002B0BDE8F0812946CFE76D
:10255000FC23D6E7FEF7E2F8FEF740F90320F2E7A6
:102560008823002070B51E4C94F85C39042B064675
:102570000D4609D0082B25D1D4F8543983421FD0F9
:10258000FFF7C0FE02281DD1D4F88C0907F0B6F879
:1025900000213720FFF71CFF29461720FFF718FFFF
:1025A000C0B994F853397BB971021920FFF710FFB5
:1025B00080B9082384F85C39C4F85859C4F85469C0
:1025C000022070BD012070BD31461920FFF700FFC9
:1025D0000028EED0FEF7A2F8FEF700F9032070BD48
:1025E000882300202DE9F0411C4C054694F85C0935
:1025F0000428884617461E4608D0082802D0002026
:10260000BDE8F081FFF77EFE0228F8D1D4F88C09EE
:1026100007F074F894F85339B3B969021120FFF741
:10262000D7FEB8B90522D4F8943984F85C29C4F8E7
:102630003889C4F83C59C4F84479C4F84869C4F8E6
:102640004C390120BDE8F08129461120FFF7C0FE7A
:102650000028E7D0FEF762F8D1E700BF882300200A
:10266000F0B5D44CD4F88C0985B000285BD094F830
:102670005C596B1E082B4ED8DFE813F041010900AE
:10268000E1004D00B8007F0067004D005700D4F80E
:102690008C0907F033F894F85259A5F10205B5FA00
:1026A00085F56D090021AD073720FFF791FE29461A
:1026B0002920FFF78DFE0546FEF730F8ADB994F8F6
:1026C0005239D4F88C09022B00F0B881D4F88C0967
:1026D00084F8535907F012F800210920FFF778FE1B
:1026E000002800F06B81FEF719F8D4F88C0902215C
:1026F00006F0B2FF94F85C596E1EF6B2022E0AD8AC
:10270000D4F89439D4F84C299B1AC82B06D9FEF773
:1027100065F894F85C59042D00F02081A5F10800BB
:10272000B0FA80F0400905B0F0BD79F069F80028F2
:1027300040F00F81D4F84C39D4F89429FA339342FD
:1027400080F02C81FEF74AF891E779F059F80028DB
:10275000F0D0D4F858390022012B84F8502940F2E7
:10276000C281D4F854290825013B0132C4F85839F4
:10277000C4F8542984F85C59D0E794F84019D4F887
:102780003829D4F88C09802302EBC112002180F093
:10279000BDFA94F840390133DBB2042B84F8403998
:1027A00040F0FC80844AD4F88C090223002180F098
:1027B000ADFA0123D4F88C090022694680F0A6FA0C
:1027C0009DF8003003F01F03052B00F06B81FEF72E
:1027D00005F8D4F84459002D3FF449AFD4F84839EE
:1027E000D4F83C1900220120A84740E7D4F8380962
:1027F0004FF40071FFF764FD0128054600F0B18039
:10280000022800F0B580002840F0C880FDF786FF60
:10281000D4F8446984F85059042384F85C39002EB4
:1028200000F09C802846D4F84839D4F83829D4F8E8
:102830003C19B04794F85C596E1EF6B25EE7102161
:102840006846FFF73DFD00287FF44FAF9DF800205C
:102850009DF803109DF80D30BDF80650A4F86A5994
:1028600062F3070061F30F209DF80410BDF801200A
:1028700061F317409DF8051052BA61F31F60A4F888
:1028800064291B019DF80E209DF80810C4F8660904
:10289000DBB2DDF8090043EA121303F5FA630D0910
:1028A00000BA01F00F0102F00F02A4F8723984F8A7
:1028B000705984F87119C4F86C0984F87429FDF70B
:1028C0002DFF94F8533973B9D4F88C0906F016FF2C
:1028D0004FF400711020FFF77BFD0546FDF71EFF4A
:1028E000002D7FF42FAFD4F88C09022106F0B4FE3E
:1028F00000220423C4F8582984F85C39B7E6D4F8D8
:102900008C0906F0FBFE00210846FFF761FD054635
:10291000FDF704FF012D40F0BB80D4F88C090026A0
:1029200084F8526906F0EAFE40F2AB110820FFF786
:102930004FFD05283AD0012800F09880FDF7EEFE03
:1029400094F85259002D00F0C680022384F85C39B7
:102950008DE6FDF7E3FE042384F85C39012005B021
:10296000F0BDD4F84C39D4F894296433934215D28D
:10297000FDF7D4FEFDF732FFD4F84459002D3FF4A3
:1029800076AE0022D4F84839D4F83C191046A8474E
:102990006DE6FFF7B7FC022800F0AA8094F85C59B6
:1029A0006E1EF6B2022E7FF6ABAEB4E684F8525934
:1029B000C4E700BF882300209872080875481021DA
:1029C000FFF77EFC00287FF48EAE94F8873913F071
:1029D00001033FF488AE94F87829921100F08F80BB
:1029E000012A7FF480AE94F87F296B4E9200D2B218
:1029F00016210225C5F108038B4228BF0B46C3F1FF
:102A000008052A419840C91A40EA02004FF0000523
:102A100016F8012FEED101308002C4F86009FDF7ED
:102A20007DFED4F88C0906F069FE00210A20FFF72C
:102A3000CFFC50BB032384F85C3918E606F05EFE39
:102A400029463A20FFF7C4FC2A4604230546694676
:102A5000D4F88C0980F05AF9FDF760FE002D7FF460
:102A600071AE009D2DBAC5F380752FE60423D4F80E
:102A70008C093246694680F049F99DF80330AB2B4A
:102A800004BF022384F8523958E7FDF747FE59E6A0
:102A900094F85C59D4F88C096E1E0221F6B206F047
:102AA000DBFD2BE6D4F84469D4F89439C4F84C39EA
:102AB000072584F85C59002E3FF430AED4F848392D
:102AC000D4F83829D4F83C190120B04794F85C595F
:102AD0006E1EF6B212E6D4F88C0984F85C59022115
:102AE00006F0BAFD1AE63FF454AF042384F85C39CB
:102AF000FDF714FE94F85C596E1EF6B2FEE594F8EC
:102B00007D1994F88159254F01F00F01AD0103FAA9
:102B100001F1EDB2104603230626C6F108029A42DF
:102B200028BF1A46C2F10806354190409B1A40EA78
:102B300005004FF0000617F8015FEED194F87EC94A
:102B4000174F4FEA8C1C02305FFA8CFC0C250622D2
:102B500000E00022C2F10802AA4228BF2A46C2F1C0
:102B600008064CFA06F69340AD1A17F801CF43EA6F
:102B70000603EED101338340C817A3FB011203FB08
:102B80000022490A41EAC251C4F86019FDF7C6FDA6
:102B900047E700BF002D0020072D0020092D002051
:102BA000062D0020F8B500220D23382102200AF05E
:102BB00045F82E4DC5F88C09A0B3002106F04CFD58
:102BC0000DF04AF804460E460DF046F8001B61EB86
:102BD0000601B0F57A7F71F10001F5D3D5F88C29A3
:102BE000536913B119689B880B8392F91030204EFA
:102BF00003EB830306EB83030022586E11460A237E
:102C000080F038F8D5F88C793B79022B0DD0012271
:102C10000023D5F8941985F85C2985F85039C5F852
:102C20004C19F8BD85F85C09F8BD97F91030114CC6
:102C300003EB830306EB83014B6E1A89920702D5DF
:102C40001B891B06E3D5013CF6D10221384606F06C
:102C500003FD384609F09EFF95F8503985F85C4928
:102C6000013385F85039C5F88C49F8BD8823002018
:102C700000000020A18601001049114BD1F88820E6
:102C800042F4700210B4C1F888201A680D4C00207C
:102C900042F001021A6098601A6822F0847222F4ED
:102CA00080321A605C601A68074C22F480221A6035
:102CB000D8608C605DF8044B704700BF00ED00E009
:102CC000003802401030002400000008704700BFA8
:102CD0002DE9F84345697DB90768C7F30D08044637
:102CE0000E46B8F1000F0AD0D6F80080FDF726FB9B
:102CF00009283BD06FF001052846BDE8F883514B09
:102D00009F422AD303F580439F4224D303F5804397
:102D10009F427FD34C4B9F427FD903F580339F4224
:102D20007ED903F500339F427DD903F500339F42DE
:102D30007CD903F500339F4269D903F500339F42E4
:102D400077D903F580239F4276D9B7F1016F76D307
:102D500005200CF0DDFF4FF00808FDF7EFFA092819
:102D600021D04FF0FF352846BDE8F883374E336950
:102D700023F440733361336943F40073336133697F
:102D800043F001033361C7F80080FDF7D7FA3369D8
:102D9000092823F001033361ACD123680433236095
:102DA0002846BDE8F883DFF8A490D9F8103023F462
:102DB0004073C9F81030D9F8103043F40073C9F8E3
:102DC0001030D9F8103023F0F803C9F81030D9F8D2
:102DD000103043EA080343F00203C9F81030D9F871
:102DE000103043F48033C9F81030FDF7A7FAD9F852
:102DF000103023F00203C9F81030D9F81030092838
:102E000023F0F803C9F810303FF46EAFA9E74FF094
:102E10003808A2E74FF010089FE74FF018089CE72A
:102E20004FF0200899E74FF0280896E74FF0300858
:102E300093E74FF0400890E74FF048088DE74FF0D8
:102E400058088AE700400008FFFF0008003C0240E5
:102E50000148FDF7DDB900BF2C0100200148FDF756
:102E6000D7B900BF780300200148FDF7D1B900BFF2
:102E7000C40500200148FDF7CBB900BF10080020B1
:102E80000148FDF7C5B900BF5C0A00200148FDF705
:102E9000BFB900BFA80C0020704700BFB0B130B46C
:102EA00043688D685A791C68022393404A689BB234
:102EB0006AB1A2899DB192B213438160A381A389B3
:102EC0009BB243F00103A38130BC70477047A289D5
:102ED00092B222EA0303A38165B18160EFE722F099
:102EE00001021204120CA281A289816092B21343E2
:102EF000A381E9E7A38923F001031B041B0CA38131
:102F00008160E1E730B40C4C0022234604E001323A
:102F10000D2A03F114030CD093F804C08445F6D1B4
:102F2000DD68294201D10029F1D1142303FB0240BD
:102F300000E0002030BC7047F00E002038B5D0E92A
:102F4000004007EE902A0068324A334B2468D3F8D9
:102F5000F43F2468013990428DB210D002F58062AE
:102F600090420CD002F57052904208D002F5806277
:102F7000904204D002F58062904218BF5B0807EED1
:102F8000103AF8EE677AB8EE477ADFED246A87EEFA
:102F9000270A30EE260A82F0A5F91E492388421E30
:102FA0008C4292B29BB21AD01D498C4217D0B4F118
:102FB000804F1FD0A1F580318C421BD001F580617C
:102FC0008C4217D001F580618C4213D015498C4298
:102FD00019D123800123E5622285A38238BD23F421
:102FE0005C739BB223800023E56222852386012344
:102FF000A38238BD23F45C739BB223800123E56276
:103000002285A38238BD08498C42E2D023F4407364
:103010009BB2DEE700000140000000200AD7233CFD
:1030200000040140001000400014004070B54268E8
:10303000937903F0020E13F004033AD175469C46CF
:103040009E464FF4807001235479032C30D8DFE87A
:1030500004F08E6202361468704E228C22F4807264
:103060001204120C2284228C22F4007212042B43CC
:10307000120CA58842EA0322A38B23F073031B04DE
:103080001B0CB442ADB243F0600300F09B8006F528
:103090008066B44200F09680A580A383E163228419
:1030A000A38B23F008031B041B0C43F00803A3832A
:1030B00070BD002005464FF0040C0346C4E71268BB
:1030C000564E148C24F480542404240C1484148C40
:1030D00024F4005424042B43240C958844EA03343C
:1030E000938B23F4E6431B041B0CB242ADB243F4B2
:1030F000C04375D006F58066B24271D09580938347
:1031000011641484938B23F400631B041B0C43F49D
:103110000063938370BD1468404E228C22F010022D
:103120001204120C2284228C22F0200212042B435F
:10313000120CA58842EA0312238B23F4E6431B04F6
:103140001B0CB442ADB243F4C04359D006F58066BF
:10315000B44255D0A5802383A1632284238B23F41A
:1031600000631B041B0C43F40063238370BD1268CF
:10317000148C24F001042404240C1484148C9688E8
:1031800024F0020424042B43240C1C43138B234DF2
:1031900023F073031B041B0CAA42B6B243F0600376
:1031A00023D005F58065AA421FD096801383516312
:1031B0001484138B23F008031B041B0C43F0080337
:1031C000138370BD22F4006242EA0E2222F4806270
:1031D00092B225F4405542EA0C2245EA00155BE71D
:1031E00025F4804545EA801588E726F440760643B5
:1031F0004FF6F370204040EA0E0040EA0C04D4E79A
:1032000022F0800242EA0E1222F0400292B225F42D
:10321000406542EA0C1245EA80059BE70000014048
:1032200042685379032B0FD8DFE803F00B0805023F
:1032300010684030704710683C3070471068383074
:1032400070471068343070470020704770B4EFF357
:103250001182102383F3128843681C685D79144B34
:1032600033F81550A3899BB223EA0503A381C468F0
:10327000A668236935681F2B25F001053560656850
:1032800011D9203B202404FA03F3EB60D3B283F37B
:103290001188C3689B6859601A68012422431A6028
:1032A000047470BC7047202404FA03F3AB60EDE7AC
:1032B0003C72080803681A7D012A04BF02221A75AD
:1032C00093F82C100CBF4FF40072002201291BD080
:1032D00093F84410012905D093F85C10012920D0FF
:1032E0002ABB7047022183F8441093F85C1001292F
:1032F00042F4006215D043681B6800215962998925
:1033000089B20A439A817047022183F82C1093F8FE
:103310004410012942F48062E4D093F85C10012942
:10332000E9D1022183F85C1042F48052E3E74FF4C4
:103330000072E0E7024B0348D3F8741AFDF7ECBFC4
:10334000803400200000014010B5064C0648D4F837
:10335000741AFDF7E1FFD4F8941A0448BDE8104050
:10336000FDF7DABF8034002000000140004001403A
:1033700010B5064C0648D4F8741AFDF7CDFFD4F802
:10338000981A0448BDE81040FDF7C6BF80340020FD
:10339000000001400044014010B5064C0648D4F836
:1033A000741AFDF7B9FFD4F89C1A0448BDE8104020
:1033B000FDF7B2BF8034002000000140004801400A
:1033C000034B4FF08040D3F8781AFDF7A5BF00BF3C
:1033D00080340020024B0348D3F87C1AFDF79CBFD1
:1033E0008034002000040040024B0348D3F8801AC8
:1033F000FDF792BF8034002000080040024B0348D4
:10340000D3F8841AFDF788BF80340020000C0040F8
:10341000024B0348D3F8901AFDF77EBF803400209A
:103420000004014010B5064C0648D4F8901AFDF788
:1034300073FFD4F8A01A0448BDE81040FDF76CBF34
:1034400080340020000401400018004010B5064CF4
:103450000648D4F8901AFDF75FFFD4F8A41A044880
:10346000BDE81040FDF758BF803400200004014043
:10347000001C004010B5064C0648D4F8901AFDF721
:103480004BFFD4F8A81A0448BDE81040FDF744BF2C
:1034900080340020000401400020004002484368BE
:1034A0000BB1083818477047001000200248436AE3
:1034B0000BB1183018477047001000200248436CC9
:1034C0000BB1383018477047001000200248436E97
:1034D0000BB1583018477047001000200348D0F84F
:1034E00084300BB178301847704700BF00100020BF
:1034F0000348D0F8A4300BB198301847704700BF8C
:10350000001000200348D0F8C4300BB1B830184781
:10351000704700BF001000200348D0F8E4300BB122
:10352000D8301847704700BF001000200348D0F87B
:1035300004310BB1F8301847704700BF001000206D
:103540000348D0F8243113B100F58C701847704748
:10355000001000200348D0F8443113B100F59C70EE
:1035600018477047001000200348D0F8643113B1A9
:1035700000F5AC7018477047001000200348D0F8E1
:10358000843113B100F5BC7018477047001000205B
:103590000348D0F8A43113B100F5CC701847704738
:1035A000001000200348D0F8C43113B100F5DC70DE
:1035B00018477047001000200348D0F8E43113B1D9
:1035C00000F5EC701847704700100020026836497B
:1035D000002310B422F0010221248842026003601B
:1035E00043608360C3600361446138D02F4B9842CD
:1035F0002ED02F4B98423CD02E4B984240D02E4B91
:10360000984232D02D4B984241D02D4B984246D013
:103610002C4B984217D02C4B98423CD02B4B9842C5
:1036200016D02B4B984224D02A4B984228D02A4BB4
:1036300098421AD0294B984229D0294B98422ED033
:10364000284B984208D14FF03D5243F8AC2C03E090
:103650004FF4746243F8202C5DF8044B7047224B02
:103660005DF8044B3D229A607047204A43F8642C71
:10367000F2E74FF474125DF8044B43F8382C7047AE
:103680004FF074625DF8044B43F8502C7047184AB1
:1036900043F87C2CE0E73D2243F8082CDCE7154A90
:1036A00043F8942CD8E700BF106002402860024025
:1036B00040600240586002407060024088600240F2
:1036C000A0600240B86002401064024028640240DA
:1036D00040640240586402407064024088640240C2
:1036E000A0640240B8640240006002403D00002037
:1036F000400F002000003D20214A936803F00C0396
:10370000042B10B43AD0082B1FD01E4B1C4C036066
:10371000A1681D4AC1F30311114491F86010CB4018
:103720004360A168C1F38221114491F8601023FA2B
:1037300001F18160A1685DF8044BC1F342310A4494
:1037400092F86020D340C36070475368516813F407
:10375000800F536814BF0D4A0A4AC3F3881301F05F
:103760003F01B2FBF1F202FB03F3054A5268C2F3D8
:10377000014201325200B3FBF2F3C7E7034BC5E746
:10378000003802400024F4003C72080800127A005D
:1037900070B5446B8668A38923F400531B041B0C8B
:1037A000A381857990F805C02B0303F40051C5F37C
:1037B00080000CF001032A029B001CF0020F4FEA6C
:1037C000003002F4806218BF43F0080302431A433A
:1037D000238A9BB223F440530B432382A38923F40F
:1037E000B05323F00C031B041B0C1343A381A38AC7
:1037F00023F440731B041B0C84B0A3826846FFF7BC
:103800007BFF234B9C4205D003F580639C4201D093
:10381000029B00E0039BA2891E49120403EB830371
:103820004CBF7600B60003EB8303B3FBF6F3A1FBBA
:103830000302A08952096426000406FB12334FEAF2
:1038400002121CD41B013233A1FB0313C3F3431335
:1038500013439BB223812A07A38A0AD59BB243F064
:103860000803A382A3899BB243F40053A38104B04D
:1038700070BD23F008031B041B0CA382F2E7DB00DE
:103880003233A1FB0313C3F342131343E1E700BF39
:10389000001001401F85EB512DE9F843394C9DF88C
:1038A00020509DF82490A0420F4690461E4649D0D5
:1038B000354B98424ED0354B984253D0344B9842BA
:1038C0002BD0344B984255D0334B984221D14B46A4
:1038D0002A4631460520FDF76BFC04460023C4E967
:1038E0000B78C4E90733C4E909336571A66084F82D
:1038F00006902046FFF74CFFEA07616B1AD4AB072E
:1039000013D48B899BB243F400538B812046BDE8CE
:10391000F88300242046BDE8F8834B462A4631460A
:103920000320FDF745FC0446D8E7CB6843F080034D
:10393000CB60E6E74FF6DF730B80CB6843F02003E4
:10394000CB60DCE74B462A4631460020FDF730FCD1
:103950000446C3E74B462A4631460120FDF728FCC2
:103960000446BBE74B462A4631460220FDF720FCC1
:103970000446B3E74B462A4631460420FDF718FCBF
:103980000446ABE7001001400044004000480040FE
:10399000004C004000500040001401408160F7E6F8
:1039A0004171F5E68171F3E62DE9F043794F07EBBC
:1039B000C00985B005464FEAC00899F8040108F02F
:1039C0000BFF044699F8050108F006FF064699F832
:1039D000060178F0D3FA6B1CDBB2002C00F0AB8050
:1039E00040F60C122372E280002E00F0B680337293
:1039F00040F60C232046F38004223A2109F0E6F831
:103A0000042230463A2109F0E1F807EB0803624A44
:103A1000D3F80041944200F09680604B9C4200F045
:103A2000A2805F4B9C4200F0A980474497F8073181
:103A3000022B32D0032B7CD05A495B4F012B08BF9D
:103A40000F46A6886846FFF757FE26F03F06029B02
:103A5000564AB3FBF7F13604A2FB0323360C46EAC1
:103A60009346A680228822F001021204120C2280C2
:103A70008AB2C1F30B019B0C09B942F001024FF469
:103A8000967101FB03F34A49A1FB03139B09013320
:103A90009BB242F4004223841FE0A6886846FFF7E9
:103AA0002BFE26F03F06029A404B3604A3FB02137E
:103AB000360C46EA9346A680218821F001010904CC
:103AC000090C21803B499209A1FB021292099B0C2F
:103AD0000133042A238438BF0422A2832388364A70
:103AE0009BB243F001032380238823F4816323F0F6
:103AF00002031B041B0C4FF4804143F480632380BA
:103B00002181238823F080031B041B0C238023883E
:103B10009BB202EB451243F00103238001210023F5
:103B200082F8B05A82F8B11A82F8B23A05B0BDE80C
:103B3000F083224F85E7002E3FF467AF337240F6E3
:103B40000C23F3805CE71E4B1A6A42F400121A62DF
:103B50001A6A22F400121A6267E7042220463A2108
:103B600009F034F851E703F5F0331A6A42F48002A1
:103B70001A621A6A22F480021A6256E703F5EE33DB
:103B80001A6A42F400021A621A6A22F400021A62E5
:103B90004BE700BFF81000200054004000580040E0
:103BA000005C0040009F2400804F120083DE1B4316
:103BB000D34D6210632D3E0580340020C0270900DC
:103BC000003802402DE9F047924E90F900108046EF
:103BD000807806EBC1050138CC0090B0D5F8001113
:103BE00014282DD8DFE810F04C01200115005500F5
:103BF0005F009E00A600C301B6017A0084003C026B
:103C00000402D701C000D0002F003700A3019501A6
:103C10005401888A0C8B81B27F4841EA0441884371
:103C200000F02081D8E90201101A42F2107263EB11
:103C30000101904271F1000102D3152388F802308E
:103C400010B0BDE8F08798F813000882C8E9022395
:103C5000122088F80200888A0C8B80B240EA044067
:103C60006E4C844300F0B28000200E900F90012033
:103C70000F910E900E99002900F017820F991431C0
:103C80000F910F9909684905CCD5142388F80230A3
:103C9000D6E798F8110000F0FE000882C8E9022378
:103CA000052088F80200888A0C8B80B240EA044024
:103CB0005B4C844300F0A180002000900190012023
:103CC000019100900099002900F0FB8101991431C5
:103CD0000191019909684F05D7D4A3E798F811001D
:103CE00040F001000882C8E902230B2088F8020096
:103CF000888A0C8B80B240EA04404A4C84436DD0E1
:103D00000020049005900120059104900499002959
:103D100000F0D181059914310591059909684D0587
:103D2000B3D47FE798F813000882C8E9022307207C
:103D300088F80200888A0C8B80B240EA0440374C35
:103D400084435ED0002002900390012003910290F2
:103D50000299002900F0C18103991431039103995C
:103D600009684E0591D45DE7088820F4806000045E
:103D7000000C088098F8110000F0FE000882C8E9E5
:103D80000223102088F80200888A0C8B80B240EA57
:103D90000440234C844312D000200C900D9001204D
:103DA0000D910C900C99002900F091810D9914311E
:103DB0000D910D99096848053FF567AF32E798F80E
:103DC0001330FF2B06D198F810301BB1132388F85D
:103DD000023035E7112388F8023031E7D8F81400B3
:103DE000012800F08F81022800F04382098B0E2108
:103DF000C8E9022388F8021022E7062388F8023077
:103E00001EE7D8F81400002800F06D81082388F818
:103E1000023015E7F81000200100030084000700BD
:103E20008200070002000300088820F400600004FC
:103E3000000C0880088880B240F480600880088800
:103E400080B240F480700880032088F80200888ADD
:103E50000C8B81B2A94841EA04418843C8E9022396
:103E60007FF4EEAE98F81230002B40F0CE8198F837
:103E70001330FF2B00F03F82042388F80230DFE686
:103E8000098889053FF5CEAE002388F80230D7E6D1
:103E9000344494F8040108F09FFC064694F80501A8
:103EA00008F09AFC964AB2F8103B01339BB2824666
:103EB000A2F8103B16B13368B2881A83BAF1000F2A
:103EC00004D0DAF80030BAF804201A831121304601
:103ED00008F05EFC1121504608F05AFC4FF0090929
:103EE00065272EB13368B28819690A4240F02381F0
:103EF000013F00F01D810BF0AFFE04460D460BF0B4
:103F0000ABFE001B61EB0501052871F10001F6D342
:103F1000E7E7088880B240F4007008804FF6FF3071
:103F200088820121C8E9022388F8021088E6D8F8BF
:103F30001400002800F06D81D8F8184014F8016BC7
:103F40000E8201381225C8E90504C8E9022388F861
:103F5000025075E6888A0C8B81B2684841EA0441B8
:103F600088437FF45FAE0A2388F8023068E6088849
:103F700080B240F480700880092088F80200888AA6
:103F80000C8B81B25D4841EA04418843C8E90223B1
:103F90007FF456AEE7E7002401250A940B940B91B9
:103FA0000A950A98002800F047810B9814300B906E
:103FB0000B98006846077FF535AED8F81400032843
:103FC00000F06D81022800F24381088820F48060AF
:103FD0000004000C0880088880B240F4007008805B
:103FE000098A88F81C40C8E9022388F8025027E6AD
:103FF000002001240890099009910894089800284D
:1040000000F0148109981430099009980068470756
:104010007FF508AEEFF31185102080F31288088831
:1040200080B240F400700880D8F818000E8A471C4F
:10403000C8F81870EDB2067085F311880D8AD8F8AB
:1040400018106FF001004E1CC8F818600D70C8E918
:104050000223C8F8140088F81C4088F80240EFE5F5
:10406000002006900790012007910690069C002CE6
:1040700000F0E880079C14340794079C24686406C9
:104080007FF5D0AD0C8AD8F818104D1CC8F8185020
:104090000C70D8F8141088F81C000139C8E9022304
:1040A000C8F8141088F80200CAE50F9918310F916A
:1040B0000F990968B6E505991831059105990968C0
:1040C000B0E501991831019101990968AAE50D99A6
:1040D00018310D910D990968A4E5039918310391E0
:1040E000039909689EE5088880B240F40070088052
:1040F0000121C8E9022388F80210A1E501000300AC
:1041000080340020088820F480600004000C0880BF
:10411000EFF31184102080F31288088B088880B296
:1041200040F40070E4B2088084F311880C215FE64B
:1041300016B13368B2885A830BF08EFD04460D46E3
:104140000BF08AFD001B61EB0501052871F10001F0
:10415000F6D316B13368B2881A830BF07DFD04469E
:104160000D460BF079FD001B61EB0501052871F18F
:104170000001F6D3B9F101097FF4B2AE16B133688C
:10418000B2885A830BF068FD04460D460BF064FDBF
:10419000001B61EB0501052871F10001F6D3BAF1AE
:1041A000000F04D0DAF80030BAF804205A830BF07C
:1041B00053FD04460D460BF04FFD001B61EB05015E
:1041C000052871F10001F6D316B13368B2881A835D
:1041D0000BF042FD04460D460BF03EFD001B61EB6B
:1041E0000501052871F10001F6D3BAF1000F04D0E2
:1041F000DAF80030BAF804201A8398F90000441C59
:104200003FF442AEFFF7D0FB3EE60F2388F80230C2
:1042100016E5088880B240F4007008800121C8E9E2
:10422000022388F81C1088F8021009E50999183152
:10423000099109990968F5E40B9918310B910B99CB
:104240000968EFE407991831079107990968E9E4CB
:10425000D8F81800098A441CC8F818400170D8F82A
:104260001410C8F808200139C8F81410C8F80C3028
:10427000E6E4088880B240F400600880EFF311841F
:10428000102080F31288088B088820F480600004D6
:10429000000CE4B2088084F311880D21A8E5088899
:1042A00020F480600004000C0880EFF311841020DB
:1042B00080F31288D8F818000D8A461CC8F81860D8
:1042C0000570088880B240F40070E4B2088084F37E
:1042D0001188D8F81800098A441CC8F818400170E1
:1042E000D8F814100C200239C8E90223C8F81410B9
:1042F00088F80200A4E498F81030002B3FF4BCAD1D
:1043000031E600BF38B5184D9DF814E005EB4014B8
:104310004FEA401C94F8B10A00B938BD490084F84E
:10432000C32AC4F8C43A84F8C11A0023049984F853
:10433000C0EA022205F52B6584F8C23AC4F8C81A0F
:1043400084F8CC3A84F8B22A65440BF085FC024626
:104350000B462846FFF736FC94F8B23A002BF4D10E
:1043600094F8CC0A38BD00BF8034002038B5184D11
:104370009DF814E005EB40144FEA401C94F8B10A94
:1043800000B938BD84F8C32AC4F8C43A0122002316
:10439000490005F52B6584F8C22A84F8CC3A049AC2
:1043A00084F8C0EA022384F8C11AC4F8C82A84F841
:1043B000B23A65440BF050FC02460B462846FFF724
:1043C00001FC94F8B23A002BF4D194F8CC0A38BD31
:1043D00080340020F0B589B00023904A0293039303
:1043E000136843F48033136003E0029BB3F5A04FDE
:1043F00009D0136803F400330393029B0133029343
:10440000039B002BF1D0854B1B6813F4003318BFBE
:1044100001230393039B012B01D000BFFDE77F4BDA
:104420007F491A6C7F4842F080521A640A6842F44D
:1044300040420A609A689A609A6842F400429A6020
:104440009A6842F4A0529A6058601A6842F08072EA
:104450001A601A689001FCD5734A40F20571116028
:10446000996821F003019960996841F00201A2F571
:1044700080629960936803F00C03082BFAD193686B
:1044800003F00C03042B00F0C680082B00F0AB8077
:10449000664A624B66499868664D674E674FC0F33F
:1044A00003100144002491F87010CA406449E96087
:1044B0006449586FA960596BC6F8F42F21F0800148
:1044C0005963596F604A614841F080715967196BAF
:1044D0000A431A635A6B5A639A6B9A631A6C5C4963
:1044E0000A431A64596C5B4A0A435A6448F2FF71E2
:1044F00023462246CDE900447EF062FB564823461F
:1045000022464FF6FF71CDE900447EF059FB534837
:10451000234622464FF6FF71CDE900447EF050FB62
:104520004F48234622464FF6FF71CDE900447EF006
:1045300047FB4C48234622464FF6FF71CDE9004425
:104540007EF03EFB4848234622464FF6FF71CDE9F8
:1045500000447EF035FB4548234622464FF6FF7166
:10456000CDE900447EF02CFB4148234622464FF61D
:10457000FF71CDE900447EF023FB234622464FF62F
:10458000FF713C48CDE900447EF01AFB04A8FFF718
:10459000B3F8D5F8FC200499D6F8F43F364842F039
:1045A0008072C5F8FC20354AC2F8B00F546010681C
:1045B00040F0010010604FF47A72B3FBF2F3013B5C
:1045C000B3F1807F2E4AB1FBF2F2C7F8902908D2EE
:1045D0004FF0E022F0215361072385F82310946106
:1045E000136109B0F0BD5168536852684902C2F3C3
:1045F00088124CBF23490D4903F03F03B1FBF3F38D
:1046000003FB02F2054B5B68C3F3014301335B001C
:10461000B2FBF3F23DE71B4A3BE700BF0038024024
:104620000070004008544007003C02400024F400A1
:104630003C72080800ED00E0000000208823002004
:104640000003FA0500000008FF9167000000024027
:10465000FFC9FE1033570700000402400008024063
:10466000000C0240001002400014024000180240FA
:10467000001C02400020024055CEACC5001000E0F6
:1046800040420F0000127A0082B0064B00220192D5
:104690000193019B03EB80030193019B196002B01E
:1046A000704700BF5028004010B51C2008F094F857
:1046B0001121044608F06CF84CB12368A2885A8393
:1046C000C8200BF0F7FA2368A2881A8310BDBDE852
:1046D0001040C8200BF0EEBA704700BF704700BF13
:1046E000704700BF10B5104C94F80A3423B90F4B33
:1046F0004FF480225A6110BD4FF0E022D2F8103DF5
:1047000023F00603C2F8103DFEF7B6FAD4F81034D1
:104710009B68DB07EBD5D4F80C25136823F0030165
:1047200061F307031360E2E780340020003C01409E
:104730002DE9F04FA34CD4F80C345A69D5078BB04F
:1047400002D50BB0BDE8F08F5A699B6912EA0301EC
:10475000F7D0C1F307430803019300F1E180019B07
:104760005D073FD48807CEB203D5D4F80C340222BB
:104770005A610029C0F24A820A05C1F3072500F1F7
:104780009981370708D5904B9048D3F82431984742
:10479000D4F80C3408225A61F60600F10F82E806BC
:1047A00000F1BE81A80600F11781019BDA0609D548
:1047B000854B8648D3F834319847D4F80C344FF4FD
:1047C00080125A61019B9B06BBD57F4B7F48D3F873
:1047D00038319847D4F80C344FF400125A610BB0BA
:1047E000BDE8F08FD4F810349E69DB691E40B6B284
:1047F000002EB7D0754D4FF0000B05F118080F468D
:10480000F00740F18280D4F81014D8F8002008692D
:104810004B6B23FA0BF3DB01DBB2034390680340DD
:1048200013F00109D8B200F00F824B6B012000FA9F
:104830000BF023EA00034B6301239360624B634850
:10484000D3F81C315FFA8BF1984794F80334012BAD
:1048500000F07E8219F0800F57D0D5E94CC1D5F811
:104860002431D8F800E0ACEB01029342DEF81800E6
:1048700028BF134680B20333B0EB930F45D9D4F869
:10488000103494F80394CDE9026BBA4667469C460F
:10489000B94237D2D5F82431781A984228BF184641
:1048A00000F1030BD5F828314FEA9B0BB9F1000F4B
:1048B00010D182B203329210D8F8B8600AD04946BB
:1048C000013153F8047B37608A42F9D1D5E94C7144
:1048D000D5F82831014403448F42C5F82831C5F882
:1048E0003411DEF818300AD195F81C01012202FAC1
:1048F00000F0DCF8342022EA0002CCF834209BB22D
:104900009B45C5D3DDE9026B574676080BF1010BD9
:1049100005F1280508F104087FF472AF394621E754
:10492000D4F810349D69DB691D402D0C3FF417AF9E
:1049300004F58068DFF890B0029104F25446002735
:104940004FF00109C24608E06D0807F1010706F1C2
:10495000040608F1280800F09181EA07F4D53068D0
:10496000D4F81014836849690B40D9B2DB0740F1D1
:10497000708194F80334C0F80890012B07D10169C5
:10498000D8F87C33C1F312015B1AC8F88C33DBF81A
:104990001831F9B25046984794F80334012BD3D11B
:1049A000002FD1D194F81135052BCDD1D4F8543442
:1049B000074919610749596119684FF08021196049
:1049C000C2E700BF80340020F810002080380020AB
:1049D000180008604C3E0020D4F81054D4F8182475
:1049E000AB68C3F34103022B136814BF00210321FA
:1049F00061F30A0313606B6843F4807306A86B606D
:104A0000FEF77AFED4F80C24079ED36823F4705383
:104A1000D360A86810F0060FC0F3410100F03C819C
:104A20009F49A0483144814240F2AE819E48A6F59C
:104A30007401A1F51051814240F2AA819B499C4822
:104A400031448142C0F0A8819A48A6F18C71A1F549
:104A50004341814240F2A4819749984831448142C0
:104A6000C0F0A2819649974831448142C0F0A081AC
:104A70009548A6F1B771A1F558518142C0F0A081C7
:104A80009249934831448142C0F0968191489249BD
:104A90003044884234BF062005204025012160F3C0
:104AA0008D23D3604FF4005384F80214A4F8045407
:104AB00053617AE600238DF8133094F812358DF89F
:104AC0001330864B8648D3F82C319847D4F81034ED
:104AD000D4F80C24986894F80A344FF400615161BA
:104AE000002B3FF44EAEC3077FF54BAE94F815355F
:104AF000012B7FF446AE9DF81330032B7FF441AEBB
:104B0000D4F80C3577491A6842F001021A601A6825
:104B100042F003021A600B6943F006030B6130E6B2
:104B2000D4F81064D4F80C147368002723F0010340
:104B300073600597059B43F020030593059B67F37E
:104B40008A130593059B0B61674BBC460A69059266
:104B5000013B02D0059A9206F8D494F8012452B190
:104B6000624B03EB820EFF2253F8040F8260D86B76
:104B700073458260F8D10B2363F3070763F3070CD7
:104B80004FF0FF33B3614FF00113F3617761C6F863
:104B900010C03368564823F4FE63336094F803244E
:104BA000D4F85434012A18616FD04FF480534B610C
:104BB0004A4B4B48D3F828319847F3E5D4F80C34E6
:104BC0009A6922F010029A611A6AC2F343400228DD
:104BD00002F00F0100F09080062812D101EB810154
:104BE00004EBC101D4F8D064D1F88C07C2F30A12E7
:104BF00010443268C4F8CC293268C4F8D029C1F80E
:104C00008C079A6942F010029A61C8E594F80A3458
:104C10003BB1D4F80C25136823F0030060F30703BD
:104C20001360D4F810242D4B2D48D3F8305153681D
:104C3000029123F001035360A847D4F80C34029981
:104C40004FF000425A6197E5010707D508239360AA
:104C50005BE68A0707D50223836075E6C3060FD596
:104C60001023936051E60B077FF56EAEDBF8203121
:104C70005046984733680821996065E602996EE5C9
:104C8000410679D5402393603FE61A4A5A611A6873
:104C90004FF080221A6088E74FF400750920FEE685
:104CA000401E1BFF3F420F00DFC810002013FBFE19
:104CB00020D61300FF69180000D3CEFE40771B00FA
:104CC000C05BB3FEC091210040AC2700C01D6AFE4E
:104CD00040E13300803C36FEE09C4100F8100020AB
:104CE0008038002000ED00E0410D030094380020E2
:104CF000180008604C3E002047F6F070104280D04B
:104D0000C2F30A1201EB810004EBC00002F1030CB4
:104D10005FEAAC0CD0F88067D4F8D0E44FEA8108A1
:104D200018BF002006D00130DEF8007046F8047B82
:104D30008445F8D1414404EBC101D1F88007104407
:104D4000C1F88007D1F88C071044C1F88C0758E7E8
:104D5000BBF1000F7FF47EAD94F81135042B7FF486
:104D600079ADD4F85434184A1A61184A5A611A684D
:104D70004FF080221A606DE5830758BF81467FF5AA
:104D800069AD02239360C0E5012140250E2086E62F
:104D9000012140250D2082E6012140250C207EE6E0
:104DA000012140250B207AE6012140250A2076E6E4
:104DB00001214025092072E60121402507206EE6E9
:104DC0000121402508206AE6180008604C3E0020BA
:104DD00002784368022A11D00C490269D1F81802FE
:104DE00010B41840D1F81042D1F80C12931E400AAA
:104DF00004FB030008445DF8044B7047034AD2E902
:104E0000802102EB410202EB53207047346A0020FC
:104E10002DE9F04F12F0020A884E83B09B4601D074
:104E200000286FD0D6F80852002D58D14FF0FF3C23
:104E3000834C844FCDF804C0E046E6460023009240
:104E40002268A57B904200F09E80002D40D003F5A3
:104E50008179012D07EB09190AD199F80750EA0762
:104E600006D415F07E0F03D1ED0900F090809E4628
:104E70000133082B04F11004E2D1BCF1000F009AB9
:104E800004DABEF1000FC0F29280F4466D4CD6F801
:104E9000983004EB0C1741F2180E013347F80E005E
:104EA00041F21C0E0CF5817547F80E302F01C6F843
:104EB0009830E35104EB051300275F6004EB051302
:104EC0009B79042B7AD8DFE803F02940194043008E
:104ED0009C460133082B04F11004B1D1CDE7D6E98B
:104EE000833404FB05339842A0D396F8B43113B948
:104EF000012386F8B431534B01225A70002003B0CD
:104F0000BDE8F08F96F8B431A6F58054002B59D047
:104F100001230220637003B0BDE8F08F12F0010797
:104F200076D104EB0513D01093F807E0BBF1030F23
:104F300060F3C71E83F807E068D94FF6FF735B453F
:104F400028BF5B4604EB05108380BAF1000F49D1FE
:104F5000500705D504EB0510C37943F00103C37175
:104F6000D30608D504EB0515EB79C3F345020132EE
:104F700062F34603EB71344B012003EB4C230B60CF
:104F800003B0BDE8F08F009A05BB9C467EE7A5689C
:104F9000019A954238BF984603F1010338BF2A466B
:104FA000082B019204F110047FF44AAF65E7B8F1D1
:104FB000000FA8BFC446BFF669AF9FE796F8B431AB
:104FC000002BA5D1012386F8B431A1E7D6F898705B
:104FD0001C4C03F581759C462B010137E750C6F840
:104FE00098706BE7D6F89830D6F89C000133013002
:104FF000C6F89830C6F89C0004EB0C1041F21C0671
:10500000835104EB051304209871A1E73B4699E70F
:105010000E4BD3F89C3A002B3FF470AF0A495E6800
:105020000B4A01EB4C210023B04700283FF466AF48
:1050300004EB05150223AB7160E700BF346A002062
:105040004C6A0020345A00204C5A0020882300204B
:105050003908000870B5104E3378022B0F4B0BBF88
:10506000020AC0F3D412C4B200F07F04D3F80002E5
:1050700082B010440D460023032201A9FFF7C8FEA9
:10508000012807D13378019A022B0CBF22F8145063
:1050900042F8245002B070BD345A0020346A002017
:1050A0002DE9F04FDFF820910D4699F800102B689C
:1050B000032985B0164640D0022966D14FEA132A4B
:1050C0005FFA83F84FF4807B421E012A24D8012422
:1050D0009E421CD901288CBF00220122394F019227
:1050E000D7F878211AB1D7F89411994250D0D7F84F
:1050F000000200235044092203A9FFF789FE01287A
:1051000024D0022815D020B12B689E42E8D82E600A
:10511000032005B0BDE8F08FB8F1000F14D0294B83
:1051200093F8B42112B9012283F8B421012389F83C
:105130000130022005B0BDE8F08F4FF0800BC3F3C3
:10514000D41A03F07F08BFE75C46C1E799F8001066
:10515000022916D00329ECD1039B53F8282022F012
:105160007042019BD5F800C0B2FA82F252099A420D
:1051700020D0A0440CEB0403D8452B601DD202299B
:10518000EAD1039B33F81820EBE74FF4807BD6E796
:10519000D7F81012013A02EB41224902B2FBF1F2B8
:1051A0001344B3FBF4F204FB12320AB123449B1AFA
:1051B0002B60AAE76645ACD8A9E70AF1010A4FF0CF
:1051C0000008A2E7346A0020345A00202DE9F04F8D
:1051D000DFF850910B6899F800C0174609F5805226
:1051E000BCF1020FD2F8005283B08B46824640F0E9
:1051F0008180DEB2A6EB030805EB1325B8444FF41B
:1052000080729044BB4208F1FF38B8FBF2F843D2F9
:10521000A844BCF1030F06EB0704A4EB030414BF7E
:105220004FF4807280229442A8EB050328BF1446F5
:10523000B6BB944234BF0B220A2201A92846FFF7CD
:10524000E7FD012829D199F800C0DBF80000BCF186
:10525000020F00F1010325D0A64210D2019906F1F8
:105260008042013A01EB8202043901EB840142F8E9
:10527000043F8A4203F10103F9D1DBF80000A31BCC
:105280000344BAF1010FCBF8003023D09F4205F15F
:1052900001054FF00006BCD8012003B0BDE8F08F37
:1052A0000B22CAE7A642EAD2019906F10042013A6E
:1052B00001EB4202023901EB440122F8023F8A422B
:1052C00003F10103F9D1A31B0344BAF1010FCBF899
:1052D0000030DBD1BB42D9D1BCF1020F019B18D009
:1052E00004F18044013C4FF0FF3243F82420DBF806
:1052F0000030CBE703F07F06C3F3D412BCF1030FF9
:10530000A6EB03081544B84414BF4FF48072802202
:1053100077E704F10044013C4FF6FF7223F81420B4
:105320000120BAE7345A002030B50446C06983B082
:1053300010B9012003B030BD0D460023032201A99E
:10534000FFF766FD0128F5D1B4F92020002A19DB0A
:10535000019B012D4FEA421103EB421203D0022DB3
:105360001BD1E5205854A368D3612378032B04D1C3
:105370000023137753779377D377636A53831B0C98
:105380009382D6E7064A92F8B41109B982F8B401BB
:10539000044B01225A700220CCE7E368E4E700BF27
:1053A000346A0020345A00202DE9F043814683B04E
:1053B0000E4699F83C30042B00F28980DFE803F0B8
:1053C0002F03704F3F00434DDFF810814FF6F77702
:1053D00005F5805418E0BA4260D876F0E7F9012864
:1053E0004FF0000138D1D9F83000FFF733FE012823
:1053F00032D1019AD4F81412C9F83020531E8B42CE
:1054000028BF0B46C4F814322A78D9F83030032A62
:1054100001A918469AB2DED14345DED93EE07100BB
:1054200001F0FE014846FFF77FFF012843D1D9F87C
:105430003430002B18BF022089F83C00B9E799F8F6
:105440002830042B04BF002389F82830D9F83830DD
:105450000BB148469847012003B0BDE8F0831E48D1
:10546000D9F82C20D0F89431C0F894219B1AD0F8A8
:10547000102202FB03F3D0F8782102EB4322C0F89C
:105480007821D0F87C2102EB4322C0F87C21002156
:1054900000F5B870FFF748FF01280CD10420CBE7D6
:1054A000D9F8342009F130010020FFF78FFE0128E0
:1054B00001D10320C0E70228CED199F82830042B6F
:1054C00004BF002389F8283003B0BDE8F083022030
:1054D000F3E700BF345A0020346A0020F7FFFF0FC3
:1054E00038B5044694F83430052B58D8DFE803F07B
:1054F000372B2319100394F82830082B04BF0023FE
:1055000084F82830274B012283F8B521022038BDCA
:1055100094F82830082B04BF002384F82830012099
:1055200038BD00212046FFF7FFFE012837D10420B7
:1055300084F83400D6E7D4E90B01FFF78BFD01288E
:105540002DD10320F4E7206B4FF0FF31FFF782FDF0
:10555000012824D1E36A002BF3D00220E8E7114DA3
:10556000D5F8082204F1300101200232FFF798FD3E
:10557000012805D00238C0B2012810D80520D7E78D
:10558000E368D5F81012226BC5F8142203EB41230F
:10559000C4E90332E36A002BCAD16262C8E7002083
:1055A00038BD00BF346A002070B5044694F8383026
:1055B000032B4BD8DFE803F01F170B020021204616
:1055C000FFF7B2FE431EDBB2012B40D970BD626B08
:1055D00004F130010120FFF7F9FD0128F2D1032386
:1055E00084F83830E2E71F480021FFF79DFE0128CC
:1055F000E8D10223F4E71C4AE56802F580531278EB
:10560000D3F81012D3F89401032A14BF4FF4807218
:10561000802202FB01F105EB4125C4E90350D3F8D8
:105620007851A5EB4125C3F87851D3F87C51861AFF
:10563000A5EB41210244C3F89421C3F87C11E36A2D
:10564000C4E90C025BB960620123C9E7022094F847
:105650002830062B04BF002384F8283070BD266351
:10566000F2E700BFA46B0020345A00202DE9F0437C
:105670004368C3F308020A44B2F5007F83B00546CD
:105680000C4605D223446B60012003B0BDE8F083D3
:1056900090F91A20501C0AD0464902F5817201EB9C
:1056A0000212D17921F00101D171FF22AA7695F978
:1056B0001B20511C16D03F4E02F5817206EB0211E1
:1056C00006EB0212C979D079C1F34501012986BFE1
:1056D00001F1FF3101F03F010021FF2661F3460097
:1056E000D071EE762A78022ACCD0324E06F5805858
:1056F000D8F81022B4EB422F4FEA42292BDCD8F81D
:1057000018721F407A42A24225DCE2194A452869F4
:1057100013D32A7E120729D5D8F89421411C8A4236
:105720001BD300D100214B44DB1BA4EB09096861AA
:1057300009EB070429616B6008460028A4D0327881
:10574000032A31D080B24FF6F77290429CD81A46A5
:1057500014446C6098E7002097E798F8B42102BBE6
:10576000012388F8B43173706B68DCE701A976F027
:105770001DF80128EFD16B68297828696861A4EBCE
:1057800009049944A9EB070301986B6002293C4482
:1057900028611A46D1D1D8F82012B3EB412FD7D3C4
:1057A00072E701227270BEE7034A90423FF66CAF87
:1057B000CDE700BF345A0020F7FFFF0F2DE9F04777
:1057C000044682B094F83830032B00F2AB80DFE857
:1057D00003F09A170C02236C002084F8280003B110
:1057E0009847022002B0BDE8F087236C002284F8BD
:1057F00028200BB120469847012002B0BDE8F08771
:1058000023786668484F022B1CBF474BD3F81832E9
:10581000204618BF1E40FFF7DBFAC6F34F26361AA4
:105820000546B6B2A7F5805811E0D7F810325A1ED7
:10583000914557D2FFF71AFF40B997F8B43113B921
:10584000012387F8B431012388F80130013506EBD4
:10585000050C022201A9002328461FFA8CF9FFF744
:10586000D7FA01284FF400724FF00001BAD1019825
:1058700081F069FBE3694FF400712046002BD4D01E
:105880006368002BD1D1019B4FF020324FF02E0CDA
:105890004FF0100EC3F80120C3F80520A3F809202B
:1058A00083F800C042F62E6AD4F824C0A3F820A0E2
:1058B00083F80BE0C3F82220C3F8262083F82A20BF
:1058C000E26BA3F81AC05A872CFA0EFC22FA0EF2E9
:1058D00083F82BE09A86A3F814C0D7F810325A1E2A
:1058E0009145A7D3C3EBC353590201F5007120467C
:1058F000FFF7BCFE28B997F8B4317BB10B4B0122FE
:105900005A70022007E02046FFF7EAFD012802D086
:10591000022807D1032084F8380053E7012387F8D1
:10592000B431EBE700205DE7346A0020345A0020F0
:105930002DE9F041B1F904300F2B82B00E46044638
:10594000174632D02046FFF743FA94F91B80B8F18E
:10595000FF3F3BD05C4B41F2180203EB08118A5821
:10596000904211D1183303EB4825B38801331BB2A1
:1059700005EB4315B38020463D60FFF729FA306000
:10598000012002B0BDE8F08103F5805292F8B41115
:1059900000295CD001225A702378022B4CD0226956
:1059A000002A60D100233B60EAE74FF40071FFF763
:1059B0005DFE002847D04FF6FF73B3802046FFF707
:1059C00007FA94F91B80B8F1FF3FC3D12378022B6B
:1059D00041D02269002AE5D03B4B1B78032B69D0CC
:1059E00093B24FF6F7718B4294BF00230123002B33
:1059F000D6D138B9354B93F8B421002A4DD0324B6B
:105A000001225A700023112201A9FFF701FA01288F
:105A100010D1019D2E4BEB1A48BF03F2FF13B3F5D3
:105A2000805F4FEA63222DD24FFA82F884F81B8000
:105A3000002D9AD12378B0E7244A6368D2F8202257
:105A4000B3EB422FAED2002002B0BDE8F0810121BD
:105A500082F8B4119EE71D4BD3F820226368B3EBA4
:105A6000422FC6D39EE7184B1B78032B19D093B255
:105A70004FF6F772934294BF00230123002B91D17C
:105A80000020E1E7114B93F8B42112B9012283F809
:105A9000B4210D4B01225A70C8E7012283F8B421CA
:105AA000ADE70C4B9A4294BF00230123002B7FF4F7
:105AB00079AFE5E7074B9A4294BF00230123002BFF
:105AC0007FF46EAF95E700BF345A0020346A00209F
:105AD0004C5A0020F7FFFF0F70B50378017E023BA0
