:020000040800F2
:100000000000012091F0080825F10808AD830308DD
:1000100025F1080825F1080825F10808000000006E
:1000200000000000000000000000000025F10808AA
:1000300025F108080000000025F1080891FC0108DE
:1000400025F1080825F1080825F1080825F1080818
:1000500025F1080825F108081DD5010821D501085A
:1000600025D5010829D501082DD50108CD4601085F
:10007000E1460108F5460108094701081D47010846
:10008000314701084547010825F1080825F108080E
:1000900025F1080825F1080825F1080831D50108DF
:1000A000BD500108E14F0108D1500108CD4F0108B2
:1000B000095001081D50010831500108D5380108C8
:1000C000C938010809390108FD38010825F1080877
:1000D00025F10808E5520108F1520108FD52010816
:1000E00035D5010825F1080825F10808E550010873
:1000F0006D500108955001085950010859470108F1
:1001000025F1080825F108084550010825F10808DF
:100110000953010825F1080825F10808456501087B
:100120006D4701088147010895470108A947010863
:10013000BD47010825F1080825F1080825F1080840
:1001400025F1080825F1080825F10808C15401081F
:10015000D1470108E5470108F9470108155301088F
:100160003D3901083139010825F1080825F1080851
:1001700025F1080825F1080825F10808000000000D
:1001800025F1080825F1080825F1080825F10808D7
:1001900025F1080825F1080825F1080825F10808C7
:1001A000000000000000000025F1080825F1080803
:1001B00025F1080825F1080825F1080825F10808A7
:0801C00025F1080825F10808EB
:0801C800C8E10800010000007D
:1001D000ECBA022002010000020354000CBB022012
:1001E00002080000020354002CBB0220010D000095
:1001F000000076004CBB02200111000000007600D8
:100200006CBB0220010E0100000077008CBB0220B5
:100210000113000000007600ACBB022001150000B5
:1002200000001E00CCBB0220011B000000000D00DE
:10023000ECBB0220011C000000002C000CBC0220C2
:100240000116000000000C002CBC02200117000069
:1002500000000C004CBC0220011D000000000E003C
:100260006CBC0220011E000000001E008CBC02209D
:100270000118000000000C00ACBC022001190000B5
:1002800000000E00CCBC0220011A000000000C008F
:10029000ECBC02200120000000000C000CBD02207C
:1002A0000121000000000C002CBD0220012A0100E9
:1002B000000018004CBD0220012200000000480090
:1002C0006CBD022001230000000049008CBD02200B
:1002D0000124000000004A00ACBD022001250000FE
:1002E00000004B00CCBD02200126000000004C00A5
:1002F000ECBD02200127000000004D000CBE0220D2
:100300000128000000004E002CBE02200129000040
:1003100000004F004CBE0220012D0000000029000B
:100320006CBE0220012E0100000029008CBE0220BC
:10033000012F010000007000ACBE0220013100005E
:1003400000003100CCBE022001300100000052004C
:10035000ECBE022001320100000028000CBF022088
:1003600001330000000076002CBF022001340100A0
:10037000000028004CBF0220022B050000012C00C9
:100380006CBF022002350000000014008CBF022068
:100390000137000000003C00ACBF0220013A000021
:0403A0000000200039
:020000040801F1
:10000000836B1A6C12F0500F21D11A6C196842F4EC
:1000100000721A648A6812F0405F1BD19A69CAB9EB
:10002000CA6A12F4700F02D08A68500512D44A6866
:1000300022F020024A601A6C22F480721A641A6C50
:10004000D20407D41A6C42F001021A6470479B6B09
:10005000DB6C1847704700BF704700BF836B4022BE
:100060001A645A6C42F004025A647047002280F805
:10007000422090F84130292B04D090F841302A2BAF
:1000800018D070474FF0280C2123016880F841C038
:10009000036390F8413003EA0C0363450B6814BF17
:1000A0006FF0F20C6FF0420C03EA0C030B6080F867
:1000B000402070474FF0280C2223016880F841C08F
:1000C000036390F8413003EA0C0363450B6814BFE7
:1000D0006FF0F40C6FF0440C03EA0C030B6080F833
:1000E000402070470023202210B4164C4363C462A2
:1000F000036380F8412080F842304B07026810D536
:10010000436A526A591C41621A70038D4BB1428D89
:10011000013B013A038593B24385436C43F00403EA
:1001200043640368102490F84120002190F8412096
:100130001A6822F0FE021A60DC615DF8044B80F858
:10014000401070470000FFFF10B40022454C0346EA
:1001500080F84220C4624285406C1A6808435864A3
:1001600093F84110282907D093F84110292903D08A
:1001700093F841102A292BD193F84100282493F8B1
:10018000411000F0280001F02801282814BFF620B3
:100190004620282911680CBFC0436FF0F6000140CB
:1001A00031481160002183F8414019631168586398
:1001B00011F4804123D1106810F4004032D193F83B
:1001C0004120602A46D083F840005DF8044B704718
:1001D00093F8411093F84110116821F0FE0111606D
:1001E00093F84110602902D0202183F841100021AA
:1001F000084619631168586311F48041DBD0116817
:10020000986B21F48041194C11600022046583F839
:10021000402090F83530022B11D080235DF8044B3C
:100220004365A3E11468D86B24F4004414600F4ABA
:10023000026583F8401090F83530022BEDD102684A
:10024000052380F8353013685DF8044B23F0010373
:1002500013607047202283F8400083F841205DF846
:10026000044B70470000FFFFED0201086D05010817
:1002700003689A69196810B4D4052AD5090602F4EE
:10028000806406D4436C13F00B0F1ED15DF8044B51
:100290007047416C41F0010141644FF48071D961B4
:1002A0000CB3416C4FF48064920541F00801416445
:1002B000DC61E7D5426C4FF4007142F00202426407
:1002C000D961436C13F00B0FE0D0416C5DF8044B27
:1002D0003AE7540502D50906E3D4D3E79405D1D50E
:1002E0000906E7D4CEE79205E4D4CBE7F8B590F859
:1002F0004030012B00F0D98016460123CA0604467F
:100300000D4680F8403022D5F30620D5438D9BB2B0
:10031000002B57D1C36AB3F1007F69D0C36AB3F130
:10032000007F65D0E26A236812F5803F04D094F81C
:100330004120292A00F005811022DA61AA0601D5A0
:10034000B3065ED40023184684F84030F8BD690730
:100350001AD42B0701D537073CD4A807EED5B1072F
:10036000ECD5638D9BB2002B00F0A180636A5A1C10
:10037000626222681B789362638D228D013B013A91
:100380009BB222856385D9E77207E2D5638D9BB264
:1003900063B1636A2268591C526A61621A70638D84
:1003A000228D013B013A9BB222856385638D9BB20E
:1003B000002BC3D1E36A13F5803FBFD02046FFF77F
:1003C00055FEBBE703681022DA61436C43F0040377
:1003D0004364B3E794F84130226803F02803282BE4
:1003E00000F08C800823D361002384F84030A5E717
:1003F00094F84130282B95D129462046FFF772FE0C
:100400009CE7236820210822D961DA6194F8412011
:1004100094F841201A68534922F0FE021A605A6883
:1004200042F400425A605A680A405A609A69970733
:1004300001D500229A629A69D60703D49A6942F0DC
:1004400001029A611A68500424D41A68110421D454
:10045000628D92B21AB1626C42F0040262646A0761
:1004600006D5626A5B6A511C61621370238D63BB9F
:100470000023236384F84230626C6363002A2FD127
:10048000E36A394A93421BD194F84130202384F81F
:10049000413057E794F84120212A0CBFA26BE26B50
:1004A0001268526892B26285D2E70220F8BDE36A10
:1004B000B3F1807F82D0E36A002B3FF47FAF3DE74A
:1004C0002023E26284F841303CE7628D013B013A2F
:1004D000238593B26385636C43F004036364C7E7C9
:1004E000616C2046FFF730FE94F84130282B7FF4F2
:1004F00029AF29462046FFF7F5FD23E7E168936918
:10050000022990699368D76813D1C3F3C21383EAB1
:10051000104313F006030CD1A16C0131A164A16C4E
:1005200002297FF40BAF0821A364D16184F8403025
:1005300004E7136823F0B8031360002384F8403005
:10054000FCE61022DA619A69970701D500229A62C7
:100550009A69D0073FF532AF9A6942F001029A6179
:100560002CE700BF00E800FE0000FFFF836B0021C6
:100570001868426830B442F40042D3E90E54426035
:100580002965216593F84120602A02D1202283F851
:10059000412030BC704700BFF0B5324AB0F1804F07
:1005A000314CA0EB02020368A0EB040E4F69B2FAD3
:1005B00082F28E68BEFA8EFE0D684FEA52124FEA42
:1005C0005E1E26D02ABBDFF8ACC0604538D00CF5E3
:1005D000806C604534D00CF5806C604519D0BEF15C
:1005E000000F16D1214A90422ED002F5806290422F
:1005F0002AD01F4A904227D0A2F59832904223D0A9
:1006000002F5806290421FD002F5806290421FD1B5
:100610001AE04C6823F070032343CC6823F4407342
:10062000234323F080033B430360C662856212B913
:10063000BEF1000F01D00B69036301234361F0BDDC
:1006400023F070034A681343CA6823F440731343CA
:1006500023F080033B4303600123C662856243614C
:10066000F0BD00BF00000140000401400040014017
:1006700000480140000400400022836BA3F85A2088
:10068000A3F85220704700BF436ADA0710B406D5BA
:100690000168846A4A6822F4003222434A609C0757
:1006A00006D50168C46A4A6822F4803222434A604F
:1006B000590706D50168046B4A6822F48022224358
:1006C0004A601A0706D50168446B4A6822F4004262
:1006D00022434A60DC0606D50168846B8A6822F4EE
:1006E000805222438A60990606D50168C46B8A68E5
:1006F00022F4005222438A605A060AD50168046C2B
:100700004A68B4F5801F22F4801242EA04024A606B
:100710000BD01B0606D50268816C536823F40023B6
:100720000B4353605DF8044B70474A68446C22F4F5
:10073000C00222434A60ECE7036942681F2B70B491
:1007400032D9A3F1200520245168AC40214229D0A0
:100750008169087C032838D0087C022801D1002058
:10076000087448681F2BC968046906684D68C4F39B
:1007700003244079164931F8100001EB840100F49C
:10078000F0508C68F16821EA0001F1601149085DC0
:10079000295821F00101295011D9A3F1200120236A
:1007A0008B40D36070BC7047202411689C4021426C
:1007B000F8D08169087C0328CED19460F2E720212B
:1007C00001FA03F370BC93607047D460EAE700BF9E
:1007D000C03E0908DC3F0908D0E907239A423CBF24
:1007E000C1685218D01A7047D0E9092300699A42AB
:1007F00038BF12180138D31AC01A7047D0E909025D
:10080000101AB0FA80F04009704700BF016A034631
:1008100040694A1C405CD9688A4228BF00221A629B
:10082000704700BF436A826910B4D154436A416B78
:10083000046901330A68A34228BF00235DF8044B12
:1008400042F0800243620A60704700BF436BD86980
:1008500010F0100002D0102201201A62704700BF71
:10086000024B01F001011970704700BF0000012028
:10087000704700BF704700BF704700BF012070473E
:10088000034B18685B68C01AC0F30B00704700BFC9
:1008900020250120054B93F80432032B01D00020C2
:1008A0007047034B1878C0B2704700BF2025012065
:1008B00000000120012380F849307047EFF31182D6
:1008C000702383F312880849D2B2D1E98F3182F3C1
:1008D0001188581E8B42A0EB01008CBF002301231E
:1008E00000EB0330704700BF20250120D0F81832FC
:1008F00023B100221046C3F814227047022070472B
:1009000001F00F01D0F83022C1EBC10102EB8102EE
:10091000D0E98630B2F8102203F5037110B5C4682F
:10092000D3F80402C3F80C22A047002010BD00BF7A
:10093000D0F81C3283B110B5D0F8184294F80002F8
:10094000FF2807D09B68214694F801229847FF238F
:1009500084F80032002010BD002070470346432277
:1009600001481A80704700BF04000120034643225B
:1009700001481A80704700BF480001200346432207
:1009800001481A80704700BF8C00012003460A22EC
:1009900001481A80704700BFD00001200346202282
:1009A00001481A80704700BFDC0001200346202266
:1009B00001481A80704700BFFC0001200346202236
:1009C00001481A80704700BF1C01012003460A221B
:1009D00001481A80704700BF3C010120064B4FF0D0
:1009E000120C064AA3F11400D2F85428A1F800C052
:1009F000022A18BF184670475C0101200020004001
:100A0000042301480B807047700101201D48D0F875
:100A10002034D0F8282430B59B184FF01A040C80ED
:100A200001D1194830BD184A0024D0F8240402F13D
:100A3000100511464FEA137EB3F1204FCC7001F13F
:100A400002010EF1370C38BF0EF1300C8D424FEA27
:100A5000031381F800C0EDD102F108050024010F55
:100A6000B0F1204FD47402F1020201F1370338BF14
:100A700001F1300395424FEA00101374EFD10248A0
:100A800030BD00BF00F0F01F74010120002070474E
:100A9000212808B528D0222818D0202814D199B1AF
:100AA000072A11D1184A0868184BB1F804C0D2F8C7
:100AB00044228979C3F89001A3F894C183F8961170
:100AC00012B1014600209047002008BD0029FBD04C
:100AD000022AF9D10C4AD2F84832002BF4D0098806
:100AE000D2F84C029847EFE70029EDD0072AEBD166
:100AF000064B0020D3F890210A60B3F894218A8035
:100B000093F896318B7108BD20250120000001204B
:100B1000034B0020D3F86822B3F86C32936170471E
:100B200020250120044B4FF4007C0020D3F8183618
:100B3000A2F800C00B6070472025012000207047FC
:100B400001207047012070470020704703682DE99D
:100B5000F04F13F0010587B000F00D81C54A916890
:100B600021F400019160416B94680C43B1FA81F16A
:100B7000946013F400244FEA511100F00181BD4F3D
:100B8000C66BD7F88C20B6F5801F22F4401242EADB
:100B90000602C7F88C2000F07682B6FA86FC13F4C1
:100BA00080184FEA5C1C40F0F08013F0807618BF8C
:100BB00001219A0600F10281DA060DD5DFF8B4E2D0
:100BC000DEF88C2022F08072CEF88C20DEF88C20AB
:100BD000876B3A43CEF88C205F0409D5DFF894E2A6
:100BE000426EDEF8907027F440373A43CEF89020FA
:100BF0001A0409D5DFF87CE2826EDEF8907027F4E3
:100C000040273A43CEF89020DF0309D5DFF864E2AD
:100C1000C26EDEF8907027F440173A43CEF8902069
:100C20009A0309D5DFF84CE2026FDEF8907027F4E2
:100C300040073A43CEF890205F0609D5DFF834E24A
:100C4000426CDEF8907027F003073A43CEF890200C
:100C50001A0609D5DFF81CE2826CDEF8907027F0E6
:100C60000C073A43CEF89020DF0509D5DFF804E2FF
:100C7000C26CDEF8907027F030073A43CEF890202F
:100C80009A0509D5DFF8ECE1026DDEF8907027F0E7
:100C9000C0073A43CEF890205F0509D5DFF8D4E1CC
:100CA000426DDEF8907027F440773A43CEF89020FA
:100CB0001A0509D5DFF8BCE1826DDEF8907027F4E3
:100CC00040673A43CEF89020DF0409D5DFF8A4E16D
:100CD000C26DDEF8907027F440573A43CEF890206A
:100CE0009A0409D5DFF88CE1026EDEF8907027F4E3
:100CF00040473A43CEF890205F0209D5DFF874E10F
:100D0000826FDEF8907027F080673A43CEF890202B
:100D100013F4001710D0DFF85CE1D0F87C90DEF817
:100D20009020B9F1006F22F0006208BF4FF0010C73
:100D300042EA0902CEF890205A030AD5DFF834912E
:100D4000D9F8902022F0407E426F4EEA0202C9F8A4
:100D500090201A0200F19480B3F1007F00F0A0808F
:100D6000CA0700F19D80BCF1010F00F092810020C4
:100D700007B0BDE8F08F13F4002429467FF4FFAEDE
:100D8000A44613F480183FF410AF3A4F066CD7F81E
:100D90008C20B6F5800F22F4400242EA0602C7F822
:100DA0008C2000F07481002E08BF4FF0010C13F06E
:100DB000807618BF01219A067FF5FEAE2D4FDFF831
:100DC000BCE0D7F840902C4A49F08059C7F84090D1
:100DD0003F6C07F080570597059FDEF8007047F4D9
:100DE0008077CEF80070D2F8489606E0D2F84876C0
:100DF000A7EB0907642F00F24281DEF80070FF05BF
:100E0000F4D5DFF870E0076BDEF870A007F44079E6
:100E10001AF4407A19D0D14517D0DEF870A0DEF868
:100E200070B02AF4407A4BF4803BCEF870B0DEF814
:100E300070B02BF4803BCEF870B0CEF870A0DEF826
:100E400070A01AF0010F40F04182B9F5407F00F028
:100E50002982DFF820E0DEF8082022F4F812CEF82C
:100E60000820044AC7F30B07D2F870E047EA0E07E0
:100E70001767A1E6003802402025012000700040DD
:100E8000DFF85C93B3F1007FD9F8902022F0805E08
:100E9000D0F880204EEA0202C9F890207FF460AFBB
:100EA000DFF83CE3CD4ADEF8001021F08061CEF897
:100EB0000010D2F8489606E0D2F84816A1EB0901D6
:100EC000642900F2DC80DEF800100901F4D4002D62
:100ED00047D0416B002944D1DEF884904FF440356F
:100EE00095FAA5F1B1FA81F10091DEF88410019133
:100EF0004FF0706191FAA1FABAFA8AF547F6C07B11
:100F000002959BFAABFB4FF44035BBFA8BFB95FA8D
:100F1000A5F5B5FA85F591FAA1F1B1FA81F14FF095
:100F2000E04A03919AFAAAFA009909F44039BAFA08
:100F30008AFA29FA01F9019909FA05F901F07065AF
:100F40000299CD4003998D40416801FA0BFB8168FD
:100F500001FA0AF14BEA010141EA09012943CEF8FD
:100F60008410002C40F04881B8F1000F04D0016CCF
:100F7000B1F5800F00F04581002E42D0DFF860927D
:100F80004FF0706AD9F884609AFAAAFBD9F88410F5
:100F9000BBFA8BFB00914FF0E04191FAA1F5B5FA55
:100FA00085F5019547F6C07595FAA5F54FF4403ED5
:100FB000B5FA85F59EFAAEFEBEFA8EFE9AFAAAFA48
:100FC000BAFA8AFA91FAA1F106F0706602910099D4
:100FD00026FA0BF606FA0AF601F0E04A01992AFA17
:100FE00001FA0299B1FA81F10AFA01FA4168A940BD
:100FF000056905FA0EF52943314341EA0A01C9F8AA
:101000008410990126D547F6C07191FAA1F14FF4E9
:10101000403EB1FA81F19EFAAEFE4FF07066BEFA24
:101020008EFE96FAA6F64FF0E045B6FA86F695FAE9
:10103000A5F54368B5FA85F58B40016901FA0EF113
:101040000B43C168B1400B438168A9400B4364491D
:10105000C1F8843062490B6843F080630B60D2F8BA
:10106000485604E0D2F848365B1B642B07D80B685F
:101070001B01F7D5BCF1010F7FF479AE09E0032025
:1010800007B0BDE8F08F4FF0000C012179E6012197
:101090008BE55349514A0B6823F080530B60D2F81B
:1010A000485604E0D2F848365B1B642BE7D80B683F
:1010B0009E00F7D4002C40F00481B8F1000F46D018
:1010C000036C002B43D1464D4FF4403CD5F888408B
:1010D0009CFAACF94FF0E043B9FA89F9D5F88810D9
:1010E00093FAA3FE47F6C076BEFA8EFE96FAA6F6EF
:1010F000B6FA86F69CFAACFCBCFA8CF84FF0706C31
:101100009CFAACFCBCFA8CFC93FAA3F301F0E0412E
:10111000B3FA83F304F4403421FA0EF124FA09F40B
:101120009940436904FA08F4B340866906FA0CF65C
:10113000334323430B43C5F88830D5F88C30816A9C
:1011400023F4F853013943EA0123C5F88C30002F0A
:101150003CD0C36FB3F1006F38D1214D4FF07064B4
:10116000D5F8888094FAA4F94FF0E043B9FA89F9E8
:10117000D5F8881093FAA3FE47F6C07CBEFA8EFE1F
:101180009CFAACFC4FF44037BCFA8CFC97FAA7F7FA
:10119000B7FA87F794FAA4F4B4FA84F693FAA3F3AF
:1011A00001F0E041B3FA83F308F0706421FA0EF124
:1011B00024FA09F499404369006AB44003FA0CF335
:1011C000B840034323430B43C5F8883004490B68F8
:1011D00043F080530B60D2F8480609E02025012037
:1011E00000380240D2F848361B1A642B3FF647AF4E
:1011F0000B689B00F6D5BAE5C16BB1F5801F7FF493
:10120000B3AEDFF8F0904FF44035D9F884E095FAAA
:10121000A5F1B1FA81F10091D9F8841001914FF054
:10122000E04191FAA1FABAFA8AF547F6C07B029535
:101230009BFAABFB4FF44035BBFA8BFB95FAA5F557
:101240004FF0706AB5FA85F59AFAAAFABAFA8AFAEC
:1012500091FAA1F103910EF4403E00992EFA01FE9D
:1012600001990EFA05FE01F0E0450299CD4003997F
:10127000B1FA81F18D40416801FA0BFBC16801FAB6
:101280000AF14BEA010141EA0E012943C9F8841031
:10129000D9F88C50416A25F01F0501392943C9F856
:1012A0008C1069E6DFF84C90DFF84CE0D9F80820A4
:1012B00007EA0E0E22F4F81242EA0E02C9F80820DC
:1012C000CFE5C36B002B3FF4FEAEF6E6D2F848B68E
:1012D00041F2883A009306E0D2F84836A3EB0B03BC
:1012E00053453FF6CCAEDEF870309B07F4D5009B3B
:1012F000ABE500BF00380240FFFCFF0F2DE9F047CF
:10130000046982B0C3681C4046D0814688464FF0CD
:10131000004501F1500701F13806B4FA84F325FACB
:1013200003F21B3BD2431440C9F81020B8F1000F60
:101330005FD0042B2ED8DFE803F052483D32030083
:10134000D8F81030D9F82CA033B19B6823B11FFA1C
:101350008AF108F108009847D8F8283033B19B6823
:1013600023B11FFA8AF108F120009847D8F84030DD
:1013700033B19B6823B11FFA8AF108F1380098470E
:10138000D8F8583033B19B6823B11FFA8AF108F1BD
:1013900050009847002CC0D102B0BDE8F087D8F8C3
:1013A000103008F10800D9F834105B689847002C19
:1013B000B3D1F1E7D8F8283008F12000D9F8381077
:1013C0005B689847002CA8D1E6E7D8F84030304653
:1013D000D9F83C105B689847002C9ED1DCE7D8F820
:1013E00058303846D9F840105B689847002C94D1A3
:1013F000D2E7042B07D8DFE803F01903140F0A0023
:10140000D9F83C300193019B002C86D1C4E7D9F870
:101410002C300193019BF7E7D9F834300193019BFD
:10142000F2E7D9F838300193019BEDE7D9F8403065
:101430000193019BE8E700BF2DE9F84F2C4E8B4646
:10144000D6F82022D6F84C8605E0D6F84C36A3EB29
:101450000803322B44D8D2F81472002FF5D1BBF117
:10146000000F3ED000F1FF3A4FF07009D6F840323D
:101470001AF8012F1F49CA540133C3F30B03C6F8EE
:101480004032EFF3118289F31288D2B2D6E98F315C
:1014900082F311888B42A3EB01038CBF002201224F
:1014A00003EB0233012B1FD1D6F84C36A3EB080314
:1014B000322B16D80EF03EFC04460D460EF03AFCD8
:1014C000001B61EB0501B0F57A7F71F10001F5D3E6
:1014D000EFF3118289F31288D6E98F31D2B2D7E7C0
:1014E00000273846BDE8F88F0137BB45BED1F8E785
:1014F00020250120C4350120F8B50E4D95F80432A1
:10150000032B00D0F8BD0C4B1B78002BFAD00F46F4
:101510001446D5F84C6608E0FFF78EFFD5F84C3638
:10152000241A07449B1B322BECD8002C214638464A
:10153000F2DCF8BD2025012000000120F8B590F86C
:1015400048305D1C0344EDB280F8485083F83410F5
:1015500090F8493053B1132D07D9002380F8483053
:101560000E4F97F80432032B05D0F8BD80F84830B1
:10157000002DF5D1F8BDD7F84C6600F134042946AA
:101580002046FFF759FFD7F84C362D1A04449B1B11
:10159000322BEAD8002DF2D1F8BD00BF2025012062
:1015A000F8B5002390F84850A0F8483005B9F8BDC8
:1015B0000B4F97F80432032BF9D1D7F84C6600F1A2
:1015C000340429462046FFF737FFD7F84C362D1A4A
:1015D00004449B1B322BEAD8002DF2D1F8BD00BF8A
:1015E00020250120436BDA69910670B5044613D5B6
:1015F000586AE36AC0B2002B63D0216B9847636BD3
:101600001A6822F480721A609A6822F001029A60C5
:101610009A6942F008029A61DA69D20701D501227B
:101620001A62DA69960701D502221A62DA69550749
:1016300001D504221A62DA69100701D508221A625C
:10164000DA69110612D594F89D20212A0ED0D4E92A
:1016500009128A4241D0A169895C0132C9B29962FA
:101660002169B2FBF1F001FB1022A262DA69520695
:1016700000D470BDDA6904F134001D68160799685A
:1016800017D011F0010133D115F4907F40F087801D
:10169000100602D5290600F1B1805606E9D5680684
:1016A000E7D51A68202122F040021A6084F89D10C4
:1016B00070BD9606ECD5A906EAD5BDE870407CF071
:1016C0004BBCE3696269D054E369E2680133B3FB60
:1016D000F2F102FB1133E36191E70022A4F88620C6
:1016E0001A6822F080021A60DA695206C1D5C1E791
:1016F000D60742D4960776D4510745D4110707D5AB
:1017000008211962D4F8A01041F00801C4F8A01013
:10171000D4F8A0100029ACD0910604D5AA0602D5B1
:101720007CF01AFC636BD4F8A020160703D49A68E7
:1017300012F040027DD01A68202122F490721A60C3
:101740009A6822F001029A6084F89E109A68550601
:101750008FD59A68D4F8980022F040029A60002849
:1017600087D090F83530434A022B026558D0802349
:10177000BDE870404365FEF77FBFEE0527D49607AE
:1017800031D456071CD591B104211962D4F8A010A8
:1017900041F00201C4F8A0101107B1D4B8E7D60790
:1017A00003D5EE0513D49607EBD5560708D51607D3
:1017B000AED5A906A4D4D4F8A020002AB3D170BD18
:1017C0001607A5D505F020060E43F4D098E70126AC
:1017D0001E62D4F8A06046F00106C4F8A060960727
:1017E000CFD50029E1D002211962D4F8A01041F030
:1017F0000401C4F8A0105107C6D47FE794F89D20D7
:10180000212A7FF436AFB4F8862092B2A2B91A68C2
:1018100022F080021A601A6842F040021A6070BD1D
:101820000268052380F83530136823F00103136044
:1018300070BDC4F8A02070BDE16BD4F88020B1F574
:10184000805F0BD0511CC4F8801012789A62B4F8F3
:101850008630013B9BB2A4F8863070BD616C0029D4
:10186000F0D132F8021BC1F308019962C4F880205C
:10187000EDE700BF79060108174A10B513685068F4
:1018800051681B1AC3F30B03002BF7D0B1F5805F2F
:101890000AD04B1C1148C3F30B03445C536092F80D
:1018A00050364BB9204610BD01230C49536092F8C5
:1018B00050360C78002BF5D05368116803F6FF738F
:1018C0005B1AC3F30B03802BECD9002382F850364C
:1018D00073F036FF204610BD20250120C4450120AD
:1018E0002F4B00212F4AD3F898312F48A2FB032316
:1018F00030B5DB0C2D4C83B0013BC4F86416C4F842
:101900005C1642F20F7194F89126C4F85406C4F89C
:101910006016C4F85836002A3DD0022324492248D4
:10192000002584F89136FEF737FE224B012206216E
:10193000372084F891261A6C42F020021A641B6C3E
:1019400003F020030193019B73F0C2FBD4F85436DB
:101950004FF400001849D4F820224860D968C4F830
:10196000445241F00101D960196841F00101196048
:101970001249134BC2F81052C2F80812C2F80432CE
:101980002560C4F84852656084F8505673F0D8FE5C
:10199000284603B030BD02F0FF0084F89006BCE793
:1019A0000000012083DE1B4300140040202501209D
:1019B000782B01200038024000E100E0C43501200E
:1019C000B42B01202DE9F8431B4E07460D683468FF
:1019D000C4F58058454516D82A4625441748394647
:1019E000C5F30B05204481F0CDFC3560736803F628
:1019F000FF735B1BC3F30B03802B16D973F0A0FEA0
:101A00000020BDE8F883DFF834900146424609EB38
:101A10000400A4F5805481F0B5FC07EB08012544CF
:101A200048462A4681F0AEFCDFE70123022086F813
:101A30005036BDE8F88300BF20250120C4450120B1
:101A400070B50B780D460446D0F8186213F06002AA
:101A500024D0202A01D0002070BDCA884878002AEE
:101A60003AD01B063ED5D4F81C3231469B689847C5
:101A7000EA88D4F8303202210020A261C4F8F411BF
:101A80004FF48071E261198703F138015E64C3E9A4
:101A900013201A69012A19D19E6417E04B780A2B8A
:101AA000D9D1D0F8303201210220C4E90611C4F89E
:101AB000F4014FF480741A651A691948012AD9642F
:101AC00003F1380158641C8708BF98641868D2B2C3
:101AD0007CF074F8002070BDD4F81C329B689847E5
:101AE000002070BD86F80122032186F80002D4F898
:101AF0003032C4F8F411002118690128C4E94222E7
:101B0000C3E98321A3F8F811C2B203F5FC71186888
:101B1000C3F8046208BFC3F808627CF04FF89AE784
:101B2000F42B012038B5037C0446D0F83002002B9A
:101B30003FD14FF40073022281217BF0FFFE4FF46E
:101B4000007302220121D4F830027BF0F7FE082353
:101B500003228221D4F830027BF0F0FE4FF40770AC
:101B600081F040FE0546C4F8180200283FD0D4F8A2
:101B70001C321B6898470022217CC5F81422D4F837
:101B80003032D5F80402C5F81822F9B140240121F9
:101B9000C3F82002A3F8141203F50571C3E98A42C1
:101BA0001A69012A20D01868D2B27CF07DF8002092
:101BB00038BD4023022281217BF0C0FE4023022257
:101BC0000121D4F830027BF0B9FEC0E74FF4007277
:101BD0000124C3F82002A3F81442C3E98A211A6938
:101BE00003F50571A242DED1C3F82402DBE7012030
:101BF00038BD00BF38B5037C0446D0F83002002B56
:101C000051D14FF40073022201217BF097FE4FF473
:101C1000007302228121D4F830027BF08FFE4FF452
:101C20001B7081F0DFFD0546C4F82802002847D06C
:101C30000020D4F82C322881A5F85C021B68984754
:101C4000D4F8304294F8B8332068012B12D0102217
:101C50001C4B0261013B02D00269D106FAD460221A
:101C6000184B0261013B02D002699206FAD40023AC
:101C700084F8B8331F22002305F5037504F50571B8
:101C8000C4F82822C4F82C3201232269C4F8205257
:101C90009A42A4F81432D2B208BFC4F824527CF09D
:101CA00003F8002038BD4023022201217BF046FECC
:101CB000402302228121D4F830027BF03FFEAEE7C0
:101CC000012038BD410D030038B50022D0F828426C
:101CD00005461B4B84F8381204F50B7022720D2157
:101CE000C4F82C3204F50374D5F83032DA6640F2C9
:101CF00001121866A3F854201A69996603F1540179
:101D0000012AD2B208BF586618687BF0CDFFD5F81B
:101D100030321F2000220121C3F82042C3E98A0289
:101D20001A69A3F814128A42186803F50571D2B231
:101D300008BFC3F82442BDE838407BF0B5BF00BF00
:101D4000555342532DE9F043177883B016460546A4
:101D50008846D0F828425A2F5CD8DFE817F0760082
:101D60005B005B0085005B005B005B005B005B0071
:101D70005B005B005B005B005B005B005B005B008B
:101D80005B00B3005B005B005B005B005B005B0023
:101D90005B00C60070005B005B0070005B005B00D6
:101DA0005B005B006F015B00D7005B005B00FA002B
:101DB0005B00C6015B005B005B005B00A5015B0094
:101DC0005B005B005B005B005B005B005B005B003B
:101DD0005B005B005B005B005B005B005B005B002B
:101DE0005B005B005B005B005B005B005B005B001B
:101DF0005B005B005B005B005B005B005B005B000B
:101E00005B005B005B005B005B005B005B005B00FA
:101E10005B00920194F85D3205204FF400515A1C8A
:101E200004EBC303D2B283F83C02C3F84012042A85
:101E300000F0F58184F85D224FF0FF3002E00023CE
:101E40006381002003B0BDE8F083D4F81432002B86
:101E500040F0D481D0F82C3208469B68984700287F
:101E600040F0B0826081ECE77022002194F85C328F
:101E700022730C22C4F81110E27494F85D22C4F8A5
:101E80000D109A42C4F81510C4F81910617713D0D8
:101E900004EBC302013392F83C02DBB2A073042BC3
:101EA00092F84102207692F8402218BF84F85C3202
:101EB000627608BF84F85C12122363813379122B97
:101EC000BFD8BDE75378DB0740F16C810722C948D2
:101ED0001346628103F10C020344224413F8011DEE
:101EE000834202F8011DF9D1ABE70023082208461E
:101EF000E3602361D5F82C326281DB6898470028C3
:101F00009FD0A37B63F07F03A3739AE7D0F82C32B2
:101F100004F25E22084604F518715B6898470028B1
:101F200040F0E681D4F8603208222082013B6281D1
:101F3000190E1A0C61F30700190A62F30F20B4F8A6
:101F40005E2261F3174052BA63F31F606282E06061
:101F500077E7277A002F40F0648194F91832002B3C
:101F600080F24882D0F82C3208469B6898470028B7
:101F700040F02A81D6F8022012BAC4F86422B6F8DA
:101F80000730D5F828625BBAD6F860129BB29F186A
:101F9000C4F868328F4200F24182B4F85E1201FB4D
:101FA00002F201FB03F3C4E9992302222272D4F85E
:101FB0001422934240F0F3814FF40073D6F8642268
:101FC000D5F82C1206F10C0763814046D6F868421A
:101FD000D1F8108039469C4228BF1C46B6F85E32C4
:101FE000B2FBF3F2B4FBF3F39BB2C0470028C0F29C
:101FF000C381D5F830320022DA6640F2011203F1D3
:1020000054011868A3F854201A691F66012A9C66B7
:10201000D2B208BF5F667BF047FED6F83422D6E91D
:102020009913121B21441B1BC6F83422C6E99913CD
:10203000002B7FF406AF0323337202E70023084628
:102040000DF1020201A9E36023616361D5F82C322E
:102050005B689847002840F05F81BDF802200821A6
:10206000019B52BAE173013BE2820C22190EE37428
:1020700062811A0C1B0A217462740222A374A28268
:10208000E0E65D4B082203CB6281E06040462161BF
:10209000D5F82C32DB68984700283FF4D2AEE37BBA
:1020A00063F07F03E373CCE6537813F0020340F050
:1020B0001981B4F86822D4E9981002448A427FF664
:1020C000BFAE94F85D2205201146013204EBC10138
:1020D000D2B281F83C024FF40450042AC1F8400205
:1020E0007FF4A8AE84F85D32A6E694F80890B9F1C2
:1020F000000F40F0988094F91832002BC0F2B7819D
:10210000D0F82C3208469B6898470746002840F0D4
:102110009781D5F82C324046DB6898470146002865
:1021200040F01181D6F8022012BAC4F86422B6F841
:102130000730D5F828625BBAD6F860029BB2D71890
:10214000C4F86832874200F20481B4F85E0200FBF2
:1021500002F200FB03F3C4E99923D4F8142293425A
:1021600040F0AE800120B3F5007F04F10C0404F8C8
:10217000040C28BF4FF40073D5F830522A69C5F813
:102180002C1205F505718242A5F81402D2B2286816
:10219000C5F82832C5F8204208BFC5F824427BF0B4
:1021A00083FD4EE6D0F82C3201EBC1011279D869DB
:1021B00000EB810003790533934228BF1346638106
:1021C000002B7FF487AE3CE6D5F8282202244FF49A
:1021D000685092F85D32591C02EBC303C9B283F810
:1021E0003C42C3F84002042914BF82F85D1282F811
:1021F0005D7221E6E83E0908F03E090894F85D3278
:1022000005204FF400511A460133DBB204EBC20241
:10221000042B82F83C02C2F840127FF463AF002323
:1022200060E72646C8E6D4F868620846B4F85E322D
:1022300004F10C07B6F5007FD4F86422D5F82C120F
:1022400028BF4FF40076D1F814803946B2FBF3F280
:10225000B6FBF3F39BB2C0470028C0F21C81D4F850
:102260006432D4F834223344921BC4F86432D4F874
:102270006832C4F83422991BC4F8681219B9284688
:10228000FFF722FDDDE5B1F5007FD5F830020B4602
:102290004FF0000228BF4FF400730121C0F82072F4
:1022A000A0F8141200F50571C0E98A320269012A0A
:1022B000D2B208BFC0F8247200687BF0F5FCC0E51C
:1022C00096F85D3205244FF4005006EBC30201334B
:1022D000DBB282F83C42C2F84002042B49D086F8B7
:1022E0005D32A9E594F85D3205204FF4105196E572
:1022F000D5F8282202244FF4685092F85D3202EBA0
:10230000C3010133DBB281F83C42C1F84002042B27
:1023100043D082F85D328FE5D5F828124FF4685427
:1023200002254FF0FF3091F85D22531C01EBC202F1
:10233000DBB282F83C52C2F84042042B08BF0023B3
:1023400081F85D327EE5D5F8282202244FF41C5036
:102350003FE796F85D3205201A46013306EBC202CC
:10236000DBB282F83C024FF40450042BC2F8400266
:10237000B5D186F85D125FE5D5F8282204244FF424
:10238000885092F85D3202EBC3010133DBB281F871
:102390003C42C1F84002A342BBD10023B9E796F802
:1023A0005D3205211A46013306EBC202DBB282F828
:1023B0003C124FF40051042BC2F840128FD186F822
:1023C0005D0239E5D5F828220225052092F85D3214
:1023D0001946013302EBC101DBB281F83C524FF4E4
:1023E0006855042B08BF3B46C1F8405282F85D3265
:1023F000207221E594F85D3205211A46013304EB81
:10240000C202DBB282F83C124FF40051042BC2F836
:1024100040127FF467AE84F85D720DE596F85D3288
:1024200005211A46013306EBC202DBB282F83C12E8
:102430004FF40451042BC2F840127FF450AFBEE7B2
:10244000D5F8282202244FF4685092F85D3292F8B1
:102450005D12013302EBC101DBB281F83C42042B77
:10246000C1F840027FF455AF82F85D92E4E494F83D
:102470005D3205211A46013304EBC202DBB282F859
:102480003C124FF40051042BC2F840127FF42AAEE4
:1024900084F85D92D0E4D5F8282204244FF44070EB
:1024A00092F85D321946013302EBC1016EE700BFBD
:1024B000D0F8281210B50B7A022B07D0033B012B62
:1024C00002D80021FFF700FC002010BD01F21B2202
:1024D00091F819120446FFF735FC0028F4DA0121BF
:1024E0002046FFF7F1FBEFE770B5D0F8304240F23D
:1024F0000112054694F8B833A4F85420012B2ED0CD
:10250000012620683246314684F8B8637BF0B0FC7F
:10251000002231462068A4F8146284F8B8637BF086
:10252000A7FC4FF4817332460221A4F87030206872
:1025300084F8B8637BF09CFC002384F8B833D5F8AA
:10254000183253B1D5F81C325B689847D5F8180299
:1025500081F050F90023C5F81832002070BD4FF407
:102560008172A4F81432A4F87020E8E770B5D0F8AE
:1025700030420126054694F8B833A4F81462B342F9
:102580001CD000223146206884F8B8637BF070FCD0
:1025900040F2011332463146A4F85430206884F8E2
:1025A000B8637BF065FC002384F8B833D5F82802C3
:1025B00081F020F90020C5F8280270BD40F2011317
:1025C000A4F85430F2E700BFF8B50B780446D0F811
:1025D000285213F0600228D0202A2DD14A78FE2AF2
:1025E00033D0FF2A2AD14A88002A35D1CA889ABB1B
:1025F0001B0631D44FF4807305F5037001212B8144
:10260000D4F830321F24C3E98A421A69C3F8200281
:10261000012AA3F81412D2B203F5057108BFC3F85A
:10262000240218687BF040FB06E04B780A2B17D099
:102630000B2B07D0012B2CD00020F8BD7BF054FAD7
:102640000220F8BD8B786B60F6E74F8827B9CE88FB
:10265000012E01D11A067ED420467BF045FAEFE721
:10266000D0F83032022101200435C4F8F41103F10E
:102670003801C4E906001A651A69D8644FF48070FD
:10268000012A5D6418877DD0D2B218687BF096FA73
:10269000D2E78A88D0F83062D7B202F07F004FFAD2
:1026A00082FC96F8B823012A00F0AF80BCF1000F3D
:1026B000316886F8B83367DB1023594A0B61013A59
:1026C00000F0A7800B6913F01003F8D186F8B83337
:1026D000C7EBC7034FF4FC721C2106EB830311FB0D
:1026E0000721002783F8F80183F8F971721896F82A
:1026F000B833012B09D00123306886F8B8335278FB
:10270000715C7BF0B5FB86F8B873237C002B78D125
:102710004FF400730222304601217BF00FF96B7AEF
:10272000022B89D1D4F83042012240F2011194F8F1
:10273000B83384F856209342A4F8541008D01146B8
:10274000206884F8B8237BF06DF9002384F8B8334F
:1027500000236B7270E7D0F82C329B6998470223F4
:1027600028604FF48071C4F8F431D4F830321A691B
:10277000012AC4E90666198703F13801DE645D6445
:102780001F6581D19D647FE78301254A43F02003C3
:102790000B61013A40D00B6913F02003F9D186F8A0
:1027A000B833C0EBC00338221C2106EB830311FBB6
:1027B0000021012283F8380083F83920701896F838
:1027C000B833934209D086F8B8234278715C3068F8
:1027D0007BF04EFB002386F8B833237C9BB94FF483
:1027E00000730222304681217BF0A8F86B7A022B1D
:1027F00098D0012B3FF420AF01212046FFF764FA67
:102800001AE7402386E74023EBE7BCF1000FC8DB63
:102810005EE786F8B8235BE786F8B823C1E700BF18
:10282000410D030070B5D0F82852D0F8304295F829
:10283000183213B9D5F81432C3B9012194F8B8335A
:1028400040F201128B4284F85610A4F8542009D0AB
:1028500001222068114684F8B8237BF0E3F80023B6
:1028600084F8B8336B7A022B1FD070BD6E7A002EBD
:10287000E3D1012194F8B8338B4284F81612A4F8FE
:10288000141208D03246206884F8B8137BF0CAF8D6
:10289000334684F8B863012140F201128B4284F878
:1028A0005610A4F85420D3D170BD1F21002201235B
:1028B00005F503752068C4F82052A4F81432C4E961
:1028C0008A12226904F505719A42D2B208BFC4F88F
:1028D0002452BDE870407BF0E7B900BF70B5D0F876
:1028E00028420546267A86B1012E01D0002070BD0F
:1028F00004F21B2294F81912FFF724FA0028F5DAE3
:1029000001212846FFF7E0F9F0E7D4F81432D4F8B3
:102910001022C4F83432D0F83032C4F83022B3F880
:102920002C321F2B08D1314BD4F80C229A4203D100
:1029300094F81912012918D994F85D324FF4005116
:102940000526284604EBC3020133DBB282F83C6261
:10295000C2F840120222042B627208BF002384F8DE
:102960005D32FFF75FFF002070BD94F81A32013B23
:102970000F2BE1D804F21B22FFF7E4F90028237A99
:1029800029DB013B022BB1D9618951B3D5F828224B
:102990000C34D2F81432D2F83402994282F83862F8
:1029A00028BF19460423401A1372D5F83032C2F8F2
:1029B00034021A69996640F20111012A1868A3F8D5
:1029C0005410D2B203F154011C66DE6608BF5C6687
:1029D0007BF06AF98AE7052B92D02846FFF722FFA1
:1029E00084E72846FFF770F980E700BF555342435C
:1029F00008B520B9044872F04DF9044808BD0448F0
:102A000072F048F9014808BD5CF80908F82B01206C
:102A100080F80908024808B572F03CF9014808BD81
:102A2000A4F80908F82B0120024808B572F032F921
:102A3000014808BDACF80908F82B0120024808B588
:102A400072F028F9014808BDB8F80908F82B0120F0
:102A50002DE9F843DDF820800F461646002120229C
:102A600004461D4681F022F8B8F1000F0CD0D8F8CA
:102A70000030B8F80A20E3811B0C2382D8F8043018
:102A80006282E3821B0C238338467BF0DBFCF30677
:102A900019D4431EB8B107EB000C01E0013B12D37F
:102AA0001CF801EDBEF12E0FF8D1C01A03F1010997
:102AB000421EB944032AA8BF0322082BA8BF08233B
:102AC00090461A4606E008280246B9464FF000082C
:102AD000A8BF08224FF020333946204623606360A8
:102AE00080F050FC164B04F1080042464946238111
:102AF000837080F047FC611EE21D11F801CFACF13C
:102B00006103ACF1200C192B98BF81F800C09142F1
:102B1000F3D104F10A0011F8013FA3F16102203B57
:102B2000192A98BF0B708142F5D1182365832D0CAB
:102B3000E6722373099BA582E361BDE8F88300BFB9
:102B4000202020002DE9F04FDFF868940C4685B076
:102B5000B9F86C12D9F868020D048561002B63D0B6
:102B6000154604F5FE7603EB020B1FE0002D69D03D
:102B7000D9F82436AB4200F0CC80D9F82036AB42ED
:102B800000F0FE80D9F82836D9F82C16AB4250D880
:102B9000A94200F27981691A204672F02DF80135B8
:102BA00004F5007406F500765D4539D0D9F8302675
:102BB000AA42DBD8AA1AD9F84076D308396B02F0BA
:102BC000070802338B4202D3BA6B93420BD93946C2
:102BD0001846039371F0E0FF039B0746002800F0BE
:102BE0007381C9F840063A79002A40F02481D7F869
:102BF00028A0BAF1000F00F060813A6B0135204641
:102C00004FF400719B1AFA6804F5007406F500761B
:102C100008EBC3083B4602EB4822D0475D45C5D1CF
:102C2000D9F86802B9F86C128161002005B0BDE8DE
:102C3000F08FA942AFD94FF400720021204680F0F6
:102C400035FFACE74FF400722946204680F02EFF96
:102C50008023CC4A84F8BE310C2384F8C231D9F8E1
:102C60002016D9F818369142C4F8C611C4F8CA31F2
:102C700000F30F81C44A013BC44F82FB0102C81715
:102C800087FB01C70A44C0EB6212C0EB2730C04F7C
:102C900087FB02C7C2EB821C84F8C1018010A1EB44
:102CA0000C01174420F03F0001310843D117C1EB5C
:102CB000E71184F8C0010A4484F8BF21B14A934265
:102CC00000F3F380B04AB14882FB0312D91780FBAE
:102CD00003701A44C1EB6212C1EB2031AC4880FB97
:102CE0000270C2EB821784F8C5118910DB1B1044F7
:102CF00021F03F0101331943D317C3EBE01384F8EC
:102D0000C4111A4484F8C3214AF65523A4F8FE31AD
:102D100045E74FF0FF3300274FF4F072201D84F891
:102D2000EC31394684F8ED3184F8EE3184F8EF3136
:102D30005223237063706123A37084F8E731412329
:102D4000E37084F8E631722384F8E43184F8E531E5
:102D5000D9F83836C4F8E83180F0A8FE5523C4F815
:102D6000F07184F8FE316FF05503C4F8F471C4F8C3
:102D7000F87184F8FC7184F8FD7184F8FF310EE776
:102D80004FF400720021204680F090FE814B022219
:102D900003CB45F6EB032274227323809023A273A6
:102DA000A370F82384F82C200822C4F8030062736F
:102DB000C4F807106375D9F82016D9F818365B1ACD
:102DC000D9F828162362D9F82C365B1A4AF6552111
:102DD00063620023E372E3736377A377E37784F896
:102DE0002D3084F82E3084F82F3084F831306A4B3F
:102DF000A3613E232377012384F83030802384F8B5
:102E00004030664BC4F84230654B84F84620A4F845
:102E1000FE11644A03CBC4F84B101988C4F847006C
:102E20009B78A4F84F1084F8513003CAC4F85200BC
:102E3000C4F85610B3E64FF400720021204680F02B
:102E400035FE3B6CB8F1000F45D104F1200A002B90
:102E500000F081803B6B112253492046CDE9008868
:102E6000FFF7F6FD3B6C1A6C002A00F081801B6BAB
:102E7000504611224D49CDE90088FFF7E9FD04F1E4
:102E8000400A4FF4E07871E0E91A204671F0B4FE90
:102E900085E6FF22013B84F8C1214FF6FF72A4F8BA
:102EA000BF21384A93427FF70DAFFF2384F8C53125
:102EB0004FF6FF73A4F8C33126E751464FF4007272
:102EC000204680F0F3FD6AE6231F394A43F8042FB9
:102ED0009E42FBD163E6002B7F6C14BF02230123CB
:102EE000C3EB0813002F3FF45AAE013BBF6C002B1D
:102EF00001DD002FF9D1A2464FF40078002F3FF4F6
:102F00004EAE0AEB080303959A460BE00025A8F1A4
:102F10002008CDE900E5FFF79BFDBF6CCFB1B8F10C
:102F20001F0F16D93D7907F11C0E112239683B6B32
:102F3000AAEB0800002DE9D17A79A8F120083D69B3
:102F400042F02102CDE900E5FFF782FDBF6C002FC2
:102F5000E5D1039D23E6CDE9008843464FF4F078A0
:102F60000822D9F81C162046FFF772FD7F6CC5E7D2
:102F70005046434611220D49CDE90088FFF768FD10
:102F80007DE700BFFF03FB00832008829755454182
:102F900081808080C8F809083F00FF0029940E0D49
:102FA000D4F80908E0F80908B4130A08C0120A089E
:102FB000DEADBEEF2025012082B006490190D1F898
:102FC0004806D1F84836019A1B1A9342F9D302B049
:102FD000704700BF20250120194A936803F00C03B5
:102FE000042B2AD0082B01D016487047516847F6A9
:102FF000C07C536801F03F0150685B029CFAACF260
:1030000048BF114BB2FA82F258BF0E4B00EA0C00D7
:10301000B3FBF1F3D0404FF4403203FB00F0084B18
:103020005B6892FAA2F2B2FA82F203F44033D34020
:1030300001335B00B0FBF3F070470348704700BFFB
:10304000003802400024F40000127A000269C169CD
:1030500038B58368044605681343426928681343FA
:10306000B54A0B430240E06813432B606A68A369CA
:1030700022F440520243206A6A600343AA6822F4A1
:1030800030621343AD4A9542AB6045D0AC4B9D4294
:103090001CD0AC4B9D4200F0D780AB4B9D4200F062
:1030A000E180AA4B9D4200F09480A94B9D4249D0FB
:1030B000A84B9D4200F01981A74B9D4200F026814C
:1030C000B1F5004F00F0DC80012038BD03F5FA3384
:1030D000D3F8903003F00C030C2BF1D801A252F876
:1030E00023F000BFEB310108C1300108C1300108F5
:1030F000C130010877310108C1300108C130010831
:10310000C130010857310108C1300108C130010840
:10311000C13001082B310108904BD3F8903003F0F7
:103120000303022B17D0032B32D16268B1F5004F95
:103130004FEA520378D003F50043B3FBF2F39BB29E
:10314000EB6044E003F59233D3F8903003F440632E
:10315000B3F5006F0CD16268B1F5004F4FEA52042D
:103160006ED07F4B2344B3FBF2F39BB2EB602EE0B7
:1031700000F2DD8073B1B1F5004F44D0FFF72CFFB2
:10318000626800EB5203B3FBF2F39BB2EB601EE00C
:10319000012BF0D0B1F5004F75D0704A4FF4604369
:1031A000926893FAA3F3B3FA83F302F46042DA402D
:1031B0006C496D4B0A446068D3F8983192F8382016
:1031C000D34003EB5003B3FBF0F39BB2EB60002062
:1031D00038BD03F5F433D3F8903003F44073B3F5FE
:1031E000007FB8D07CD8002BC5D1B1F5004F6CD092
:1031F0005A4A4FF4E053926893FAA3F3B3FA83F375
:1032000002F4E052D3E7FFF7E7FE63685A0802EBE7
:1032100040020020B2FBF3F2C2F3420322F00F029D
:1032200013439BB2EB6038BD03F580330020B3FB42
:10323000F2F2C2F3420322F00F0213439BB2F1E712
:103240004A4B00202344F2E703F5F833D3F89030DB
:1032500003F03003202B3FF47EAFC4D9302B3FF472
:1032600064AF2DE703F5F633D3F8903003F0C003D5
:10327000802B3FF470AFB6D9C02B3FF456AF1FE799
:1032800000230120CEE7354B4FF460429B6892FA51
:10329000A2F2B2FA82F203F46043D340314A3249D7
:1032A000002013446468D1F8981193F8383062080C
:1032B00021FA03F302EB4302B2FBF4F2C2F342033E
:1032C00022F00F0213439BB2ACE7244B4FF4E052C1
:1032D0009B6892FAA2F2B2FA82F203F4E053DCE7BE
:1032E000B3F5407F3FF421AFEAE603F5E033D3F8CE
:1032F000903003F44053B3F5005F3FF42CAF7FF6FA
:1033000072AFB3F5405F3FF410AFD9E603F5DE339B
:10331000D3F8903003F44043B3F5004F3FF41BAFB4
:103320007FF661AFB3F5404F3FF4FFAEC8E6B3F5AB
:10333000406F3FF4FAAEC3E6F369FFEF00100140BF
:103340000044004000480040004C00400050004055
:103350000014014000780040007C0040003802402A
:103360000024F400C03E0908000001200048E801E4
:103370008848894A8949121A30B5A7B080F002F806
:10338000874A884B0021D2F88840874844F470046B
:10339000C2F888401C6844F001041C6099601C68F5
:1033A0002040824C18605C601868814C20F48020BA
:1033B0001860D9609460BFF34F8FBFF36F8FC2F86E
:1033C0005012BFF34F8FBFF36F8F516941F400313B
:1033D0005161BFF34F8FBFF36F8F196C754A41F086
:1033E00080511964196C01F08051029102991168A1
:1033F00041F440411160126802F440420192019A86
:103400009A6802F00C02042A00F098809A6802F090
:103410000C02082A00F08E80624A674C136843F45D
:1034200080331360D4F8481604E0D4F848365B1AA9
:10343000642B7ED813689803F7D55A4A936803F033
:103440000C03082B75D0136823F080731360D4F835
:10345000481604E0D4F848365B1A022B69D8136882
:103460009B01F7D447F6C07090FAA0F04FF44033B8
:10347000B0FA80F093FAA3F34FF0706191FAA1F1E2
:103480004FF4D873B1FA81F18340092000FA01F1B9
:103490004A480B43434918435060136843F0807314
:1034A0001360D4F8482604E0D4F848369B1A022B5F
:1034B0003FD80B689D01F7D50B6C3E4A43F0805313
:1034C0000B640B6C03F080530393039B136843F46A
:1034D00080331360D4F8481605E0D4F848365B1AF8
:1034E000B3F57A7F2ED85368D803F6D513683149DF
:1034F00043F400331360D4F8482605E0D4F8483686
:103500009B1AB3F57A7F1DD84B689B03F6D54FF411
:1035100000124FF000634FF4C07104A80492072218
:1035200023930323CDE909120C93FDF70FFB50B150
:10353000FEE7FEE75B685C027FF56EAF194B1E4C41
:103540001B687AE7FEE71E4A136803F00F03062B99
:103550000BD8136823F00F0343F0070313601368BD
:1035600003F00F03072B40F094800E4B9A6822F073
:10357000F0029A601A68950140F18B809A6841F2D6
:10358000883022F0030242F002029A60D4F8481612
:103590001DE000BF00000000283F000094770A08EB
:1035A00000ED00E000380240FFFFF6FE103000247E
:1035B0000000000800700040202501200800402085
:1035C000003C0240D4F84826521A824261D89A68D8
:1035D00002F00C02082AF5D14E4A136818070AD5E2
:1035E000136823F00F0343F007031360136803F01D
:1035F0000F03072B4DD1484CA36823F4E05343F449
:10360000A053A360A36823F4604343F40043A36082
:10361000FFF7E2FCA2684FF0F00C01469CFAACF018
:10362000B0FA80F002EA0C023C4DC2403C4B3D4CEB
:103630002A4492F8402021FA02F2A3FB0213C4F8B4
:1036400098219B09013BB3F1807F09D24FF0E02222
:103650005361354B83F823C0002393610723136123
:103660004FF0FF30002171F033FD00232F4A04A8F2
:10367000CDE915330492CDE91733CDE91933CDE9FE
:103680001B33CDE91D33CDE91F33FDF75FFA08B1D8
:10369000FEE7FEE7204BD3F88C2022F08072C3F8BF
:1036A0008C20D3F88C2042F08072C3F88C209A686A
:1036B00002F00C02042A29D0082A0ED01C4B164A0C
:1036C0001C499268C2F30312154495F84020D34078
:1036D0008B42C4F898311BD0FEE759685A684902FA
:1036E0005B6802F03F0248BF1349C3F3881358BF19
:1036F0000F49B1FBF2F202FB03F3074A5268C2F32F
:10370000014201325200B3FBF2F3D8E70A4BD6E78D
:1037100027B030BD003C024000380240C03E0908DE
:10372000D34D62100000012000ED00E0C0FF030057
:103730000024F40000E6DF0C00127A002DE9F843C3
:10374000056804468846C5F30E07002F3DD0584E45
:10375000D1F8009096F8EC37012B09D0012386F8B8
:10376000EC3771F05FFC074630B1002386F8EC3788
:103770006FF00100BDE8F883DFF84881D8F8103019
:1037800023F44073C8F81030D8F8103043F40073B5
:10379000C8F81030D8F8103043F00103C8F81030E2
:1037A000C5F80090BFF34F8F71F03CFCD8F8103093
:1037B00023F00103C8F8103086F8EC770028D7D141
:1037C000236804332360BDE8F8833A4B9D421BD342
:1037D000394B9D4217D9394B9D425CD3384B9D42A2
:1037E0005BD903F500339D4259D903F580239D42EF
:1037F00057D903F580239D4255D9B5F1016F54D3B4
:1038000005200CF067FE0127294E96F8EC37012BB6
:103810003ED0012386F8EC3771F004FC8146002885
:1038200033D1284D78232A6922F440722A612A690B
:1038300042F400722A612A6922F0F8022A6193FA9E
:10384000A3F3B3FA83F39F402B691F4347F00207AA
:103850002F612B6943F480332B61BFF34F8F71F0DD
:10386000E1FB2B6923F07A032B6186F8EC9778B99A
:1038700001232568D8F8009086F8EC3771F0D2FB68
:10388000074600283FF478AF6FE7002386F8EC374F
:103890004FF0FF306EE70227B6E70327B4E70427AF
:1038A000B2E70527B0E70627AEE70727ACE700BF7A
:1038B0002025012000800008FFFF0008008001088B
:1038C000FFFF0108003C02400148FCF7D1BC00BFEB
:1038D000182D0120084810B4D0F8F837D0F82C483B
:1038E00099691A682CB1234600F5FF605DF8044B16
:1038F00018475DF8044B7047202501200148FCF76C
:10390000B7BC00BF682D0120084810B4D0F8483873
:10391000D0F87C4899691A682CB1234600F6480013
:103920005DF8044B18475DF8044B704720250120D3
:103930000148FCF79DBC00BFB82D0120084810B419
:10394000D0F89838D0F8CC4899691A682CB1234639
:1039500000F698005DF8044B18475DF8044B70477B
:10396000202501202DE9F04F430083B000EB4005F6
:103970000193C34B03EB8505D5F89C61002E00F045
:103980007B81814695F8A20171F0ACF995F8A00110
:1039900009F0BAFE044695F8A10109F0B5FE09F157
:1039A00001038046DBB2002C00F0948140F60C123B
:1039B000A1882372E2802268002800F07C810372D3
:1039C00040F60C23C3809161D8F80030B8F8042089
:1039D0009A6111212046092709F056FE112140461F
:1039E00009F052FE6525002C00F054812268A3885E
:1039F00011690B4200F04E811B0493610CF09AF99F
:103A000005468B460CF096F9401B61EB0B0105282F
:103A100071F10001F6D314B12368A2889A610CF009
:103A200089F905468B460CF085F9401B61EB0B01CB
:103A3000052871F10001F6D3013FD3D11CB1A38851
:103A400022681B0493610CF075F905460F460CF0D3
:103A500071F9401B61EB0701052871F10001F6D3F4
:103A6000B8F1000F05D0B8F80430D8F800201B04D6
:103A700093610CF05FF905460F460CF05BF9401BB3
:103A800061EB0701052871F10001F6D314B1236839
:103A9000A2889A610CF04EF905460F460CF04AF9DF
:103AA000401B61EB0701052871F10001F6D3B8F165
:103AB000000F04D0D8F80030B8F804209A61019BB8
:103AC00020463E214FEA890503EB09076C4B03EBC7
:103AD000870797F8A641224609F0F6FD22464046A0
:103AE0003E2109F0F1FD674C09EB89034FF4E052E8
:103AF00004EB0313C3F8F867634B9B6892FAA2F2D6
:103B0000B2FA82F203F4E0536049D34097F8A3215C
:103B10000B445B49022A93F83830D1F8980120FA17
:103B200003F000F0CF80032A00F0C780012A14BF01
:103B30004FF4C8714FF4487171F02AF9034605EB50
:103B40000902002104EB0212C2F80018C2F808189A
:103B5000C2F80C18C2F81418C2F818180121C2F8DB
:103B6000FC37C2F8041892F8391801F0FF00002958
:103B700000F0AD8005EB0902242723F0706304EB0D
:103B8000021282F83978316821F001013160336125
:103B9000B36823F40043B3604FF40043B36003F110
:103BA000007371680B437360D2F81038F1681B0220
:103BB00021F40041F160F36000233360316841F08B
:103BC000010131602021C2F83C3882F83918C2F86E
:103BD000283882F83A3892F839182029C8B217D113
:103BE00092F83818012913D082F83978316821F019
:103BF00001013160316821F48051316031683160F8
:103C0000316841F00101316082F8390882F83838B2
:103C1000019B02211A4A4B4402EB830393F9A571DD
:103C200093F8A561384671F053FA002F07DB06F0D0
:103C30001F02012376099340154A42F82630019B62
:103C400002210F4A4B4402EB830A9AF9A4719AF8B5
:103C5000A461384671F03CFA002F07DB710901239B
:103C600006F01F060A4AB34042F821304D440123B2
:103C700004EB051484F8F43703B0BDE8F08F00BFFF
:103C8000000001202025012000380240C03E090824
:103C900000E100E0013D25D00CF04CF883468A4657
:103CA0000CF048F8B0EB0B0061EB0A01052871F14C
:103CB0000001F5D397E691618BE6C82171F068F8B1
:103CC00003463CE7642171F063F8034637E782F866
:103CD00038084FE700283FF47CAE037240F60C230F
:103CE000C38071E6002C3FF489AEA388226883E686
:103CF0002DE9F04F441C83B091469DF834202DD01F
:103D000000EB800CC34D0646870005EB0C104FEA14
:103D10000C1C90F8F4A7BAF1000F1FD0AC44B9F115
:103D2000FF0F9E464FEA41080CF5FF6400D0DBB957
:103D3000002A40F0AF80BA1905EB021292F8392838
:103D4000202A02D1BEF1000F12D1B5F8E438304676
:103D500001339BB2A5F8E438FFF704FE4FF0000AE8
:103D6000504603B0BDE8F08F90F83928202AECD1F6
:103D7000BA1905EB021292F838180129E5D0012191
:103D8000D5F848B682F83818D2F8F81706E0D5F812
:103D90004826A2EB0B02192A00F2EE80886910F483
:103DA0000040F4D1BA194FF0210C0C9B05EB021224
:103DB00082F839C84FF0400CC2F81C3882F83AC873
:103DC000C2F82C08C2F83C08A2F822E892484B68D6
:103DD00001920340914843EA08031843486059465A
:103DE000204671F0C3F8019A002840F0D180D2F843
:103DF000F817C1F8289006E0D5F84826A2EB0B0288
:103E00000A2A00F2A0818B6913F08003F4D0BA195A
:103E100005EB0212B2F822389BB2FF2B40F27881F8
:103E20004B687D4803407E4843EA08031843FF235C
:103E3000A2F820384860BB1905EB0319019305E08F
:103E4000B9F8222892B2002A00F072815946204621
:103E500071F08CF8002840F0E780D9F81C28D9F8D8
:103E6000F817531CB9F82008C9F81C380138127823
:103E700080B28A62B9F82228A9F82008013A92B2E1
:103E8000A9F822280028DBD1B9F8222892B2002A0A
:103E9000D6D0A9E0BA1905EB021292F839182029F8
:103EA0007FF453AF92F8381801293FF44EAF012147
:103EB000D5F848B682F83818D2F8F81706E0D5F8E1
:103EC0004826A2EB0B02192A00F2FA808A6912F442
:103ED0000042F4D1B8194FF0210C0C9B05EB0010F7
:103EE00080F839C84FF0100CC0F81C3880F83AC878
:103EF000C0F83C28A0F822E8B0F82238C0F82C28F6
:103F00009BB2FF2B40F2CC804B68434A1340454A9A
:103F100043EA08031A43FF23A0F820384A6007EB5E
:103F2000060905EB0919B9F82238594620469BB213
:103F3000002B00F0D18071F019F8002874D1D9F865
:103F40001C38D9F8F827581CB9F82018C9F81C08EB
:103F500001391B7889B29362B9F82238A9F8201880
:103F6000013B9BB2A9F822380029DCD1B9F82238EC
:103F70009BB2002BD7D01CE037440023202205EB56
:103F8000071787F8392887F8383887F83A38DCE691
:103F9000D2F83C38374405EB0717D7F83C380023F4
:103FA00087F83838D1E6D5F84836A3EB0B030A2B4F
:103FB00060D8916911F08001F5D0B9F822389BB230
:103FC000FF2B37D9536814490B40154943EA0803BE
:103FD0001943FF23A9F820385160A4E7D5F84826F3
:103FE000A2EB0B020A2A50D8886910F08000F5D0A5
:103FF000B9F8222892B2FF2A2CD94A680648024012
:10400000074842EA08021043FF22A9F82028486026
:1040100016E700BF20250120009800FC00200101C8
:104020000000FF010020FF01BB1905EB0313D3F8CB
:104030003C388AE6B9F822384E489BB25168A9F854
:104040002038DBB2014048EA03430B4343F00073DE
:10405000536068E7B9F82228464B92B24868A9F83D
:104060002028D2B2184048EA0242024342F00072CD
:104070004A60E5E63744202305EB071787F839380F
:1040800087F8381887F83A185FE63744202305EB9D
:10409000071787F8393887F8380887F83A0854E658
:1040A000B0F822384A689BB2A0F82038DBB2314819
:1040B00048EA0343024013432F4A1A434A602EE75B
:1040C000BB190022202105EB031383F8391883F86C
:1040D000382883F83A2838E670F0ECFE0028A3D19F
:1040E000BB192024DFF894C005EB0313D3F8F8279D
:1040F000D461516801EA0C01516083F8394883F8B2
:104100003A083744002205EB071383F8382827E6DE
:10411000B2F8223817489BB2A2F82038DBB24A68BE
:1041200048EA03430240134343F000734B6082E6C6
:104130005946204670F0BEFE70B1019B05EB031995
:10414000D9F83C3801E6BA19202105EB021282F8B1
:10415000391882F83A381DE7D9F8F8272024074B98
:10416000D46151681940516089F8394889F83A0892
:10417000C7E700BF009800FC0020000200E800FE36
:104180002DE9F04F441C83B092469DF8342000F096
:10419000BD800546B94C00EB8000AE0004EB001C6E
:1041A00000019CF8F487B8F1000F00F0AF802044C4
:1041B0004FEA4109BAF1FF0F00F5FF61009140F0AD
:1041C000AB80002A00F0A8809CF83928202A40F013
:1041D00094809CF83828012A00F08F800122DCF8B6
:1041E000F8178CF83828D4F848C606E0D4F84826E2
:1041F000A2EB0C02192A00F2BD818A6912F4004276
:10420000F4D170194FF0220E0C9F04EB001080F8CF
:1042100039E84FF0100EC0F81C7880F83AE8C0F882
:104220003C28A0F82238B0F82238C0F82C289BB2DD
:10423000FF2B40F2AB814B68914A1340914A43EA0D
:1042400009031A43FF23A0F820384A60721904EBCF
:104250000212B2F822389BB2002B00F0D181D2F8C2
:10426000F8170AE08869800600F14A81D4F84836D8
:10427000A3EB0C030A2B00F253818B695B0700F15F
:1042800005818B6913F01003ECD08B6913F02003C8
:104290000AD1D4F84826A2EB0C020A2A00F2E580E3
:1042A0008B6913F02003F4D020231022CA61CB6164
:1042B0008B699B0701D500238B628B69DF0703D4D1
:1042C0008B6943F001038B614A6873196E484FF0A4
:1042D000040C04EB03132027024000204A60C3F8BB
:1042E0003CC883F8397883F83A087319002204EB44
:1042F0000313D3F83C1883F83828B4F8E438284678
:1043000001339BB2A4F8E438FFF72CFB4FF0000810
:10431000404603B0BDE8F08F721904EB021292F828
:1043200039182029E9D10C990029E6D092F83818DB
:104330000129E2D00121D2F8F80782F83818D4F820
:10434000481605E0D4F84826521A192A00F21281BC
:10435000826912F40042F5D106EB050B4FF0220CF6
:104360000C9F04EB0B1B01918BF839C84FF0400CEC
:10437000CBF82C288BF83AC8CBF83C28ABF822387D
:104380003F4A4368CBF81C78134043EA090343F4DF
:1043900090334360009870F0E9FD0199002840F0E7
:1043A0000581DBF8F807C0F828A005E0D4F8482616
:1043B000521A0A2A00F27981836913F04003F5D07A
:1043C000721904EB0212B2F822389BB2FF2B40F2B2
:1043D00035814368DFF8A8C003EA0C03DFF8A4C006
:1043E00043EA090343EA0C0CFF23A2F82038C0F883
:1043F00004C006EB050B04EB0B1ADAF8F80705E02E
:10440000D4F848365B1A0A2B00F2DB80826912F07E
:104410000402F5D0DAF81C38426A581CCAF81C08A5
:104420001A70BAF82038BAF82228013B013A9BB238
:1044300092B2AAF82038AAF822282BB9BAF8223862
:104440009BB2002B40F0BF80BAF822389BB2002B01
:10445000D3D1009870F02EFD0346002800F018819B
:1044600004EB0B1BDBF83C3847E77219202104EB07
:10447000021282F8391882F83A3836E720250120EE
:10448000009800FC0024FF0100E800FED2F81C3870
:10449000496A581CC2F81C081970B2F82038B2F8E2
:1044A0002218013B01399BB289B2A2F82038A2F848
:1044B0002218002B7FF4CDAEB2F822389BB2002B2D
:1044C0003FF4C7AED2F8F80705E0D4F84836A3EBBE
:1044D0000C030A2B43D8816911F08001F5D0B2F8A2
:1044E00022389BB2FF2B28D9436874490B4074498A
:1044F00043EA09031943FF23A2F820384160A8E6E4
:104500002020704FC8614A683A404A60721904EB33
:104510000212C2F83C3882F8390882F83A38E4E6E8
:10452000731904EB0313D3F83C2842F02002C3F8BC
:104530003C28202283F83928D7E6B2F82238DFF861
:104540007CE19BB24168A2F82038DBB201EA0E019F
:1045500049EA03430B4343F00073436079E6731960
:10456000202204EB031383F8392883F8381883F8E2
:104570003A18C2E67319002204EB0313202183F8D2
:10458000382883F8391883F83A28B6E6B0F8223884
:104590004A689BB2A0F82038DBB2484849EA034396
:1045A00002401343484A1A434A604FE6DBF83C385E
:1045B000731904EB0313D3F83C28002283F838283E
:1045C0009BE67319D8E7DAF8F80704E0D4F8483620
:1045D0005B1A0A2BF5D8826912F08002F6D0BAF87D
:1045E00022389BB2FF2B17D94368344A1340344A10
:1045F00043EA09031A43FF23AAF82038426023E75D
:104600006146009870F056FC024648B3731904EBFB
:104610000313D3F83C3870E6BAF82238DFF89CC0B0
:104620009BB24268AAF82038DBB202EA0C0249EADF
:104630000343134343F00073436005E7B2F82238A5
:10464000DFF878C09BB2A2F82038DBB2426849EAB2
:10465000034302EA0C0213431B4A1A434260C8E6B2
:1046600073192027DFF85CC004EB0313D3F8F817A5
:10467000CF61486800EA0C00486083F8397883F815
:104680003A282E44002304EB061484F838383FE619
:10469000DAF8F82720200B4FD0615168394051607B
:1046A0008AF839088AF83A38EBE77219202104EBC6
:1046B000021282F8391882F83A3879E7009800FC3B
:1046C0000000FF0100E800FE002400020348D0F8CB
:1046D000CC3113B100F5E07018477047000001209D
:1046E0000348D0F8EC3113B100F5F070184770476B
:1046F000000001200348D0F80C3213B100F500701F
:1047000018477047000001200348D0F82C3213B13D
:1047100000F5087018477047000001200348D0F8E2
:104720004C3213B100F5107018477047000001209B
:104730000348D0F86C3213B100F518701847704771
:10474000000001200348D0F88C3213B100F520702E
:1047500018477047000001200348D0F8AC3213B16D
:1047600000F5287018477047000001200348D0F872
:10477000CC3213B100F530701847704700000120AB
:104780000348D0F8EC3213B100F538701847704781
:10479000000001200348D0F80C3313B100F540703D
:1047A00018477047000001200348D0F82C3313B19C
:1047B00000F5487018477047000001200348D0F802
:1047C0004C3313B100F550701847704700000120BA
:1047D0000348D0F86C3313B100F558701847704790
:1047E000000001200348D0F88C3313B100F560704D
:1047F00018477047000001200348D0F8AC3313B1CC
:1048000000F56870184770470000012010B40C468E
:10481000416841F480514160DBB140F2E93C02E083
:10482000BCF1010C19D081688907F9D5AAB312F837
:10483000011B40F2E93C017302E0BCF1010C0CD019
:104840008168C907F9D5C1680CB104F8011B013BA7
:10485000E3D101205DF8044B7047144B98420DD012
:10486000A3F5784398421AD003F58063984219D093
:1048700003F5784398420CD14FF0030C0C4A0CEB33
:104880008C0C02EB8C02B2F8D03301339BB2A2F84D
:10489000D03300205DF8044B7047FF21C9E74FF08B
:1048A000010CEBE74FF0020CE8E700BF00300140DD
:1048B000000001202DE9F84300242C4E80460368B7
:1048C00056F83450AB4209D001340E2CF8D1284AA6
:1048D0000021052003F050FB002019E0254B03EBDD
:1048E0008409D9F8E878AFB198F8051000204B1C7E
:1048F00001EB410203EB430307EBC202DB00C2F80A
:104900000C80C2E90400F854182303FB017008303E
:10491000BDE8F8830721682003F0A4FB0146C9F82D
:10492000E808E8B1394668227FF0C0F8D9F8E818FD
:1049300006EBC4043B4689600C6009628963096523
:1049400056F83320954205D001330E2BF8D14F6035
:104950000F46C9E7084F07EB83174F600F46C3E7C1
:10496000064A052003F008FBB6E700BF103F090820
:10497000ECF8090820250120402E012014F909082F
:104980005D4B07EE902ADFED5D6A93ED667AF8EEF7
:10499000677A0368B8EE477A1A6887EE270A70B517
:1049A0005C680E461568013EB6B230EE260A7DF010
:1049B0007DF923680138AB4280B275D0C4E900505C
:1049C00000238022E660A360A261C4E9043394F866
:1049D0003D3003F0FF02002B00F086800223211DF2
:1049E000284684F83D30FBF7D7FD454B0122B5F151
:1049F000804FA5EB030384F83D20B3FA83F34FEA1D
:104A0000531356D0002B54D13E4A95420FD002F595
:104A1000806295420BD03C4902F57C42954218BF1A
:104A20008D4222D002F5705295421ED070BD94F88E
:104A30003C30012BFAD00221344A354B84F83D102A
:104A4000A9680A400121AA60AA681340AB6084F8F3
:104A50003D106A68A96822F0700221F080010023ED
:104A60006A60A96084F83C3070BD94F83C20012A4B
:104A7000DCD002222549274884F83D20AA68281A5C
:104A80001140234AB0FA80F0A960A96840090A40A1
:104A90000121AA60002284F83D1084F83C201A4AC3
:104AA000954219D0C0B9C1E7636883421FD06060E6
:104AB00086E794F83C20012AB8D00222134900204E
:104AC00084F83D20AA681140114AA960A9680A40EB
:104AD0000121AA6084F83D106A68A9680BB9002812
:104AE000B9D022F47002B6E784F83C2076E7E36898
:104AF000B3427FF465AF70BD000001200AD7233CAC
:104B00000000014000040040000C00408800FEFF4F
:104B1000F8FFFEFF00040140F0B44468A37913F0ED
:104B200002025CD002224FF0080C036864795B68D3
:104B3000A148204493F83C40012C90F8C0004CD090
:104B4000012483F83C40022483F83D4014283ED8D9
:104B5000DFE810F070003D003D003D0099003D0091
:104B60003D003D00E7003D003D003D00C0003D0030
:104B70003D003D0015003D003D003D004700186828
:104B80008E4E046AB04224F480340462046A45689C
:104B900024F40034476D44EA0242894C04EA0704D5
:104BA00044F0600400F0E78006F58066B04200F053
:104BB000E2804560446581650262426D42F0080210
:104BC0004265426D22F004024265426D4265012158
:104BD000002283F83D1083F83C20F0BC70479446D7
:104BE000A3E71868754E046AB04224F48014046286
:104BF000046A456824F40014476D44EA0252714C7B
:104C000004EA070444F4C04400F0B28006F580666C
:104C1000B04200F0AD8045604465C1650262426DFE
:104C200042F400624265426D22F480624265426D48
:104C30004265CCE71868644D046A604E24F00104B4
:104C4000B0420462046A24F0020442EA04024468A6
:104C5000876905EA070545F0600500F08F8006F5D5
:104C60008066B04200F08A804460856141630262E0
:104C7000826942F008028261826922F00402826144
:104C800082698261A3E71868504D046A4B4E24F094
:104C90001004B0420462046A24F0200444EA0212C0
:104CA0004468876905EA070545F4C04572D006F5F2
:104CB0008066B0426ED04460856181630262826921
:104CC00042F400628261826922F4806282618269B8
:104CD00082617CE71868394E046AB04224F480543B
:104CE0000462046A456824F40054C76944EA023245
:104CF000364C04EA070444F4C04448D006F5806604
:104D0000B04244D04560C46101640262C26942F4A9
:104D10000062C261C26922F48062C261C269C2617A
:104D200055E71868284D046A244E24F48074B04274
:104D30000462046A24F4007444EA02224468C769E5
:104D400005EA070545F060052DD006F58066B042FE
:104D500029D04460C561C1630262C26942F00802A1
:104D6000C261C26922F00402C261C269C2612EE757
:104D700045F480254FE745F480351AE722F0080214
:104D800044F440744CEA020222F004026CE745F459
:104D90008045B7E722F0800244F4406442EA0C12F6
:104DA00022F0400287E722F4006244F4405442EAD1
:104DB0000C2222F48062CCE7C03E090800000140CA
:104DC0008FFFFEFFFF8FFFFE8CFFFEFFFF8CFFFEBD
:104DD00042685379032B0FD8DFE803F00B08050274
:104DE00010684030704710683C30704710683830A9
:104DF000704710683430704700207047D0E90002D7
:104E00000F4B517992790B44406893F8C0105307C7
:104E100013D503680422186A02FA01F120EA01009E
:104E200018621A6A114319625A6C42F400425A64B9
:104E30001A6842F001021A60704779F0C7B800BFE3
:104E4000C03E09084368C2681B69F0B5C3F3032379
:104E50003E4D546805EB83039E68EFF311831022E7
:104E600082F3128842683A4F92F805E0D0F80CC0FD
:104E700035F81E50D2F800E005F4F055DEF80C20AD
:104E800022EA0502CEF80C2017F806E0DCF8102024
:104E900054F80E501F2A25F0010544F80E5041D950
:104EA000203A2025DCF804C005FA02F2CCF80C20E8
:104EB000DBB283F3118817F806E042F2107304EBBB
:104EC0000E0C02E000BF013B03D0DCF80020D2074B
:104ED000F8D454F80E3013F001032BD1DCF8042081
:104EE00045696FF30F020A434168CCF804204A7900
:104EF000032A05D8DFE802F0242702210B683C339F
:104F0000CCF80C500122CCF8083054F80E3043F0A5
:104F1000100344F80E3054F80E30134344F80E30AA
:104F20000274F0BD2025DCF804C005FA02F2CCF8CA
:104F30000820BDE700230374F0BD0B684033DFE7B2
:104F40000B683433DCE70B683833D9E7C03E090817
:104F5000DC3F090803681A7E012A2ED0002293F84C
:104F60003010012909D093F8481001290ED093F888
:104F7000601001291BD02ABB7047022142F48062D5
:104F800083F8301093F84810012904D1022142F42B
:104F9000006283F8481093F86010012907D01B685D
:104FA00000211B685962D9680A43DA607047022100
:104FB00042F4805283F86010F1E702214FF400724E
:104FC0001976CCE74FF40072E9E700BF024B0348C3
:104FD000D3F8E818FCF792B9202501200000014021
:104FE00010B5064C0648D4F8E818FCF787F9D4F851
:104FF0000C190448BDE81040FCF780B920250120B9
:105000000000014000440140034B4FF08040D3F8C2
:10501000EC18FCF773B900BF20250120024B0348B0
:10502000D3F8F018FCF76AB92025012000040040ED
:10503000024B0348D3F8F418FCF760B9202501208F
:1050400000080040024B0348D3F8F818FCF756B9A3
:1050500020250120000C0040024B0348D3F804191E
:10506000FCF74CB9202501200004014010B5064C86
:105070000648D4F80419FCF741F9D4F81819044883
:10508000BDE81040FCF73AB920250120000401409A
:10509000001C004010B5064C0648D4F80419FCF773
:1050A0002DF9D4F81C190448BDE81040FCF726B9C6
:1050B000202501200004014000200040024B03484D
:1050C000D3F80819FCF71AB9202501200040014047
:1050D000024B0348D3F81019FCF710B92025012022
:1050E00000480140024B0348D3F81419FCF706B9F5
:1050F0002025012000180040404B8EB01A6B42F46E
:1051000080221A631A6B02F480220092009A1A6BB2
:1051100042F480121A631A6B02F480120192019A0F
:105120001A6B42F480021A631A6B02F48002029234
:10513000029A1A6B42F000521A631A6B02F0005284
:105140000392039A1A6B42F080421A631A6B02F0C0
:1051500080420492049A1A6C42F400321A641A6C67
:1051600002F400320592059A1A6C42F480221A6405
:105170001A6C02F480220692069A1A6C42F40022FB
:105180001A641A6C02F400220792079A1A6C42F40D
:1051900080121A641A6C02F480120892089A1A6C2F
:1051A00042F080421A641A6C02F080420992099A15
:1051B0001A6C42F000421A641A6C02F000420A9221
:1051C0000A9A5A6C42F010025A645A6C02F01002A9
:1051D0000B920B9A5A6C42F020025A645A6C02F0FD
:1051E00020020C920C9A5A6C42F400625A645B6C76
:1051F00003F400630D930D9B0EB07047003802401E
:105200002DE9F843354E984606EB8003D3F8C440A9
:10521000002C5FD004F1AE03E4360546E160A361E3
:1052200004F5D77366601746E3614FF4807394F812
:10523000AD00261DC4E904332368C4F8A830A36375
:1052400008F062FA18F0080F94F8AC901AD1BA0777
:1052500031D4FB0723D4D4F8B81294F9B7026FF015
:1052600037FF94F9B72294F8B732002A07DB03F02E
:105270001F0001225B091A49824041F82320304671
:10528000BDE8F8830135EDB218B140F2067305723E
:10529000C38094F8B622022108F016FADBE7013544
:1052A000484608F031FAEDB20028F2D040F2066329
:1052B0000572C380EDE76B1CDBB218B1037240F2DC
:1052C0000653C38094F8B622022108F0FDF9FB07CB
:1052D000C1D5E4E726463046BDE8F883C03E09085C
:1052E00000E100E00148FCF77DB900BF1404012093
:1052F0000148FCF777B900BFD00601200148FCF750
:1053000071B900BF8C0901200148FCF76BB900BFDF
:10531000480C01200148FCF765B900BF040F0120CB
:105320002DE9F0412422456B0023816880F89D20FF
:1053300004462A6800F1340722F001022A602B603B
:105340006B60AB60827981639102C0F8A03080F815
:105350009C3001F4805180F89D30C364C163110317
:1053600080F89E3001F400514365437901641102D5
:1053700003F0010813F0020601F4806141644FEA72
:10538000880102F00100A16454D041F00801A16439
:1053900000285CD194F89D302423384684F89D3051
:1053A0002B6823F001032B60130713D5FDF74EFE86
:1053B000012825D0A36D002B59D16B68384623F402
:1053C00090436B60AB6823F02203AB60AB6843F0A3
:1053D00008030EE0FDF73AFE012811D0A36D002B63
:1053E00049D16B68384623F490436B60AB6823F077
:1053F0002A03AB602B6843F001032B6078F07AFD41
:10540000B8F1000F0DD0D4F8A4301A6842F48072BD
:105410001A609A6842F001029A601A6842F020020B
:105420001A602EB1D4F8A420136843F080031360EF
:10543000BDE8F0810028ADD0B8F1000FAAD0A36D6F
:1054400043F00203A3654FF480332366A2E7A36D04
:10545000B8F1000F04D04FF4803143F0020321660D
:1054600043F00103A3654FF40033E36592E7384648
:10547000FBF70AF9A1E73846FBF706F9B1E700BFE9
:1054800081604DE741714BE7817149E710B51C2000
:1054900008F03AF90446112108F0F6F854B1A3884F
:1054A000C82022681B0493610AF072FC2368A2885A
:1054B0009A6110BDC820BDE810400AF069BC00BF69
:1054C0002DE9F04FDFF83CA289B0DAF8A03C019357
:1054D0005B6913F0010902D009B0BDE8F08F0199B2
:1054E0004A698B691A42F7D04B698A6913409D0754
:1054F00001D502234B61019A5369926913401C0341
:1055000000F19480019C6369A2691340580300F183
:10551000DC806269A3691A4270D46369A26913408E
:105520001E0508D5019BD3F80838DD0700F1C581B9
:105530004FF4006363616369A2691340180110D5D9
:105540004FF0006363616D4B93F88C20002A40F0AC
:105550008181012283F88C20626DC2F38302C3F83B
:1055600090206369A2691340D90400F12F82636916
:10557000A26913409B0400F1BD816369A2691340D5
:10558000DF0615D5A36923F01003A361019B1B6AF5
:1055900003F4F01203F00F01B2F5802F00F06481E4
:1055A000B2F5402F00F05B85A36943F01003A361BF
:1055B0006369A26913401E0700F175826369A269DD
:1055C0001340DD0200F16B826369A2691340980207
:1055D00000F161826369A2691340590000F15782AA
:1055E0006369A26913405A077FF576AF65686B0758
:1055F00000F16E8163681D4365606DE7019B03F5F3
:105600000062D3F8043823F0010353603B4B93F856
:105610008C20012A00F06A81D3F89C3093F8FD2198
:1056200083F8FC214FF00043636176E7019AD2F8DA
:105630001868D2F81C381E40360C3FF463AF304B6C
:1056400002F5306B0027CDF80C9098460293134674
:1056500008E0760807F101070BF1200B08F11C08A0
:1056600000F02C8216F00109F3D003F5306203F547
:10567000006302EB471294685B691C40E00714D595
:105680000123DAF8B05C9D42CBF8083000F01784B3
:105690001A4BD8F80402D3F89C30002F40F0E68370
:1056A000D3F8F421032A00F07184210700F10E825F
:1056B000E50602D51023CBF80830A40602D5202336
:1056C000CBF80830DAF8A03CC3E7D4F81838D4F89F
:1056D0001C2803EA020B1FFA8BFBBBF1000F3FF4FF
:1056E00018AF019B4FF00008054E03F51065CDF88B
:1056F000109023460296444611E000BF2035012059
:10570000C03101202025012004F1010E5FEA5B0B6E
:10571000744606F11C0605F1200500F0D3811BF04C
:10572000010FF1D0D3F810284FEA4418D3F8347899
