:020000040800F2
:1000000000000120B114060835150608816C0208AD
:1000100035150608351506083515060800000000D8
:100020000000000000000000000000003515060878
:100030003515060800000000351506081B57010895
:100040003515060835150608351506083515060850
:10005000351506083515060821360108253601082C
:10006000293601082D3601083136010895B30008FC
:10007000A9B30008BDB30008D1B30008E5B3000878
:10008000F9B300080DB40008351506083515060843
:1000900035150608351506083515060835360108E4
:1000A00065BD000889BC000879BD000875BC000862
:1000B000B1BC0008C5BC0008D9BC000801AA0008F2
:1000C000F5A9000819AA00080DAA000835150608A8
:1000D0003515060885BF000891BF00089DBF0008C0
:1000E0003936010835150608351506088DBD000896
:1000F00015BD00083DBD000801BD000821B4000881
:100100003515060835150608EDBC00083515060836
:10011000A9BF00083515060835150608A1CD000849
:1001200035B4000849B400085DB4000871B4000893
:1001300085B400080000000000000000000000007E
:1001400000000000000000000000000031C10008B5
:1001500099B40008ADB40008C1B40008B5BF0008E8
:1001600031AA000825AA0008351506083515060825
:1001700035150608351506080000000000000000CF
:10018000351506083515060835150608351506080F
:100190003515060835150608000000003515060857
:1001A00000000000000000000000000035150608F7
:1001B000351506083515060800000000000000008F
:1001C000000000000000000000000000000000002F
:1001D00000000000000000000000000035150608C7
:0801E000D0050600010000003B
:1001E800EC80022002010000070022000C8102209E
:1001F8000202000102003F002C810220010D0000D4
:10020800000076004C8102200111000000007600F9
:100218006C810220010E0100000077008C81022011
:100228000113000000007600AC81022001150000D7
:1002380000001E00CC810220011B000000000D0000
:10024800EC810220011C000000002C000C8202201E
:100258000116000000000C002C820220011700008B
:1002680000000C004C820220011D000000000E005E
:100278006C820220011E000000001E008C820220F9
:100288000118000000000C00AC82022001190000D7
:1002980000000E00CC820220011A000000000C00B1
:1002A800EC8202200120000000000C000C830220D8
:1002B8000121000000000C002C830220012A01000B
:1002C800000018004C8302200122000000004800B2
:1002D8006C83022001230000000049008C83022067
:1002E8000124000000004A00AC8302200125000020
:1002F80000004B00CC8302200126000000004C00C7
:10030800EC8302200127000000004D000C8402202D
:100318000128000000004E002C8402200129000062
:1003280000004F004C840220012D0000000029002D
:100338006C840220012E0100000029008C84022018
:10034800012F010000007000AC8402200131000080
:1003580000003100CC84022001300100000052006E
:10036800EC84022001320100000028000C850220E4
:1003780001330000000076002C85022001340100C2
:10038800000028004C850220022B050000012C00EB
:100398006C85022002380400000242008C8502208D
:1003A8000137000000003C00AC850220013A000043
:0403B8000000200021
:10800000836B1A6C12F0500F21D11A6C42F400727B
:108010001A641A68916811F0405F1BD19969C9B957
:10802000D16A11F4700F02D09168490512D45168D9
:1080300021F0200151601A6C22F480721A641A6CCB
:10804000D20407D41A6C42F001021A6470479B6B89
:10805000DB6C184770477047836B40221A645A6C78
:1080600042F004025A64704790F83530022B03D076
:1080700080234365012070470268052380F835306E
:108080000020136823F00103136070470268436BFC
:108090009169126803B118477047836B19684A6881
:1080A00042F400424A600022996B0A65D96B0A6566
:1080B00093F84120602A02D1202283F841207047A2
:1080C000F0B5059D06680C4FB46931EA04040CBF95
:1080D00001240024944201D000200CE03C68641B81
:1080E0009C42F1D9202380F84130002380F84230AF
:1080F00080F840300320F0BD8824012030B50468AA
:10810000039D60682B4320F07F700B4320F45930AF
:1081100043EA024320F47F7020F0030003436360CE
:1081200030BD836B0022A3F85A20A3F85220704779
:10813000436ADA0710B506D50168846A4A6822F4F2
:10814000003222434A609C0706D50168C46A4A6827
:1081500022F4803222434A60590706D50168046B35
:108160004A6822F4802222434A601A0706D5016831
:10817000446B4A6822F4004222434A60DC0606D57A
:108180000168846B8A6822F4805222438A609906CF
:1081900006D50168C46B8A6822F4005222438A60C3
:1081A0005A0610D50168046C4A68B4F5801F22F4A1
:1081B000801242EA04024A6005D14A68446C22F403
:1081C000C00222434A601B0606D50268816C5368D0
:1081D00023F400230B43536010BD0F4B984215D07E
:1081E000A3F57843984213D003F58063984211D0E9
:1081F00003F57843984208D10323084A142101FB70
:108200000322138A01339BB2138270470023F4E7E1
:108210000123F2E70223F0E70030014000000120D3
:10822000D0E907239A423CBFC1685218D01A704760
:10823000D0E9092300699A4238BF12180138D31ACD
:10824000C01A7047D0E90902131A584258417047C2
:108250000246036A4169C85C0133D1688B4228BF7A
:10826000002313627047436A8269D154436A0269EA
:108270000133934228BF0023426B4362136843F0EB
:10828000800313607047436BD86910F0100002D070
:10829000102201201A62704701F00101014B83F89E
:1082A0005010704700000120704770477047012050
:1082B0007047034B58689B68C01AC0F30B007047A7
:1082C00088240120064B93F80832032B06D1054B76
:1082D00093F85000C0B200F0010070470020FAE7A8
:1082E0008824012000000120012380F849307047D4
:1082F00008B5D0F8143233B11B689847003818BF5E
:108300000120400008BD0220FCE7D0F818321BB164
:108310000020C3F81402704702207047D0F83022C2
:1083200001F00F01D0F8183210B51C2404FB012213
:1083300003F50371B2F81022C3F80C22D0F81C2206
:10834000D3F80402D2689047002010BDD0F81C3248
:1083500010B56BB1D0F8184294F80002FF2807D08E
:108360009B68214694F801229847FF2384F8003245
:10837000002010BD432303800048704754000120B3
:108380004323038000487047980001204323038063
:1083900000487047DC0001200A2303800048704732
:1083A0002001012020230380004870472C01012078
:1083B00020230380004870474C01012020230380C4
:1083C000004870476C0101200A2303800048704771
:1083D0008C010120042301480B8070479801012083
:1083E000002370B54D1C1E46040FB0F1204F4FEA1C
:1083F000001034BF3034373401F8134005F81360EF
:108400000133DCB2A242EFD870BD1A2310B50B8045
:10841000094BD3F8100AD3F8182A80180AD0D3F8D9
:10842000144A08220549FFF7DBFF042210312046D9
:10843000FFF7D6FF024810BD0070F01F9E0101201B
:108440009C01012000207047212808B50B461BD055
:1084500022282BD0202815D1A1B1072A12D11879B2
:10846000194A096882F8BC0158799B79C2F8B81199
:1084700082F8BE31154B82F8BD01D3F840320BB102
:1084800000209847002008BD0029FBD0072AF9D119
:108490000D4AD2F8B811196092F8BC11197192F80E
:1084A000BD11597192F8BE219A71EBE70029E9D00C
:1084B000022AE7D10548D0F84422002AE2D00988F0
:1084C000D0F848029047DDE7000001208824012011
:1084D000EFF31182702383F312880849D2B2D1E9F5
:1084E000933182F311888B4203F1FF338CBF00205C
:1084F00001205B1A03EB0030704700BF8824012085
:10850000E6E7034B93F87802003818BF0120704764
:1085100088240120034B93F87802032894BF00209D
:10852000012070478824012000487047042701205B
:10853000837B042B0DD0074BD3F898200132C3F86E
:108540009820426004228273D3F89C200132C3F841
:108550009C207047904101200020704738B50025CD
:10856000044680F8425090F84130292B0AD1282344
:10857000012180F841302123036357F054FF84F830
:10858000405038BD90F841302A2BFAD128230221DF
:1085900080F8413022230363EFE7154B202210B50A
:1085A000C362002304460363436380F8412080F8DC
:1085B00042304B0711D503685A6A436A591C41621D
:1085C0001A70038D4BB1013B0385438D013B9BB278
:1085D0004385436C43F0040343640721204657F06E
:1085E00022FF23681022DA61002384F8403010BD96
:1085F0000000FFFF38B5304A0023044680F84230BF
:10860000C2624385436C0B43436490F84130282B8E
:1086100007D090F84130292B03D090F841302A2B15
:1086200021D10321204657F0FEFE282384F8413053
:1086300000232363214B6363236819681A6811F4CC
:1086400080411DD022F48042A16B1A6008461C4B69
:108650000B65002384F84030FFF706FD58B3084649
:10866000BDE8384019E5072157F0DDFE94F84130A8
:10867000602B02D0202384F8413000232363DAE703
:1086800012F400420ED01A68E56B22F4004228462C
:108690001A600B4B2B6584F84010FFF7E5FC50B1D6
:1086A0002846DDE794F84130602B02D1202384F87E
:1086B000413084F8402038BD0000FFFF619F000872
:1086C0009B800008036899691A6810B4CC0508D526
:1086D000140606D5446C44F0010444644FF48074DD
:1086E000DC614C0508D5140606D5446C44F008043A
:1086F00044644FF48064DC61890508D5120606D510
:10870000426C42F0020242644FF40072DA61436C40
:1087100013F00B0F03D0416C5DF8044B6AE75DF872
:10872000044B704703682DE9F04F13F0010885B042
:1087300000F0BC81B84A916821F400019160C16ADF
:1087400094680C43B1FA81F14909946013F400254F
:1087500000F0AE81B04E426BD6F88C40B2F5801F6F
:1087600024F4401444EA0204C6F88C4000F0A281CC
:10877000B2FA82F2520913F48014019411D0DFF896
:1087800098C2876BDCF88C40B7F5800F24F4400466
:1087900044EA0704CCF88C4000F08F81002F08BF1A
:1087A00001229C0638D59C4CDFF874C2276C47F038
:1087B00080572764246C04F080540394039C974CE6
:1087C000276847F480772760DCF800E02768FF051A
:1087D00040F17581904C876AD4F870E007F44079D5
:1087E0001EF4407E40F07681B9F5407F8A4C40F01F
:1087F0009D81D4F808C027F0704E2CF4F81C2EF49C
:10880000407E4CEA0E0CC4F808C0C7F30B07D4F83E
:1088100070C047EA0C072767DE060CD57E4FD7F8F5
:108820008C4024F08074C7F88C40D7F88C40066BDD
:108830003443C7F88C405C0408D5774FC66DD7F831
:10884000904024F440343443C7F890401F0408D5C6
:10885000714F066ED7F8904024F440243443C7F893
:108860009040DE0308D56C4F466ED7F8904024F454
:1088700040143443C7F890405C0608D5664FC66B79
:10888000D7F8904024F003043443C7F890401F0603
:1088900008D5614F066CD7F8904024F00C0434439F
:1088A000C7F89040DE0508D55B4F466CD7F890407E
:1088B00024F030043443C7F890409C0508D5564F47
:1088C000866CD7F8904024F0C0043443C7F8904039
:1088D0005F0508D5504FC66CD7F8904024F440741B
:1088E0003443C7F890401E0508D54B4F066DD7F8A6
:1088F000904024F440643443C7F89040DC0408D529
:10890000454F466DD7F8904024F440543443C7F89F
:1089100090409F0408D5404F866DD7F8904024F4CE
:1089200040443443C7F8904013F400140FD0DFF8EC
:10893000E8E0D0F874C0DEF89070BCF1006F27F06A
:10894000006708BF012247EA0C07CEF890705E036B
:108950000AD5DFF8C4E0DEF8907027F0407CC76EDF
:108960004CEA0707CEF890701F020AD5DFF8A8E09E
:10897000DEF8907027F0805C876F4CEA0707CEF82E
:1089800090705E0140F1D780DFF88CE0DEF89070E7
:1089900027F0005CC76F4CEA0707CEF890700029FB
:1089A00040F0CE80012A7FD11B4B1D491A6822F06E
:1089B00080521A600F681A68960000F177810DB135
:1089C000436B23B1019B002B39D0836BBBBB124E91
:1089D0004FF44035D6F8882095FAA5FE47F6C077C3
:1089E000BEFA8EFE97FAA7F7B7FA87F795FAA5F5BC
:1089F0004FF0706CB5FA85F59CFAACFC0369BCFAD3
:108A00008CFC02F44032BB40476922FA0EF207FAAE
:108A10000CF7AA403B4305E00038024000700040DC
:108A2000882401201343C6F88830D6F88C30026AB7
:108A300023F4F853013A43EA0223C6F88C304CB3CE
:108A4000436FB3F1006F25D19E4D4FF07063D5F8A1
:108A5000882093FAA3F747F6C076B7FA87F796FA15
:108A6000A6F64FF44034B6FA86F694FAA4F4B4FAB3
:108A700084F493FAA3F3B3FA83FC02F070620369FF
:108A80008069FA40B340A04002FA0CF2034313435A
:108A9000C5F888308B4B1A6842F080521A6008681B
:108AA0001A68920040F10881002010E041464DE62E
:108AB0002A4660E6002201215DE6012171E6DCF82C
:108AC0000070A7EB0E07642F7FF680AE032005B081
:108AD000BDE8F08FCE453FF487AED4F870E0D4F80F
:108AE00070A02EF4407E4AF4803AC4F870A0D4F806
:108AF00070A02AF4803AC4F870A0C4F870E0D4F8EA
:108B000070E01EF0010F3FF46FAEDCF800A041F200
:108B1000883BD4F870E01EF0020F7FF465AEDCF8FD
:108B200000E0AEEB0A0EDE45F3D9CFE7D4F808C07B
:108B30002CF4F81C67E619B9B3F1007F7FF432AF6B
:108B4000DFF880E1DFF880C1DEF8001021F08061FD
:108B5000CEF80010DCF80070DEF80010090100F11A
:108B60009E80B8F1000F2AD0C16A41BBDEF8847044
:108B70004FF0706898FAA8F947F6C071B9FA89F908
:108B800091FAA1F1B1FA81F198FAA8F84FF0E04A10
:108B9000B8FA88F89AFAAAFA4668BAFA8AFA07F08E
:108BA000706706FA01F1866827FA09F706FA0AFAE9
:108BB00007FA08F741EA0A013943CEF884101DB1DB
:108BC000416BB1F5801F05D00199B9B3816BB1F547
:108BD000800F33D1DFF8ECE04FF0E048DEF884702E
:108BE00098FAA8F947F6C071B9FA89F991FAA1F192
:108BF0004FF0706AB1FA81F19AFAAAFABAFA8AFACF
:108C000098FAA8F8466807F0E047B8FA88F806FA34
:108C100001F1C66827FA09F706FA0AFA07FA08F70F
:108C200041EA0A013943CEF88410DEF88C70C1693C
:108C300027F01F0701393943CEF88C109E011DD54E
:108C400047F6C07797FAA7F74FF07061B7FA87F742
:108C500091FAA1F14FF0E04EB1FA81F19EFAAEFE29
:108C60004368BEFA8EFEBB40C7688F4081683B43B5
:108C700001FA0EF10B431349C1F88430114B196806
:108C800041F080611960DCF80070196809013FF556
:108C900089AEDCF80010C91B6429F6D916E7DCF8A8
:108CA0000010C91B64297FF657AF0FE70A68D21B73
:108CB000642A7FF680AE09E70A68121A642A7FF6F2
:108CC000EFAE03E700380240882401202DE9F3418C
:108CD00006690546C3680C464FF000481E4016B9A9
:108CE00002B0BDE8F081B6FA86F328FA03F21B3B26
:108CF000D24316402A61002C40D0042BEFD8DFE885
:108D000003F039332D2603002369EF6A2BB19B68EA
:108D10001BB1B9B204F108009847A36A2BB19B6854
:108D20001BB1B9B204F120009847236C2BB19B68AA
:108D30001BB1B9B204F138009847A36D002BCED017
:108D40009B68002BCBD0B9B204F1500004E023693A
:108D500004F10800696B5B689847C0E7A36A04F1F7
:108D60002000A96B5B68F7E7236C04F13800E96B1E
:108D70005B68F1E7A36D296C5B68E5E7042B06D817
:108D8000DFE803F00D0B09070300EB6A0193019B79
:108D9000A5E76B6BFAE7AB6BF8E7EB6BF6E72B6CD1
:108DA000F4E7436BDA69910670B5044613D5586A47
:108DB000E36AC0B2002B4AD0216B9847636B1A68F4
:108DC00022F480721A609A6822F001029A609A690D
:108DD00042F008029A61636BDA69D20701D5012279
:108DE0001A62DA69960701D502221A62DA69550712
:108DF00001D504221A62DA69100701D508221A6225
:108E0000DA6911060ED594F89D20212A0AD0D4E9FA
:108E100009128A4227D10022A4F886201A6822F07B
:108E200080021A60DA69520640F19280DA6904F130
:108E30003400196816079D6821D1960640F1898093
:108E40008D0640F18680BDE8704057F0C5B8E369F3
:108E50006269D054E369E2680133B3FBF2F102FBCB
:108E60001133E361AAE7A169895C0132C9B2996251
:108E70002169B2FBF1F001FB1022A262D2E705F0FA
:108E8000010501F490762E4363D0D60709D5CE05AF
:108E900007D501261E62D4F8A06046F00106C4F88A
:108EA000A060960708D53DB102261E62D4F8A060E6
:108EB00046F00406C4F8A060560708D53DB1042664
:108EC0001E62D4F8A06046F00206C4F8A06016073F
:108ED0000AD501F020062E4306D008251D62D4F8DD
:108EE000A0302B43C4F8A030D4F8A03083B396064A
:108EF00003D58D0601D557F06FF8D4F8A020636B29
:108F0000110703D49A6812F040021FD01A6822F4A5
:108F100090721A609A6822F001029A60202284F806
:108F20009E209A68520613D59A68D4F8981022F0B9
:108F300040029A6061B1254B08460B65FFF794F833
:108F400030B10846BDE87040FFF7EBB8C4F8A02088
:108F500070BD16062ED50D062CD594F89D20212A1D
:108F6000F6D1B4F8862092B242B91A6822F0800293
:108F70001A601A6842F040021A60E9E7E16BD4F81F
:108F80008020B1F5805F0FD1616C69B932F8021BA6
:108F9000C1F308019962C4F88020B4F88630013B1F
:108FA0009BB2A4F88630D3E7511CC4F88010127825
:108FB0009A62F2E75006CBD54A06C9D51A6822F064
:108FC00040021A60202384F89D30C1E72381000805
:108FD000144B10B5596898689A68091AC1F30B01C7
:108FE0000029F7D0B2F5805F0F4919BF8C5C0132C0
:108FF00001220C7818BFC2F30B029A6093F8AC22DE
:109000006AB19A68596802F6FF72521AC2F30B02EB
:10901000802A04D9002283F8AC2256F041FC204675
:1090200010BD00BF88240120B453012037B5264B62
:109030000025264C264AC4F8B03242F20F7304F5DC
:109040002C70C4F8C052C4F8BC32224BC4F8B852D9
:10905000D3F8C031B3FBF2F3013BC4F8B43257F09C
:1090600067F91D4B062137201A6C42F020021A6462
:109070001B6C03F020030193019B52F0A1FE174BE0
:109080004FF400025A60D4F8B032DA6842F00102BC
:10909000DA601A6842F001021A60D4F82432104AE9
:1090A000C3F81052C3F8082204F53C726560C3F897
:1090B0000422A56084F8AC52C4E9905556F0F0FB48
:1090C000284603B030BD00BF0014004088240120B2
:1090D00080841E00000001200038024000E100E012
:1090E000B44301202DE9F8431A4E07460D68746811
:1090F000DFF86480C4F580594D4517D82A462544C9
:10910000014608EB0400C5F30B055CF08BFD7560B0
:10911000B36803F6FF735B1BC3F30B03802B15D8F7
:109120000123022086F8AC32BDE8F883014608EB43
:109130000400A4F580544A465CF074FD07EB090175
:10914000254440462A465CF06DFDE0E756F0A8FB5A
:109150000020E9E788240120B453012090F848203A
:10916000531C0244DBB280F8483082F8341090F887
:1091700049200AB1132B01D956F087BC7047002251
:1091800080F8492056F081BC38B50446D0F830024A
:10919000237C93BB4FF400730222812156F0F6FB2F
:1091A0004FF4007302220121D4F8300256F0EEFB96
:1091B000082303228221D4F8300256F0E7FB4FF453
:1091C00007705CF05FFF0546C4F81802F0B1D4F8F0
:1091D0001C321B6898470023C5F81432C5F81832B2
:1091E000237C8BB94FF40073D4F830020121D5F8F9
:1091F000042256F033FB002038BD40230222812197
:1092000056F0C4FB4023CDE74023EDE70120F3E710
:1092100010B504468121D0F8300256F074FB0121CC
:10922000D4F8300256F06FFB8221D4F8300256F0A9
:109230006AFBD4F8183253B1D4F81C325B689847F3
:10924000D4F818025CF026FF0023C4F8183200207E
:1092500010BD10B504460121D0F8300256F053FB82
:109260008121D4F8300256F04EFBD4F828025CF08D
:1092700011FF0020C4F8280210BD70B50B78044619
:109280000D46D0F8186213F0600228D0202A1FD1B2
:10929000CA884878F2B11B060AD5D4F81C32314688
:1092A0009B689847EA883146204656F0E3FB0FE07A
:1092B000032386F8012286F800020021C4F8F43165
:1092C0001346D4F83002C4E94222324656F0C6FAB8
:1092D000002070BDD4F81C329B689847F8E74B78A3
:1092E0000A2BF5D101220149DFE700BFB827012091
:1092F00070B50446D0F83002237C93BB4FF4007362
:109300000222012156F042FB4FF400730222812118
:10931000D4F8300256F03AFB4FF41B705CF0B2FE0A
:109320000646C4F8280218B30025D4F82C3205816B
:10933000A0F85C5228461B6898470121D4F83002F7
:1093400056F005FE8121D4F8300256F000FED4F824
:1093500030021F2306F50372012156F07FFA2846DA
:1093600070BD40230222012156F010FB4023CDE7BF
:109370000120F5E770B5D0F82852044695F8183268
:109380004BB9D5F8143233B16B7A23B90121D0F837
:10939000300256F0C7FB8121D4F8300256F0C2FBF0
:1093A0006B7A022B09D105F50372D4F830021F2322
:1093B0000121BDE8704056F051BA70BD70B50E4B3A
:1093C0000446D0F82852C5F82C32002385F838120C
:1093D00005F50B722B7281210D23D0F8300256F067
:1093E00073FA05F50372D4F830021F230121BDE89A
:1093F000704056F033BA00BF555342532DE9F04147
:109400000B780446D0F8285213F0600234D0202A9A
:1094100019D14A78FE2A05D0FF2A19D056F0C0FB90
:10942000022011E04A888AB9CE88012E0ED11A0690
:109430000CD5D0F82C329B699847324628602946D3
:10944000204656F017FB0020BDE8F0812046E5E7F6
:109450004A88002AFAD1CA88002AF7D11B06F5D417
:109460004FF4807305F5037201212B811F23D0F87F
:10947000300256F0F3F9E6E74E780A2E28D00B2E8C
:1094800029D0012EDFD18F8891F80480D0F83002E6
:109490007FB2414656F05BFDD4F83002414656F0AB
:1094A00032FA002FD4F83002237C19DAB3B94FF422
:1094B00000730222812156F069FA6B7A022B17D1D0
:1094C0008121D4F8300256F02DFB00236B72BAE7ED
:1094D0000122291DB5E78B786B60B4E74023E8E7EC
:1094E00023B94FF4007302223146E4E74023FAE740
:1094F000002FA8DA012BA6D001212046FFF75EFF3E
:10950000A1E72DE9F743137805460E4617462F2BA2
:10951000D0F828423CD8192B08D8032B68D0122B3E
:1095200000F08F80002B49D02022F6E11A3B152B4A
:10953000FAD801A252F823F07F9600087B96000823
:1095400029950008299500087B96000829950008B0
:10955000299500082995000829950008A19600087A
:1095600029950008F196000829950008299500081A
:1095700029970008299500080598000829950008F2
:1095800029950008299500082995000811990008D7
:109590005A2BC9D10823BF4A6381D2F80730E36050
:1095A000D2F80B302361D0F82C320846DB6898479C
:1095B000D0B1E37B63F07F03E37315E0D4F814329A
:1095C000002BB1D1D0F82C3208469B68984750B197
:1095D0003A220221D5F8280256F031FA05232372E7
:1095E0004FF0FF3001E06081002003B0BDE8F08360
:1095F0001122002104F10D005CF0A8FE702394F804
:109600005D2223730C23E37494F85C329A4211D0E8
:1096100004EBC302013392F83C12DBB2A173042BBA
:1096200092F8411208BF0023217692F8402284F874
:109630005C326276122363813B79122BD4D863812A
:10964000D2E75378DB0715D4D0F82C3201EBC106F2
:109650001279DB6903EB860633790533934228BF21
:1096600013466381002BBFD0013B9BB2F15CE21833
:109670001173F7E70723874EF3E70023DFE708239B
:1096800063810023E3602361D0F82C320846DB6855
:1096900098470028A8D0A37B63F07F03A373A3E7B8
:1096A00000230DF1020201A9E36023616361D0F898
:1096B0002C3230465B68984730B13A220221D5F807
:1096C000280256F0BCF98BE70823E373019B013BAA
:1096D0001A0EE37422741A0C62741A0ABDF802306E
:1096E000A27402225BBAA282E3820C2363817CE72C
:1096F000D0F82C3204F25E2204F5187130465B6813
:1097000098470028D9D1D4F860322082013B1A0E44
:10971000E37322731A0C62731A0AB4F85E32A273EE
:109720005BBA638208238AE7237A73BB94F9183201
:10973000002BBFF6F9AED0F82C3208469B6898474C
:109740000028BAD1D7F80220D5F8280212BAD0F8EA
:109750006012C4F86422B7F807305BBA9BB29F1856
:10976000C4F868328F4277D802212172B4F85E12B1
:109770004A434B43C4F86422D4F81422C4F8683234
:10978000934202D0202205219BE74FF40073D5F8C5
:109790002C026381D5F82842D0F810903046D4F8D6
:1097A000687204F10C08B4F85E229F42D4F8641287
:1097B00028BF1F46B7FBF2F3B1FBF2F29BB2414662
:1097C000C847002802DA1122042178E7BBB24246DA
:1097D0008121D5F8300256F077F8D4F86432D4F805
:1097E00034223B44D21BC4F86432D4F86832C4F843
:1097F0003422DB1BC4F86832002B7FF4F5AE032360
:109800002372F1E6237A002B46D194F91832002B0B
:10981000FFF68AAED0F82C3208469B68984700289D
:109820007FF44BAFD5F82C323046DB68984708B14F
:10983000272243E7D7F80220D5F8280212BAD0F839
:109840006012C4F86422B7F807305BBA9BB29E1866
:10985000C4F868328E4201D9212294E7B4F85E122E
:109860004A434B43C4F86422D4F81422C4F8683243
:10987000934287D1B3F5007F4FF0010104F10C0250
:1098800028BF4FF4007321729BB2D5F8300255F017
:10989000E5FFA9E670670608D4F8687204F10C08C1
:1098A000B4F85E22B7F5007FD4F86412D0F82C0229
:1098B00028BF4FF40077D0F814903046B7FBF2F38E
:1098C000B1FBF2F29BB24146C847002801DA0322FD
:1098D0007AE7D4F864323B44C4F86432D4F868328E
:1098E000D91BD4F83432DB1BC4F86812C4F8343204
:1098F00019B92846FFF762FD76E6B1F5007F0B4601
:1099000042464FF0010128BF4FF400739BB2BCE701
:109910007B7813F0020303D0242205212046D0E6F1
:10992000D4F86412B4F868220A44D4F860128A4267
:109930007FF685AE2122F0E7D0F8281210B50B7A19
:109940000446022B07D0033B012B02D80021FFF76E
:1099500035FD002010BD01F21B2291F81912FFF70E
:10996000D0FD0028F5DA01212046F0E770B5D0F8E7
:1099700028420546267A1EB1012E55D0002070BD22
:10998000D4F81032C4F83032D4F81432C4F8343277
:10999000D0F83032B3F82C321F2B0DD1D4F80C2272
:1099A000264B9A4208D194F81912012904D894F848
:1099B0001A32013B0F2B0AD920220521204656F0EE
:1099C0003EF8022363722846FFF7D4FCD6E704F280
:1099D0001B22FFF796FD0028237A06DA052BF2D129
:1099E00001212846FFF7EAFCC8E7013B022BC5D955
:1099F00061890029F5D0D5F82822D2F8143282F8EE
:109A000038628B4228BF0B46D2F83412C91A9BB277
:109A1000C2F834120421117204F10C028121D5F82C
:109A2000300255F051FFA9E704F21B2294F81912F5
:109A3000FFF767FD0028A1DAD2E700BF5553424384
:109A400010B501200C460AF091FC054B1221A3F140
:109A500014022180022814BF1846104610BD00BF12
:109A6000D801012008B520B9034851F06DFF034823
:109A700008BD0348F9E700BFFC0D0708BC2701201B
:109A80001D0E0708024808B551F05EFF014808BDE9
:109A90003E0E0708BC270120024808B551F054FFCC
:109AA000014808BD430E0708BC270120024808B53D
:109AB00051F04AFF014808BD4E0E0708BC2701209F
:109AC000064BD3F8A8321A79022A05D19A68920770
:109AD00002D5586954F00ABC704700BF88240120A1
:109AE00038B5114D114CD4F8A80207F001FB58B15C
:109AF000013D15D194F86C320133DBB2072B84F8A9
:109B00006C3201D984F87852D4F8A8020379022B78
:109B100008D183689B0705D5BDE8384007F000BB36
:109B200000BFE0E738BD00BFA18601008824012006
:109B300073B5441C0025094ED6F8A8020123002263
:109B40000DF1070154F0DAFB9DF80700FF2802D160
:109B50000135A542F0D102B070BD00BF88240120BC
:109B600070B5044608200D46FFF7E2FFFF2812D02B
:109B7000FE2812D10A4E2B4600222146D6F8A80212
:109B800054F0BCFB0022D6F8A8020223114654F080
:109B9000B5FB002070BD0120FCE70220FAE700BF02
:109BA0008824012037B54FF6FF53104D002401AA39
:109BB000D5F8A8022146ADF804300223C5F8744256
:109BC00054F09CFB0120FFF7B3FFFF2805D10423CD
:109BD000022085F8783203B030BD0923204685F88D
:109BE0007832D5F83434C5F86832F4E78824012097
:109BF00040F0400313B58DF800300B0E04468DF88D
:109C000004108DF801300B0C8DF802300B0A8DF822
:109C1000033095238DF8053054F096FB00B964B9F4
:109C2000074806236A460021D0F8A80254F066FBD4
:109C30000820FFF77DFF02B010BDFF20FBE700BF4B
:109C4000882401202DE9F041164C1E460546884621
:109C500094F878321746042B17D1FFF731FF94F8A8
:109C60006F32D3B969021120FFF7C2FFB8B90523DB
:109C7000012084F87832D4F83434C4E99585C4E9F5
:109C80009876C4F86832BDE8F081082B03D1FFF75D
:109C900089FF0228E1D00020F5E72946E3E7FFF736
:109CA0001FFFF8E78824012038B5134C0023A07B60
:109CB000E0B125688D4219D1104C03F581751AB9B0
:109CC00004EB0514A27138BD04F1180101EB432324
:109CD0009A4209D1831E5842584155F0BFFC0123D6
:109CE00004EB0514A371EEE70020F6E7013310340E
:109CF000082BDCD1E7E700BFA8410120903101200B
:109D0000164838B5002300F1180480F8A030256803
:109D10008D421ED1A57B032D1BD1114C03F58175FE
:109D20004AB9042304EB0514A371D0F89C30013325
:109D3000C0F89C3038BD04F1180004EB051400EBAA
:109D40004320131A5842584155F088FC0123A3714F
:109D5000F0E701331034082BD9D1EBE79041012013
:109D60009031012082B0054A019010681368019972
:109D70001B1A8B42FAD302B0704700BF882401201F
:109D8000002807DB4109012300F01F00024A83403D
:109D900042F82130704700BF00E100E02DE9F74FA5
:109DA0000023DFF89C814FF00F09634A012404FA75
:109DB00003FA0C680AEA04053AEA040440F0A780B2
:109DC0004C6824F0100EBEF1020F11D1DF0803F031
:109DD000070C00EB87074FEA8C0C3E6A09FA0CFB74
:109DE00026EA0B0B0E6906FA0CF646EA0B063E62F3
:109DF0004FEA430C0326D0F800B00EF1FF3E06FAFE
:109E00000CF7BEF1010F2BEA070B6FEA070604F00F
:109E1000030707FA0CF747EA0B07076010D88768B3
:109E200006EA070ECF6807FA0CF747EA0E078760C5
:109E3000476827EA0A0E27099F4047EA0E0747604E
:109E4000C76837408E6806FA0CF63E43C660E600E7
:109E50005DD5D8F8446023F0030703F0030C46F403
:109E6000804607F180474FEA8C0CC8F8446007F53C
:109E70009C37D8F8446009FA0CFE06F48046019637
:109E8000019EBE6826EA0E0E2C4EB04246D006F564
:109E90008066B04244D006F58066B04242D006F5F6
:109EA0008066B04240D006F58066B0423ED006F5EE
:109EB0008066B0423CD006F58066B0423AD006F5E6
:109EC0008066B04214BF0826072606FA0CF614F482
:109ED000803F46EA0E06BE606FEA050716680CBFB3
:109EE0003E402E4314F4003F166056680CBF3E40BF
:109EF0002E4314F4801F566096680CBF3E402E43DC
:109F0000A4029660D66854BF3E402E43D66001330B
:109F1000102B7FF44BAF03B0BDE8F08F0026D4E7E1
:109F20000126D2E70226D0E70326CEE70426CCE7B7
:109F30000526CAE70626C8E7003C014000000240AB
:109F40000038024003689A69910701D500229A629D
:109F50009A69D20703D49A6942F001029A61704764
:109F600070B590F8403004460D461646012B00F0BF
:109F70001681012380F84030CB0640F19580D00651
:109F800040F19280638D9BB2002B40F08580E36AA4
:109F9000B3F1007F03D0E36AB3F1007F68D194F896
:109FA0004130282B64D129462046FEF7F6FAAB064D
:109FB0005AD5B00658D52668202307212046F361DC
:109FC0000823F36156F02FFA7368204643F40043E8
:109FD0007360736823F0FF7323F48B3323F4FF73F0
:109FE00023F001037360FFF7ADFF3368590402D417
:109FF00033681A0409D594F84130212B0CBFA36BA8
:10A00000E36B1B685B689BB26385638D9BB21BB17E
:10A01000636C43F0040363646B0710D5636A726A70
:10A02000591C61621A70238D4BB1013B2385638DEE
:10A03000013B9BB26385636C43F0040363640023BC
:10A040002363636384F84230636C002B00F09A80D2
:10A05000616C2046FEF7CEFA94F84130282B03D1EC
:10A0600029462046FEF799FA002084F8400070BD8A
:10A07000E26A236812F5803F0BD094F84120292A28
:10A0800007D110222046DA61FFF75CFFFEF766FA7F
:10A090008DE71022DA618AE723681022DA61636CA7
:10A0A00043F00403636482E769071DD572071BD57B
:10A0B000638D9BB263B123685A6A636A591C6162FB
:10A0C0001A70238D013B2385638D013B9BB2638511
:10A0D000638D9BB2002B7FF46AAFE36A13F5803F78
:10A0E0003FF465AF2046D1E72B072CD530072AD5A2
:10A0F00094F84130226803F02803282B20D193697B
:10A1000091699368D068E068022813D1C3F3C21341
:10A1100083EA114313F006030CD1A16C0131A16451
:10A12000A16C02297FF443AF0821A364D16184F8B4
:10A1300040303CE70421204656F075F90023F6E74D
:10A140000823D361FAE7A9077FF531AFB2077FF59E
:10A150002EAF638D9BB26BB1636A5A1C6262226838
:10A160001B789362638D013B9BB26385238D013B1A
:10A1700023851CE7E36AB3F1807FB3D0E36A002B49
:10A18000B0D014E7E36A13F5803F05D0054BE362D6
:10A19000202384F8413067E794F84130F8E7022043
:10A1A00065E700BF0000FFFF194B9A6802F00C0240
:10A1B000042A28D0082A28D15A68596802F03F0298
:10A1C000586811F4800F47F6C07191FAA1F3B3FA01
:10A1D00083F300EA010020FA03F014BF0D4B0E4B8D
:10A1E000B3FBF2F358430A4B4FF440325B6892FAE8
:10A1F000A2F2B2FA82F203F44033D34001335B009F
:10A20000B0FBF3F07047034870470348704700BF46
:10A210000038024000127A000024F400094B4FF489
:10A22000E0529B6892FAA2F2B2FA82F203F4E0538F
:10A23000D340054A1344054ADB7BD2F8C001D8401D
:10A24000704700BF00380240706706080000012018
:10A25000094B4FF460429B6892FAA2F2B2FA82F282
:10A2600003F46043D340054A1344054ADB7BD2F82C
:10A27000C001D840704700BF003802407067060830
:10A280000000012038B505460468C3692969AA6839
:10A2900020680A4369690A4376491A430140286ADB
:10A2A0000A43E9682260626822F440520A4362600D
:10A2B000AA69A168024321F430610A43A2606E4A90
:10A2C000944214D102F59432D2F8902002F00302A5
:10A2D000022A00F0BB80032A00F0AF80012A69D077
:10A2E000B3F5004F00F09680FFF7B2FF13E0634A2A
:10A2F000944224D102F5FA32D2F8902002F00C02F6
:10A30000082A00F0A3800FD8002A53D1B3F5004FDC
:10A3100079D0FFF783FF6B6800EB5300B0FBF3F0DD
:10A3200080B2E0600020A4E00C2A00F08680B3F543
:10A33000004F4FF0010040F09C80002393E0504A12
:10A3400094420AD102F5F832D2F8902002F030029D
:10A35000202A7BD0D8D9302AE7E74A4A94420AD14A
:10A3600002F5F632D2F8902002F0C002802A6DD0B9
:10A37000CAD9C02AD9E7444A94420CD102F5F43232
:10A38000D2F8902002F44072B2F5007F5ED0BBD9C3
:10A39000B2F5407FC9E73D4A944214D102F59232AA
:10A3A000D2F8902002F44062B2F5006F4ED007D888
:10A3B000002A95D0B3F5004F39D1FFF7F5FE24E020
:10A3C000B2F5406FB1E7324A94420CD102F5E03267
:10A3D000D2F8902002F44052B2F5005F36D093D903
:10A3E000B2F5405FA1E72B4A9442A0D102F5DE32DC
:10A3F000D2F8902002F44042B2F5004F26D083D923
:10A40000B2F5404F91E7FFF709FF6A68530803EB85
:10A41000400324E0FFF71CFFF7E7530803F574033C
:10A4200003F51053B3FBF2F39BB2E3607AE7FFF757
:10A43000BBFE70E703F50043F4E7B3F5004F6A682D
:10A440004FEA5203F6D103F5803308E0B3F5004F2D
:10A450006A68E2D1530803F1F47303F590430020D6
:10A46000B3FBF2F39BB223F00F02C3F34203134397
:10A47000E36038BDF369FFEF001001400044004085
:10A4800000480040004C00400050004000140140D3
:10A4900000780040007C0040034B0B44DA7D835879
:10A4A00023F001038350704770670608F8B504690C
:10A4B000202345681F2C11D9A4F120016A688B4024
:10A4C00013420AD083691A7C032A0AD11F2C4FF049
:10A4D000200323D9203CA340EB60F8BD2A68A340A9
:10A4E000EEE71A7C022A01D100221A7459680D4A3B
:10A4F0004E790F6802EB46060969F868368CC1F39D
:10A500000321DB6806F4F05602EB810220EA060024
:10A51000916AF8605868FFF7BFFFD7E7A340AB60C8
:10A52000DBE700BF70670608A248A34AA349121AD6
:10A5300070B5A4B05BF076FBA14A0020D2F8883059
:10A5400043F47003C2F888309E4B196841F0010152
:10A5500019609860196821F0847121F480311960C4
:10A5600099495960196821F4802119609749D86088
:10A570009160BFF34F8FBFF36F8FC2F85002BFF3EC
:10A580004F8FBFF36F8F516941F400315161BFF3B9
:10A590004F8FBFF36F8F1A6C42F080521A641A6C9F
:10A5A00002F080520292029A894A116841F44041B5
:10A5B0001160126802F440420192019A9A6802F016
:10A5C0000C02042A07D09A6802F00C02082A65D10E
:10A5D0005B685B0262D57B4B1B687A4A936803F029
:10A5E0000C03082B68D013687A4C23F08073136037
:10A5F000216813689D0160D447F6C07090FAA0F0FE
:10A600004FF44033B0FA80F093FAA3F34FF0706147
:10A6100091FAA1F14FF4D873B1FA81F18340092086
:10A6200000FA01F10B4343F0015343F00803536078
:10A63000136843F080731360624B21681A689001BD
:10A6400040D51A6C42F080521A641B6C03F08053A0
:10A650000393039B5E4B1A6842F480321A602168B0
:10A660005A68D20333D51A6842F400321A60584A45
:10A67000216853689B0330D54FF400134FF4C07C1E
:10A6800004A804934FF0006321930723CDE908C386
:10A6900003230A93FEF746F828B3FEE7494B4D49DA
:10A6A0001A6842F480321A6008681A68960394D4D3
:10A6B0000A68121A642AF8D9FEE723685B1A022B8B
:10A6C00097D9F9E72268521A022AB7D9F4E7226823
:10A6D000521AB2F57A7FC3D9FEE723685B1AB3F545
:10A6E0007A7FC6D9F8E73C4A136803F00F03062BBC
:10A6F0000AD8136823F00F0343F0070313601368AD
:10A7000003F00F03072B53D12E4B9A6822F0F0026F
:10A710009A601A6890014BD59A6841F2883022F00D
:10A72000030242F002029A6021689A6802F00C0269
:10A73000082A39D1284A1368190755D4214CA3682F
:10A7400023F4E05343F4A053A360A36823F46043CD
:10A7500043F40043A360FFF727FDA368F02292FAB9
:10A76000A2F2B2FA82F203F0F0031C4ED3401C4D69
:10A77000334493F84830D840C5F8C00151F04EFB3F
:10A78000184B04A804930023CDE91333CDE9153306
:10A79000CDE91733CDE91933CDE91B33CDE91D33AD
:10A7A000FDF7C0FF60B3FEE72268521A8242BCD9AF
:10A7B000FEE700BF00000000103600000474070828
:10A7C00000ED00E0003802401030002400000008D6
:10A7D0000070004088240120003C02407067060899
:10A7E00000000120C0FF0300136823F00F0343F0B3
:10A7F00007031360136803F00F03072B9ED0D7E7FE
:10A80000D4F88C3023F08073C4F88C30D4F88C30BA
:10A8100043F08073C4F88C30A36803F00C03042B5E
:10A8200027D0082B27D16368626813F4800F636810
:10A8300002F03F0218BF1249C3F3881308BF114941
:10A84000B1FBF2F25343104A5268C2F301420132A3
:10A850005200B3FBF2F30C4A9268C2F3031216449F
:10A8600096F84820D340094A9342C5F8C03104D035
:10A87000FEE7034BEFE7034BEDE724B070BD00BFED
:10A8800000127A000024F4000038024000E6DF0CD9
:10A890002DE9F843036807468846524EC3F30D047A
:10A8A000002C54D1504A93421ED302F58042934269
:10A8B00019D302F58042934254D34C4A934253D960
:10A8C00002F58032934251D902F5003293424FD9BA
:10A8D00002F5003293424DD902F5003293424BD932
:10A8E00005200AF0E2FF012496F84C34012B48D0F1
:10A8F000012386F84C3451F00DFA814600283DD1F1
:10A900003B4D2B6923F440732B612B6943F4007397
:10A910002B612B6923F0F8032B61782393FAA3F3BF
:10A92000B3FA83F32A699C40144344F002042C6177
:10A930002B6943F480332B61BFF34F8F51F0EAF959
:10A940002B6923F07A032B61F8B986F84C0496F84A
:10A950004C34D7F80090012BD8F8008018D16FF054
:10A96000010010E00224BFE70324BDE70424BBE795
:10A970000524B9E70624B7E70724B5E7002386F8DE
:10A980004C344FF0FF30BDE8F88386F84C94F8E77C
:10A99000012386F84C3451F0BDF9054618B1002367
:10A9A00086F84C34DBE7124C236923F440732361AF
:10A9B000236943F400732361236943F00103236196
:10A9C000C9F80080BFF34F8F51F0A4F9236923F039
:10A9D0000103236186F84C540028C0D13B6804333E
:10A9E0003B60D0E78824012000400008FFFF0008FA
:10A9F000003C02400148FDF765BE00BFE028012091
:10AA00000148FDF743BB00BFE02801200148FDF7E6
:10AA100059BE00BF302901200148FDF737BB00BFF8
:10AA2000302901200148FDF74DBE00BF80290120DB
:10AA30000148FDF72BBB00BF802901202DE9F0471D
:10AA4000904F4FF00C08064608FB0078D8F8EC4110
:10AA5000002C00F0118198F8F20151F0B9F898F843
:10AA6000F00108F005FF054698F8F10108F000FF35
:10AA7000731C8046DBB21DB140F60C122B72EA80CB
:10AA8000B8F1000F05D040F60C2288F80830A8F87D
:10AA9000062028464FF0090A08F093FE404608F0C9
:10AAA00090FE1121284608F097FE1121404608F03B
:10AAB00093FE4FF0650903E0052000210AF0D0FE67
:10AAC000284608F06DFE10B9B9F10109F4D1284605
:10AAD00008F07CFE002105200AF0C2FE284608F09E
:10AAE00070FE052000210AF0BBFEBAF1010AE0D198
:10AAF00028464FF00C0908F069FE0021052009FBEB
:10AB000006790AF0ADFE404608F060FE00210520FF
:10AB10000AF0A6FE284608F054FE002105200AF09F
:10AB20009FFE404608F04DFE99F8F6A128463E21CA
:10AB30005246554D08F076FE524640463E2108F0FA
:10AB400071FE502303FB0653C3F85844FFF766FB1E
:10AB500099F8F331022B00F09180032B00F09080E4
:10AB6000012B14BF4FF4C8714FF4487150F0A4FF8B
:10AB7000502200214FF0010C02FB0653C3F8601471
:10AB8000C3F86814C3F86C14C3F87414C3F87814C9
:10AB900093F89914C3F864C4C3F85C0401F0FF0C83
:10ABA00009B983F898C402FB06524FF0240C20F038
:10ABB000706082F899C4236823F001032360206148
:10ABC000A36823F40043A3604FF40043A3606368C9
:10ABD00043F0007343F400436360E36823F40043ED
:10ABE000E360D2F870341B02E36000232360216825
:10ABF00041F0010121602021C2F89C3482F89914AF
:10AC0000C2F8883482F89A3492F899142029C8B28C
:10AC100017D192F89814012913D082F899C42168A9
:10AC200021F001012160216821F480512160216817
:10AC30002160216841F00101216082F8990482F8C5
:10AC400098340C23022103FB067797F9F54120463F
:10AC500051F0B6F82046FFF793F897F9F441022136
:10AC6000204651F0ADF82046FFF78AF8502303FB49
:10AC70000655012385F85434BDE8F087642175E753
:10AC8000C82173E700000120882401202DE9F04F3E
:10AC90009A4685B0431C0746039288469DF83C209F
:10ACA00008D0C84E502303FB006393F854B4BBF1A3
:10ACB000000F05D14FF0000B584605B0BDE8F08FEE
:10ACC000039BFF2B03D0BAF1000F40F0BA80002A9B
:10ACD00000F0B78050247C43351995F89934202B27
:10ACE00040F0F78095F89834012B00F0F280B64BD5
:10ACF0000122D6F800904FF400411C4485F89824B6
:10AD00001923CDF800902046FDF7DAF9002840F02D
:10AD1000E080212308FA02F8C5F88C0485F89934FC
:10AD2000102385F89A340E9BC5F89C04C5F87C3432
:10AD3000A5F882A4B5F882349BB2FF2B30D94FF42A
:10AD40000053FF22A5F8802400934FF08073502514
:10AD50004146204605FB0765FDF7D0F9B5F882347A
:10AD6000494620469BB23BBB50F08CFF38BBD5F820
:10AD700058342021D9615A6822F0FF7222F48B32B4
:10AD800022F4FF7222F001025A60502385F89914D0
:10AD900003FB0766002385F89A0486F898348BE74E
:10ADA000B5F882244FF4005392B2A5F88024D2B2B1
:10ADB00000934FF00073CAE750F088FF10B1D5F848
:10ADC0009C3486E0D5F87C345A1CC5F87C24D5F830
:10ADD00058241B789362B5F88024B5F88234013A80
:10ADE000013B92B29BB2A5F88024A5F88234002AD8
:10ADF000B4D1B5F882349BB2002BAFD00A238021A6
:10AE00002046CDF80090FDF75BF9002861D1B5F838
:10AE100082349BB2FF2B0AD9FF224FF08073A5F832
:10AE20008024009041462046FDF768F996E7B5F882
:10AE300082244FF0007392B2A5F88024D2B2009021
:10AE4000F0E750247C43351995F89934202B40D1F4
:10AE5000BAF1000F3DD095F89834012B39D05A4BF8
:10AE60000122D6F800904FF400411C4485F8982444
:10AE70001923CDF800902046FDF722F948BB212385
:10AE800008FA02F8C5F88C0485F899344023414645
:10AE900085F89A340E9BC5F89C042046C5F87C348E
:10AEA0004FF40053A5F882A400934FF08073FDF790
:10AEB00025F94946204650F009FF024698B1D5F8D9
:10AEC0009C34502303FB0763D3F89C24002283F8AF
:10AED0009824B6F84435384601339BB2A6F8443579
:10AEE000FFF7ACFDE6E6D5F85834204603999962A1
:10AEF0000A238021CDF80090FDF7E2F80028E0D188
:10AF0000B5F882349BB2FF2B09D8B5F882244FF0F4
:10AF1000007392B2A5F88024D2B2009005E0FF221F
:10AF20004FF08073A5F8802400904FF0500A4146FE
:10AF300020460AFB0765FDF7E1F84946204650F038
:10AF4000C5FE20B10AFB076ADAF89C34C1E7D5F8E0
:10AF50007C345A1CC5F87C24D5F858241B7893629D
:10AF6000B5F88024B5F88234013A013B92B29BB225
:10AF7000A5F88024A5F88234DAB9B5F882349BB2FA
:10AF8000BBB10A2380212046CDF80090FDF798F848
:10AF900000289ED1B5F882349BB2FF2B16D9FF2230
:10AFA0004FF08073A5F88024009041462046FDF7BD
:10AFB000A5F8B5F882349BB2002BBED14946204695
:10AFC000D2E600BF88240120E0280120B5F88224C1
:10AFD0004FF0007392B2A5F88024D2B20090E4E75B
:10AFE0002DE9F04FB0F1FF3F85B0804692460393C4
:10AFF0009DF83C3008D05024AA4E4443351995F8AA
:10B0000054B4BBF1000F05D14FF0000B584605B00A
:10B01000BDE8F08F3444FF2A4FEA410704F58B6402
:10B0200040F0DA80002B00F0D78095F89934202B7F
:10B0300075D195F89834012B71D00122D6F8009083
:10B0400019234FF4004185F898242046CDF800904C
:10B05000FDF736F8002862D12223C5F88C0485F864
:10B060009934102385F89A340E9BC5F89C04C5F8D2
:10B070007C34039BA5F88234B5F882349BB2FF2B55
:10B080001DD94FF41053A5F880A4524600934FF0F9
:10B09000807350253946204605FB0865FDF72EF8DC
:10B0A000B5F882349BB2002B54D14946204650F06B
:10B0B000E9FD002800F05581D5F89C342FE0B5F863
:10B0C00082244FF4105392B2A5F88024D2B2009398
:10B0D0004FF00073DDE74946204650F09BFDC8B9AC
:10B0E000D5F858349A6912F0200222D02021D96173
:10B0F0005A6822F0FF7222F48B3222F4FF7222F09F
:10B1000001025A60C5F89C0485F8980485F89914E2
:10B1100085F89A04502303FB0863D3F89C34B6F8EF
:10B120004435404601339BB2A6F84435FFF786FC10
:10B130006AE73368A3EB09030A2B0BD9D5F89C34D3
:10B1400085F8982443F02003C5F89C34202385F823
:10B150009934DFE7D5F858349A695207BBD55A6A53
:10B16000D5F87C34591CC5F87C141A70B5F88024C5
:10B17000B5F88234013A013B92B29BB2A5F8802423
:10B18000A5F88234002A8BD1B5F882349BB2002B0B
:10B1900086D00A2380212046CDF80090FCF790FF4E
:10B1A0000028BCD1B5F882349BB2FF2B0AD9FF220C
:10B1B0004FF08073A5F88024009039462046FCF7B4
:10B1C0009DFF6DE7B5F882244FF0007392B2A5F8A9
:10B1D0008024D2B20090F0E7502505FB086595F871
:10B1E0009934202B9BD10E9B002B98D095F8983446
:10B1F000012B94D00122D6F8009019234FF400417E
:10B2000085F898242046CDF80090FCF759FF0346B6
:10B21000002884D12221C5F88C0485F899144FF0B8
:10B22000400185F89A140E99C5F89C042046C5F88B
:10B230007C140399A5F882144FF40051009139460B
:10B24000FCF75CFF4946204650F040FD024650B1F5
:10B25000D5F89C34502303FB0863D3F89C240022C8
:10B2600083F898245BE7D5F8583440212046C3F88A
:10B2700028A00A23CDF80090FCF722FF0028E9D18E
:10B28000B5F882349BB2FF2B0ED8B5F882244FF468
:10B29000105392B2A5F88024D2B200934FF00073FD
:10B2A0000AE000BF882401204FF41053FF22A5F8C4
:10B2B000802400934FF0807350253946204605FBCB
:10B2C0000865FCF71BFF0A23002204212046CDF865
:10B2D0000090FCF7F5FE00287FF421AFD5F8583434
:10B2E000596AD5F87C34581CC5F87C041970B5F837
:10B2F0008034B5F88214013B01399BB289B2A5F8BC
:10B300008034A5F88214E3B9B5F882349BB2C3B196
:10B310000A2380212046CDF80090FCF7D1FE0028BA
:10B320007FF4FDAEB5F882349BB2FF2B0FD9FF221C
:10B330004FF08073A5F88024009039462046FCF732
:10B34000DDFEB5F882349BB2002BBCD1ADE6B5F87A
:10B3500082244FF0007392B2A5F88024D2B20090FC
:10B36000EBE7D5F858342021D9615A6822F0FF72F2
:10B3700022F48B3222F4FF7222F001025A60502331
:10B3800085F8991403FB0866002385F89A0486F86B
:10B3900098343BE60348D0F81C3213B100F5047032
:10B3A00018477047000001200348D0F83C3213B121
:10B3B00000F50C7018477047000001200348D0F8D2
:10B3C0005C3213B100F5147018477047000001207B
:10B3D0000348D0F87C3213B100F51C701847704751
:10B3E000000001200348D0F89C3213B100F524700E
:10B3F00018477047000001200348D0F8BC3213B151
:10B4000000F52C7018477047000001200348D0F861
:10B41000DC3213B100F5347018477047000001208A
:10B420000348D0F8FC3213B100F53C701847704760
:10B43000000001200348D0F81C3313B100F544701C
:10B4400018477047000001200348D0F83C3313B17F
:10B4500000F54C7018477047000001200348D0F8F1
:10B460005C3313B100F55470184770470000012099
:10B470000348D0F87C3313B100F55C70184770476F
:10B48000000001200348D0F89C3313B100F564702C
:10B4900018477047000001200348D0F8BC3313B1AF
:10B4A00000F56C7018477047000001200348D0F881
:10B4B000DC3313B100F574701847704700000120A9
:10B4C0000348D0F8FC3313B100F57C70184770477F
:10B4D0000000012038B5446844F4805444603BB90E
:10B4E000012004E0013C05D1FCF777FE002038BDC7
:10B4F00040F2E9348568AD07F4D56AB112F8014B22
:10B50000047340F2E9348568ED0707D5C46809B1D2
:10B5100001F8014B013BE2E7FF24F1E7013CF2D1E6
:10B52000E2E738B5234C0D2300223821022005F034
:10B53000E1FBC4F8A80210B984F8780238BD0021F4
:10B5400005F054FD01200AF09BF9D4F8A85268696F
:10B5500008F037F995F910001423174D00225843CD
:10B560000A2311462858154DFFF7B4FFD4F8A80256
:10B5700005F0BEFD48B9D4F8343484F86C02C4F840
:10B580006832012384F87832D8E7013DEED10221F8
:10B59000D4F8A80205F02AFDD4F8A80205F09DFB16
:10B5A00094F86C32C4F8A852013384F8785284F8C5
:10B5B0006C32C3E78824012000000120A18601002D
:10B5C0000023064A52F83310814201D1D8B27047A5
:10B5D00001330E2BF6D1FF20704700BFC867060865
:10B5E0000023064A52F83310814201D1D8B2704785
:10B5F00001330E2BF6D1FE20704700BFC867060846
:10B600002DE9F84307460068FFF7EAFF0D280546D5
:10B6100007DD254A0021052004F090FD0020BDE84B
:10B62000F883DFF890904FEA800809EB8004D4F8A3
:10B6300048653EBB0721682004F0E6FD0146C4F8DA
:10B64000480508B9194AE6E7314668225AF07EFEF5
:10B65000174B29B2D4F8484503F1580203EBC50350
:10B66000A46002EBC102986D24622260A463246589
:10B67000FFF7B6FF0D289EBF09F5B06603B206EBD3
:10B6800083166660C144797918220020D9F84835BC
:10B6900002FB0134C4E90400E76001FB02241855F1
:10B6A00002FB01300830BAE75C0E0708810E07087C
:10B6B000706706088824012070B5002829D04C68DE
:10B6C00054B9036842685B68567902221D68B2402B
:10B6D000EB6823EA0203EB608A6832B903685B68AF
:10B6E0001D68EB6823F00103EB6081604CB10368D7
:10B6F0005B6819684368CC685D790223AB402343DB
:10B70000CB6032B103685B681A68D36843F0010309
:10B71000D36070BD0A4B30B51A4600241D798542AE
:10B7200008D1DD68294203D0142303FB042030BD77
:10B730000029F9D0013414330A2CEFD10020F6E7A8
:10B7400010040120036807EE902A70B5D3E9003594
:10B75000F8EE677A0E461C68404B93ED707AB8EEAF
:10B76000477A87EE270ADFED3E7A30EE270A58F057
:10B77000EDFE2B680138711EA34280B289B205D15B
:10B780006B68834202D1EB688B4266D00023E9608C
:10B79000C5E90433AB608023C5E90040AB612846AE
:10B7A00054F0C6FD2F4B9C4216D0B4F1804F13D0FD
:10B7B000A3F57C439C420FD003F580639C420BD0E1
:10B7C00003F580639C4207D003F578439C4203D085
:10B7D00003F570539C4240D195F83C30012B3CD08E
:10B7E000022385F83D30204BA2681340A360A36874
:10B7F00023F4803323F00703A360012385F83D3051
:10B80000002385F83C30174B9C4212D0B4F1804F96
:10B810000FD0A3F57C439C420BD003F580639C4280
:10B8200007D003F580639C4203D003F578439C4224
:10B8300013D10C4963688C42A26803D001F5806182
:10B840008C4201D123F4700323F0700322F08002B4
:10B8500063600023A26085F83C3070BD00000120C9
:10B860000AD7233C000001408800FEFF43680268BD
:10B87000F0B5526858799C79964BC4F34004034460
:10B8800092F83C00012893F8C83017D001200C2B07
:10B8900082F83C004FF0020082F83D0000F0C880C2
:10B8A0000DD8042B67D0082B00F09280002B32D0EB
:10B8B000012382F83D30002382F83C30F0BD102B8C
:10B8C00000F0DD80142BF3D11368186A20F4801087
:10B8D00018621D6A5E6825F40015586D45EA4454E7
:10B8E00020F080707C4D20F4E040AB4240F4C0403A
:10B8F00003D005F58065AB4201D146F480265E6039
:10B900005865D9651C62596D41F400615965596DDE
:10B9100021F48061D9E013686F4F186ABB4220F0B0
:10B9200001001862186A5E689D6920F0020025F423
:10B93000803540EA440025F0730545F0600503D0EA
:10B9400007F58067BB4207D120F0080046F4407637
:10B9500040EAC40020F004005E609D6159631862F3
:10B96000996941F008019961996921F0040199618F
:10B97000996999619CE71368574F186ABB4220F098
:10B9800010001862186A5E689D6920F0200025F09A
:10B99000807540EA441025F4E64545F4C04503D0DF
:10B9A00007F58067BB4207D120F0800046F440666F
:10B9B00040EAC41020F040005E609D619963186207
:10B9C000996941F400619961996921F48061CEE738
:10B9D0001368414F186ABB4220F480701862186ADD
:10B9E0005E68DD6920F4007025F4803540EA44206B
:10B9F00025F0730545F0600503D007F58067BB426D
:10BA000007D120F4006046F4405640EAC42020F4F8
:10BA100080605E60DD61D9631862D96941F0080118
:10BA2000D961D96921F00401D961D969D9613FE7A8
:10BA30001368186A20F4805018621D6A5E6825F445
:10BA40000055D86945EA443420F08070224D20F436
:10BA5000E640AB4240F4C04003D005F58065AB4200
:10BA600001D146F480465E60D86119641C62D969D0
:10BA700041F40061D961D96921F48061D4E7136888
:10BA8000186A20F4803018621D6A5E6825F400355B
:10BA9000586D45EA444420F480300F4D20F070008A
:10BAA000AB4240F0600003D005F58065AB4201D1A8
:10BAB00046F480365E60586599651C62596D41F0A8
:10BAC00008015965596D21F004015965596D596591
:10BAD000EEE600BF706706080000014043685A792F
:10BAE000032A0FD8DFE802F00205080B186834308B
:10BAF000704718683830704718683C3070471868CD
:10BB00004030704700207047036802225B68196864
:10BB100083F83D200A6842F001020A60012283F89E
:10BB20003D207047D0E9003251795868054B0B44ED
:10BB300093F8C81093795B0701D554F080BA54F09C
:10BB400092BA00BF706706082DE9F843436888463B
:10BB50002E4F04461B69C3F3032307EB8303996A43
:10BB6000C3685D68EFF31186102383F3128842687F
:10BB700010685279C36807EB4202128C02F4F0524B
:10BB800023EA0203C3602846FEF786FCE3681A69CD
:10BB9000586820231F2A31D9203A9340C360F6B257
:10BBA00086F311881A4842F21072435C2B441E68D7
:10BBB000F60702D500BF013AF9D1465CAB5905EB57
:10BBC0000609DB071DD40F442046FA7D67692A4425
:10BBD00053686FF30F0343EA08035360FFF77EFFD8
:10BBE000C9F80C70C9F80800AB5943F01003AB5109
:10BBF000AB5943F00103AB51012303E09340836051
:10BC0000CDE700232374BDE8F88300BF7067060802
:10BC1000876706080268137E012B26D1022313765C
:10BC20004FF4007392F83010012904D1022143F43B
:10BC3000806382F8301092F84810012904D1022163
:10BC400043F4006382F8481092F8601001290ED185
:10BC5000022143F4805382F86010126800211268B8
:10BC60005162D1680B43D36003E00023DAE7002B75
:10BC7000F3D17047024B0348D3F84815FDF726B8B7
:10BC8000882401200000014010B5064C0648D4F875
:10BC90004815FDF71BF8D4F86C150448BDE81040B2
:10BCA000FDF714B888240120000001400044014041
:10BCB000034B4FF08040D3F84C15FDF707B800BF99
:10BCC00088240120024B0348D3F85015FCF7FEBF2F
:10BCD0008824012000040040024B0348D3F8541587
:10BCE000FCF7F4BF8824012000080040024B034801
:10BCF000D3F85815FCF7EABF88240120000C004057
:10BD0000024B0348D3F86415FCF7E0BF88240120F8
:10BD10000004014010B5064C0648D4F86415FCF741
:10BD2000D5FFD4F878150448BDE81040FCF7CEBF25
:10BD30008824012000040140001C004010B5064C7E
:10BD40000648D4F86415FCF7C1FFD4F87C15044804
:10BD5000BDE81040FCF7BABF882401200004014070
:10BD600000200040024B0348D3F86815FCF7AEBF33
:10BD70008824012000400140024B0348D3F870158D
:10BD8000FCF7A4BF8824012000480140024B03486F
:10BD9000D3F87415FCF79ABF8824012000180040DE
:10BDA000404B8EB01A6B42F480221A631A6B02F475
:10BDB00080220092009A1A6B42F480121A631A6B66
:10BDC00002F480120192019A1A6B42F480021A6303
:10BDD0001A6B02F480020292029A1A6B42F000522D
:10BDE0001A631A6B02F000520392039A1A6B42F024
:10BDF00080421A631A6B02F080420492049A1A6C11
:10BE000042F400321A641A6C02F400320592059A68
:10BE10001A6C42F480221A641A6C02F48022069290
:10BE2000069A1A6C42F400221A641A6C02F4002278
:10BE30000792079A1A6C42F480121A641A6C02F480
:10BE400080120892089A1A6C42F080421A641A6CA6
:10BE500002F080420992099A1A6C42F000421A6478
:10BE60001A6C02F000420A920A9A5A6C42F01002CE
:10BE70005A645A6C02F010020B920B9A5A6C42F000
:10BE800020025A645A6C02F020020C920C9A5A6CEE
:10BE900042F400625A645B6C03F400630D930D9BE3
:10BEA0000EB0704700380240074B03EB8003D3F815
:10BEB000CC3033B193F8AD204A7093F8AC300B70AE
:10BEC00070474B70FBE700BF706706082DE9F84329
:10BED00017462B4A9946054602EB8003D3F8CC401F
:10BEE0008CB304F1AE03EC3294F8AD00261DA361CF
:10BEF00004F5D7736260E3614FF48073E160C4E9D5
:10BF000004332368C4F8A830A36307F0B1FC19F028
:10BF1000080F94F8AC8019D00135EDB218B140F299
:10BF20000673C380057294F8B622022107F07AFCEA
:10BF3000D4F8B81294F9B7024FF042FF94F9B7025F
:10BF40003446FDF71DFF2046BDE8F883BA070BD540
:10BF50006B1CDBB218B140F206520372C28094F837
:10BF6000B622022107F05EFCFB07E1D50135404611
:10BF700007F07EFCEDB20028D5D040F20663D0E792
:10BF8000706706080148FCF70CBF00BFDC04012005
:10BF90000148FCF706BF00BF980701200148FCF7E5
:10BFA00000BF00BF540A01200148FCF7FABE00BFE1
:10BFB000100D01200148FCF7F4BE00BFCC0F01209A
:10BFC0002DE9F0412423456B8268044680F89D30BA
:10BFD00000F134072B6823F001032B6000232B6052
:10BFE0006B60AB608263827946799102C0F8A030C1
:10BFF00006F0010880F89D3001F4805116F0020629
:10C0000080F89E30C1634FEA023180F89C3001F421
:10C010000051C36443654FEA880301644FEA02217B
:10C0200018BF43F0080301F480618364D3074164BF
:10C0300011D5B8F1000F06D0836D43F0020383657C
:10C040004FF48033036636B1A36D43F00103A3655B
:10C050004FF40033E365242312F0080F94F89D2079
:10C06000384684F89D302B6823F001032B6035D0CF
:10C07000FEF708F9012817D0A36D13B13846FCF775
:10C0800057F86B6823F490436B60AB6823F022038E
:10C09000AB60AB6843F00803AB6038462B6843F0F5
:10C0A00001032B6053F072FFB8F1000F0DD0D4F8EC
:10C0B000A4301A6842F480721A609A6842F0010251
:10C0C0009A601A6842F020021A602EB1D4F8A420B7
:10C0D000136843F080031360BDE8F081FEF7D2F8E7
:10C0E0000128E1D0A36D13B13846FCF721F86B6845
:10C0F00023F490436B60AB6823F02A03CCE78160A4
:10C100005EE741715CE781715AE710B51C2007F0CA
:10C11000AFFB0446112107F05FFB204607F056FBFA
:10C12000C82009F0ADFB2046BDE8104007F049BB30
:10C130007B4B2DE9F04FD3F8005987B06B6913F0B2
:10C140000103029340F09B856A69AB691A4200F0D3
:10C1500096856B69AA6913409B0701D502236B6121
:10C160006B69AA6913401F0300F1DE806C4CD4F8A0
:10C1700000395A6999690A40560312D5D3F818282C
:10C1800003F5006304F5106805F5106ADB69002605
:10C1900013401FFA83FBD4F80029BBF1000F40F0D5
:10C1A0005F83D4F800697269B3691A4216D5D5F86D
:10C1B000043823F00103C5F8043894F8EC3C012B53
:10C1C00015BFD4F8FC3C002393F8FD2184F8EC3C27
:10C1D00018BF83F8FC214FF0004373617369B269A3
:10C1E000134019050FD5D5F80838DA0708D5D4F863
:10C1F000FC3C93F8FC2183F8FD21042283F8FC2108
:10C200004FF4006373617369B269454F134013F0D3
:10C21000006F0FD04FF00063736197F8EC3C002B78
:10C2200040F02D84012387F8EC3C736DC3F3830346
:10C23000C7F8F03C7369B2691340DB043ED5D5F80A
:10C2400004381021304605F5006823F00103C8F8D2
:10C25000043053F0B2FCD7F8040905F5106300224E
:10C26000FF21824240F016844FF0FF33C8F81830A7
:10C27000D8F81C3043F00113C8F81C30D7F8303917
:10C28000002B00F00E84D8F8843043F00B03C8F87C
:10C290008430D8F8443043F00B03C8F84430D5F864
:10C2A000003830461F4A23F4FE6394F81019C5F88D
:10C2B000003853F018FC4FF4805373617369B2690E
:10C2C0001340980440F15D84D6F800396FF30A03F7
:10C2D000C6F8003906F500639A6802F00602042ADF
:10C2E00005D1D6F8002942F00302C6F800295A68A1
:10C2F00042F480725A60F26822F47052F2609A68D6
:10C3000012F0060F40F0E0830023C4F80C394FF41C
:10C310000073C4F81439F36843F41053F6E300BF14
:10C320008824012044310120D5F8183805F53069FA
:10C33000D5F81C284FF00008AB4F1340A7F5106646
:10C340001B0C0193019AD6F80039002A3FF40EAF76
:10C35000019A12F0010A00F03C8103F5306203F506
:10C36000006302EB481292685B691340D80703939D
:10C370003DD50123C9F80830D6F81039012B0DD16D
:10C38000D9F81030D7F80022C3F31203D31AC7F834
:10C390001032D7F804321344C7F80432D6F8FC4CF4
:10C3A000D7F80422B8F1000F69D1D4F8F431032B87
:10C3B0000FD1D4E94313994253D9C91AD4F83002A2
:10C3C0008B42C4F80C1128BF0B4641469BB253F078
:10C3D00045FAD6F81019012909D1D6F80C3B58EACC
:10C3E000030304D1814AD6F8000953F07CFB039B78
:10C3F000190740F1E280D6F8FC4C012196F8BCCC3C
:10C4000004F5027B84F808C296F8BDEC84F809E2D2
:10C41000B6F8BE3CA4F80A32B6F8C00CA4F80C0278
:10C42000B6F8C22CC4E97D120CF01F01A4F80E224C
:10C43000012900F04C81022900F05E81002940F0C2
:10C440000C82BEF1090F00F29180DFE81EF01901A5
:10C4500035018F002A018F00890026008F00090115
:10C46000D100D4F814321B692BB194F8FC21032AB3
:10C4700001D120469847204653F0F3FAA9E7D4F8B3
:10C4800014329B69002BA4D094F8FC21032AA0D17C
:10C490005FFA88F1204698479BE71A0A013A062A74
:10C4A00064D8DFE802F0041D2A63634A5300D4F81D
:10C4B00010321B680DF11601207C9847BDF816203C
:10C4C000002A77D0B4F80E32002B73D09A4201467E
:10C4D00028BF1A46ADF81620204653F0CBFA69E083
:10C4E000227CD4F8143232B99B6A0DF116009847B9
:10C4F00002234370E2E7DB6AF7E7DBB2052B35D8AE
:10C50000DFE803F003070B0F1317D4F810325B6852
:10C51000D0E7D4F810329B68CCE7D4F81032DB684F
:10C52000C8E7D4F810321B69C4E7D4F810325B694D
:10C53000C0E7D4F810329B69BCE7237CB3B9D4F8C8
:10C5400014320DF116005B6B9847B7E7237C6BB98B
:10C55000D4F814320DF116001B6B98470723C8E777
:10C56000104303D194F8FC21032A01D1204667E04F
:10C5700003F07F0AD4F8303284F8FEA193F8B82390
:10C58000012A0ED01A68D2F8001821F4FE61C2F810
:10C590000018D2F8001841EA0A11C2F8001883F80E
:10C5A000B803204653F05DFABAF1000F1AD0022307
:10C5B00084F8FC310823C9F80830039BDC0602D557
:10C5C0001023C9F80830039B980602D52023C9F828
:10C5D0000830019B08F1010809F120091C375B08AC
:10C5E0000193AFE60123E3E7882D012044310120C8
:10C5F000D9B2DFF8D0A401298AF8001DB6D894F882
:10C60000FC31022B0FD0032BB0D1E1B9022320461D
:10C61000616084F8FC31D4F814325A68904720469F
:10C6200053F01FFAC6E70029F9D001210323616006
:10C6300084F8FC312046FBF75BFE02282046EFD150
:10C6400053F0AEFAB6E761680129E8D0D4F81432A5
:10C65000C9B220465B6898479AF8001D6160E9E717
:10C66000012A83D194F8FC31022B04D0032B7FF4F0
:10C670007DAF211D30E72146002341F8083F2BE71D
:10C6800094F8FC31023B012B3FF670AFD4F8043232
:10C6900021460222002B18BF4FF0030A41F80CAFCD
:10C6A0001AE7012B86D1C4F80432D4F81432594663
:10C6B00020469B689847B2E794F8FC21023A012A89
:10C6C0003FF654AF012B7FF475AF0023EBE794F8EE
:10C6D000FC31032B7FF44AAFC0B203283FF646AFCC
:10C6E000D4F81432594620469B689847B4F80E3265
:10C6F000002B7FF45FAF92E70CF0600CC1B2BCF18D
:10C70000200F06D1D4F81432594620469B6898472A
:10C7100050E7BEF1010F44D0BEF1030F31D0BEF19E
:10C72000000F7FF447AF94F8FC31022B00F08D80AE
:10C73000032B7FF41BAF40B210230028B5BF01F0DC
:10C740007F0203FB014303FB024303F58273D4F82A
:10C750003022B8BF143300284FF01C00B5BF01F0E1
:10C760007F0100FB012200FB012192F8FA21B8BFF2
:10C7700091F83A201946003A18BF01221A600222A5
:10C78000AAE694F8FC21022A5FD0032A7FF4EEAED9
:10C79000002B8AD14A0688D0D4F8300253F0C2F96F
:10C7A00083E794F8FC21022A4FD0032A7FF4DEAEFF
:10C7B000002B7FF4FFAE11F07F0C3FF430AF40B29E
:10C7C000D4F830221C230028B4BF03FB0C2103FB48
:10C7D00001214FF00003B4BF383101F5FC718B70BB
:10C7E000C30F81F800C04B7092F8B833012B3FF4AF
:10C7F0005CAF012300284FF0200082F8B8331368A3
:10C8000017DA91F803C003F510630978ACF1020C54
:10C8100010FB0133BCF1010F196821F400111960FC
:10C8200003D8196841F080511960002382F8B833A9
:10C830003BE703F5306310FB0C33186820F400105D
:10C840001860C97802390129EAE74B063FF4B2AE15
:10C85000D4F8300253F066F9ACE60CF08001F7E74B
:10C860001BF0010F00F0A380D2F8101802F510623F
:10C8700052F8CC3C700102EB461223FA06F9019003
:10C8800092684FEAC9195FFA89F949EA010909EA88
:10C89000020919F0010F45D00122D5F8343802FA07
:10C8A00006F023EA0003C5F83438D4F81039CAF882
:10C8B0000820934202BFD8E910239B18C8F84430DF
:10C8C000D4F8FC7CD8F84420002E40F0A080D7F8A3
:10C8D000F431022B12D1D7E907318B4270D95B1AA0
:10C8E000D7F830023146FB619BB252F0EDFF334680
:10C8F00032463146D7F8300252F0B0FF97F8003296
:10C90000012B02D1002387F80032D4F81019D4F893
:10C910000009012906D1D4F84C39334302D1684AC1
:10C9200053F0E1F819F0080F02D00823CAF80830D4
:10C9300019F0100F02D01023CAF8083019F0400F78
:10C9400002D04023CAF8083019F0020F02D00223A7
:10C95000CAF8083019F0800FD4F8000927D000F584
:10C96000805100F51067D8E9133201EB063C9B1AA1
:10C97000D8F84020710193423944A8BF1346019171
:10C98000DA1C48BF9A1D92100199896989B29142B7
:10C9900003D9D8E91312914248D8002B07DC0122B1
:10C9A000D0F83438B24023EA0203C0F834380136F4
:10C9B0004FEA5B0B08F11C080AF1200AFFF7EBBBFA
:10C9C000BB69B3FBF1F201FB12327AB999420DD87F
:10C9D000D7F8F821934209D2334632463146D7F888
:10C9E000300252F071FFC7F8F86180E7D7F81432CF
:10C9F000DB682BB197F8FC21032A01D13846984710
:10CA00000523C7F8F43100231A46194672E7D7F810
:10CA100014325B69002B3FF478AF97F8FC21032AAE
:10CA20007FF473AFF1B2384698476EE78A1AD8F8A8
:10CA300040302449934291F81019A8BF1346DA1CDC
:10CA400048BF9A1D921051B1D8F844101944C8F843
:10CA50004410D8F850101944C8F8501094E71FFA41
:10CA600083FED8F844900EF1030E4FEAAE0E8E45C9
:10CA7000EAD059F821700131CCF80070F7E7D7F807
:10CA8000FC3C93F8FC2183F8FD21042283F8FC216F
:10CA9000FFF7D0BB99600132C3F808122033FFF7CB
:10CAA000E0BBD8F8143043F02B03C8F81430D8F8A2
:10CAB000103043F00B03C8F81030FFF7F0BB00BF95
:10CAC00044310120882401209A6802F00602022ADB
:10CAD0000AD09A6802F00602062A05D09B6803F085
:10CAE0000603042B7FF410AC03239C4A9C49C4F832
:10CAF0000C394023C4F814399A4BD3F8C0311A4486
:10CB00008A4200F2BF80F36843F47053964A4FF0B4
:10CB10004009F360D2F80C39D2F8FC6C0022B3F172
:10CB200000084FF040031146D6F8300218BF4FF00E
:10CB3000010852F02BFF4B4600228021D6F830022C
:10CB4000C6F8109152F022FF0123C6F8209086F813
:10CB5000FC31D6F818322BB9D6F8203213B9D6F8F2
:10CB600028322BB1D6F81432304631795B689847B9
:10CB7000D4F8FC3C4FF4005283F81080D4F800390C
:10CB80005A61D4F80029536991690B40D90631D50F
:10CB9000936923F0100393612B6A03F4F01103F0FF
:10CBA0000F00B1F5802F40F0C28047F6F0710B42C4
:10CBB0001CD01C21C3F30A1305F5805501FB00416D
:10CBC000D1F8046BD91C4FEAA10E02998E4540F0B2
:10CBD000A6801C2101FB0041D1F8040B1844C1F8C8
:10CBE000040BD1F8100B1844C1F8100B936943F0F3
:10CBF000100393615369926913401B070ED5D7F850
:10CC0000FC0C90F8FC31032B04D1D0F81432DB6912
:10CC100003B19847D7F8003908225A61D4F800299F
:10CC2000536991690B40DE0202D54FF480135361C2
:10CC3000536991690B409D0202D54FF40013536173
:10CC4000536991690B40580002D54FF080435361FE
:10CC5000536991690B40590711D555686B0709D580
:10CC6000D4F8FC0C012380F8FC31D0F8143201799F
:10CC70005B689847D7F800395A6815435D6007B07C
:10CC8000BDE8F08F394A3A491A448A4203D8F3681A
:10CC900043F460533AE7A3F574023649A2F5105203
:10CCA0008A4203D8F36843F450532FE7A3F1837209
:10CCB0003149A2F5E7428A4203D2F36843F4405374
:10CCC00024E72E4A2E491A448A4203D8F36843F4D3
:10CCD00030531BE72B4A2C491A448A4203D2F3688B
:10CCE00043F4205312E7294A29491A448A42FFF49F
:10CCF00012ABA3F1B7722749A2F558528A4203D268
:10CD0000F36843F4005301E7234A1A44234B9A4241
:10CD1000F36834BF43F4E05343F4C053F6E602999A
:10CD2000D5F800C046F821C0013102914DE7B1F5B8
:10CD3000402F7FF45BAF05F58055C3F30A132968D4
:10CD4000C4F8BC1C2968C4F8C01C1C2101FB0041AC
:10CD5000D1F8100B0344C1F8103B47E7405327FFBD
:10CD6000FF340C000000012088240120401E1BFF1E
:10CD70003F420F007F4F120020D6130060B6E5FE41
:10CD80005FE3160000D3CEFE40771B00C05BB3FE0E
:10CD9000C091210020753800E05459FEE09C41000C
:10CDA0002DE9F041474DD5F8B04223699E0709D5DA
:10CDB000E368980706D56FF002032361A369002397
:10CDC00085F8CC322369590709D5E3685A0706D597
:10CDD0006FF004032361A369002385F8CC32236933
:10CDE0001B0709D5E3681F0706D56FF00803236109
:10CDF000E369002385F8CC322369DE0609D5E368B0
:10CE0000D80606D56FF010032361E369002385F887
:10CE1000CC322369D9072FD5E368DA072CD56FF018
:10CE200001032361284B9C4226D1D5E99367BE427A
:10CE300022D0D5F824328CBFC6F58057BF1B234AB9
:10CE4000D3F814823244B9B2C3F80822C3F81012DE
:10CE5000B8F1000F10D101213E44D5F83C02C3F8CF
:10CE60001412BBB2812152F02FFDB6F5805F14BFC2
:10CE700033464346C5F84C3223691B0605D5E368A3
:10CE80001F0602D56FF0800323612369DE0505D5F7
:10CE9000E3681D0602D56FF08003236123695806FD
:10CEA00005D5E368590602D56FF040032361236975
:10CEB0009A0605D5E3689B0602D56FF0200323612F
:10CEC000BDE8F0818824012000140040B443012013
:10CED0002DE9F843184D07460E46D5F82422D5F81B
:10CEE0003484D2F8144234B9DFF85090B4420AD1F5
:10CEF0002046BDE8F883D5F83434A3EB0803322B81
:10CF0000EFD90024F4E7D5F850323A5D09F8032050
:10CF10000133C3F30B03C5F85032FBF7D9FA08B15C
:10CF20000134E3E7D5F83434A3EB0803322BDFD820
:10CF3000012008F0A5FCF0E788240120B44301207B
:10CF4000F8B50D461446FBF7BDF978B1084ED6F892
:10CF50003474002C0ADD21462846FFF7B9FFD6F8C5
:10CF60003434241A0544DB1B322BF2D9F8BD00BF40
:10CF700088240120034BD3F8A40208B106F010BCAA
:10CF8000012070478824012008B5FFF7F3FF0A4A03
:10CF900018B9002382F8783208BD92F86C32013358
:10CFA000DBB2072B82F86C32F3D8D2F83434C2F8F3
:10CFB00068320123EEE700BF88240120F0B5C34C9E
:10CFC00085B0D4F8A802002860D094F87832013BEC
:10CFD000082B44D8DFE813F009005C00DE004300B2
:10CFE000A4012F0180014300DD01FCF769FD002150
:10CFF0000846FCF7FDFD0546FCF772FD012D29D121
:10D00000002684F86E62FCF75BFD40F2AB1108204D
:10D01000FCF7EEFD05280AD184F86E52FCF760FD9E
:10D0200094F86E32A3B1022384F87832CDE7012858
:10D03000F4D1042332466946D4F8A80251F05EF9CF
:10D040009DF80330AB2B04BF022384F86E32E5E772
:10D0500084F878320221D4F8A80203F0C7FF94F8CC
:10D060007832013B022B08D8D4F83434D4F8682243
:10D070009B1AC82B01D9FFF787FF94F87802042880
:10D0800000F09781A0F108035842584105B0F0BD67
:10D09000FCF716FD94F86E5200213720AA1E554267
:10D0A0005541FCF7A5FD2920AD072946FCF7A0FD59
:10D0B0000546FCF715FD002DCCD194F86E32022BFD
:10D0C00017D1FCF7FDFC29463A20FCF791FD0646F6
:10D0D00004232A466946D4F8A80251F00FF9FCF758
:10D0E000FFFC16B1FFF750FF6FE7009D2DBAC5F3A7
:10D0F000807584F86F52FCF7E3FC00210920FCF7EF
:10D1000077FD10B1FCF7ECFCA4E710217048FCF7A8
:10D1100027FD06460028F5D101217F204EF0F4FBC3
:10D1200001280546EED1022130464EF0EDFB50B10C
:10D130000128E7D116213A204EF0E6FB01308002AB
:10D14000C4F87C0218E004212C204EF0DDFB032102
:10D1500007464E204EF0D8FB06460C2136204EF0F6
:10D16000D3FB0236431CBD40B340A3FB05355B0A2D
:10D1700043EAC553C4F87C32FCF7B2FCFCF7A0FCD0
:10D1800000210A20FCF734FD08B903234CE7FCF723
:10D19000A7FCA7E710216846FCF7E2FC00287FF413
:10D1A00059AF9DF8003084F88232BDF801305BBA87
:10D1B000A4F880329DF8033084F88332019BC4F8D0
:10D1C00084329DF808301A0903F00F0384F88D3279
:10D1D000DDF8093084F88C221BBA9DF80E20C4F8C3
:10D1E00088329DF80D301B01DBB243EA121302F0C6
:10D1F0000F0203F5FA6384F89022A4F88E32FCF74C
:10D200006FFC94F86F324BB10221D4F8A80203F0FE
:10D21000EDFE0023C4F87432042305E7FCF750FC4C
:10D220004FF400711020FCF7E3FC0546FCF758FCB6
:10D23000002DE9D056E794F85C128023D4F85422EC
:10D24000D4F8A80202EBC112002151F057F894F86B
:10D250005C320133DBB2042B84F85C327FF4FFAE26
:10D2600002231C4A0021D4F8A80251F047F80123F8
:10D2700000226946D4F8A80251F040F89DF8003029
:10D2800003F01F03052B12D10723D4F8605284F852
:10D290007832D4F83434C4F86832002D3FF4DFAE6D
:10D2A000D4F864320120D4E99521A847D7E6FFF7E6
:10D2B0006BFED4F86052002D3FF487AED4F8643290
:10D2C0000022D4F858120120A8477EE688240120C5
:10D2D0001C2701209068060851F036F800285FD01E
:10D2E000002384F86C32D4F87432012B0BD9013B43
:10D2F000C4F87432D4F870320133C4F870320823A1
:10D3000084F87832ABE607D1FCF74CFC02287FF4B6
:10D31000A6AEFCF7E5FBA2E6042384F87832F8E732
:10D320004FF40071D4F85402FCF71AFC01280546AA
:10D3300017D002281DD000287FF491AEFCF7D0FB57
:10D340000423D4F8606284F8783284F86C52002E9A
:10D350003FF485AED4F864322846D4E99521B0472D
:10D360007DE6D4F86832D4F8342464339342BFF4B1
:10D3700076AEFCF7B5FBFFF707FED4F86052002D40
:10D380003FF423AE0022D4F86432D4F85812104689
:10D390009AE750F0D9FF18B1FCF7A2FB0423AFE7DE
:10D3A000D4F86832D4F83424FA339342FFF49AAEB6
:10D3B00055E601206AE62DE9F34105460E46904602
:10D3C0001F46254C94F87832042B0DD0082B07D13A
:10D3D000D4F87032AB4219D0FCF7E4FB0228F1D04C
:10D3E000012002B0BDE8F081FCF76AFB94F86F32CF
:10D3F00053B969021820FCF7FBFB38B1FCF770FB4E
:10D40000FFF7C2FD0320ECE72946F3E794F87832F2
:10D41000FF220021D4F8A802082B8DF8042001AACD
:10D4200014BFFE23FC238DF80530022350F066FF65
:10D430008023D4F8A8023246002150F05FFF012378
:10D44000002084F85C320623C4E99565C4E9988716
:10D4500084F87832C5E700BF8824012070B51B4CE2
:10D4600005460E4694F87832042B10D1FCF728FBC1
:10D4700000213720FCF7BCFB31461720FCF7B8FB36
:10D4800090B1FCF72DFBFFF77FFD032002E0082B96
:10D4900001D0012070BDD4F87032834212D0FCF765
:10D4A00081FB0228F5D1E1E794F86F3263B9690294
:10D4B0001920FCF79DFB0028E3D10823C4E99C5602
:10D4C00084F878320220E5E72946F1E78824012034
:10D4D000034BD3F8040D08B103691847704700BF28
:10D4E0008824012008B5FFF7F3FF013840B208BDDA
:10D4F0002DE9F74F0F4601210024DFF884A00846EC
:10D500009846019206F0ACFAA04532DD019B07EB8C
:10D51000442941F2893603EB040B0FE0FFF7D8FFF3
:10D52000013E08D10120002106F09AFA4FF0FF30A9
:10D5300003B0BDE8F08F012008F0A2F9DAF8043D4D
:10D54000002BEBD05B68494658461D4600231A461F
:10D55000A8470028E2D041F2893604E0013EE1D03C
:10D56000012008F08DF9FFF7B3FF0028F6D0013451
:10D57000CAE70120002106F073FA0020D8E700BFB7
:10D58000882401202DE9F74F0F4601210024DFF800
:10D5900080A008469846019206F062FAA04530DD68
:10D5A000019B07EB442941F2893603EB040B02E0AF
:10D5B000012008F065F9DAF8043D33B941F2893603
:10D5C000FFF786FFB8B10134E8E7DB684946584603
:10D5D0001D4600231A46A8470028EFD0FFF778FF22
:10D5E000013EE5D10120002106F03AFA4FF0FF306C
:10D5F00003B0BDE8F08F013EF4D0012008F040F9FF
:10D60000DEE70120002106F02BFA0020F0E700BF42
:10D6100088240120034BD3F8040D08B1436918474F
:10D62000704700BF88240120034BD3F8040D08B1D4
:10D6300083691847704700BF88240120002110B576
:10D64000084606F00DFAFFF7EFFF40B90F4B104AFE
:10D6500003F5C671D3F88C31C2F8041D9847002435
:10D6600003E00120013408F00BF9FFF731FF10B996
:10D67000B4F57A7FF5D10121002006F0F1F9B4F577
:10D680007A7F4FF0FF3018BF002010BDF810012046
:10D6900088240120034BD3F8040D08B1C36918474F
:10D6A000704700BF8824012038B50D461446FFF7A7
:10D6B000F1FF036800202B604FF40073238038BD16
:10D6C000034B1B78032B14BF4FF4807080207047EE
:10D6D000903101200B4A08B568B1816811B1072368
:10D6E000937008BDFFF7ECFF04231175C2E9010038
:10D6F000C2E90311F4E7012302F58051537081F868
:10D70000B431EEE79031012010B502784368022A67
:10D710000B4A06D1D2E9802102EB410202EB5320F1
