:020000040800F2
:1000000000000220A1620C0825630C0809E806081C
:1000100025630C0825630C0825630C08000000000C
:1000200000000000000000000000000025630C0834
:1000300025630C080000000025630C0851600508CA
:1000400025630C0825630C0825630C0825630C0840
:1000500025630C0825630C08F1350508F5350508FE
:10006000F9350508FD350508013605083946040847
:100070004946040859460408694604087D460408B0
:1000800091460408A546040825630C0825630C085E
:1000900025630C0825630C0825630C080536050844
:1000A00025630C0825630C0825630C08E15004083F
:1000B000F5500408095104081D510408AD3904081D
:1000C000A1390408DD390408D139040825630C0876
:1000D00025630C08B95A0408C55A0408D15A040803
:1000E0000936050825630C08000000005951040872
:1000F000A9510408D151040845510408B94604081F
:1001000025630C08B19404083151040825630C08D8
:10011000DD5A040825630C0825630C0831A904087E
:10012000CD460408E1460408F546040809470408DA
:100130001D47040825630C0825630C0825630C087B
:1001400000000000000000000000000000000000AF
:10015000314704084547040859470408E95A040888
:100160000D3A0408013A040825630C0825630C08BD
:1001700025630C0825630C0825630C0800000000AB
:1001800025630C0825630C08F55A0408015B040874
:1001900025630C0825630C0825630C0825630C08EF
:1001A00025630C0825630C0825630C0825630C08DF
:1001B00025630C0825630C0825630C0825630C08CF
:1001C00025630C0825630C0825630C0825630C08BF
:1001D00025630C08E594040825630C0825630C08C6
:1001E00025630C0825630C0825630C0825630C089F
:1001F00025630C0825630C0825630C0825630C088F
:1002000025630C0825630C0825630C0825630C087E
:100210006D510408815104089551040825630C08A8
:1002200025630C0825630C0825630C0800000000FA
:10023000B594040825630C080000000025630C0831
:1002400025630C0825630C0825630C0825630C083E
:1002500025630C0825630C0825630C0825630C082E
:1002600025630C0825630C0825630C0825630C081E
:1002700025630C0825630C0825630C0800000000AA
:1002800025630C080000000025630C080000000036
:080290000000000025630C08CA
:0802980008530C0001000000F6
:1002A000F0B301240201000005003F0010B4012456
:1002B0000207000005003F0030B4012402020001E3
:1002C00005035B0050B401240207000206033D0051
:1002D00070B40124010D00000001760090B40124E7
:1002E0000111000000017600B0B40124010E0100EC
:1002F00000017700D0B40124011300000001760052
:10030000F0B401240115000000001E0010B5012406
:10031000011B000000000D0030B50124011C00008D
:1003200000002C0050B501240116000000000C0054
:1003300070B501240117000000000C0090B50124E5
:10034000011D000000000E00B0B50124011E0000D8
:1003500000001E00D0B501240118000000000C00B0
:10036000F0B501240119000000000E0010B60124B0
:10037000011A000000000C0030B60124021F00002A
:100380000002520050B601240120000000000C00C1
:1003900070B601240121000000000C0090B6012479
:1003A000012A010000011800B0B60124012200005A
:1003B00000014800D0B601240123000000014900DB
:1003C000F0B601240124000000014A0010B7012406
:1003D0000125000000014B0030B701240126000078
:1003E00000014C0050B701240127000000014D001E
:1003F00070B701240128000000014E0090B70124CD
:100400000129000000014F00B0B70124012D0000B8
:1004100000002900D0B70124012E010000002900AE
:10042000F0B70124012F01000000700010B8012472
:10043000013100000000310030B80124013001001A
:100440000000520050B801240132010000012800D0
:1004500070B80124013300000001760090B8012437
:100460000134010000012800B0B80124022B05006E
:1004700000012C00D0B801240137000000003C002E
:0C048000F0B80124013A00000000200048
:020000040804EE
:10000000836B5A6D12F0500F5A6D1AD1196842F471
:1000100000725A650A6812F0080FCA6816D012F406
:10002000406F15D1CA68920412D45A6D22F48072BE
:100030005A655A6DD1040BD45A6D42F001025A65CB
:100040007047D20604D4DB6CDB6C18479007ECD009
:10005000704700BF704700BF836B5A6D42F040028B
:100060005A659A6D42F004029A65704702685549D4
:1000700038B5554B554D564CAA4218BF9A420CBF45
:10008000012300238A4208BF43F001033031A2421A
:1000900008BF43F0010330348A4208BF43F0010334
:1000A0003031A24208BF43F0010330348A4208BF16
:1000B00043F0010301F55C71A24208BF43F0010364
:1000C00004F55C748A4208BF43F001033031A24258
:1000D00008BF43F0010330348A4208BF43F00103F4
:1000E0003031A24208BF43F0010330348A4208BFD6
:1000F00043F001033031A24208BF43F001038A42BA
:1001000008BF43F0010313B9324B9A4208D10423CC
:1001100080F83530136823F001031360002038BDE8
:100120002D4B2E4D1168AA4218BF9A422C4C21F03B
:100130000E0105F13C050CBF012300231160A24212
:1001400008BF43F0010311682834AA4208BF43F0F6
:10015000010321F00101A24208BF43F0010314345E
:100160001160A24208BF43F001031E498A4208BF42
:1001700043F0010313B91C4B9A4217D10123856D3B
:10018000D0E91714226801F01F0122F480728B401D
:1001900022606B60C36ED0E91921516033B11A68D7
:1001A000D0E91C1422F480721A604C6001210022F4
:1001B000036D80F8351080F83420002BAED09847BE
:1001C000ACE700BF4000024010000240280002409F
:1001D00058000240B80402401C5402580854025807
:1001E0003054025880540258945402580168002236
:1001F0000B6880F842205A0410B40ED50B6823F423
:1002000080430B6090F84130292B10D090F841309A
:100210002A2B24D05DF8044B70471B04F2D50B68E1
:1002200023F400430B6090F84130292BEED12822B3
:10023000212380F841200022036390F841300C68AC
:1002400003F02803282B14BF6FF0F2036FF0420372
:1002500023405DF8044B0B6080F840207047282253
:10026000222380F841200022036390F841300C687B
:1002700003F02803282B14BF6FF0F4036FF044033E
:1002800023405DF8044B0B6080F84020704700BFAE
:100290000023202210B4174C4363C462036380F828
:1002A000412080F842304B07026811D5526A436AF8
:1002B0001A70436A028D013343624AB1438D013A99
:1002C000013B02859BB24385436C43F004034364C6
:1002D0000368102490F84120002190F841201A680A
:1002E00022F0FE021A60DC615DF8044B80F84010D9
:1002F000704700BF0000FFFF70B5574B002590F816
:100300004120044680F84250283AC3624585436C38
:10031000022A41EA0301036841642FD890F8411092
:1003200090F84120282001F0280102F02802282915
:1003300014BFF6214621282A1A680CBFC9436FF062
:10034000F6010A4045491A6084F84100A06B226B0F
:10035000616318B1112A42D0212A40D0E06B18B154
:10036000122A51D0222A4FD094F84130602B4FF0FE
:1003700000032DD0236384F8403070BD90F84120F5
:1003800090F841201A6822F0FE021A609A699207DA
:1003900000D59D629A69D60703D49A6942F001029A
:1003A0009A6194F84120602A10D0202284F84120DC
:1003B0009A6995060AD59A69D00605D51022DA61A0
:1003C000626C42F0040262642022DA610021BDE71F
:1003D000202284F8403084F84120236370BD1A68DD
:1003E00051042CD490F83530012BBDD000221C4B89
:1003F000036584F8402090F83520022A24D080221A
:100400004265BDE8704018471A68120403D51A689F
:1004100022F400421A6090F83530012BA4D000225B
:100420000F4B036584F8402090F83520022AE6D16E
:10043000FFF71CFE0028A0D0E06B036DE1E71A680F
:1004400022F480421A60CDE7FFF710FE002894D016
:10045000A06B036DD5E700BF0000FFFFDD040408BB
:100460002D08040803689A69196810B4D40528D5C2
:100470000C0606D4416C11F00B0F1FD15DF8044B34
:100480007047416C4FF4807441F0010141645105A3
:10049000DC6120D5416C4FF48064920541F0080185
:1004A0004164DC61E6D5426C4FF4007142F0020217
:1004B0004264D961416C11F00B0FDFD05DF8044B41
:1004C0001AE7540502D50906E4D4D3E79405D1D53B
:1004D0000906E8D4CEE79205E5D4CBE7F8B590F865
:1004E00040300D46C16A012B00F008810123AE06A1
:1004F000044680F8403001D5900656D4EB0619D555
:10050000D70617D5638D9BB2002B40F0F98094F885
:100510004130B1F1007FDBB240F0D580282B40F0B4
:10052000D28029462046FFF7B3FE0023184684F800
:100530004030F8BD68071AD42F0701D516074AD4F2
:10054000A807F2D59307F0D5638D9BB2002B00F07E
:10055000FA80616A236811F8010B228D9862638D1D
:10056000013A6162013B22859BB26385DDE7530757
:10057000E2D5638D9BB26BB12268636A526A1A70CE
:10058000638D606A228D013B0130013A9BB260624B
:1005900022856385638D9BB2002BC6D111F5803F08
:1005A000C3D02046FFF722FEBFE72368202118684A
:1005B000E66A94F84120D961213A092A1ED8DFE879
:1005C00012F0C70015001D001D001D001D001D00BC
:1005D000F000C700150094F84130226803F02803AA
:1005E000282B00F0C5800823D3619EE794F84120B2
:1005F0001A6822F0FC021A60222222635A68894992
:1006000042F400425A605A680A405A609A69910757
:1006100001D500229A629A69D20703D49A6942F0FE
:1006200001029A6147047BD51A6822F480421A605D
:10063000A26B1AB111684A6892B262856A070BD53B
:100640005A6A25F00405636A1A70636A01336362AB
:10065000238D002B40F08580638D9BB21BB1636CB2
:1006600043F004036364EB061AD5C70618D5638DFF
:100670009BB2002B40F0AA8094F84130282B03D184
:10068000B6F1007F00F0C98094F8413016F5803F44
:100690002268DBB202D0292B00F0AD801023D36199
:1006A000002384F84230666C6363002E40F084803F
:1006B000E36A5D4DAB423DD194F84130202384F88C
:1006C0004130266331E794F841202368292A4FF00E
:1006D0001002DA617FF429AF11F5803F3FF425AFB6
:1006E0009A69960701D500229A629A69D5073FF563
:1006F00058AF9A6942F001029A6152E70220F8BDB0
:1007000023681022DA61636C43F00403636431F000
:1007100080737FF40AAF616C2046FFF7EDFD04E7BC
:1007200001048BD51A6822F400421A60E26B002A99
:1007300080D183E72046FFF759FD2023E56284F846
:1007400041302663F1E631F080737FF4EEAE28E7A6
:1007500094F841201A6822F0FA021A6021222263DA
:100760004CE7013B2385638D013B9BB2638573E7B7
:10077000E1689369022990699368D56836D1C3F31B
:10078000C21383EA104313F006032FD1A16C013189
:10079000A164A16C02297FF4C8AE0821A364D161D1
:1007A000C3E694F8412094F841201A6822F0FE0232
:1007B0001A600022226321E7616C2046FFF79CFD4E
:1007C00094F84130282B7FF4B0AEAAE623681022BB
:1007D000DA61636C43F00403636436F080737FF482
:1007E0005FAF616C2046FFF787FD59E7136823F080
:1007F000B803136099E61023D3619369980701D574
:10080000002393629369D90703D4936943F00103EA
:1008100093612046FFF7EAFC42E729462046FFF7AE
:1008200037FD3DE700E800FE0000FFFF836B9A6B99
:100830000AB100211165DA6B0AB10021116593F844
:100840004120602A05D000221A63002283F840204C
:1008500070470022202183F841101A63002283F898
:1008600040207047016870B4CC072DD5914A1369B8
:10087000926A03F03803102B00F0E180182B00F08F
:10088000D9804368B3F5803F00F00581002B00F06C
:100890005A81B3F5A02F874B1A6800F0678222F4C3
:1008A00080321A601A6822F480221A60824B41F268
:1008B000883C804C1D6804E01A68521B624500F2B7
:1008C0003F8122689603F7D58A0768D4CD0631D5D3
:1008D000784A1369926A03F03803082B00F0C0804D
:1008E000182B00F0B880C369724C002B00F05F81B8
:1008F0002268714B42F0800222601D6804E01A6891
:10090000521B022A00F21C812268D205F7D56B4BDC
:10091000026A1D6841F20303B3EB154FC0F0448235
:100920006368202A23F0F8430CBF43F0804343EA76
:10093000826363600D0713D543695E4C002B00F0A2
:100940001881626F5C4B42F0010262671D6804E02F
:100950001A68521B022A00F2F380626F9207F7D5E1
:100960008C0613D58369534C002B00F0118122684B
:10097000514B42F4805222601D6804E01A68521BF9
:10098000022A00F2DD8022689204F7D5490700F1BF
:100990008880436A002B40F0BC80002059E0454A23
:1009A0001369926A13F038032BD1424AC368126864
:1009B000520701D5002B4BD03E4C226822F0190281
:1009C0001A433D4B22601D6804E01A68521B022A3C
:1009D00000F2B68022685607F7D5384B02691D68C9
:1009E00041F20303B3EB154F6368C0F0028123F4B7
:1009F0007C33402A0CBF43F4003343EA0233636084
:100A000064E7182B00F0F180C3682A4C002B00F03B
:100A1000DD80226822F019021A43274B22601D68EC
:100A200004E01A68521B022A00F28A8022685207E8
:100A3000F7D5D2E702F00302022A7FF422AF1D4B62
:100A40001B689B037FF540AF4368002B7FF43CAFEE
:100A5000012070BC704702F00302012A7FF443AF0B
:100A6000144B1B68DC0502D5C369802BF0D1134CF5
:100A700041F20303026A2468B3EB144FC0F0BF8055
:100A8000202A00F09E810B4C636823F0F84343EA70
:100A9000826363604EE7074A136843F48033136050
:100AA00004E70749044B0A6842F480720A601C6834
:100AB0000CE000BF00440258802D00240010005CB0
:100AC000004802581A68121B642A39D80A68D505EA
:100AD000F8D58268012A00F06E81002A00F04E816C
:100AE000052A9F4A116F00F0748121F001011167FE
:100AF000116F21F0040111671D6841F28834984993
:100B000003E01A68521BA2421AD80A6F9207F8D55E
:100B10003FE793490A6902F03802182A00F0D580AD
:100B20000A68022B8F4B22F080720A606FD018681F
:100B30000A6892017FF531AF1A68121A022AF7D9B2
:100B4000032070BC7047864C41F28835854B226883
:100B500022F480322260226822F4802222601E6801
:100B600003E01A68921BAA42EAD822689203F8D4DA
:100B7000AAE6626F7B4B22F0010262671D6803E008
:100B80001A68521B022ADBD8626F9607F8D4E7E690
:100B90002268744B22F4805222601D6803E01A68B8
:100BA000521B022ACCD822689604F8D4EEE62268BA
:100BB0006C4B22F0800222601D6803E01A68521B11
:100BC000022ABDD82268D605F8D4B3E62268654B60
:100BD00022F0010222601D6803E01A68521B022AFB
:100BE000AED822685607F8D470E694077FF40CAFAD
:100BF000DBE623F0FE4343EA0263636066E6584C9B
:100C0000E36823F07C5343EA0263E36092E61C68E6
:100C100003E01A68121B022A92D80A689501F8D4D8
:100C20008C6A514A2240846A2243C46A42EA04120E
:100C30008A62D0E90D24013A013C5202240492B2A6
:100C400004F4FE042243046B013CC4F30804224371
:100C5000C46B013C240604F0FE4422430A63CA6AC2
:100C600022F00102CA624A6B846C6FF3CF0242EA3F
:100C7000C4024A63CA6A046C22F00C022243384C54
:100C8000CA62CA6A406C22F002020243CA62CA6A9D
:100C900042F48032CA62CA6A42F40032CA62CA6A44
:100CA00042F48022CA62CA6A42F00102CA620A6839
:100CB00042F080720A601968226890013FF56DAEBB
:100CC0001A68521A022AF7D93AE7012B8A6A0D6B81
:100CD0003FF4BEAE02F00303846AA3427FF4B8AED1
:100CE000C2F30512C36A9A427FF4B2AE036BC5F336
:100CF0000802013B9A427FF4ABAE436BC5F3462238
:100D0000013B9A427FF4A4AE836BC5F30642013BDC
:100D10009A427FF49DAEC36BC5F30665013B9D42CD
:100D20007FF496AE4B6B816CC3F3CC0399423FF4D6
:100D300034AE0B480B4BC26A22F00102C2621A6841
:100D400018688242FCD0064A536B6FF3CF0343EA24
:100D5000C1035363D36A43F00103D3621DE600BFAE
:100D600000440258802D00240CFCFFFF42F4802236
:100D70001A601A6842F480321A6097E5194941F204
:100D800088350A6F22F001020A670A6F22F0040216
:100D90000A671C6804E01A68121BAA423FF6D0AE2C
:100DA0000A6F9607F7D4F4E5E36823F07C5343EA2F
:100DB0000263E360BEE50B490A6F42F001020A6775
:100DC0009AE6084A536823F0F84343F0804353609F
:100DD000B0E541F004011167116F41F001011167A5
:100DE0008AE600BF00440258334B30B4996A9C6ACB
:100DF000DD6A14F47C7F5A6BC4F3051036D0C2F35D
:100E0000CC0205F0010501F0030107EE900A05FB95
:100E100002F20129B8EEE77A06EE902AFAEEE96AC4
:100E200002D0022942D019B3DFED247A87EE876A17
:100E30001B6BC3F3080307EE903AF7EE005AF8EE87
:100E4000E77A77EEA67A77EEA57A67EE867A1A4B7E
:100E50001B6BC3F34623013307EE103AF8EEC76A63
:100E600087EEA67AFCEEC77A17EE900A30BC704780
:100E70001A6892061DD51968F7EE005A104A1B6BC6
:100E8000C1F3C101C3F30803CA4007EE903A06EE6E
:100E9000102AF8EEE77AB8EEC66A77EEA66AC6EED2
:100EA000077A36EEA57A67EE877AD0E7DFED057A26
:100EB000BCE7DFED057AB9E7004402580024744A24
:100EC0000090D0030024F44A0024744C344A136880
:100ED00030B423F08063334C1360256803E023684B
:100EE0005B1B022B54D813681B01F8D4936A056866
:100EF00023F47C3343EA053393628368C568013B7E
:100F0000013D5B022D049BB205F4FE052B434568B1
:100F1000013DC5F308052B430569013D2D0605F08C
:100F2000FE452B439363D36A456923F0C0032B43EB
:100F3000D362D36A856923F020032B43D362D36A3B
:100F400023F01003D362D36BC0696FF3CF0343EA7E
:100F5000C003D363D36A43F01003D362D36AD1B121
:100F600001290CBF43F4801343F40013D3620C4AED
:100F7000136843F080631360216803E023685B1A01
:100F8000022B05D813681B01F8D5002030BC704730
:100F9000032030BC704743F40023D362E7E700BF6F
:100FA00000440258802D0024344A136830B423F0E2
:100FB0008053334C1360256803E023685B1B022BCE
:100FC00054D813689B00F8D4936A056823F07C73A7
:100FD00043EA055393628368C568013B013D5B02A8
:100FE0002D049BB205F4FE052B434568013DC5F376
:100FF00008052B430569013D2D0605F0FE452B43F1
:101000001364D36A456923F440632B43D362D36AE4
:10101000856923F400732B43D362D36A23F480736E
:10102000D362536CC0696FF3CF0343EAC0035364C8
:10103000D36A43F48073D362D36AD1B101290CBF60
:1010400043F4000343F08073D3620C4A136843F007
:1010500080531360216803E023685B1A022B05D8D4
:1010600013689B00F8D5002030BC7047032030BCCB
:10107000704743F48003D362E7E700BF004402589F
:10108000802D00242DE9F843D0E9004806462501CB
:1010900000F17C830027E0050CD5D6F85890B9F113
:1010A000040F06D8DFE819F0E00356052505E5032F
:1010B000E50301273D46A10526D5D6F85C90B9F198
:1010C000800F00F0298500F26686B9F1000F00F06C
:1010D000D684B9F1400F40F06686914B9B6A03F0CD
:1010E0000303032B00F05F86002106F10800FFF7E1
:1010F000EDFE0546002D40F0CA84894A136D23F4A5
:10110000E07343EA09031365620526D5D6F8A89073
:10111000B9F5800F00F00F8500F24986B9F1000F94
:1011200000F09784B9F5001F40F049867C4B9B6A1C
:1011300003F00303032B00F04286002106F10800B0
:10114000FFF7C4FE0546002D40F08B84744A936D72
:1011500023F4600343EA09039365230526D5D6F8F3
:10116000AC90B9F1007F00F0A28400F20186B9F1E1
:10117000000F00F0FD84B9F1807F40F00186684BDC
:101180009B6A03F00303032B00F0FA85002106F1AC
:101190000800FFF79BFE0546002D40F09884604A4A
:1011A000936D23F0E06343EA09039365A0011DD525
:1011B000D6F84C90B9F1200F00F0AE8300F20F8604
:1011C000B9F1000F08D0B9F1100F40F00C86544A65
:1011D000D36A43F40033D362002D40F07383504A46
:1011E000D36C23F0300343EA0903D364E10426D52A
:1011F000D6F86090B9F5005F00F06C8400F2E385EA
:10120000B9F1000F00F03084B9F5805F40F0E3855C
:10121000434B9B6A03F00303032B00F0DC850021A2
:1012200006F10800FFF752FE0546002D40F0248429
:101230003B4A136D23F4E04343EA09031365A20418
:1012400025D5D6F86490B9F5003F00F0878300F209
:101250008185B9F1000F10D0B9F5803F40F0848549
:101260002F4B9B6A03F00303032B00F07D850121C4
:1012700006F10800FFF72AFE0546002D40F08184A4
:10128000274A136D23F4E02343EA0903136563043B
:1012900025D5D6F8B090B9F1005F00F02C8300F2AC
:1012A0002F85B9F1000F10D0B9F1805F40F0328581
:1012B0001B4B9B6A03F00303032B00F02B850121DA
:1012C00006F10800FFF702FE0546002D40F0668497
:1012D000134A936D23F0E04343EA09039365200426
:1012E0000FD5D6F87090B9F1805F00F02482B9F183
:1012F000005F00F08085B9F1000F00F02182012726
:101300003D46E1011DD5D6F84890B9F1030F00F232
:10131000B985DFE819F00C00070034030C0000BFAA
:10132000004402583E4AD36A43F40033D362002D8E
:1013300040F0C6823A4AD36C23F0030343EA090320
:10134000D364620200F14F82E30731D5D6F87C9076
:10135000B9F1280F2AD8DFE819F00E022900290078
:10136000290029002900290029000102290029005B
:101370002900290029002900290048042900290002
:10138000290029002900290029000E02290029002E
:10139000290029002900290029000E02290029001E
:1013A000290029002900290029000E0201273D46B5
:1013B000A00724D5D6F87890B9F1050F00F254852E
:1013C000DFE819F0130006000204130013001300F5
:1013D000134B9B6A03F00303032B00F045850121A7
:1013E00006F10800FFF772FD0546002D40F0D0839E
:1013F0000B4A536D23F0070343EA09035365610762
:1014000027D5D6F89490B9F1050F00F22985DFE8C9
:1014100019F016000900CA0316001600160000BFD6
:1014200000440258B14B9B6A03F00303032B00F006
:101430001785012106F10800FFF748FD0546002D3C
:1014400040F0A483A94A936D23F0070343EA0903FC
:101450009365A20625D5D6F89090B9F1005F00F00B
:101460009F8200F23C84B9F1000F10D0B9F1805F87
:1014700040F03F849D4B9B6A03F00303032B00F075
:101480003884002106F10800FFF720FD0546002DF5
:1014900040F07583954A536D23F0E04343EA090316
:1014A0005365630625D5D6F89C90B9F5006F00F01A
:1014B000888200F23384B9F1000F10D0B9F5806F43
:1014C00040F03684894B9B6A03F00303032B00F042
:1014D0002F84002106F10800FFF7F8FC0546002DD7
:1014E00040F05A83814A936D23F4E05343EA0903A1
:1014F0009365200625D5D6F8A090B9F5804F00F069
:10150000778200F21984B9F1000F10D0B9F5005FAD
:1015100040F01C84754B9B6A03F00303032B00F01F
:101520001584002106F10800FFF7D0FC0546002DC8
:1015300040F037836D4A936D23F4604343EA090317
:10154000936521070CD5D6F88490B9F5805F00F03B
:101550007082664A536D23F4405343EA090353658E
:10156000E2060CD5D6F89890B9F5807F00F051824C
:101570005E4A936D23F4407343EA090393652303A2
:1015800023D5D6F8A490B9F5803F00F0D681B9F5FF
:10159000003F10D0B9F1000F40F0DD80534B9B6A43
:1015A00003F00303032B00F0D680494606F1080040
:1015B000FFF78CFC0546002D40F0EC824B4A936D02
:1015C00023F4403343EA0903936560030FD5D6F84B
:1015D0008890B9F5001F00F07D81B9F5401F00F03B
:1015E000F880B9F5801F00F0EF8001273D46E10348
:1015F0001FD5D6F85090B9F1000F00F04681B9F52B
:10160000803F40F08580394B9B6A03F00303032B36
:101610007ED0022106F10800FFF758FC0546002D98
:1016200040F03B81314AD36C23F4803343EA090311
:10163000D364A20070D4A3035AD43D46E70206D572
:101640002A4A716F136D23F000430B431365E000CA
:1016500007D5264AD6F8B810136923F480430B4304
:101660001361A10206D5214AF16E136D23F0807338
:101670000B431365620009D51C4B1A6922F4004222
:101680001A611A69D6F8BC100A431A61002C06DAEE
:10169000164A716DD36C23F040530B43D36423027D
:1016A00007D5124AD6F88C10536D23F440030B4330
:1016B000536518F0010F40F0028318F0020F40F05C
:1016C000DB8218F0040F40F0EA8218F0080F40F0B7
:1016D000C28218F0100F40F0AE8218F0200F40F0D8
:1016E0009982281E18BF0120BDE8F88300440258E3
:1016F000D6F88030B3F5807F00F0D18040F2E680EC
:1017000023F48072B2F5007F00F0CE80012595E7CA
:101710000127A2003D468ED5B24B9B6A03F003031E
:10172000032B06D0022106F12800FFF73DFC00281C
:1017300081D001277FE7AB4AD36A43F40033D362F9
:10174000002D40F0BB80A74A136D23F0405343EABD
:1017500009031365D5E501273D4636E7A14B9B6A92
:1017600003F00303032B3FF421AE012106F108002F
:10177000FFF7ACFB0546002D40F00682994A536DF9
:1017800023F0380343EA0903536511E6856EB5F586
:10179000001F00F0558300F2F782002D00F07A81DF
:1017A000B5F5801F40F0F4828E4B9B6A03F0030373
:1017B000032B00F0ED8202210830FFF787FB07467C
:1017C000002F00F06C8166E4864AD36A43F400334C
:1017D000D362002D78D1834A536D23F4401343EA3A
:1017E0000903536503E7804A8049136843F4807313
:1017F0001360086804E00B681B1A642B00F2F78280
:101800001368DB05F7D5002D40F04F83754BD6F8F4
:10181000B420186F504010F4407F0FD0186FD3F8E9
:1018200070C020F440704CF4803CC3F870C0D3F812
:1018300070C02CF4803CC3F870C01867B2F5807F8C
:1018400000F0248302F44073B3F5407F00F010836E
:1018500064490B6923F47C530B61624BC2F30B02A6
:10186000196F0A431A676FE55E4AD36A43F400337F
:10187000D3623D46002D40F04C815A4A136D23F04F
:10188000070343EA0903136515E4564AD36A43F490
:101890000033D362002D3FF4C5AE2F46C9E651494F
:1018A000CA6A42F40032CA62002D7FF4C7AE4D49C5
:1018B0004A6D22F4407213434B65BEE62F4620E585
:1018C0002F463EE52F4691E42F4690E6002B7FF40D
:1018D0001DAFE9E7434B9B6A03F00303032B3FF47F
:1018E00084AE012106F12800FFF75EFB0546002DBE
:1018F0003FF471AFE8E73B4B9B6A03F00303032B14
:1019000000F00882012106F12800FFF74DFB054693
:10191000002D3FF4DDAC41E1324B9B6A03F0030341
:10192000032B00F06082022106F10800FFF7CEFAD7
:101930000546002D3FF453ACC4E72A4B9B6A03F0E5
:101940000303032B3FF407AF022106F12800FFF742
:101950002BFB0546002D3FF431AE1BE1214B9B6A6A
:1019600003F00303032B00F0FF81012106F128009F
:10197000FFF71AFB0546002D3FF482AC01E1194B3D
:101980009B6A03F00303032B00F07C82022106F123
:101990000800FFF79BFA0546002D3FF4CBAC8FE71C
:1019A000104B9B6A03F00303032B00F0A28102217A
:1019B00006F12800FFF7F8FA0546002D3FF46AAD5E
:1019C000DDE0084B9B6A03F00303032B00F0B081BA
:1019D000022106F12800FFF7E7FA0546002D3FF443
:1019E00081ADD9E00044025800480258802D0024FF
:1019F000C24B9B6A03F00303032B00F0A781022173
:101A000006F12800FFF7D0FA0546002D3FF492AD0D
:101A1000C7E0BA4B9B6A03F00303032B07D00221F4
:101A200006F12800FFF7C0FA00283FF4A1AD012716
:101A30009EE5B24B9B6A03F00303032B07D0022100
:101A400006F12800FFF7B0FA00283FF482AD012725
:101A50007FE5AA4AD36A43F40033D362002D3FF4F2
:101A600075AB2F46FFF779BBA44AD36A43F4003322
:101A7000D362002D3FF4DCAB2F46FFF7E0BB9F4A5B
:101A8000D36A43F40033D362002D3FF436AB2F46C4
:101A9000FFF73ABB994AD36A43F40033D362974ABB
:101AA000136D23F440132B431365FFF7F3BA934BE5
:101AB0009B6A03F00303032B00F06281002106F10F
:101AC0002800FFF771FA0546002D3FF468AB2F465A
:101AD000FFF76CBB894B9B6A03F00303032B00F0F9
:101AE0007A81002106F12800FFF75EFA0546FFF72C
:101AF0009CBB824B9B6A03F00303032B3FF4D9AAE0
:101B0000002106F12800FFF74FFA0546002D3FF4AB
:101B1000B4AE2F46FFF7CFBA784B9B6A03F00303AE
:101B2000032B00F04081002106F12800FFF73CFA6A
:101B30000546FFF7DFBA714B9B6A03F00303032BE3
:101B400000F03D81002106F12800FFF72DFA05463F
:101B5000FFF7F9BA694B9B6A03F00303032B3FF4C9
:101B6000A8AA002106F10800FFF7B0F9054681E6B2
:101B7000624AD36A43F40033D362FFF70DBB2F46AA
:101B80008FE42F46FFF783BB2F4611E42F4660E416
:101B90002F4634E42F4618E52F46AAE42F46FFF7D8
:101BA0009EBB2F46CDE4554B9B6A03F00303032BEA
:101BB00000F05681012106F12800FFF7F5F90546EE
:101BC000002D3FF43FACE1E74C4B9B6A03F003036D
:101BD000032B00F04981012106F12800FFF7E4F909
:101BE0000546002D3FF404ACD2E7444B9B6A03F05A
:101BF0000303032B3FF4DAAB012106F12800FFF7C2
:101C0000D3F90546002D3FF4B9ADBDE7012518F025
:101C1000200F0DD0394B9B6A03F00303032B07D031
:101C2000022106F12800FFF7BFF900283FF459AD63
:101C30000120BDE8F883314B9B6A03F00303032BBB
:101C4000E4D0012106F12800FFF7AEF900283FF4A7
:101C500044AD0546DBE7294B9B6A03F00303032BE6
:101C600000F0DE80002106F12800FFF79DF9002832
:101C70003FF42FAD0546D4E0204B9B6A03F00303ED
:101C8000032B00F0CB80012106F10800FFF71EF9BD
:101C9000002818BF054618F0040F3FF416AD174B87
:101CA0009B6A03F00303032B00F0C880022106F1B6
:101CB0000800FFF70BF9002818BF054605E50F4B94
:101CC0009B6A03F00303032B00F0A680002106F1BA
:101CD0000800FFF7FBF8002818BF0546EDE429F0DF
:101CE0008053B3F1804F3FF4D2ABB9F1405F3FF482
:101CF000CEAB01273D46FFF7D4BB00BF00440258DE
:101D000029F08053B3F1804F3FF4DFAAB9F1405F6F
:101D10003FF4DBAA01273D46FFF7E1BA29F48063CF
:101D2000B3F5805F3FF4DBABB9F5406F3FF4D7AB61
:101D300001273D46FFF7DDBB29F40053B3F5004F03
:101D40003FF4F5ABB9F5C04F3FF4F1AB01273D4689
:101D5000FFF7F7BB29F48033B3F5802F3FF48DAA4A
:101D6000B9F5403F3FF489AA01273D46FFF78FBAF6
:101D7000B9F1407F3FF410AAB9F1806F3FF40CAA8B
:101D800001273D46FFF712BAB5F5401F3FF487AE75
:101D90000127FFF780B9B9F1C00F3FF4ABA9B9F53E
:101DA000807F3FF4A7A901273D46FFF7ADB9B9F5FC
:101DB000C00F3FF4C8A9B9F5000F3FF4C4A901272B
:101DC0003D46FFF7CAB9B9F5405F3FF42EAAB9F511
:101DD000804F3FF42AAA01273D46FFF730BAB9F1F8
:101DE000300F3FF4F9A901273D46FFF7FFB903275C
:101DF0003D46FFF7A9BA2E4B9B6A03F00303032B62
:101E00003FF47DAA012106F10800FFF75FF80546BF
:101E1000002D3FF498AC51E501254EE4012550E436
:101E2000012518F0100F08F010037FF404AF08F03C
:101E3000200853EA08033FF4FBAEEBE6012544E437
:101E40001B4B9B6A03F00303032BA1D00221283014
:101E5000FFF7AAF80746002F3FF421AEFFF71BB9A2
:101E600001273D46FFF7F5BA01273D46FFF7C7BA00
:101E70000F48104B016903EA121321F47C510B4304
:101E80000361EAE401273D46FFF75BBAD1F800E0C1
:101E900041F2883C064804E00B68A3EB0E0363455F
:101EA000A5D8036F9B07F7D5D2E42F46FFF74CBAAE
:101EB00000440258CFFFFF00836A1A0710B406D50A
:101EC0000168846B4A6822F4004222434A60DC07BE
:101ED00006D50168C46A4A6822F4003222434A6087
:101EE000990706D50168046B4A6822F480322243C0
:101EF0004A605A0706D50168446B4A6822F480227A
:101F000022434A60DC0606D50168C46B8A6822F465
:101F1000805222438A60990606D50168046C8A685B
:101F200022F4005222438A605A060AD50168446CA2
:101F30004A68B4F5801F22F4801242EA04024A6023
:101F40000BD01B0606D50268C16C536823F400232E
:101F50000B4353605DF8044B70474A68846C22F46D
:101F6000C00222434A60ECE70022836BA3F85E20A4
:101F7000704700BF124B41F2883C124A01461B6871
:101F8000A2FB03235B0A0CFB03F33BB14A6B12F089
:101F9000450F01D0920404D5013BF7D14FF000402A
:101FA00070474B6B5B0707D4486B10F0010014BF00
:101FB0000123054B8B637047042318468B637047DE
:101FC00000000024D34D6210C50020000369426860
:101FD0001F2B70B432D9A3F1200520245168AC40E6
:101FE000214229D08169087C032838D0087C022846
:101FF00001D10020087448681F2BC968046906686D
:102000004D68C4F303244079164931F8100001EB00
:10201000840100F4F0508C68F16821EA0001F1605D
:102020001149085D295821F00101295011D9A3F166
:10203000200120238B40D36070BC7047202411689E
:102040009C402142F8D08169087C0328CED194605D
:10205000F2E7202101FA03F370BC93607047D4606B
:10206000EAE700BF90B10C0800B30C08D0E90723E1
:102070009A423CBFC1685218D01A7047D0E9092370
:1020800000699A4238BF12180138D31AC01A704733
:10209000D0E90902101AB0FA80F04009704700BF79
:1020A000016A034640694A1C405CD9688A4228BFDD
:1020B00000221A62704700BF436A826910B4D1548B
:1020C000436A416B046901330A68A34228BF0023B5
:1020D0005DF8044B42F0800243620A60704700BF23
:1020E000436BD86910F0100002D0102201201A6250
:1020F000704700BF2DE9F047046982B0C3681C40F7
:1021000046D0814688464FF0004501F1500701F165
:102110003806B4FA84F325FA03F21B3BD243144089
:10212000C9F81020B8F1000F5FD0042B2ED8DFE8DB
:1021300003F052483D320300D8F81030D9F82CA0F3
:1021400033B19B6823B11FFA8AF108F10800984760
:10215000D8F8283033B19B6823B11FFA8AF108F10F
:1021600020009847D8F8403033B19B6823B11FFA5C
:102170008AF108F138009847D8F8583033B19B6895
:1021800023B11FFA8AF108F150009847002CC0D102
:1021900002B0BDE8F087D8F8103008F10800D9F88F
:1021A00034105B689847002CB3D1F1E7D8F8283099
:1021B00008F12000D9F838105B689847002CA8D1A6
:1021C000E6E7D8F840303046D9F83C105B689847CD
:1021D000002C9ED1DCE7D8F858303846D9F84010AA
:1021E0005B689847002C94D1D2E7042B07D8DFE82E
:1021F00003F01903140F0A00D9F83C300193019B36
:10220000002C86D1C4E7D9F82C300193019BF7E765
:10221000D9F834300193019BF2E7D9F838300193B3
:10222000019BEDE7D9F840300193019BE8E700BF3F
:1022300070B5124D124A2B68A2FB03239B09013B88
:10224000B3F1807F01D3012070BD4FF0E0220D4932
:1022500000240F2853614FF0F003064681F8233025
:102260004FF0070394611361EDD801464FF0FF3042
:102270007AF0B8FE20466E6070BD00BF00000024FA
:10228000D34D621000ED00E03749024603688B42EF
:1022900033D01831591AB1FA81F1490969BB334871
:1022A000834240D01830834240D01830834236D029
:1022B000183083423DD01830834240D018308342DA
:1022C0002CD000F55670834237D029498B4233D049
:1022D00018318B4236D018318B4236D018318B42B0
:1022E00036D018318B4236D018318B4236D0183167
:1022F0008B4236D023F0FF0013E0DBB21D491E48AD
:10230000103B10B41D4CA4FB03435DF8044B01EBE0
:10231000131393F82810C2E91601704716211848C4
:10232000D1659065704710211348F9E716211248CE
:10233000F6E706211248F3E706211248F0E71021DC
:102340000F48EDE710210F48EAE716210D48E7E7AF
:1023500000210D48E4E706210B48E1E710210A4877
:10236000DEE716210848DBE710000240400002408B
:102370002804024090B10C0800000240ABAAAAAAAF
:10238000040002400004024004040240F0B50C4680
:10239000114602688646936913F0100C72D04FF014
:1023A000000C102338486546D36193699E065FD4BC
:1023B00045B903685B1AA3423DD893699F06F8D5D7
:1023C0002023D3614CF0040C01209369D90552D528
:1023D0004FF480715F054CF0010CD16104D54FF4CE
:1023E00080614CF0080CD1619D0504D54FF4007359
:1023F0004CF0020CD3619369990701D500239362D5
:102400009369DB0703D4936943F001039361536835
:1024100020241E4901200B4000215360DEF8443087
:102420008EF8401043EA0C03CEF844308EF8414059
:102430008EF84210F0BD57689EF842309669DBB2C4
:10244000360408D57E0406D4202B04D0536843F408
:1024500080435360016893699F06A6D403685B1AA2
:10246000192BF8D993694FF0200C01259E069FD5B2
:10247000002DA5D0A6E75E05B1D49C05B6D40028F2
:10248000B9D1F0BD6046A0E7802D002400E800FE31
:102490002DE9F04707689A46089EBB6931EA0303B5
:1024A0000CBF01230023934220D180460C461546E1
:1024B000DFF85C90324651464046FFF767FF20BB8D
:1024C000D9F80030A3EB060CD44507D9BB6934EA30
:1024D00003030CBF01230023AB420AD0BB6934EADB
:1024E00003030CBF01230023AB42E3D00020BDE86F
:1024F000F087D8F84430202288F840001343C8F809
:10250000443088F8412088F842000120BDE8F08777
:10251000802D00240C4A136903F03803102B0DD0D2
:10252000182B09D063B913689B060BD513680748AD
:10253000C3F3C103D8407047FEF756BC0448704748
:102540000448704701487047004402580090D00387
:1025500000127A0000093D00184A136903F038039D
:10256000102B10B524D0182B09D01BBB13689B0669
:1025700022D513681248C3F3C103D84001E0FEF727
:1025800033FC0E490F4A8B698969C3F303230E4C50
:1025900001F00F0113440A4493F8301092F83030E0
:1025A00001F01F0203F01F03D0402060D84010BD8F
:1025B0000648E6E70648E4E70148E2E70044025837
:1025C0000090D00390B10C080000002400127A00A3
:1025D00000093D00474A70B4946A956AD66A15F4BA
:1025E0007C3FC5F30533D16B5BD0C1F3CC01C6F39F
:1025F000001604F0030407EE903A06FB01F1012CEB
:10260000B8EEE77A06EE901AFAEEE96A03D0022CE9
:102610006AD0002C4AD0DFED387A87EE876A936B58
:10262000C3F3080307EE903AF7EE005AF8EEE77AA4
:1026300077EEA67A77EEA57A67EE867A2D4AB7EE20
:10264000006A936BC3F3462307EE103AB8EEC77ADD
:1026500070BC37EE067AC7EE876AFCEEE66AC0ED1C
:10266000006A936BC3F3064307EE103AB8EEC77ADD
:1026700037EE067AC7EE876AFCEEE66AC0ED016ABD
:10268000936BC3F3066306EE903AF8EEE66A76EED5
:10269000866A87EEA67AFCEEC77A17EE903A8360D8
:1026A000704770BCC0E900338360704713689B06B5
:1026B0001DD51468F7EE005A936B1049C4F3C1029C
:1026C000C3F30803D14007EE903A06EE101AF8EE75
:1026D000E77AB8EEC66A77EEA66AC6EE077A36EEF5
:1026E000A57A67EE877AA9E7DFED057A95E7DFED52
:1026F000057A92E7004402580024744A0090D003FF
:102700000024F44A0024744C474A70B4946A956AD1
:10271000D66A15F07C7FC5F30553516C5BD0C1F3CD
:10272000CC01C6F3002604F0030407EE903A06FB42
:1027300001F1012CB8EEE77A06EE901AFAEEE96A9A
:1027400003D0022C6AD0002C4AD0DFED387A87EE15
:10275000876A136CC3F3080307EE903AF7EE005A4A
:10276000F8EEE77A77EEA67A77EEA57A67EE867AC4
:102770002D4AB7EE006A136CC3F3462307EE103AF6
:10278000B8EEC77A70BC37EE067AC7EE876AFCEE01
:10279000E66AC0ED006A136CC3F3064307EE103A15
:1027A000B8EEC77A37EE067AC7EE876AFCEEE66ABD
:1027B000C0ED016A136CC3F3066306EE903AF8EEBF
:1027C000E66A76EE866A87EEA67AFCEEC77A17EEA0
:1027D000903A8360704770BCC0E9003383607047F3
:1027E00013689B061DD51468F7EE005A136C104948
:1027F000C4F3C102C3F30803D14007EE903A06EEDA
:10280000101AF8EEE77AB8EEC66A77EEA66AC6EE58
:10281000077A36EEA57A67EE877AA9E7DFED057AC3
:1028200095E7DFED057A92E7004402580024744AE8
:102830000090D0030024F44A0024744C0269836899
:1028400070B5044605681343C069626986B029689B
:102850001343AC4A03430A40616A1343E2682B60A6
:102860006B6823F440531343A2696B60A64B9D42EF
:1028700000F06681236AAE681A43A44B33401A43C2
:10288000AA60EB6A23F00F030B43EB62A04B9D425F
:1028900028D0A04B9D421AD09F4B9D4217D09F4BF2
:1028A0009D4214D09E4B9D4211D09E4B9D4219D00B
:1028B0009D4B9D420BD09D4B9D4208D00120002393
:1028C0004FF001126367A266A36706B070BD984B14
:1028D0005B6D03F00703052BF0D8DFE803F09F7F63
:1028E0008A925F79924B5B6D03F03803282BE5D811
:1028F00001A252F823F000BFA52A0408BD2804084D
:10290000BD280408BD280408BD280408BD28040803
:10291000BD280408BD280408DD290408BD280408D2
:10292000BD280408BD280408BD280408BD280408E3
:10293000BD280408BD280408F3290408BD2804089C
:10294000BD280408BD280408BD280408BD280408C3
:10295000BD280408BD280408032A0408BD2804086B
:10296000BD280408BD280408BD280408BD280408A3
:10297000BD280408BD2804089D290408BD280408B2
:10298000BD280408BD280408BD280408BD28040883
:10299000BD280408BD280408D1290408B0F5004F5B
:1029A000644853D0644B626803EB4103B3F8403092
:1029B000B0FBF3F000EB52004FF6EF73B0FBF2F018
:1029C000A0F110029A423FF679AFE860002076E766
:1029D000B0F5004F3AD04FF40040E3E7B0F5004FB8
:1029E0002DD003A8FFF7F6FD04980028EED0616A09
:1029F000D8E7B0F5004F71D06846FFF785FE019823
:102A0000F3E7B0F5004F5ED0494B1A68920639D50E
:102A10001B684A48C3F3C103D840C3E7B0F5004F71
:102A200032D0FFF799FD424A434BD269C2F30212FA
:102A3000134493F8303003F01F03D840D5E703A8C0
:102A4000FFF7C8FD04980028C0D0616A3A4B62685D
:102A500003EB41034FF6EF71B3F84030B0FBF3F0F6
:102A6000530803EB4003B3FBF2F3A3F110028A42D5
:102A70003FF624AF23F00F02C3F3420392B2134395
:102A8000EB60A3E72D488DE7FFF766FD284A2A4B48
:102A9000D269C2F30212134493F8303003F01F03DB
:102AA000D840D0E7B0F5004F1DD0FFF755FD204AC4
:102AB000214BD269C2F30222134493F8303003F061
:102AC0001F03D84091E71A4B1A68900640F1A58081
:102AD0001B681A48C3F3C103D840B7E76846FFF73D
:102AE00013FE0198AFE7FFF737FD114A124BD26989
:102AF000C2F30222134493F8303003F01F03D8408E
:102B0000A1E700BFF369FFCF000C0058FFF4FF11ED
:102B1000001001400044004000480040004C0040CC
:102B2000005000400014014000780040007C00404C
:102B30000044025800093D0090B10C080090D003F9
:102B4000A868374B03401343364AAB60EB6A23F067
:102B50000F030B43EB62936D03F00703052B3FF666
:102B6000ADAEDFE803F0413C3303524F2D4B1A6802
:102B700095064CD42C482D4B656803EB410305EBBF
:102B80004501B3F84020B0FBF2F399423FF696AE10
:102B9000B3EB053F3FF692AE0023194683F066FB88
:102BA0002A460902030241EA1061680818184FF02A
:102BB000000341F1000183F059FB1D4BA0F5407269
:102BC0009A423FF67BAE1B4BD860FFE66846FFF7A4
:102BD0009BFD019800283FF4F9AE616ACBE703A89A
:102BE000FFF7F8FC0498F5E7FFF7B6FC0D4A0F4B2A
:102BF000126AC2F30212134493F8303003F01F0339
:102C0000D840E7E74FF40040B5E70B48B3E71B684F
:102C10000548C3F3C103D840ADE7034816E700BF3A
:102C2000FFF4FF11004402580090D00390B10C084B
:102C3000FFFC0F00000C005800093D00474A70B42B
:102C4000946A956AD66A15F47C7FC5F30513516BB7
:102C50005BD0C1F3CC0106F0010604F0030407EEDB
:102C6000903A06FB01F1012CB8EEE77A06EE901AD5
:102C7000FAEEE96A4ED0022C6DD0002C4DD0DFED7B
:102C8000387A87EE876A136BC3F3080307EE903A2E
:102C9000F7EE005AF8EEE77A77EEA67A77EEA57AA5
:102CA00067EE867A2D4AB7EE006A136BC3F34623AC
:102CB00007EE103AB8EEC77A70BC37EE067AC7EE68
:102CC000876AFCEEE66AC0ED006A136BC3F3064345
:102CD00007EE103AB8EEC77A37EE067AC7EE876A83
:102CE000FCEEE66AC0ED016A136BC3F3066306EE01
:102CF000903AF8EEE66A76EE866A87EEA67AFCEE01
:102D0000C77A17EE903A8360704770BCC0E9003311
:102D100083607047DFED137AB3E713689B06AED587
:102D20001468F7EE005A136B0F49C4F3C102C3F3E2
:102D30000803D14007EE903A06EE101AF8EEE77A53
:102D4000B8EEC66A77EEA66AC6EE077A36EEA57AC0
:102D500067EE877AA6E7DFED057A92E7004402582E
:102D60000024744C0024744A0090D0030024F44AD8
:102D7000F0B5354AB0F1804F344DA0EB0202036844
:102D8000A0EB050E4C69B2FA82F28F68BEFA8EFE95
:102D90000E684FEA52124FEA5E1E1FD0F2B9DFF8FA
:102DA000B8C0604537D00CF5806C604533D00CF569
:102DB000806C604512D0BEF1000F0FD1244D254A22
:102DC000904218BFA8422AD002F58062904226D0D5
:102DD00023F08003C76286621C4314E04D6823F031
:102DE0007003D1F80CC02B43C762866223F4407392
:102DF00043EA0C0323F080031C4312B9BEF1000F19
:102E000016D00B6903630368012243F004030360D7
:102E100042610460F0BD23F070034A681343CA683E
:102E200023F44073C7621343866223F080031C437C
:102E3000074A084B984218BF9042E2D003F58063DE
:102E40009842DED0DFE700BF0000014000040140EF
:102E5000004001400044014000040040026810B4FA
:102E600052E8003F23F4907342E800310029F7D183
:102E7000144C02F1080353E8003F234002F1080C10
:102E80004CE800310029F4D1C36E012B08D0002397
:102E900020225DF8044BC0F88C204367C36670475E
:102EA00052E8003F23F0100342E800310029EED041
:102EB00052E8003F23F0100342E800310029EFD12F
:102EC000E5E700BFFEFFFFEF436BDA69F0B5970659
:102ED00083B0044642D5586AE36AC0B2002B00F0C2
:102EE0009580216B9847636B1A681D4622F48072A7
:102EF0001A609A6822F001029A609A6942F0080208
:102F00009A61DA69D6072DD4DA69900701D50222D1
:102F10001A62DA69510701D504221A62DA691207C6
:102F200001D508221A62DA69170612D5D4F8BC2036
:102F3000212A0ED0D4E909128A4273D0A169895C92
:102F40000132C9B299622169B2FBF1F001FB102292
:102F5000A262DA69560608D403B0F0BDDA691D46EC
:102F6000D607D1D501221A62CEE7DA6940F60F0CF6
:102F70001E6804F1340012EA0C0F996836D0B24F83
:102F80000F4040F0BB80DFF8CCC216EA0C0F40F0D7
:102F90006381D4F8A050012D4CD0D50202D54F0248
:102FA00000F16781150606D501F4000106F08005E1
:102FB0000D4340F043815106CED57206CCD553E87F
:102FC000002F22F0400243E8002141B1626B52E839
:102FD000003F23F0400342E800310029F7D12022CE
:102FE0000023C4F8BC20C4F8AC30B5E79506D0D5B2
:102FF00006F0200501F080573D43CAD0D4F8A83030
:10300000002BA9D003B0BDE8F0401847E36962691E
:10301000D054E369E2680133B3FBF2F102FB1133F0
:10302000E36160E70022A4F88A201A6822F0800297
:103030001A608EE7D706B0D5F506AED51022B4F8E3
:1030400090501A629A68570640F11D81D4F8B40076
:1030500001684A6892B2002A00F05081AA4280F0CA
:103060004D81C169A4F89220B1F5807F40D053E82A
:10307000002F22F4807243E8002141B1626B52E8D4
:10308000001F21F4807142E80015002DF7D103F1F3
:10309000080252E8002F22F0010203F1080545E87A
:1030A00000210029F3D103F1080252E8002F22F099
:1030B000400203F1080545E800210029F3D1202250
:1030C000C4F8C020C4F8A01053E8002F22F010026A
:1030D00043E80026002EF7D15C490D6840B190F816
:1030E0003530022B00F01381802380F83460436573
:1030F0000223C4F8A430B4F892302DE712F0010F87
:103100000CD016F4807F09D04FF0010CC3F820C01A
:10311000D4F8C4C04CF0010CC4F8C4C012F0020FC3
:103120007BD112F0040F0CD011F0010F09D04FF039
:10313000040CC3F820C0D4F8C4C04CF0020CC4F88E
:10314000C4C012F0080F0CD006F0200C5CEA070C8B
:1031500007D008271F62D4F8C47047F00807C4F8E6
:10316000C47017050AD5770108D54FF400671F62B0
:10317000D4F8C43043F02003C4F8C430D4F8C430C9
:10318000002B3FF4E9AE92060CD506F0200601F0C4
:1031900080510E4306D0D4F8A8301BB10190984757
:1031A000656B0198D4F8C420AB6802F0280203F0E4
:1031B0004003134361D0FFF751FEAB685B067FF518
:1031C000CBAE05F1080353E8003F23F0400305F1BF
:1031D000080141E8003262B1626B02F1080353E872
:1031E000003F23F0400302F1080040E800310029CD
:1031F000F3D1D4F8B40000283FF4AEAE90F83520F7
:10320000134B022A03653BD1FCF730FF00283FF443
:10321000A3AED4F8B400036DF4E611F0010F90D022
:103220004FF0020C12F0040FC3F820C0D4F8C4C051
:103230004CF0040CC4F8C4C083D078E7D4F8AC30A8
:10324000002B7FF4DFAE87E601000010802D002404
:10325000691F04082001000412F0010F3FF471AF50
:1032600016F4807F7FF450AF12F0020F7FF469AF45
:1032700057E74FF480121A626EE6C4F8C4306BE66A
:1032800080224265BEE6B4F89220B4F8921092B261
:1032900089B2AA423FF460AE00293FF45DAE53E824
:1032A000002F22F4907243E8002141B1626B52E892
:1032B000001F21F4907142E800100028F7D19548D2
:1032C00003F1080252E8002F024003F1080545E827
:1032D00000210029F4D12022C4F8A810C4F8C0208D
:1032E000C4F8A01053E8002F22F0100243E8002198
:1032F0000029F7D10223C4F8A4302DE6AA427FF4B6
:103300002BAEC369B3F5807F7FF426AEF2E7036886
:10331000814A824E824FB34218BF934206F118068B
:103320000CBF01220022B34208BF42F0010218364E
:10333000B34208BF42F001021836B34208BF42F060
:1033400001021836B34208BF42F0010206F5567674
:10335000B34208BF42F001021836B34208BF42F040
:1033600001021836B34208BF42F001021836B342D8
:1033700008BF42F001021836B34208BF42F0010212
:103380001836B34208BF42F001021836B34208BFF4
:1033900042F00102A6F59266BB4218BFB34207F5A0
:1033A00092670CBF01260026BB4208BF42F0010213
:1033B00056EA020779D0D3F800C02CF01E0CC3F8EF
:1033C00000C0D3F814C02CF0800CC3F814C0D0F89F
:1033D00060C076BBD0F860C0DCF8006026F4807670
:1033E000CCF800601A6822F001021A6003E00A6853
:1033F000521B052A24D81A68D607F8D4D0E91651EA
:1034000001F01F012FB33F238B40AB60C36ED0E9A7
:103410001921516033B11A68016F22F480721A6069
:10342000436F4B600122002380F8352080F8343050
:103430005EE6DCF8002022F48072CCF80020D1E7B0
:10344000202103220023416580F8343080F83520A4
:103450004EE6344A344EB34218BF934206F1140686
:103460000CBF01220022B34208BF42F00102143611
:10347000B34208BF42F001021436B34208BF42F023
:1034800001021436B34208BF42F00102012606FAD7
:1034900001F1696025498B4208BF42F00102002A10
:1034A000B4D1234A9342B1D0BCE71E4EDFF878C0B6
:1034B000634518BFB3420CF1140C0CBF0126002663
:1034C000634508BF46F001060CF1140C634508BFC4
:1034D00046F001060CF1140C634508BF46F00106E6
:1034E0000CF1140C634508BF46F00106D3F800C088
:1034F0002CF00E0CC3F800C0DFF830C0634508BFE5
:1035000046F00106002E7FF465AF094EB3423FF44A
:1035100061AF67E7FEFFFFEF400002405800024046
:1035200028000240085402581C5402588054025883
:10353000945402584B4B10B41B684B4CA4FB0343F0
:103540005B0A03FB02F25AB18446531E4748DCF87B
:103550003420013B024201D0920406D55C1CF6D116
:103560004FF000405DF8044B7047DCF834305C07E6
:1035700041D4DCF83430D80709D43D4BCCF838308E
:10358000DCF81030DBB2994205D00120EAE70123D4
:10359000CCF83830F9E7DCF8143036481840002809
:1035A000E0D0002B2CDB5A002DD49C002DD4D90068
:1035B0002DD41A012ED45C012FD4D90130D41A0293
:1035C00031D45C0232D499023CD4DA0237D45C03A1
:1035D00032D499032DD4DA0340D41C043BD45904CB
:1035E00036D49A0431D413F0080F0CBF4FF4803056
:1035F0004FF40000B6E704231846CCF83830B1E7A2
:103600004FF00070AEE74020ACE78020AAE74FF40F
:103610008070A7E74FF40070A4E74FF48060A1E743
:103620004FF400609EE74FF480509BE74FF400504A
:1036300098E74FF4802095E74FF4003092E74FF47D
:1036400000408FE74FF480408CE74FF4800089E71B
:103650004FF4001086E74FF4801083E74FF400200A
:1036600080E700BF00000024D34D62104500200019
:10367000C500200008E0FFFD82B00023019302E0B6
:103680000369002B09DB019B01330193019BB3F11B
:10369000706FF5D9032002B070478901002341F013
:1036A00020010193016103E0036913F0200307D0B7
:1036B000019B01330193019BB3F1706FF4D9E9E7EA
:1036C000184602B0704700BF82B00023019302E0A9
:1036D0000369002B09DB019B01330193019BB3F1CB
:1036E000706FF5D9032002B07047002210230192B9
:1036F000036103E0036913F0100307D0019B01335A
:103700000193019BB3F1706FF4D9EBE7184602B057
:10371000704700BF82B00023019302E00369002BD1
:1037200009DB019B01330193019BB3F1706FF5D964
:10373000032002B0704700230193036943F00103A3
:10374000036103E0036913F0010307D0019B013318
:103750000193019BB3F1706FF4D9E9E71846E8E7EC
:103760002DE9F843056807460C46C5F31009B9F181
:10377000000F35D1844B4FF6FF72B3F8803093427F
:103780004FD0002B4DD0814A02EA432808F100684F
:10379000454534BF4FF001084FF002087C4B9D4275
:1037A00006D903F500339D4200F2C4804FF00109B1
:1037B000784E337E012B0FD00123B8F1010F337601
:1037C0004FF00003F36132D0022079F0B7FB0028FC
:1037D00000F09180002333764FF0FF30BDE8F8838E
:1037E0006C4E337E012B49D00123337605F17843AB
:1037F000B3F5801F46D3A5F10163B3F5801F3DD219
:1038000000230220F36179F099FB00286DD1624A10
:103810004FF00208D2F80C3143EA0803C2F80C3129
:103820003DE0B5F1016F63D3052012F077FF40460C
:1038300079F084FB0028CDD14046DFF85C81D8F8D0
:103840000C3023F4E663C8F80C30D8F80C3043EAA7
:10385000092343F0A403C8F80C3079F06FFBD8F8C3
:103860000C204E4B1340C8F80C300028B2D105F1A3
:1038700078430122B3F5801F327603D36FF0010045
:10388000BDE8F88300230120F36179F057FB60BBAA
:10389000414A4FF00108D36843F00203D360BFF3FD
:1038A0006F8FBFF34F8F04F1200254F8043B944212
:1038B00045F8043BF9D1BFF36F8FBFF34F8F4046FC
:1038C00079F03CFBB8F1010F334A2ED0D2F80C311D
:1038D00023F00203C2F80C31002333760028CDD147
:1038E0003B6820333B60BDE8F88300233376C5E7AF
:1038F0004FF0010852E7DFF8A0800220D8F80C3121
:1039000023F4E663C8F80C31D8F80C3143EA0923F4
:1039100043F0A403C8F80C3179F010FBD8F80C215F
:103920001E4B1340C8F80C319FE7D36823F0020305
:10393000D360D1E703F500339D4211D903F500337D
:103940009D4210D903F500339D4206D903F500339B
:103950009D420BD84FF005092AE74FF0040927E7ED
:103960004FF0020924E74FF0030921E703F5003384
:103970009D4206D9B5F1016FBFF456AF4FF007096C
:1039800016E74FF0060913E700E8F11F00FE1F00DD
:10399000FFFF0108802D002400200052FBF8FFFFEC
:1039A0000148FCF75FBD00BFA42D0024074810B4F8
:1039B000436A846D99691A6824B1234624305DF8FE
:1039C000044B18475DF8044B704700BF802D00245E
:1039D0000148FCF747BD00BFFC2D0024074810B488
:1039E000C36FD0F8B04099691A6824B123467C307F
:1039F0005DF8044B18475DF8044B7047802D002498
:103A00000148FCF72FBD00BF542E0024084810B415
:103A1000D0F8D430D0F8084199691A6824B1234607
:103A2000D4305DF8044B18475DF8044B704700BF75
:103A3000802D00242DE9F04FDFF8409300EB400586
:103A400083B0430009EB85050093AB680193002B1D
:103A500000F051818046E88978F0CAFD287B0FF09C
:103A600075FE0446687B0FF071FE08F101030746FE
:103A7000DBB2002C00F0648140F60C12A1882372A6
:103A8000E2802268002800F04F81037240F60C2388
:103A9000C38091613B68BA889A611121204609264A
:103AA0000FF010FE112138460FF00CFE6525002C9A
:103AB00000F024812268A38811690B4200F01E8166
:103AC0001B04936112F016FB05468B4612F012FBA5
:103AD000401B61EB0B01052871F10001F6D314B115
:103AE0002368A2889A6112F005FB05468B4612F006
:103AF00001FB401B61EB0B01052871F10001F6D3BE
:103B0000013ED3D11CB1A38822681B04936112F03B
:103B1000F1FA05460E4612F0EDFA401B61EB060184
:103B2000052871F10001F6D31FB1BB883A681B0468
:103B3000936112F0DFFA05460E4612F0DBFA401BE5
:103B400061EB0601052871F10001F6D314B1236879
:103B5000A2889A6112F0CEFA05460E4612F0CAFA11
:103B6000401B61EB0601052871F10001F6D317B186
:103B70003B68BA889A61009B20463E21434409EB8A
:103B80008303DC7C22460FF0BFFD224638463E21EF
:103B90000FF0BAFD734C5823019A03FB08435A6295
:103BA000714B9A4200F0BB80FEF7D6FC6F4BDA698E
:103BB000C2F302126E4B134493F8303003F01F032C
:103BC000D840009B434409EB83031B7C022B00F08D
:103BD000B280032B00F0AA80012B14BF4FF4C871F0
:103BE0004FF4487178F0F8FD03465822002102FB9B
:103BF0000842D1629362C2E90D11C2E9101101219C
:103C0000116392F8651001F0FF00002900F0A08018
:103C1000582123F0706224264FF4004701FB08412D
:103C200054484B6A81F865601D6825F001051D60E8
:103C30001A619A6822F400429A609F605A6822F4DE
:103C400000625A605A681043CA6B58601202D86802
:103C500020F40040D860DA6000221A60186840F052
:103C60000100186020208A6681F865004A6581F8A5
:103C7000662091F865002028C5B217D191F864003C
:103C8000012813D081F86560186820F001001860E1
:103C9000186820F48050186018681860186840F0A0
:103CA0000100186081F8655081F86420009B0221B2
:103CB0000126314F434409EB830999F812502846F5
:103CC00079F090F905F01F036A0999F8115006FA86
:103CD00003F30221284647F8223079F083F958236C
:103CE00003FB084405F01F036D0906FA03F347F8C8
:103CF000253084F8206003B0BDE8F08F013D2AD064
:103D000012F0F8F983468A4612F0F4F9B0EB0B0092
:103D100061EB0A01052871F10001F5D3C7E6FEF752
:103D20001BFC124B1A6A43E79161B6E6C82178F092
:103D300053FD034659E7642178F04EFD034654E7EE
:103D400000283FF4AAAE037240F60C23C380A1E61C
:103D500082F864005CE7002C3FF4B4AEA3882268CC
:103D6000AEE600BF802D0024001C0058004402581D
:103D700090B10C080080000200E100E00000002487
:103D80002DE9F04F441C85B017469DF83C202CD0FF
:103D90005824DFF890831E46054600FB04F408EB28
:103DA000040393F82090B9F1000F1ED04444490059
:103DB000FF2F04F12404039100D0E6B9002A40F05B
:103DC000C180582303FB058393F86520202A03D183
:103DD000AEB94FF400729A66B8F82831284601331C
:103DE0009BB2A8F82831FFF725FE4FF0000948469E
:103DF00005B0BDE8F08F93F86530202BECD14FF083
:103E0000580A0AFB058A9AF86430012BE4D0012293
:103E1000D8F800B019234FF400418AF864202046F6
:103E2000CDF800B0FEF734FB0028D5D10E9BDAF8B0
:103E30002410CAF848302123B44A8AF86530402358
:103E4000CAF858008AF86630CAF868002046AAF80E
:103E50004E604B681340039A1343AD4A1A434A60BD
:103E6000594679F03DF80246002840F0F380DAF830
:103E70002430802120469F620A23CDF800B0FEF74F
:103E800007FB002840F0E680BAF84E309BB2FF2BCB
:103E900040F20C81DAF82410FF239E48AAF84C3037
:103EA0004B689D4A0340039803431A434A605826CF
:103EB000DDF80CA05F46039506FB058605E0B6F825
:103EC0004E309BB2002B00F006813946204679F037
:103ED00007F8002840F0E880B16C756A11F8012BF2
:103EE000B6F84C30AA62B164013BB6F84E109BB2F2
:103EF0000139A6F84C3089B2A6F84E10B6F84E102B
:103F000089B2002BDBD10029D9D002460A238021B7
:103F100020460097FEF7BCFAFF22002840F0C4803C
:103F2000B6F84E309BB2934240F29B80716AA6F87D
:103F30004C204B68774A1340774A43EA0A031A43F6
:103F40004A60BCE74FF0580A0AFB058A9AF86530C8
:103F5000202B7FF441AF9AF86430012B3FF43CAF43
:103F60000122D8F8007019234FF400418AF8642028
:103F700020460097FEF78CFA00287FF42DAF0E9BA9
:103F8000CAF85800CAF8483021238AF8653010234F
:103F90008AF86630CAF86800AAF84E60BAF84E305F
:103FA0009BB2FF2B00F2C080BAF84E309BB2AAF849
:103FB0004C30002B40F0E980DAF8241053484B686D
:103FC000564A0340039803431A434A605826AA46B8
:103FD00006FB0586B6F84E3039469BB2002B00F042
:103FE000CC80204678F07CFF002872D1B16C756AD5
:103FF00011F8012BB6F84C30AA62B164013BB6F857
:104000004E109BB20139A6F84C3089B2A6F84E107A
:10401000B6F84E1089B2002BDCD10029DAD0024666
:104020000A23802120460097FEF732FAFF2200285B
:104030004FD1B6F84E309BB2934223D9716AA6F89D
:104040004C204B68334A1340039A1343324A1A43B5
:104050004A60BFE75823002203FB058383F86420EE
:10406000BAE6B6F84E30726A9BB22A485168A6F892
:104070004C30DBB201404AEA03430B4343F0007388
:1040800053601CE7B6F84E30716A9BB2039A214820
:10409000A6F84C30DBB242EA03434A6802401343BD
:1040A00043F000734B6095E7039D95E6BAF84E30F8
:1040B000DAF824109BB2039A1648AAF84C30DBB207
:1040C00042EA03434A680240134343F000734B60E3
:1040D000EDE6554680E639462046039D78F0D2FE4F
:1040E00000287FF479AE736A20210D4CD9615A689B
:1040F00022405A605823002286F8651003FB05838E
:1041000086F8660083F8642071E600BF009800FC22
:1041100000200101009C00FC0000FF0100200002C3
:1041200000E800FE802D0024FF234FF47F00FE22D4
:104130004FF08076AAF84C30039BDDF838E01E4340
:1041400058231EF801AB03FB0583DFF850C0596A02
:10415000C1F828A0A3F84C20B3F84E20C3F848E0DB
:10416000013A92B2A3F84E204B6803EA0C033343A2
:10417000034343F400534B6028E72046554678F04C
:1041800081FE00287FF428AEADE7013B4FF00076BA
:104190009AB2501CC0B20004CEE700BF009800FCE9
:1041A0002DE9F04F441C85B099469DF83C3000F055
:1041B00096805825C14C064600FB05F504EB050B1F
:1041C0009BF820A0BAF1000F00F089802544FF2A57
:1041D00090464FEA410705F1240540F08680002B08
:1041E00000F083809BF86530202B6FD19BF8643002
:1041F000012B6BD00122D4F8008019234FF4004129
:104200008BF864202846CDF80080FEF741F900289D
:104210005CD10E9BCBF85800CBF8483022238BF8AA
:10422000653010238BF86630CBF86800ABF84E9001
:10423000BBF84E309BB2FF2B00F21081BBF84E3022
:10424000DBF824109BB29E484A68ABF84C30DBB2D6
:10425000024047EA034313439A4A1A434A604FF025
:10426000580909FB0649B9F84E309BB2002B00F003
:104270008081D9F824309A69520700F12D81424695
:104280000A212846FEF782F8002840F0F480D9F889
:1042900024309A69910640F1F8809A699A6912F07F
:1042A000100200F0F08010222021874DDA610422F4
:1042B000C9F86820D9615A682A405A6089F865109F
:1042C00089F8640089F8660022689B69B4F828318F
:1042D000304601339BB2A4F82831FFF7ABFB4FF017
:1042E000000A504605B0BDE8F08F4FF0580B0BFBAD
:1042F000064B9BF86530202BE8D10E9B002B00F07D
:10430000A8809BF86430012BE0D0236801224FF491
:10431000004128468BF86420039300931923FEF78D
:10432000B7F80028D2D12223DBF824100E9A8BF89C
:1043300065304023CBF848208BF86630CBF8680016
:10434000ABF84E90DFF878914A68CBF858002846D1
:1043500002EA09023A4342F490324A60039978F043
:10436000BFFD0246002840F0308140232846194610
:10437000DBF82430C3F82880039B00930A23FEF760
:1043800087F8002840F02181BBF84E309BB2FF2B0C
:1043900040F22281DBF82410FF234C4AABF84C306A
:1043A0004B6803EA09033B431A434A604FF058083D
:1043B000B946039F08FB064805E0B8F84E309BB2AB
:1043C000002B00F01B810A230022042128460097BD
:1043D000FEF75EF800287FF479AFD8F82430596AE8
:1043E000D8F848301970B8F84E10D8F8483001396C
:1043F000013389B2C8F84830B8F84C30A8F84E10EC
:10440000013BB8F84E109BB289B2A8F84C30002995
:10441000D3D0002BD1D102460A2380212846009711
:10442000FEF736F8FF2200287FF450AFB8F84E3080
:104430009BB2934240F2B780D8F82410A8F84C20E1
:104440004B68234A1340234A43EA09031A434A604C
:10445000B3E74FF40073CBF8683037E7DBF824108C
:10446000FF231748ABF84C304B68184A03403B43D6
:104470001A434A60F3E6582303FB06435B6A9A69D2
:1044800022689B6922E7C9F868202268A2EB08022B
:104490000A2A7FF6F0AE9A6912F004027FF4EBAEBE
:1044A000582101FB0641886E81F86420202240F0EB
:1044B0002000886681F865209B6907E7802D00242D
:1044C000009800FC0024000200E800FE0024FF0128
:1044D000009C00FC0000FF015A6AD9F848301A70AD
:1044E000B9F84E30D9F84820013B01329BB2C9F8E7
:1044F0004820A9F84E30B9F84C30B9F84E20013BAD
:1045000092B29BB2A9F84C30002A3FF4ACAE002B1B
:104510007FF4A9AE0A23002280212846CDF800802E
:10452000FDF7B6FF00287FF4D1AEB9F84E309BB24C
:10453000FF2B0CD9D9F82410FF233B48A9F84C30A5
:104540004B683A4A03403B431A434A608BE6B9F84A
:104550004E30D9F824109BB233484A68A9F84C3041
:10456000DBB2024047EA0343134343F000734B605E
:1045700079E64146284678F085FC00287FF4A6AE0F
:10458000D9F8243020212A4DD9615A682A405A602E
:1045900089F8651089F866005822002302FB06445A
:1045A00084F864309DE6B8F84E30D8F824209BB2E9
:1045B0001D485168A8F84C30DBB2014049EA03437A
:1045C0000B4343F000735360F7E65823002203FBCC
:1045D000064383F8642079E6BBF84E30DBF82410FC
:1045E0009BB24A68ABF84C30DBB202EA090247EAF8
:1045F000034313430F4A1A434A60D7E603992846F8
:1046000078F040FC034600287FF460AED8F8242000
:104610002020074DD06151682940516088F865001D
:1046200088F86630B8E700BF009C00FC0000FF017E
:1046300000E800FE002400020248836B0BB12C301E
:1046400018477047000000240248836D0BB14C30BE
:1046500018477047000000240248836F0BB16C308C
:1046600018477047000000240348D0F898300BB179
:104670008C301847704700BF000000240348D0F872
:10468000B8300BB1AC301847704700BF00000024B1
:104690000348D0F8D8300BB1CC301847704700BF72
:1046A000000000240348D0F8F8300BB1EC30184774
:1046B000704700BF000000240348D0F8183113B140
:1046C00000F5867018477047000000240348D0F8B2
:1046D000383113B100F59670184770470000002478
:1046E0000348D0F8583113B100F5A6701847704749
:1046F000000000240348D0F8783113B100F5B670FB
:1047000018477047000000240348D0F8983113B1CF
:1047100000F5C67018477047000000240348D0F821
:10472000B83113B100F5D670184770470000002467
:104730000348D0F8D83113B100F5E6701847704738
:10474000000000240348D0F8F83113B100F5F670EA
:1047500018477047000000240348D0F8183213B1FE
:1047600000F50370184770470000002410B41C4681
:10477000436884466FF30F0323434360036843F0A9
:1047800001030360036843F400730360002C3AD014
:1047900040F2E930DCF814309B0748D5002A49D0B4
:1047A00012F8013B40F2E9308CF82030DCF814308C
:1047B000DB0720D40138F9D1214B9C450CD0A3F55F
:1047C00078439C4538D003F580639C4536D003F58B
:1047D00078439C450BD103201A4A00EB400002EBC2
:1047E000C002B2F8403201339BB2A2F8403200203E
:1047F0005DF8044B70479CF83000C0B209B101F875
:10480000010B013CC4D1DCF814301B07FBD5DCF8EC
:10481000183001205DF8044B43F01003CCF8183039
:10482000DCF8003023F00103CCF800307047013889
:10483000B0D1C1E7FF23B5E70120CDE70220CBE7E8
:1048400000300140000000242DE9F84300242C4EE4
:104850008046036856F83450AB4209D001340E2C20
:10486000F8D1284A0021052009F0CCFD002019E0EC
:10487000254B03EB8409D9F82C71AFB198F80510DA
:1048800000204B1C01EB410203EB430307EBC20288
:10489000DB00C2F80C80C2E90400F854182303FBC3
:1048A00001700830BDE8F8830721682009F032FE66
:1048B0000146C9F82C01F0B13946682286F060FA49
:1048C000D9F82C1106EBC4043B4689600C600962E0
:1048D0008963096556F83320954205D001330E2BC4
:1048E000F8D14F600F46C9E7084F4C2202FB03770F
:1048F0004F600F46C2E7064A052009F083FDB5E781
:10490000E8B10C08405E0D08802D0024E42E002440
:10491000685E0D08B0B1022330B4D0E900428D6862
:104920006468527903FA02F223684C685CB1DC686F
:1049300085B122438160DA60DA6842F00102DA6010
:1049400030BC70477047DC6824EA0202DA604DB17F
:104950008160F1E724F00104DC60DC6881602243BF
:10496000DA60EDE7DA6822F00102DA608160E7E7F9
:10497000F0B54468A37913F002025FD002224FF031
:10498000080C036864795B689B48204493F83C40BA
:10499000012C90F8C80050D0012483F83C40142822
:1049A00048D8DFE810F015004700470047008400B2
:1049B0004700470047003B01470047004700BB0056
:1049C000470047004700F2004700470047004D00FE
:1049D00018688A4C056A8A4E25F00205B04242EA00
:1049E0000502056A25F0010505624768856904EA44
:1049F000050444F0600407D0824DA84204D005F5B8
:104A00007055A84240F04D8122F0080247F44077EB
:104A10004CEA020222F004024760846141630262B0
:104A2000826942F008028261826922F00402826196
:104A300082698261002283F83C20F0BD9446A0E7A1
:104A400018686F4E046AB04224F4001444EA02521B
:104A5000046A24F4801404626B4C4568476D04EAD0
:104A6000070444F4C0440ED006F58066B0420AD074
:104A7000664F06F58046B04218BFB84203D006F52F
:104A80008066B04201D145F4802545604465C1652A
:104A90000262426D42F400624265426D22F480621D
:104AA0004265426D4265002283F83C20C5E71868E4
:104AB000574C056A524E25F02005B04245EA0215D2
:104AC000026A22F0100202624768826904EA020464
:104AD00044F4C04400F0DE804A4A904200F0DA809C
:104AE0004A4E4C4A904218BFB04203D002F5806251
:104AF000904201D147F44067476084618163056259
:104B0000826942F400628261826922F48062826179
:104B100082698261002283F83C208EE71868384E53
:104B2000046AB04224F4005444EA0232046A24F4D1
:104B300080540462364C4568C76904EA070444F4AB
:104B4000C0440ED006F58066B0420AD02F4F06F55D
:104B50008046B04218BFB84203D006F58066B04226
:104B600001D145F480454560C46101640262C269B7
:104B700042F40062C261C26922F48062C261C26909
:104B8000C261002283F83C2057E718681C4E046A73
:104B9000B04224F4003444EA0242046A24F480342B
:104BA00004621D4C4568476D04EA070444F0600444
:104BB0000ED006F58066B0420AD0144F06F5804646
:104BC000B04218BFB84203D006F58066B04201D1AA
:104BD00045F480354560446581650262426D42F06E
:104BE00008024265426D22F004024265426D426550
:104BF000002283F83C2020E790B10C088CFFFEFFD8
:104C00000000014000040140FF8FFFFE0040014012
:104C1000FF8CFFFE004401408FFFFEFF1868264C0A
:104C2000056A264E25F4007EB0424EEA0225026A4D
:104C300022F4807202624768C26904EA020444F006
:104C4000600420D01E4A90421DD01E4E1E4A904243
:104C500018BFB04203D002F58062904201D147F400
:104C600040574760C461C1630562C26942F00802EF
:104C7000C261C26922F00402C261C269C26100223B
:104C800083F83C20D9E625F4006E4EEA0C2E2EF473
:104C90008065E4E725F0800545EA0C1525F0400520
:104CA00028E705F58065A8423FF4AEAE05F58065BE
:104CB000A8427FF4B1AEA7E68CFFFEFF00000140E2
:104CC0000004014000400140004401404268537923
:104CD000032B0FD8DFE803F00B0805021068403003
:104CE000704710683C307047106838307047106863
:104CF0003430704700207047D0E90002064B5179EC
:104D000092790B44406893F8C810530701D57FF09F
:104D10004BBA7FF0C5BA00BF90B10C084268C368B7
:104D200012695B68C2F30322F0B53B4D05EB8202CA
:104D30009668EFF31182102484F312884468374F89
:104D400094F805C0D0F80CE035F81CC025680CF4C8
:104D5000F05CEC6824EA0C0417F806C0EC60DEF89E
:104D6000105053F80C401F2D24F0010443F80C4060
:104D700042D9203D2024DEF804C0AC40CCF80C40E1
:104D8000D2B282F3118817F806C042F2107203EB18
:104D90000C0EDEF80040E40702D500BF013AF8D15E
:104DA00053F80C2012F0010223D1DEF804404569CB
:104DB0006FF30F0421434468CEF80410617903298E
:104DC00005D8DFE801F02326022022683C32CEF825
:104DD0000C500121CEF8082053F80C2042F01002AC
:104DE00043F80C2053F80C200A4343F80C200174BC
:104DF000F0BD00230374F0BD2024DEF804C0AC40F5
:104E0000CCF80840BCE722684032E0E72268343240
:104E1000DDE722683832DAE790B10C0800B30C08FD
:104E200003681A7E012A2ED0002293F8301001293F
:104E300009D093F8481001290ED093F86010012989
:104E40001BD02ABB7047022142F4806283F83010E5
:104E500093F84810012904D1022142F4006283F83A
:104E6000481093F86010012907D01B6800211B68C7
:104E70005962D9680A43DA607047022142F48052CD
:104E800083F86010F1E702214FF400721976CCE745
:104E90004FF40072E9E700BF08B5204B98420ED0EE
:104EA00003F5806398420AD01D4A03F58043984277
:104EB00018BF904203D003F5806398421BD1FDF7E1
:104EC0004BFB1849184BCA69C969C2F30222C1F3E6
:104ED00002211A4492F8302002F01F02D040114AF9
:104EE0001269C2F3C03241EAC202134493F8CC30D3
:104EF00003FB00F008BDFDF72FFB0A490A4BCA6906
:104F0000C969C2F3021CC1F3021103EB0C0292F84F
:104F1000302002F01F02D040E1E700BF0000014056
:104F2000004001400044025890B10C0870B50E4694
:104F300005EE102AD0E90031013E1A680868B6B2C1
:104F40005C681568FFF7A8FF07EE900AB8EE455AAF
:104F50009FED5D7AF8EE677A87EE850A30EE070AF4
:104F600083F0ECFF23680138AB4280B268D0C4E91B
:104F7000005000238022E660A360A261C4E90433EC
:104F800094F83D3003F0FF02002B78D00223211D5E
:104F9000284684F83D30FDF7EBFE4C4A0123B5F17D
:104FA000804FA5EB020284F84830B2FA82F284F80E
:104FB0003E3084F83F304FEA521284F8403084F893
:104FC000413084F8423084F8433084F8443084F827
:104FD000453084F8463084F8473084F83D3034D08A
:104FE0009ABB3B4B9D420CD003F580639D4208D099
:104FF00003F580639D4245D003F578439D4241D03F
:1050000070BD94F83C30012BFAD00222314B0121C3
:1050100084F83D20A8680340AB6084F83D1084F814
:105020003D206B68A96823F0700321F08001012204
:105030006B600023A96084F83D2084F83C3070BD8B
:10504000636883423AD0606093E794F83C30012B68
:10505000D6D002211F4B002084F83D10A9680B40D8
:105060000121AB6084F83D10022384F83D306B6869
:10507000A9680AB90028D6D023F47003D3E784F8CE
:105080003C2083E794F83C30012BB9D00221114B2E
:10509000114884F83D10A968281A0B40B0FA80F036
:1050A0000121AB600023400984F83D1084F83C30B6
:1050B0000A4B9D42D8D00028D6D170BDE368B342D8
:1050C0007FF457AF70BD00BF0AD7233C00000140FA
:1050D000000400408800CEFF00040140000C0040A6
:1050E000024B0348D3F82C11FDF704B8802D00249F
:1050F00000000140034B4FF08040D3F83011FCF723
:10510000F9BF00BF802D0024024B0348D3F83411AF
:10511000FCF7F0BF802D002400040040024B034840
:10512000D3F83811FCF7E6BF802D002400080040BA
:10513000024B0348D3F83C11FCF7DCBF802D002460
:10514000000C0040024B0348D3F84811FCF7D2BFD3
:10515000802D002400040140024B0348D3F858116D
:10516000FCF7C8BF802D002400180040024B034804
:10517000D3F86411FCF7BEBF802D0024004001402D
:10518000024B0348D3F86811FCF7B4BF802D00240C
:1051900000440140024B0348D3F86C11FCF7AABF4E
:1051A000802D00240048014010B5064C0648D4F874
:1051B0004811FCF79FFFD4F85C110448BDE810408B
:1051C000FCF798BF802D002400040140001C004023
:1051D00010B5064C0648D4F84811FCF78BFFD4F8FC
:1051E00060110448BDE81040FCF784BF802D002406
:1051F0000004014000200040BFF34F8F0549064BDB
:10520000CA6802F4E0621343CB60BFF34F8F00BF64
:10521000FDE700BF00ED00E00400FA0500210120D9
:1052200008B50FF06DFA72B6FFF7E6FF2DE9F0430F
:10523000BFB0BFF35F8FA14C0023626A22F48032BB
:105240006262C4F894309DF843109DF844C009068A
:105250009DF842200F9841EA0C7141EAC2419DF845
:10526000452041EA82419DF8462041EA42419DF8AD
:10527000472041EA02419DF8412041EA02219DF880
:10528000402041EA4201C4F898300133D4F8A0200C
:10529000112B22F00102C4F8A020C4F89C00C4F82D
:1052A000A010F0D10523C4F89430636A43F480332E
:1052B0006362BFF34F8FBFF36F8F8148814A82498A
:1052C000121A85F0A7F9814B5A6D012A00F0DF8090
:1052D000D4F8881000227E4B012041F47001C4F8FC
:1052E000881018601A61196841F080011960196806
:1052F00001431960196841F480311960196841F45B
:10530000805119609A61DA611A629A62DA621A63EC
:105310005A639A63DA631A645A64196821F4802123
:1053200019601A664FF000636A49C1F80801A3606A
:105330007FF010FF684AD36813F0040FD36840F081
:105340009480664B0021644A0591D96A21F00101DD
:10535000D962DB6A03F001030593936943F4404388
:105360009361936903F440430593059B9369980403
:10537000FCD54C2200210EA8594C85F001FD594A5C
:1053800042F20303A4F110011268B3EB124F4FF085
:1053900000024FF0040308BF0C460792E268A370B6
:1053A000002A4FD04D4BD96A21F00101D962DB6A46
:1053B000494903F0010307938B6923F440431343E6
:1053C0008B618B6903F440430793079B424A9369BF
:1053D0009904FCD53E4B4FF4403543480321D3F8A4
:1053E000E02042F08002C3F8E0200122D3F8E03050
:1053F00003F080030693069B85610D9BCDE90013A6
:1054000000237FF073FB022301204FF48031A28838
:10541000CDE9173304231993A379CDE90E01E0797F
:10542000217A1C900EA81D91CDE91A230422002395
:10543000CDE91E23FBF716FA032800F0D6810028D9
:1054400058D0FEE7244A254B916941F440419161CF
:10545000926902F440420792DA6A42F00102DA628B
:10546000DB6A03F001030793AFE723F007031F4C48
:1054700043F00203D360216805E023685B1AB3F5AB
:105480007A7F3FF65EAF53689D04F6D559E7104A20
:10549000002017495865D2F8F43043F00203C2F8EF
:1054A000F430D2F8F43003F002030E930E9B0B6835
:1054B00083F308884B689847FEE700BF00ED00E0E3
:1054C00000000000904200002CDD0D080040005854
:1054D000004402580080005100480258000400585F
:1054E0009C0200240010005C001C0258802D002447
:1054F0000098F01F754B1A6812F00E0F0BD11A6846
:1055000022F00F0242F002021A601B6803F00F0340
:10551000022B40F06C816E4A936903F070033F2BBD
:1055200005D8936923F0700343F040039361684A00
:10553000D36903F070033F2B05D8D36923F07003C0
:1055400043F04003D361624AD36903F4E063B3F5E7
:10555000806F05D2D36923F4E06343F48063D361A1
:105560005B4A136A03F070033F2B05D8136A23F0DC
:10557000700343F040031362554B9A69120705D438
:105580009A6922F00F0242F008029A61504A936928
:1055900023F47063936113689B0130D5136941F262
:1055A00088314C4C23F0070343F003031361206858
:1055B00004E023681B1A8B4200F2AD81136903F0EB
:1055C0003803182BF5D1936903F00F03082B05D985
:1055D000936923F00F0343F0080393613B4A136878
:1055E00003F00F03022B0BD9136823F00F0343F0D2
:1055F00002031360136803F00F03022B00D0FEE7D1
:10560000334A936903F07003402B05D9936923F063
:10561000700343F0400393612D4AD36903F0700394
:10562000402B05D9D36923F0700343F04003D361C5
:10563000274AD36903F4E063B3F5806F05D9D369D2
