:020000040800F2
:10000000000001104130080839250008CD9502088C
:10001000E1300808E1300808E1300808000000007D
:100020000000000000000000000000002D48000853
:100030003148000800000000354800085DED000868
:10004000E1300808E1300808E1300808E13008082C
:10005000E1300808E130080801B1000805B10008E6
:10006000E130080809B100080DB10008692A00084C
:100070007D2A0008912A0008A52A0008B92A00084C
:10008000CD2A0008E12A0008E1300808E13008081C
:10009000E1300808E1300808E130080811B1000833
:1000A000152900083D2900086529000801290008D4
:1000B0008D290008A1290008B5290008E1300808A9
:1000C000E1300808E1300808E1300808E1300808AC
:1000D000E13008083D25000849250008552500089D
:1000E00015B10008E130080839480008F129000876
:1000F000192A0008412A0008DD290008F52A00080D
:10010000E1300808E1300808C9290008E130080892
:10011000612500086D250008E1300808E130080875
:10012000092B00081D2B0008312B0008452B000867
:10013000592B0008E1300808E1300808E1300808D0
:10014000E1300808E1300808E13008088548000877
:10015000692B0008792B0008892B000879250008F5
:10016000E1300808E1300808E1300808E13008080B
:10017000E1300808E1300808E1300808E1300808FB
:08018000E1300808E130080835
:10019000D0E907239A423CBFC1685218D01A704771
:1001A000D0E9092300699A4238BF1218D31A0138DE
:1001B000C01A7047D0E90902101AB0FA80F040095D
:1001C000704700BF0246036A4069D168C05C0133D2
:1001D0008B4228BF00231362704700BF436A8269C5
:1001E000D154436A0169426B01338B4228BF00231B
:1001F0004362D36843F08003D3607047436B188831
:1002000010F0100002D01A889B880120704700BFB0
:10021000436B99891A88890610B504460AD592B2AB
:10022000900607D5E26A002A2AD09888216B80B20E
:100230009047636B99891A88090692B210D5100607
:100240000ED5D4E909128A4215D0A1692069895CCA
:100250000132C9B29980B2FBF0F100FB1122A26217
:10026000998A1A88C90592B204D5D20744BF4FF6BD
:10027000F7721A8010BDDA6822F08002DA60EFE7C8
:100280009B88E2696169DBB28B54E269E168636B68
:100290000132B2FBF1F001FB1022E261CAE700BFBC
:1002A000036942681F2B10B423D95168203B4FF0DB
:1002B000200C0CFA03F3194218D08169087C03283A
:1002C00013D000240C744868C968046890F805C00D
:1002D0008868194931F81CC0A18989B221EA0C014A
:1002E000A181016821F001010160D3605DF8044B38
:1002F000704711684FF0200C0CFA03F31942F5D047
:100300008169087C032813D000240C744868C968EC
:10031000046890F805C08868074931F81CC0A189B5
:1003200089B221EA0C01A181016821F0010101607B
:100330005DF8044B93607047A45F080882B00922FF
:10034000274B8DF80720DA68D00319D4DA68D10674
:1003500040D4DA68D20541D4DA6812F0E00F3BD11C
:10036000DB6813F0020F0CBF092308238DF8073058
:100370009DF80730012B0AD09DF8070002B07047A6
:1003800001238DF807309DF80730012BF4D1144A72
:1003900012E0D368DB0519D4D36813F0E00F17D14E
:1003A000D36813F0020F0CBF092308238DF8073020
:1003B0009DF80730012BDFD1D168C8034FF001034E
:1003C000F4D4D368D906E4D50623EFE70223EDE79A
:1003D0000723EBE70623D4E70723D2E70223D0E77E
:1003E000003C0240024B01F001011970704700BF50
:1003F00000000020704700BF704700BF704700BF7B
:1004000001207047034B18685B68C01AC0F30A00EC
:10041000704700BF98230020064B986800B97047CA
:100420009B68052B03D1044B1878C0B2704700209D
:10043000704700BF9823002000000020012380F8AF
:1004400049307047054BD8681B69984234BF03F1A7
:10045000FF3303F2FF73181A704700BF9823002080
:1004600010B5D0F8E83504461B699847032384F893
:100470001231002010BD00BF08B5042290F81211FF
:10048000D0F8E83580F8131180F81221DB6898471E
:10049000002008BD08B5D0F8E435DB6903B1984702
:1004A000002008BD08B5D0F8E4351B6A9847002045
:1004B00008BD00BF08B5D0F8E4355B6A9847002056
:1004C00008BD00BF70B5037805460E461446DBB183
:1004D000013081F08FFF431CDBB201335B00DAB2E5
:1004E00023800323327073702C7864B12846022372
:1004F00000215A1CD2B2F454B15410F8014F023307
:10050000DBB2002CF5D170BD02221346E8E700BF34
:1005100010B5064C6068FF2806D005494A691831B5
:1005200000F088F8FF236360002010BD0000002069
:1005300098230020432301480B80704708000020C7
:10054000122301480B8070474C000020042301480F
:100550000B8070476000002010B5044C04480A4628
:100560002146FFF7AFFF204610BD00BFB823002093
:100570002819090810B5044C04480A462146FFF71B
:10058000A1FF204610BD00BFB82300203419090880
:1005900010B5044C04480A462146FFF793FF204655
:1005A00010BD00BFB82300203C19090810B5044C49
:1005B00004480A462146FFF785FF204610BD00BFCC
:1005C000B82300204819090810B5044C04480A460D
:1005D0002146FFF777FF204610BD00BFB82300205B
:1005E00054190908704700BF704700BF704700BF2B
:1005F000704700BF704700BF014B00229A607047F0
:1006000098230020704700BF064B002005229A6007
:10061000C3F820011860C3F82401586083F828014A
:10062000704700BF98230020014B0020986070475E
:1006300098230020212838B50C4626D0222816D031
:10064000202812D189B1072A0FD1174DD5F82431AE
:1006500013B10968002098472168A288A379C5F8DA
:100660002C11A5F8302185F83231002038BD002941
:10067000FBD0022AF9D10C4AD2F82031002BF4D059
:100680000988D2F834019847EFE70029EDD0072A0E
:10069000EBD1054BD3F82C210A60B3F830218A80C6
:1006A00093F832318B71E0E7982300202DE9F8436D
:1006B000194D2C68C4F5006888450E46074619D3C5
:1006C00005F59C7020443946324685F02BF83444B9
:1006D000C4F30A042C606B6803F2FF731B1BC3F3A3
:1006E0000A03802B9DBF012385F8283102200020BA
:1006F000BDE8F88305F59C79014609EB0400A4F5F3
:1007000000644246344485F00DF807EB08012246A8
:10071000484685F007F8DDE79823002010B58121D1
:10072000044681F0E7FA2046012181F0E3FA2046F1
:10073000822181F0DFFAFFF777FF002010BD00BFB4
:10074000034610B4D9691A69002040F20114A3F8D5
:1007500044410860D1699C6D21F002014FF0010C09
:10076000D161A3F89CC32060D369044923F400330A
:1007700081F838095DF8044BD36170479823002055
:10078000202301480B807047640000201223014899
:100790000B80704784000020042301480B807047C1
:1007A000980000200A4608B5054920B90548FFF71A
:1007B00089FE034808BD0448FFF784FE004808BDD1
:1007C000D42C0020641909087C19090810B5044CC0
:1007D00004480A462146FFF775FE204610BD00BFBB
:1007E000D42C0020941909081C48D0F8E837D0F818
:1007F000EC2710B59B184FF01A040C8001D1184853
:1008000010BD174AD0F8EA0702F1100411464FF064
:10081000000E4FEA137CB3F1204F34BF0CF1300CC3
:100820000CF1370C81F802C081F803E002318C42F0
:100830004FEA0313EDD102F108040021030FB0F1D8
:10084000204F34BF303337339374D1740232944223
:100850004FEA0010F2D1024810BD00BF00F0FF1FA8
:100860009C00002010B5044C04480A462146FFF7BE
:1008700029FE204610BD00BFD42C0020A81909086D
:1008800010B5044C04480A462146FFF71BFE2046DB
:1008900010BD00BFD42C0020B4190908034BD3F8B5
:1008A000E42AB3F8E83A1383002070479823002025
:1008B0004FF40070034B1060D3F8903C0B600020A5
:1008C000704700BF98230020002070470120704728
:1008D000012070470020704710B41C6994420CD36B
:1008E00094460A4661448C42996938BFA4EB0C02D5
:1008F00061445DF8044B84F015BF5DF8044B70470C
:10090000704700BF704700BFD0ED007AD0ED036A9A
:1009100030EE677AE6EE877AB0EE670AC0ED007ACD
:10092000704700BF90ED017AB5EE407AF1EE10FA13
:10093000F0EE407A09D19FED0D7A60EE870AF7EE6E
:10094000006A86EEA07A80ED017A31EE077A90EDAA
:10095000000A80ED021AC1EE076A77EEC07AC0ED98
:10096000036AA6EEA70A80ED000A7047DB0FC940B4
:10097000D0ED056AD0ED017A90ED066AD0ED025A0D
:1009800090ED035AC0ED066AB0EE407A26EEA70A53
:10099000D0ED007A80ED057AA7EE870AD0ED077AD0
:1009A000A5EE860A90ED086AD0ED045AC0ED087AEB
:1009B000A5EE670AA5EEC60A80ED070A704700BFDC
:1009C000F0EE406AD0ED007A90ED050A90ED037AE2
:1009D00090ED016AD0ED025AA7EEA60AD0ED047A96
:1009E00027EE407A67EEC07AA6EE267AE5EEA67A82
:1009F00090ED066AC0ED067A36EE076A80ED056A6C
:100A0000704700BF03685A1C02601970704700BF2E
:100A10002DE9F04FD0E90031856889B04A1C00EB20
:100A200081045918F1EE407A0591002D92FBF3F103
:100A300003FB1122426000F1800A84ED200AC4ED1C
:100A4000407A00F5807240F38780691C012603F12B
:100A5000FF3B06914FF002090795B6460599A1EBB9
:100A6000090090FBF3F103FB1100411C91FBF3F42F
:100A700003FB14110AEB800802EB800CF14501EB3B
:100A80000E00D8ED006A90FBF3F49CED006AA3EB36
:100A9000090603FB140055DDCDE90198CDE903C635
:100AA00037460D46044641E0AB420AEB840902EBAF
:100AB000840804F1010441DD0AEB850C02EB850694
:100AC0000135DCED007AD8ED005A96ED007AF4EEAF
:100AD000E67AF1EE10FA0FDD99ED005AF4EEC57AE0
:100AE000F1EE10FA08DDB4EEE65AF1EE10FA58BF56
:100AF000F0EE456ACCED006AB4EEC67AF1EE10FA7B
:100B00000DDDB4EEE57AF1EE10FA08DDF4EEC65A2A
:100B1000F1EE10FA58BFB0EE656A86ED006A013753
:100B20005F4530DAB0EE476AF0EE676AA342BBDC9D
:100B3000AB429046D1464FF00104BDDC1646D44688
:100B40000125BEE706990EF1010E714509F1020972
:100B50000BF1FF3B82D1079D0599491B91FBF3F0F7
:100B600003FB10130AEB830102EB830391ED000AF0
:100B700093ED007A30EE470AF6EE007A20EE270A6F
:100B800009B0BDE8F08FDDE90198DDE903C698ED15
:100B9000006ADCED006A41E08B420AEB800C02EB5C
:100BA000800700F1010041DD0AEB810502EB8104C1
:100BB0000131D5ED007AD7ED005A94ED007AF4EECC
:100BC000C67AF1EE10FA0FD59CED005AF4EEC57A14
:100BD000F1EE10FA08D5B4EEC65AF1EE10FAD8BF0D
:100BE000B0EE456A85ED006AB4EEE67AF1EE10FAF1
:100BF0000DD5B4EEE57AF1EE10FA08D5F4EEE65A2A
:100C0000F1EE10FAD8BFF0EE656AC4ED006A013665
:100C10005E4597DAF0EE476AB0EE676A8342BBDC66
:100C20008B421746D4464FF00100BDDC14465546B2
:100C30000121BEE703685A1C02601970704700BFAB
:100C4000024BD3F8C00C03681B6818479823002098
:100C5000007970470079C0F340107047007940096F
:100C6000704700BF90F83C20034602F0FF0012B12D
:100C7000002283F83C2070472DE9F84345697DB98F
:100C80000768C7F30D0804460E46B8F1000F0AD0F6
:100C9000D6F80080FFF752FB09283BD06FF0010522
:100CA0002846BDE8F883514B9F422AD303F5804381
:100CB0009F4224D303F580439F427FD34C4B9F42F6
:100CC0007FD903F580339F427ED903F500339F42DD
:100CD0007DD903F500339F427CD903F500339F4251
:100CE00069D903F500339F4277D903F580239F42EA
:100CF00076D9B7F1016F76D305200EF0D7F84FF013
:100D00000808FFF71BFB092821D04FF0FF352846C4
:100D1000BDE8F883374E336923F440733361336998
:100D200043F400733361336943F001033361C7F85F
:100D30000080FFF703FB3369092823F001033361C7
:100D4000ACD12368043323602846BDE8F883DFF87C
:100D5000A490D9F8103023F44073C9F81030D9F8B2
:100D6000103043F40073C9F81030D9F8103023F074
:100D7000F803C9F81030D9F8103043EA080343F0FB
:100D80000203C9F81030D9F8103043F48033C9F8A1
:100D90001030FFF7D3FAD9F8103023F00203C9F866
:100DA0001030D9F81030092823F0F803C9F81030B2
:100DB0003FF46EAFA9E74FF03808A2E74FF01008F4
:100DC0009FE74FF018089CE74FF0200899E74FF095
:100DD000280896E74FF0300893E74FF0400890E777
:100DE0004FF048088DE74FF058088AE700400008A8
:100DF000FFFF0008003C02402DE9F0410446D0E925
:100E00000030134483421DD80D4601EB0208B2B1F5
:100E100004F10C07002601E0A84510D023695A1CF4
:100E20002261234415F8011B1973042AF4D13946B1
:100E30002046FFF721FFA845C4E90460EED16069B0
:100E4000BDE8F0814FF0FF30FAE700BF2DE9F8432D
:100E5000234E8146D6F8C47C0A4604E0D6F8C43C4A
:100E6000DB1B322B39D896F8C83C002BF6D192B355
:100E70004A4402F1FF3809F1FF39F368326901335E
:100E8000C3F30A039A4219D1D6F8C43CDB1B322BB8
:100E900023D80DF0AFFF04460D460DF0ABFF001B4D
:100EA00061EB0501B0F57A7F71F10001F5D3F368CC
:100EB00032690133C3F30A039342E5D0F268F36861
:100EC00019F8011F32440133C3F30A03C14582F804
:100ED000CC1CF360D1D1002000E00220BDE8F883F3
:100EE00098230020F8B50E4EB36803B9F8BDB36877
:100EF000052BFBD10B4B1B78002BF7D0002AD6F823
:100F0000C47C0D461446F1DD21462846FFF79EFFBE
:100F1000D6F8C43C0028E9D0DB1B322BF4D9F8BD4D
:100F200098230020000000202DE9F047544E1F4672
:100F300006EB80039C68002C00F09E8004F13E03C9
:100F4000A36104F59F73E3614FF48073C4E9043334
:100F50002836236866600546E16094F83D00A36387
:100F600091460AF0BDF9804694F8440294F83CA0FA
:100F7000261D002852D194F8450250BBD4F84032C7
:100F80006BBB3B0731D419F0020F5BD119F0010F95
:100F900047D1D4F8483294F9471294F847221B01FC
:100FA0000029DBB20DDB3749881880F8003350097F
:100FB000012302F01F02934041F820303046BDE883
:100FC000F087314902F00F02114430460B76BDE83C
:100FD000F0877AF00FF9D4F84032002BD1D02B4AA9
:100FE000116B0B4313633B07CDD50135EDB207F011
:100FF0001003B8F1000FCCD040F2067288F8085008
:10100000A8F8062094F846228BBB17F0200F0CBFDF
:101010003221122140460AF05DFBBAE77AF0EAF885
:10102000A9E750460AF05CF90135EDB20028B0D0CE
:1010300040F206620572C28094F8462202210AF04C
:1010400049FBA6E76B1CDBB2B8F1000F9ED088F815
:10105000083040F20653A8F8063094F8462240467D
:1010600002210AF037FB19F0010F92D0D9E70221D3
:1010700040460AF02FFB8CE726463046BDE8F08755
:10108000A45F080800E100E0FCEC00E0003802404A
:101090002DE9F047038A8489A4B21C4082B047D06E
:1010A000814688464FF0004501F14C0701F13406B6
:1010B000B4FA84F325FA03F2D24391B2A9F81010DE
:1010C00014401B3BB8F1000F5FD0042B2ED8DFE893
:1010D00003F052483D320300D8F80C30D9F82CA068
:1010E00033B19B6823B11FFA8AF108F104009847D5
:1010F000D8F8243033B19B6823B11FFA8AF108F184
:101100001C009847D8F83C3033B19B6823B11FFAD4
:101110008AF108F134009847D8F8543033B19B680D
:1011200023B11FFA8AF108F14C009847002CBFD177
:1011300002B0BDE8F087D8F80C30D9F834105B68FD
:1011400008F104009847002CB2D1F1E7D8F8243018
:10115000D9F838105B6808F11C009847002CA7D11B
:10116000E6E7D8F83C30D9F83C105B683046984741
:10117000002C9DD1DCE7D8F85430D9F840105B68DA
:1011800038469847002C93D1D2E7042B07D8DFE8E4
:1011900003F01903140F0A00D9F83C300193019BA6
:1011A000002C85D1C4E7D9F82C300193019BF7E7D7
:1011B000D9F834300193019BF2E7D9F83830019324
:1011C000019BEDE7D9F840300193019BE8E700BFB0
:1011D00010B5044629B990F81121032A0DD000203A
:1011E00010BDD0F8E4359B69002BF8D090F812219F
:1011F000032AF4D19847002010BDD0F890230B4665
:10120000D0F87C138A4219D9521AC0F8902394F866
:1012100003C0D0F880038A4228BF0A46BCF1010F00
:1012200092B234D0C4E9E22304F55D71C4F88003BE
:10123000A4F87433204680F0F7FDD0E7D0F8E43509
:101240001B691BB190F81221032A1ED000234FF412
:1012500080720421C4E94A33C4E94C3384F8111183
:10126000A4F81C2104F58E71204680F0DDFD636D2D
:101270000D4A1A61E278012AB1D104F2CC545C61C2
:101280004FF0802219681A60A9E79847DEE7084402
:10129000C4E9E22304F55D71C4F88003A4F8743353
:1012A000C4F88403C6E700BF1800086038B50446D8
:1012B00049B990F81131022B11D094F81631012B55
:1012C00039D0002038BDD0F8E4355B69002BF8D068
:1012D00090F81221032AF4D19847002038BDD0F8A5
:1012E0003831D0F8242193422FD990F803C09B1AAB
:1012F000BCF1010F0D46C0F83831D0F828116ED07E
:101300009BB2C0F830314FF48073C0E94A11C0F885
:10131000345100F58E71A0F81C3180F085FDC4E9D0
:10132000E255C4F8805304F55D71A4F87453204667
:1013300080F07AFDC1E73F4B2269D3F8D4135160A6
:10134000002384F81631002038BDD0F83C31B3FBBF
:10135000F2F502FB15350DBB9A421FD8D0F840219B
:1013600093421BD24FF48073A0F81C3100F58E71AC
:10137000C0E94A55C0E94C5580F056FDE378C4F801
:101380004051012BC4E9E255C4F88053A4F87453CA
:1013900008BFC4F8845304F55D71C8E7D4F8E43598
:1013A000DB681BB194F81221032A15D0E2780023E0
:1013B0000521012A84F81111C4E9E233C4F880330D
:1013C000A4F8743304F55D7124D0204680F02CFD20
:1013D000636D194A1A6170E720469847E6E79BB2A9
:1013E0001144C0F830314FF48073C0E94A11C0F89D
:1013F000345100F58E71A0F81C3180F015FDC4E960
:10140000E255C4F8805304F55D71A4F87453C4F830
:1014100084538CE7C4F88433204680F005FD636D67
:101420000548186104F2CC525A614FF080211A68C5
:10143000196042E7903400201800086070B5264C0F
:101440000025636822689A421FD06268636801338E
:10145000C3F30A0363606168236894F82831224467
:1014600092F838510BB9284670BD0126636822688E
:1014700003F2FF739B1AC3F30A03802B0BD8002ED1
:10148000F1D1636822689A42DFD194F82831002BA9
:10149000D7D00026EAE7114B93F8DB13002201298D
:1014A0000F4984F828214FF04000C3F88C274FF0F3
:1014B0000102A3F87427C3F8880703F6CC12A1F53C
:1014C000677008BFC3F88427C3F8802780F00EFD3B
:1014D000002ED6D0C7E700BF98230020903400200C
:1014E000043C0020F8B5244C94F8C82C012A03468B
:1014F00003D0022A09D00020F8BD204ED6F80C5A9D
:101500008DB984F8C85C0020F8BD002540F20112B6
:10151000C0E95455C0E95655A0F8442100F5A27120
:1015200080F0E4FCEDE7402D1DD940272169144AE5
:10153000C3F858710A44C3E9542240F20112A3F8D7
:1015400044210022C3F85C2103F5A271184680F003
:10155000CDFC23693B44ED1BC3F30A032361C6F8AA
:101560000C5A0020F8BDAAB2402A01D02F46DDE770
:10157000022284F8C82CD8E7982300209034002059
:101580006430002001EB810138B500EBC1010E4D44
:10159000B1F88C1304462846FFF788F888B9E37839
:1015A000C4F8A85301214022012BC4E9EC20A4F87F
:1015B0009C1308BFC4F8AC5304F56771204680F053
:1015C00095FC002038BD00BF5C3E0020F8B5254CDE
:1015D000D4F8103A0E2B04D80133C4F8103A002086
:1015E000F8BD214D95F8C83C0022C4F8102A002B04
:1015F000F5D12A69EB689A42F1D02A69EB689A42E0
:1016000029D92E69C6F50066402E28D8B3B2402BE2
:1016100013BF37464027022301232A6985F8C83CB7
:10162000124BC0F858711344C0E9543340F201130F
:10163000A0F844310023C0F85C3100F5A27180F0BD
:1016400055FC2B693B44F61BC3F30A032B61C4F81A
:101650000C6A0020F8BDEE682B69F61AD4E7012366
:101660004027DAE7903400209823002064300020DF
:1016700010B5324B93F8202A93F834CAD3F81C3AA9
:10168000044613B152EA0C0231D00123E06984F818
:10169000463140F20112A4F8442102682849002A88
:1016A000A8BFC2F380739B0301EA124143F02003F9
:1016B0000B4363F31F42BCF1020F026000D010BD68
:1016C000E278204BC4F8A8331F200021C4E9EC01C4
:1016D000012A4FF00101A4F89C1308BFC4F8AC33F1
:1016E00004F567712046BDE8104080F0FFBB012182
:1016F00080F0C6FA0122E06984F8462140F2011325
:10170000A4F84431016800290A460CDBC1F3807358
:101710000B4C9B0343F0200304EA11410B4363F39A
:101720001F42026010BD064B03EA114343F480439D
:1017300043F0200363F31F42026010BD9034002089
:10174000DFBFFFFFA43E002090F848305A1C03443E
:10175000D2B280F8482083F8341090F849300BB1A9
:10176000132A01D980F076BC704700BF002280F8B0
:10177000492080F06FBC00BF2DE9F041B0F8CC15D6
:10178000D0F8CE35B0F8D255B0F8D085C0F8405179
:10179000012284B080F8112101F01F02012A0446C1
:1017A00000F2CC56ADF80810C1F3072ECDF80A3080
:1017B000ADF80E504FEA134C51D0022A7746C9B209
:1017C0009BB210D0002A55D1BEF1090F4BD8DFE8EB
:1017D0001EF08900AD004A00C8004A005C01DF002D
:1017E0004A001301330101F0600120295FFA8CF2F5
:1017F00072D0012F00F0B881032F00F0A181AFBBA0
:1018000090F81231022B00F0E381032B2BD11CF056
:10181000800F40F0E98102EB820200EBC20393F8F3
:101820007623003A18BF0122C24D02234FF4807183
:10183000C4E94E3384F81131C4F83031A4F81C11D6
:1018400005F524630021C4F83411C4E94A3304F5D2
:101850008E712046C5F8402A80F0E6FA06E090F83E
:101860001231032B0ED0204680F0D2F9002004B0B4
:10187000BDE8F08101F0800180F002FA002004B0A0
:10188000BDE8F0815FFA8CFCBCF1010FEBD8D0F819
:10189000E43502A99B689847BDF80E30002BE5D1CE
:1018A000C4E94A33C4E94C3304214FF4807284F80C
:1018B0001111A4F81C2104F58E71204680F0B4FAB1
:1018C000636D9D4A1A61E278012ACFD15E614FF0C3
:1018D000802219681A60C9E7D0F8E43502A99B682C
:1018E0009847C3E790F81231023B012BBBD8914BCC
:1018F000D0F818210021C3F83C1A12B10222C3F813
:101900003C2A8E4A02234FF480700021C4E94C31F6
:10191000A4F81C01C4E94E33C4E94A2284F8113109
:1019200004F58E71204680F07FFA9FE790F812212F
:10193000023A012A97D8012B98D1D0F8E435002536
:101940009B68C0F8185102A9984704224FF480738D
:10195000C4E94A55C4E94C5584F81121A4F81C3156
:10196000A9E7012B00F03B81022B7FF47FAF5FFAE8
:101970008CF3002B7FF47AAF03694FEA1C22023A02
:101980005B68032A00F2BD81DFE802F0B6CED2D058
:101990001E0A022EADF8065000F08A81032E00F0D8
:1019A0004E81012E7FF45FAFD0F8EC3580781B6854
:1019B0000DF106019847BDF80630002B3FF456AFF5
:1019C000BDF80E20002A3FF451AF934228BF1346C2
:1019D0004FF480720221A4F81C210022C4E94A00BD
:1019E00084F81111C4E94E33C4E94C3204F58E7108
:1019F000204680F019FA39E7012D7FF434AF90F8D2
:101A00001231022B00F00881032B7FF42CAF4FF42E
:101A1000807200F588730221A0F81C21002280F852
:101A20001111C0E94E55C0E94A33C0E94C5200F5E6
:101A30008E7180F0F9F919E7DDB23E4F012D87F87C
:101A4000355A3FF610AF90F81231022B00F0D880D3
:101A5000032B7FF408AF002D00F0358190F81011B2
:101A6000012910D0D0F8E4355B68984797F8351A0B
:101A7000D4F8E43584F810111B6820469847D4F850
:101A8000E8359B68984700230AE758EA05027FF487
:101A9000EAAE90F8121103293FF4E5AE03F07F059A
:101AA00080F814510069114663F30A110368194361
:101AB0000423016084F811314FF48073C4E94A2291
:101AC000C4E94C22A4F81C3104F58E71204680F044
:101AD000ABF9636D184A1A61E278012A06D0002D2D
:101AE00000F0FC80022384F81231BFE65E614FF003
:101AF000802219681A60F2E702210E4861F306138A
:101B00000022C0F8D4330423C4E94A22C4E94C2299
:101B100084F8113101224FF4807304F58E7184F83A
:101B20001621A4F81C31C8E60321E6E70521E4E705
:101B30000421E2E79034002018000860CC3E002029
:101B400090F81211022943D003297FF48CAE23B9F7
:101B5000510602D0114680F093F8D4F8E4359B6822
:101B600002A9204698478EE790F8121102292FD03B
:101B700003297FF478AE002B7FF478AE12F07F015A
:101B800081D01CF0800F40F0AD8002EB820100EBB1
:101B9000C10181F8763381F87533282381F87423E5
:101BA00003FB020300EB820193F87723496D0B6876
:101BB000023A012A23F400138CBFC3F300720122FE
:101BC00062F31C73D4F8E4250B60936802A9C8E79C
:101BD00053063FF44BAE114680F052F846E6D0F87B
:101BE000E425C0F81831F0E702F07F0202EB820230
:101BF00000EBC20393F81E21003A18BF012213E63E
:101C0000002D3FF4A2AE01210322D0F8E43580F884
:101C1000101180F812212FE73B4A80F811314FF460
:101C200080710023A0F81C11C0E94E55C0E94A227A
:101C3000C0E94C5300F58E7180F0F6F816E6DBB281
:101C4000052B3FF610AEDFE803F02B231B130B032D
:101C5000D0F8EC3580789B690DF106019847AAE62B
:101C6000D0F8EC3580785B690DF106019847A2E663
:101C7000D0F8EC3580781B690DF1060198479AE69B
:101C8000D0F8EC358078DB680DF10601984792E6D4
:101C9000D0F8EC3580789B680DF1060198478AE60C
:101CA000D0F8EC3580785B680DF10601984782E644
:101CB000D0F8E43580789B6A0DF1060198474670AC
:101CC000C4F8F00577E60222D0F8E43580F8122156
:101CD00080F810515B682946984736E6012384F85E
:101CE0001231C3E5282202FB010080F81C1104EB2D
:101CF000810180F81E3180F81DE190F81F2189696B
:101D000055E70121F9E600BFC83E002070B50B7809
:101D100013F060020D46044624D0202A04D0204649
:101D20007FF076FF022070BDCA8848781AB31B0680
:101D300040D5314E3146FEF77DFCEB884FF4807282
:101D40000221A4F81C21002284F81111C4E94E33A9
:101D5000C4E94A66C4E94C3204F58E71204680F02D
:101D600063F806E04B780A2B10D00B2B08D0062B1B
:101D7000D5D0002070BD02221144FEF75BFCF8E7CD
:101D80008B78B3BB1D4AC2F8443AF2E7022180F8CF
:101D900011114FF48071A0F81C1119490123C0E9F9
:101DA0004A11C0E94E33C0E94C3200F58E7180F023
:101DB0003BF8DEE71349144B4860E0785A61002194
:101DC000183301284FF00305C4F88C13A4F87413DA
:101DD000C4E9E42284F81151C4F88823C4F880339C
:101DE00004F55D7108BFC4F88433204680F01CF808
:101DF000BFE77FF00DFFBCE7B02300209034002048
:101E0000D43E00200000002098230020002310B5BD
:101E10001946044640227FF09DFF80212046002382
:101E200040227FF097FFD4F8E835A078012284F8AB
:101E300012215B689847002010BD00BF10B5022337
:101E40000446402281217FF085FF20460223402264
:101E500001217FF07FFF20460323082282217FF0AB
:101E600079FF104B0222A3F85020FEF7CDFBE27859
:101E70000D4BC4F8A8334021C4F8B013012A4FF029
:101E800000004FF00101C4F8B403A4F89C132046ED
:101E900004F5677108BFC4F8AC3380F027F8002060
:101EA00010BD00BF000000205C3E002030B5812145
:101EB00083B004467FF01EFF012120467FF01AFF09
:101EC0002A4900250223402281F8385920468121E1
:101ED0007FF040FF01210223402220467FF03AFF9D
:101EE000234BD3F8482A83F8345A1268284690477F
:101EF0000095009AE1681F4B42F010020092009A90
:101F00000A610A690092013B02D0009AD006F8D417
:101F100000230193019B43F020030193019A154B89
:101F2000012060F38A120192019A0A610A69019202
:101F3000013B02D0019A9206F8D4E2780E4BC4F825
:101F4000A8331F200021C4E9EC01012A4FF0010150
:101F5000A4F89C13204604F5677108BFC4F8AC339D
:101F60007FF0C4FF002003B030BD00BF98230020E5
:101F700090340020410D0300A43E00202DE9F843D9
:101F8000DDF820800F4615460021202204461E461B
:101F900083F08DFEB8F1000F0CD0D8F80030E3814B
:101FA0001B0C2382D8F80430B8F80A20E3821B0CFB
:101FB00062822383384680F01DFAEB0619D4431E53
:101FC000B8B107EB000C01E0013B12D31CF801EDA6
:101FD000BEF12E0FF8D1C01A421E032AA8BF032259
:101FE000082B03F10109A8BF08239046B9441A46FB
:101FF00006E008280246B946A8BF08224FF00008AC
:102000004FF02033394623606360204683F08AFB1B
:1020100004F10800154B238142464946837083F042
:1020200081FB611EE21D11F801CFACF16103192B98
:102030009CBFACF1200C81F800C09142F3D104F1B7
:102040000A0011F8013FA3F16102192A9CBF203B4D
:102050000B708142F5D118232373330CA382E572F0
:10206000099B6683E361BDE8F88300BF2020200060
:102070002DE9F04FDFF858B4DBF8E40A0C46BBF862
:10208000E81A418385B0002B63D01344174604F54A
:10209000FE7A99461FE0002F69D0DBF89C3CBB42DA
:1020A00000F0CB80DBF8983CBB4200F0FD80DBF811
:1020B000A03CDBF8A41CBB4250D8B94200F27581A9
:1020C000791A204678F08AFB01374F4504F50074F1
:1020D0000AF5007A39D0DBF8A83CBB42DBD8DBF844
:1020E000B85CFB1A296BDA0802328A4203F0070651
:1020F00002D3AB6B9A420BD929461046029278F074
:102100003DFB029A0546002800F06F81CBF8B80C21
:102110002B79002B40F02381D5F82880B8F1000FEF
:1021200000F05C812B6BD21AEB6806EBC20203EB6A
:10213000422220462B464FF400710137C0474F45DD
:1021400004F500740AF5007AC5D1DBF8E40ABBF89F
:10215000E81A0183002005B0BDE8F08FB942AFD97D
:102160004FF400720021204683F0A1FDACE74FF44C
:1021700000723946204683F09AFD802384F8BE31F0
:102180000C2384F8C231DBF8981CC54ADBF8903C7C
:10219000C4F8C6119142C4F8CA3100F30B81C14A98
:1021A000C14D82FB010285FB01050A44C817C0EB43
:1021B0006212C0EB2530BD4D84F8C10185FB02657C
:1021C000C2EB82168010891B013120F03F001544BC
:1021D0000843D117C1EBE5110A4484F8BF21B04A86
:1021E00084F8C001013B934200F3F080AD4AAE4851
:1021F00082FB031280FB03101A44D917C1EB621251
:10220000C1EB2031A94884F8C51180FB0250C2EB14
:10221000821589105B1B013321F03F0110441943E3
:10222000D317C3EBE0131A4484F8C41184F8C32114
:102230004AF65523A4F8FE3146E74FF0FF3384F801
:10224000EC3184F8ED3184F8EE3184F8EF3152232B
:10225000237063706123A37084F8E7314123E37036
:1022600084F8E6317223002584F8E43184F8E531FE
:10227000DBF8B03CC4F8E8314FF4F0722946201D79
:1022800083F015FD552384F8FE316FF05503C4F833
:10229000F051C4F8F451C4F8F85184F8FC5184F8B2
:1022A000FD5184F8FF310FE74FF400720021204602
:1022B00083F0FDFC7E4B03CB45F6EB03238090239C
:1022C000C4F80710A37002220821F823C4F8030001
:1022D000617322746375DBF8903C2273A27384F8F7
:1022E0002C20DBF8982C9B1A2362DBF8A02CDBF85F
:1022F000A43C9B1A63620023E372E3736377A377C2
:10230000E37784F82D3084F82E3084F82F3084F869
:102310003130684BA361684BC4F842303E232377C9
:10232000012384F83030654A802384F8403084F8F3
:1023300046104AF65521A4F8FE1103CA604BC4F8B2
:102340004700C4F84B1003CB1388A4F84F309378A0
:10235000C4F85200C4F8561084F85130B4E64FF473
:1023600000720021204683F0A2FC002E44D12B6C89
:1023700004F12008002B7BD02B6B52491122CDE9B0
:1023800000662046FFF7FAFD2B6C1A6C002A7ED0FF
:102390001B6B4D49CDE9006640461122FFF7EEFD6B
:1023A00004F140084FF4E0736DE0F91A204678F02C
:1023B00015FA89E6FF2284F8C1214FF6FF72A4F8CE
:1023C000BF21374A013B93427FF710AFFF2384F8C8
:1023D000C5314FF6FF73A4F8C33129E741464FF4E6
:1023E0000072204683F063FC6EE6384A231F43F8F0
:1023F000042F9A45FBD167E6D5E910253301002A61
:1024000043D0023B002D3FF45FAE013BAD6CF9D1F0
:10241000A0464FF40073002D3FF456AECDE9027A8A
:1024200008EB0306A24608E00024CDE900C4FFF74C
:10243000A5FDAD6CBDB1B04515D02C7929682B6BCD
:10244000404605F11C0C112208F12008002CEBD1AC
:102450006A792C6942F02102CDE900C4FFF78EFDB4
:10246000AD6C002DE7D15446029FDDF80CA02BE6A1
:10247000CDE900663346DBF8941C08222046FFF7BE
:102480007DFD4FF4F0736D6CC5E7013BBAE7CDE914
:1024900000660D49334640461122FFF76FFD7FE786
:1024A000FF03FB008320088297554541818080808F
:1024B000C41909083F00FF0029940E0DD01909081E
:1024C000DC190908D020090834220908DEADBEEF66
:1024D000982300208C46134601466246184651F068
:1024E0007DB900BF1049114BD1F8882042F4700229
:1024F00010B4C1F888201A680D4C002042F0010287
:102500001A6098601A6822F0847222F480321A608D
:102510005C601A68074C22F480221A60D8608C60D4
:102520005DF8044B704700BF00ED00E0003802404A
:102530001030002400000008704700BF0148FDF77C
:1025400067BE00BFBC0000200148FDF761BE00BFB0
:10255000080300200148FDF75BBE00BF54050020C2
:102560000148FDF755BE00BFA00700200148FDF758
:102570004FBE00BFEC0900200148FDF749BE00BF77
:10258000380C0020704700BFB0B130B443688D688C
:102590005A791C68022393404A689BB26AB1A289A7
:1025A0009DB192B213438160A381A3899BB243F092
:1025B0000103A38130BC70477047A28992B222EA1E
:1025C0000303A38165B18160EFE722F001021204E9
:1025D000120CA281A289816092B21343A381E9E720
:1025E000A38923F001031B041B0CA3818160E1E795
:1025F00038B5D0E9004007EE902A0068324A334BE4
:102600002468D3F8803E2468013990428DB210D0FE
:1026100002F5806290420CD002F57052904208D0D0
:1026200002F58062904204D002F58062904218BFA9
:102630005B0807EE103AF8EE677AB8EE477ADFEDFE
:10264000246A87EE270A30EE260A81F0FFFC1E4935
:102650002388421E8C4292B29BB21AD01D498C42F2
:1026600017D0B4F1804F1FD0A1F580318C421BD020
:1026700001F580618C4217D001F580618C4213D046
:1026800015498C4219D123800123E5622285A3825A
:1026900038BD23F45C739BB223800023E56222855E
:1026A00023860123A38238BD23F45C739BB223806D
:1026B0000123E5622285A38238BD08498C42E2D01D
:1026C00023F440739BB2DEE70000014000000020CD
:1026D0000AD7233C000401400010004000140040D1
:1026E00070B54268937903F0020E13F004033AD1F7
:1026F00075469C469E464FF4807001235479032C06
:1027000030D8DFE804F08E6202361468704E228CF6
:1027100022F480721204120C2284228C22F40072A1
:1027200012042B43120CA58842EA0322A38B23F048
:1027300073031B041B0CB442ADB243F0600300F002
:102740009B8006F58066B44200F09680A580A38346
:10275000E1632284A38B23F008031B041B0C43F0CA
:102760000803A38370BD002005464FF0040C034608
:10277000C4E71268564E148C24F480542404240CAC
:102780001484148C24F4005424042B43240C9588C2
:1027900044EA0334938B23F4E6431B041B0CB2423C
:1027A000ADB243F4C04375D006F58066B24271D035
:1027B0009580938311641484938B23F400631B042A
:1027C0001B0C43F40063938370BD1468404E228C4D
:1027D00022F010021204120C2284228C22F0200219
:1027E00012042B43120CA58842EA0312238B23F414
:1027F000E6431B041B0CB442ADB243F4C04359D0B2
:1028000006F58066B44255D0A5802383A163228457
:10281000238B23F400631B041B0C43F4006323830A
:1028200070BD1268148C24F001042404240C148458
:10283000148C968824F0020424042B43240C1C439B
:10284000138B234D23F073031B041B0CAA42B6B257
:1028500043F0600323D005F58065AA421FD096801F
:10286000138351631484138B23F008031B041B0C84
:1028700043F00803138370BD22F4006242EA0E2283
:1028800022F4806292B225F4405542EA0C2245EAD5
:1028900000155BE725F4804545EA801588E726F4B6
:1028A000407606434FF6F370204040EA0E0040EABF
:1028B0000C04D4E722F0800242EA0E1222F0400219
:1028C00092B225F4406542EA0C1245EA80059BE786
:1028D0000000014042685379032B0FD8DFE803F072
:1028E0000B08050210684030704710683C30704794
:1028F00010683830704710683430704700207047D7
:10290000024B0348D3F84C1AFEF7C2BB90340020A8
:102910000000014010B5064C0648D4F84C1AFEF7EA
:10292000B7FBD4F86C1A0448BDE81040FEF7B0BB02
:1029300090340020000001400040014010B5064CDA
:102940000648D4F84C1AFEF7A3FBD4F8701A0448D2
:10295000BDE81040FEF79CBB903400200000014011
:102960000044014010B5064C0648D4F84C1AFEF756
:102970008FFBD4F8741A0448BDE81040FEF788BBFA
:10298000903400200000014000480140034B4FF00C
:102990008040D3F8501AFEF77BBB00BF9034002074
:1029A000024B0348D3F8541AFEF772BB9034002050
:1029B00000040040024B0348D3F8581AFEF768BBE6
:1029C0009034002000080040024B0348D3F85C1A02
:1029D000FEF75EBB90340020000C0040024B034821
:1029E000D3F8681AFEF754BB90340020000401406D
:1029F00010B5064C0648D4F8681AFEF749FBD4F81F
:102A0000781A0448BDE81040FEF742BB903400201D
:102A1000000401400018004010B5064C0648D4F8E8
:102A2000681AFEF735FBD4F87C1A0448BDE810405C
:102A3000FEF72EBB9034002000040140001C004033
:102A400010B5064C0648D4F8681AFEF721FBD4F8F6
:102A5000801A0448BDE81040FEF71ABB90340020ED
:102A600000040140002000400348D0F8903E13B11C
:102A700000F6846018477047000000200348D0F833
:102A8000B03E13B100F6A460184770470000002064
:102A90000348D0F8D03E13B100F6C4601847704721
:102AA000000000200348D0F8F03E13B100F6E460C7
:102AB00018477047000000200348D0F8103F13B1BA
:102AC00000F6047018477047000000200348D0F853
:102AD000303F13B100F62470184770470000002003
:102AE0000348D0F8503F13B100F6447018477047C0
:102AF000000000200348D0F8703F13B100F6647066
:102B000018477047000000200348D0F8903F13B1E9
:102B100000F6847018477047000000200348D0F882
:102B2000B03F13B100F6A4701847704700000020B2
:102B30000348D0F8D03F13B100F6C470184770476F
:102B4000000000200348D0F8F03F13B100F6E47015
:102B50001847704700000020024803690BB1043099
:102B600018477047001000200248036B0BB1243057
:102B700018477047001000200248036D0BB1443025
:102B800018477047001000200248036F0BB16430F3
:102B9000184770470010002002683649002310B41F
:102BA00022F00102212488420260036043608360B6
:102BB000C3600361446138D02F4B98422ED02F4B15
:102BC00098423CD02E4B984240D02E4B984232D067
:102BD0002D4B984241D02D4B984246D02C4B9842D9
:102BE00017D02C4B98423CD02B4B984216D02B4BF5
:102BF000984224D02A4B984228D02A4B98421AD087
:102C0000294B984229D0294B98422ED0284B9842E4
:102C100008D14FF03D5243F8AC2C03E04FF47462FE
:102C200043F8202C5DF8044B7047224B5DF8044BB1
:102C30003D229A607047204A43F8642CF2E74FF433
:102C400074125DF8044B43F8382C70474FF07462EF
:102C50005DF8044B43F8502C7047184A43F87C2C1D
:102C6000E0E73D2243F8082CDCE7154A43F8942CB2
:102C7000D8E700BF10600240286002404060024078
:102C8000586002407060024088600240A0600240CC
:102C9000B860024010640240286402404064024070
:102CA000586402407064024088640240A06402409C
:102CB000B8640240006002403D000020400F002048
:102CC00000003D20214A936803F00C03042B10B44C
:102CD0003AD0082B1FD01E4B1C4C0360A1681D4A24
:102CE000C1F30311114491F85C10CB404360A1681B
:102CF000C1F38221114491F85C1023FA01F1816043
:102D0000A1685DF8044BC1F342310A4492F85C209B
:102D1000D340C36070475368516813F4800F536801
:102D200014BF0D4A0A4AC3F3881301F03F01B2FBF6
:102D3000F1F202FB03F3054A5268C2F30142013289
:102D40005200B3FBF2F3C7E7034BC5E7003802407C
:102D50000024F400A45F080800127A0070B5446BE8
:102D60008668A38923F400531B041B0CA381857977
:102D700090F805C02B0303F40051C5F380000CF05C
:102D800001032A029B001CF0020F4FEA003002F4FC
:102D9000806218BF43F0080302431A43238A9BB2A0
:102DA00023F440530B432382A38923F4B05323F02D
:102DB0000C031B041B0C1343A381A38A23F440734D
:102DC0001B041B0C84B0A3826846FFF77BFF234BD8
:102DD0009C4205D003F580639C4201D0029B00E039
:102DE000039BA2891E49120403EB83034CBF7600A8
:102DF000B60003EB8303B3FBF6F3A1FB0302A08948
:102E000052096426000406FB12334FEA02121CD456
:102E10001B013233A1FB0313C3F3431313439BB2D0
:102E200023812A07A38A0AD59BB243F00803A38211
:102E3000A3899BB243F40053A38104B070BD23F077
:102E400008031B041B0CA382F2E7DB003233A1FB57
:102E50000313C3F342131343E1E700BF0010014023
:102E60001F85EB512DE9F843394C9DF820509DF812
:102E70002490A0420F4690461E4649D0354B9842BA
:102E80004ED0354B984253D0344B98422BD0344BD4
:102E9000984255D0334B984221D14B462A46314671
:102EA0000520FEF741F804460023C4E90B78C4E985
:102EB0000733C4E909336571A66084F8069020469B
:102EC000FFF74CFFEA07616B1AD4AB0713D48B8969
:102ED0009BB243F400538B812046BDE8F883002465
:102EE0002046BDE8F8834B462A4631460320FEF7CC
:102EF0001BF80446D8E7CB6843F08003CB60E6E7D5
:102F00004FF6DF730B80CB6843F02003CB60DCE728
:102F10004B462A4631460020FEF706F80446C3E732
:102F20004B462A4631460120FDF7FEFF0446BBE72B
:102F30004B462A4631460220FDF7F6FF0446B3E72A
:102F40004B462A4631460420FDF7EEFF0446ABE728
:102F5000001001400044004000480040004C004088
:102F600000500040001401408160F7E64171F5E631
:102F70008171F3E62DE9F043794F07EBC00985B085
:102F800005464FEAC00819F8700C08F0A9F9044684
:102F900019F86F0C08F0A4F9064619F86E0C78F0D1
:102FA00029F96B1CDBB2002C00F0AB8040F60C1250
:102FB0002372E280002E00F0B680337240F60C23BC
:102FC0002046F38004223A2108F084FB0422304694
:102FD0003A2108F07FFB07EB0803624A53F8744C70
:102FE000944200F09680604B9C4200F0A2805F4BC0
:102FF0009C4200F0A980474417F86D3C022B32D068
:10300000032B7CD05A495B4F012B08BF0F46A68883
:103010006846FFF757FE26F03F06029B564AB3FB71
:10302000F7F13604A2FB0323360C46EA9346A6804A
:10303000228822F001021204120C22808AB2C1F30B
:103040000B019B0C09B942F001024FF4967101FB90
:1030500003F34A49A1FB03139B0901339BB242F4DA
:10306000004223841FE0A6886846FFF72BFE26F067
:103070003F06029A404B3604A3FB0213360C46EA85
:103080009346A680218821F001010904090C2180C2
:103090003B499209A1FB021292099B0C0133042ABD
:1030A000238438BF0422A2832388364A9BB243F08C
:1030B00001032380238823F4816323F002031B048C
:1030C0001B0C4FF4804143F48063238021812388CB
:1030D00023F080031B041B0C238023889BB202EB8C
:1030E000451243F0010323800121002382F8885A0E
:1030F00082F8891A82F88A3A05B0BDE8F083224F37
:1031000085E7002E3FF467AF337240F60C23F3805F
:103110005CE71E4B1A6A42F400121A621A6A22F421
:1031200000121A6267E7042220463A2108F0D2FA18
:1031300051E703F5F0331A6A42F480021A621A6A00
:1031400022F480021A6256E703F5EE331A6A42F45B
:1031500000021A621A6A22F400021A624BE700BFE8
:10316000F81000200054004000580040005C00406F
:10317000009F2400804F120083DE1B43D34D62105A
:10318000632D3E0590340020C0270900003802401E
:103190002DE9F047924E90F900108046807806EBBA
:1031A000C1050138CC0090B055F8741C14282DD8F6
:1031B000DFE810F04C012001150055005F009E0073
:1031C000A600C301B6017A0084003C020402D701C4
:1031D000C000D0002F003700A30195015401888A58
:1031E0000C8B81B27F4841EA0441884300F0208182
:1031F000D8E90201101A42F2107263EB0101904209
:1032000071F1000102D3152388F8023010B0BDE837
:10321000F08798F813000882C8E90223122088F882
:103220000200888A0C8B80B240EA04406E4C8443D2
:1032300000F0B28000200E900F9001200F910E90B0
:103240000E99002900F017820F9914310F910F99F0
:1032500009684905CCD5142388F80230D6E798F8D8
:10326000110000F0FE000882C8E90223052088F85A
:103270000200888A0C8B80B240EA04405B4C844395
:1032800000F0A180002000900190012001910090A9
:103290000099002900F0FB810199143101910199F5
:1032A00009684F05D7D4A3E798F8110040F0010052
:1032B0000882C8E902230B2088F80200888A0C8B58
:1032C00080B240EA04404A4C84436DD00020049010
:1032D00005900120059104900499002900F0D18106
:1032E000059914310591059909684D05B3D47FE717
:1032F00098F813000882C8E90223072088F8020022
:10330000888A0C8B80B240EA0440374C84435ED0FC
:10331000002002900390012003910290029900295D
:1033200000F0C181039914310391039909684E0596
:1033300091D45DE7088820F480600004000C0880C8
:1033400098F8110000F0FE000882C8E9022310205E
:1033500088F80200888A0C8B80B240EA0440234C33
:10336000844312D000200C900D9001200D910C9000
:103370000C99002900F091810D9914310D910D994E
:10338000096848053FF567AF32E798F81330FF2B1F
:1033900006D198F810301BB1132388F8023035E7B6
:1033A000112388F8023031E7D8F81400012800F022
:1033B0008F81022800F04382098B0E21C8E9022385
:1033C00088F8021022E7062388F802301EE7D8F8B2
:1033D0001400002800F06D81082388F8023015E7FA
:1033E000F81000200100030084000700820007009D
:1033F00002000300088820F400600004000C08802C
:10340000088880B240F480600880088880B240F468
:1034100080700880032088F80200888A0C8B81B2B3
:10342000A94841EA04418843C8E902237FF4EEAE8B
:1034300098F81230002B40F0CE8198F81330FF2B13
:1034400000F03F82042388F80230DFE6098889050E
:103450003FF5CEAE002388F80230D7E6344414F8A6
:10346000700C07F03DFF064614F86F0C07F038FFAC
:10347000964AB2F8E83A01339BB28246A2F8E83A9B
:1034800016B13368B2881A83BAF1000F04D0DAF8A3
:103490000030BAF804201A831121304607F0FCFEF0
:1034A0001121504607F0F8FE4FF0090965272EB1AB
:1034B0003368B28819690A4240F02381013F00F065
:1034C0001D810BF097FC04460D460BF093FC001B8E
:1034D00061EB0501052871F10001F6D3E7E70888E3
:1034E00080B240F4007008804FF6FF3088820121DE
:1034F000C8E9022388F8021088E6D8F814000028EA
:1035000000F06D81D8F8184014F8016B0E82013874
:103510001225C8E90504C8E9022388F8025075E6B7
:10352000888A0C8B81B2684841EA044188437FF461
:103530005FAE0A2388F8023068E6088880B240F45B
:1035400080700880092088F80200888A0C8B81B27C
:103550005D4841EA04418843C8E902237FF456AE3E
:10356000E7E7002401250A940B940B910A950A9829
:10357000002800F047810B9814300B900B980068DE
:1035800046077FF535AED8F81400032800F06D81AA
:10359000022800F24381088820F480600004000CB7
:1035A0000880088880B240F400700880098A88F892
:1035B0001C40C8E9022388F8025027E600200124B5
:1035C00008900990099108940898002800F0148147
:1035D0000998143009900998006847077FF508AEEC
:1035E000EFF31185102080F31288088880B240F430
:1035F00000700880D8F818000E8A471CC8F81870A8
:10360000EDB2067085F311880D8AD8F818106FF0A6
:1036100001004E1CC8F818600D70C8E90223C8F8F4
:10362000140088F81C4088F80240EFE5002006905E
:103630000790012007910690069C002C00F0E8807E
:10364000079C14340794079C246864067FF5D0AD6A
:103650000C8AD8F818104D1CC8F818500C70D8F8FF
:10366000141088F81C000139C8E90223C8F81410A6
:1036700088F80200CAE50F9918310F910F9909686F
:10368000B6E505991831059105990968B0E50199E4
:103690001831019101990968AAE50D9918310D9128
:1036A0000D990968A4E503991831039103990968F4
:1036B0009EE5088880B240F4007008800121C8E9C6
:1036C000022388F80210A1E50100030090340020D5
:1036D000088820F480600004000C0880EFF3118457
:1036E000102080F31288088B088880B240F40070A4
:1036F000E4B2088084F311880C215FE616B13368C8
:10370000B2885A830BF076FB04460D460BF072FB31
:10371000001B61EB0501052871F10001F6D316B11C
:103720003368B2881A830BF065FB04460D460BF034
:1037300061FB001B61EB0501052871F10001F6D367
:10374000B9F101097FF4B2AE16B13368B2885A8379
:103750000BF050FB04460D460BF04CFB001B61EBDD
:103760000501052871F10001F6D3BAF1000F04D06C
:10377000DAF80030BAF804205A830BF03BFB044619
:103780000D460BF037FB001B61EB0501052871F1BD
:103790000001F6D316B13368B2881A830BF02AFB06
:1037A00004460D460BF026FB001B61EB05010528C6
:1037B00071F10001F6D3BAF1000F04D0DAF800304D
:1037C000BAF804201A8398F90000441C3FF442AE72
:1037D000FFF7D0FB3EE60F2388F8023016E5088895
:1037E00080B240F4007008800121C8E9022388F803
:1037F0001C1088F8021009E50999183109910999F6
:103800000968F5E40B9918310B910B990968EFE4FD
:1038100007991831079107990968E9E4D8F8180061
:10382000098A441CC8F818400170D8F81410C8F868
:1038300008200139C8F81410C8F80C30E6E40888EC
:1038400080B240F400600880EFF31184102080F310
:103850001288088B088820F480600004000CE4B211
:10386000088084F311880D21A8E5088820F4806081
:103870000004000C0880EFF31184102080F31288FC
:10388000D8F818000D8A461CC8F81860057008881A
:1038900080B240F40070E4B2088084F31188D8F854
:1038A0001800098A441CC8F818400170D8F8141090
:1038B0000C200239C8E90223C8F8141088F8020065
:1038C000A4E498F81030002B3FF4BCAD31E600BF03
:1038D00038B5184D9DF814E005EB40144FEA401C34
:1038E00094F8890A00B938BD490084F89B2AC4F8C5
:1038F0009C3A84F8991A0023049984F898EA0222E1
:1039000005F6882584F89A3AC4F8A01A84F8A43AEF
:1039100084F88A2A65440BF06DFA02460B46284665
:10392000FFF736FC94F88A3A002BF4D194F8A40AF5
:1039300038BD00BF90340020F0B5044683B00D467A
:103940001746061D20680379012B1AD0022B02D0DE
:10395000002003B0F0BD8368DB0732464FF0FF0163
:103960005CBF3246FF2106F029FA0028F0D015B1DD
:103970002379DB07E6D4002FEBD023793B7003B02B
:10398000F0BD8268417C90F9100002F00102CDE99F
:103990000062FF22FFF79CFFE7E700BF30B5044657
:1039A000051D20680379012B83B017D0022B02D0AC
:1039B000002003B030BD8368DB072A464FF0FF01CB
:1039C0005CBF2A46FF2106F0F9F90028F0D02379E0
:1039D000DB07EED520680379012BE7D18268417CB3
:1039E00090F9100002F00102CDE90052FF22FFF72A
:1039F0006FFFEAE730B50246044652F8040B03793C
:103A0000012B83B00ED0022B01D0002008E0FF2153
:103A100006F0D4F90028F8D02079C04300F0010066
:103A200003B030BD8568417C90F91000009205F02C
:103A300001050195FF22FFF74BFFEBE730B5B422FC
:103A400083B00446FF21006804F0C8FF10B90020CD
:103A500003B030BD20680379012B04F1040514D0B4
:103A6000022BF4D18368DB072A464FF0FF015CBFCD
:103A70002A46FF2106F0A2F90028E8D02379DB07C7
:103A8000E6D520680379012BEAD18268417C90F960
:103A9000100002F00102CDE90052FF22FFF718FFEB
:103AA000EAE700BF30B50A4683B00446A5210068A6
:103AB00004F094FF10B9002003B030BD20680379F2
:103AC000012B04F1040514D0022BF4D18368DB0729
:103AD0002A464FF0FF015CBF2A46FF2106F06EF92F
:103AE0000028E8D02379DB07E6D520680379012B8D
:103AF000EAD18268417C90F9100002F00102CDE920
:103B00000052FF22FFF7E4FEEAE700BF70B582B083
:103B1000CDE900230446FFF791FF10B9002002B061
:103B200070BD20685522A52104F058FF0028F5D06B
:103B3000251D20682A46FF2106F092F90028EDD0C5
:103B40002379DB07F5D40DF1FF350DF1070615F8E4
:103B5000011F2046FFF7A6FF0028DFD0B542F6D1AF
:103B6000DDE700BF002A35D0F0B5044683B00E462D
:103B70008F18051D16F8012B2068A52104F02EFFD3
:103B800090B9002003B0F0BD8268417C90F910002C
:103B900002F00102CDE90052FF22FFF799FE002852
:103BA000EFD02379DB0710D520680379012BEBD008
:103BB000022BE6D18368DB072A464FF0FF015CBF8A
:103BC0002A46FF2106F0FAF8E9E7B742D2D10120F0
:103BD00003B0F0BD0120704770B5962282B0044654
:103BE0000E460068FF2104F0F9FE10B9002002B073
:103BF00070BD251D20680379012B1FD0022BF5D144
:103C00008368DB072A464FF0FF015CBF2A46FF218D
:103C100006F0D4F80028E9D02379DB07EAD4E122C2
:103C20002068114604F0DAFE0028DFD02068324612
:103C3000FF2102B0BDE8704006F012B98268417CF5
:103C400090F9100002F00102CDE90052FF22FFF7C7
:103C50003FFEDFE7002A43D0F0B5044683B00E46AE
:103C60008F18051D20689622FF2104F0B7FE90B939
:103C7000002003B0F0BD8268417C90F9100002F092
:103C80000102CDE90052FF22FFF722FE0028EFD00B
:103C90002379DB0710D520680379012BEBD0022BA9
:103CA000E6D18368DB072A464FF0FF015CBF2A4656
:103CB000FF2106F083F8E9E7E1222068114604F0CD
:103CC0008DFE0028D4D020683246FF2106F0C8F8C7
:103CD0000028CDD00136B742C4D1012003B0F0BDD9
:103CE0000120704770B505460B460446164655F848
:103CF000040B82B087211A4604F070FE2068037915
:103D0000012B1AD0022B02D0002002B070BD8368B4
:103D1000DB072A464FF0FF015CBF2A46FF2106F071
:103D20004DF80028F0D02379DA07E7D4002EECD044
:103D3000C3F34013337002B070BD8268417C90F9C8
:103D4000100002F00102CDE90052FF22FFF7C0FD92
:103D5000E7E700BF70B5782182B0044616460068D8
:103D6000002204F03BFE10B9002002B070BD251DFA
:103D700020680379012B14D0022BF5D18368DB076F
:103D80002A464FF0FF015CBF2A46FF2106F016F8D5
:103D90000028E9D02379DA07EAD45B09337002B04E
:103DA00070BD8268417C90F9100002F00102CDE9FB
:103DB0000052FF22FFF78CFDEAE700BF30B5CC22AE
:103DC00083B00446A521006804F008FE10B9002065
:103DD00003B030BD20680379012B04F1040514D031
:103DE000022BF4D18368DB072A464FF0FF015CBF4A
:103DF0002A46FF2105F0E2FF0028E8D02379DB07FF
:103E0000E6D520680379012BEAD18268417C90F9DC
:103E1000100002F00102CDE90052FF22FFF758FD29
:103E2000EAE700BF30B5B42283B00446FF21006842
:103E300004F0D4FD10B9002003B030BD251D20686A
:103E40000379012B22D0022BF5D18368DB072A46A8
:103E50004FF0FF015CBF2A46FF2105F0AFFF0028AD
:103E6000E9D02379DA07EAD4CC212046FFF71AFEFD
:103E70000028E0D002E02379DB07DDD520682A4660
:103E8000FF2105F0EDFF0028F5D1D4E78268417CE1
:103E900090F9100002F00102CDE90052FF22FFF775
:103EA00017FDDCE72DE9F04F8BB0CDE90723044681
:103EB000002004908A460390251D049B079A204603
:103EC000DE0002EBC30BFFF7B9FD20B935E0237923
:103ED00013F0010207D020682A46FF2105F0C0FF39
:103EE0000028F4D129E005929A07099040F1D88082
:103EF000F0212046FFF7D6FDF8B1079BDDF81480CE
:103F0000083E3344012606933746BAF1000F54D0D9
:103F1000082F52D807F1FF394AFA09F909F00109C7
:103F200020684FEAC912782104F058FD28B12068B2
:103F30000379012B50D0022B06D00020089B049A55
:103F40001A700BB0BDE8F08F8368DB072A464FF08C
:103F5000FF015CBF2A46FF2105F030FF0028ECD0AE
:103F6000237913F00102E2D1C3F3801CD9099B0627
:103F700046D5BCF1000F60D1BAF1000F5AD0082F1E
:103F800058D8894540F08880B9F1000F48D01BF817
:103F9000083033430BF808307600013716F0FF067F
:103FA000FFB2B2D108F101085FFA88F8B8F1080F42
:103FB00043D00126BAF1000FAAD1049BC3B1039BE1
:103FC000BB4215D9069B13F808301E4214BF4FF0B0
:103FD00001094FF00009A3E78268417C90F91000C5
:103FE00002F00102CDE90052FF22FFF771FCB5E7B4
:103FF000039BA3EB0709B9FA89F94FEA59198FE72F
:10400000BAF1000F13D0082F11D8894596D1B9F114
:10401000000FBCD1059BBCF1000F08BF3B460593C8
:104020001BF8083023EA06030BF80830B4E7002930
:10403000ADD1EFE70029AAD1F2E7402F06D8089BBF
:10404000049A1B7893423FF638AF77E79BF80770E6
:104050000BF1FF360BF1060B16F801CF082182EAAF
:104060000C0343F30003013923F0730383EA520284
:1040700011F0FF01D2B24FEA5C0CF0D1B345EBD1A5
:104080009742DCD1049B0133DBB20493059B002BE8
:104090003FF454AF0393D2E7DDF8248040464DE768
:1040A000804640464AE700BF10B500680379012BFF
:1040B00084B00C461AD0022B02D0002004B010BDF0
:1040C000836813F0010F03AA4FF0030314BF2221EA
:1040D000A22105F02BF90028EFD0BDF90D3003EB3C
:1040E00083031B12E633238004B010BD8368417C38
:1040F00090F9100003F00103019303AB0093222217
:104100000323FFF7E5FBE6E738B5184D9DF814E00B
:1041100005EB40144FEA401C94F8890A00B938BDF9
:1041200084F89B2AC4F89C3A01220023490005F632
:10413000882584F89A2A84F8A43A049A84F898EA9C
:10414000022384F8991AC4F8A02A84F88A3A6544AC
:104150000AF050FE02460B462846FFF719F894F87D
:104160008A3A002BF4D194F8A40A38BD9034002088
:1041700000680379012B0BD0022B01D0002070477F
:104180008368DB074FF0F00219D5FF2104F0D0BBA4
:1041900000B5826890F910C0417C85B002F0010240
:1041A00001920DF10F0200926046FF224FF0F00CD9
:1041B0008DF80FC0FFF7A8FF05B05DF804FB7F2165
:1041C00004F0B6BB70B505682B79012B84B00446AA
:1041D0000E4617D0022B02D0002004B070BDAB6891
:1041E000E122DB074CBF11466121284604F0A0FB09
:1041F0000028F1D020683246FF2104B0BDE87040AD
:1042000005F02EBEAA68697C95F9100002F0010243
:104210000DF10F0501920095E1228DF80F20FFF7B7
:1042200073FFE5E770B505682B79012B84B0044670
:104230000E4618D0022B02D0002004B070BDAB682F
:10424000DB074FF0C3024CBFE1216121284604F097
:104250006FFB0028F0D020683246FF2104B0BDE893
:10426000704005F0FDBDAA6895F91000697C02F068
:10427000010201920DF10F020092C3228DF80F206E
:10428000E122FFF741FFE4E700680379CA4341EA0E
:104290000211012BCAB209D0022B01D000207047B5
:1042A0008368DB0717D5D22104F042BB00B585B087
:1042B00090F910C08DF80F208268417C02F0010255
:1042C0000DF10F00CDE90002D2226046FFF71CFF7E
:1042D00005B05DF804FB522104F02ABB70B50568F7
:1042E0002B79012B84B004460E461CD0022B02D041
:1042F000002004B070BDAB68DB074FF0F0024CBF8C
:10430000E1216121284604F013FB0028F0D0224669
:10431000FF2152F8040B05F0A3FD0028E8D0237913
:10432000337004B070BDAA6895F91000697C02F082
:10433000010201920DF10F020092F0228DF80F2080
:10434000E122FFF7E1FEE0E700680379012B0BD0E3
:10435000022B01D0002070478368DB074FF0B402C6
:1043600019D5FF2104F0E4BA00B5826890F910C0B5
:10437000417C85B002F0010201920DF10F02009222
:104380006046FF224FF0B40C8DF80FC0FFF7BCFE63
:1043900005B05DF804FB7F2104F0CABA0068037918
:1043A000012B0AD0022B01D0002070478368DB0765
:1043B0000A4617D5A52104F0BBBA00B5826890F96A
:1043C00010C085B002F001028DF80F10417C0DF194
:1043D0000F00CDE90002A5226046FFF795FE05B06B
:1043E0005DF804FB252104F0A3BA00BF006803793F
:1043F000012B0BD0022B01D0002070478368DB0714
:104400004FF0960219D5FF2104F092BA00B58268E8
:1044100090F910C0417C85B002F0010201920DF1CB
:104420000F0200926046FF224FF0960C8DF80FC0ED
:10443000FFF76AFE05B05DF804FB7F2104F078BA4F
:1044400000680379012B0AD0022B01D000207047AD
:104450008368DB070A4617D5872104F069BA00B5DF
:10446000826890F910C085B002F001028DF80F103B
:10447000417C0DF10F00CDE9000287226046FFF775
:1044800043FE05B05DF804FB072104F051BA00BFFC
:1044900000680379C901012BCAB206D0022B01D0F2
:1044A00000207047782104F043BA00B585B090F938
:1044B00010C08DF80F208268417C02F001020DF1DE
:1044C0000F00CDE9000278226046FFF71DFE05B01F
:1044D0005DF804FB00680379012B0BD0022B01D09F
:1044E000002070478368DB074FF0550219D5A521DE
:1044F00004F01EBA00B5826890F910C0417C85B006
:1045000002F0010201920DF10F0200926046A52215
:104510004FF0550C8DF80FC0FFF7F6FD05B05DF8B4
:1045200004FB252104F004BAF0B589B00023904AB9
:1045300002930393136843F48033136003E0029BF8
:10454000B3F5A04F09D0136803F400330393029B23
:1045500001330293039B002BF1D0854B1B6813F4AE
:10456000003318BF01230393039B012B01D000BF2D
:10457000FDE77F4B7F491A6C7F4842F080521A64F6
:104580000A6842F440420A609A689A609A6842F463
:1045900000429A609A6842F4A0529A6058601A6881
:1045A00042F080721A601A689001FCD5734A40F29A
:1045B00005711160996821F003019960996841F0D3
:1045C0000201A2F580629960936803F00C03082B46
:1045D000FAD1936803F00C03042B00F0C680082B7B
:1045E00000F0AB80664A624B66499868664D674E3C
:1045F000674FC0F303100144002491F86C10CA40C7
:104600006449E9606449586FA960596BC6F8802E07
:1046100021F080015963596F604A614841F080710F
:104620005967196B0A431A635A6B5A639A6B9A63F8
:104630001A6C5C490A431A64596C5B4A0A435A640F
:1046400048F2FF7123462246CDE900447DF026FD65
:104650005648234622464FF6FF71CDE900447DF0CF
:104660001DFD5348234622464FF6FF71CDE9004415
:104670007DF014FD4F48234622464FF6FF71CDE9E9
:1046800000447DF00BFD4C48234622464FF6FF7157
:10469000CDE900447DF002FD4848234622464FF60E
:1046A000FF71CDE900447DF0F9FC454823462246E0
:1046B0004FF6FF71CDE900447DF0F0FC4148234600
:1046C00022464FF6FF71CDE900447DF0E7FC23461A
:1046D00022464FF6FF713C48CDE900447DF0DEFCF8
:1046E00004A8FEF7EFFAD5F8FC200499D6F8803E2E
:1046F000364842F08072C5F8FC20354AC2F8B00F47
:104700005460106840F0010010604FF47A72B3FBFF
:10471000F2F3013BB3F1807F2E4AB1FBF2F2C7F80E
:10472000EC2A08D24FF0E022F0215361072385F8EC
:1047300023109461136109B0F0BD51685368526849
:104740004902C2F388124CBF23490D4903F03F03CD
:10475000B1FBF3F303FB02F2054B5B68C3F30143C8
:1047600001335B00B2FBF3F23DE71B4A3BE700BFBE
:10477000003802400070004008544007003C0240EE
:104780000024F400A45F080800ED00E00000002011
:10479000903400200003FA0500000008FF91670034
:1047A00000000240FFC9FE1033570700000402401A
:1047B00000080240000C02400010024000140240B9
:1047C00000180240001C02400020024055CEACC53B
:1047D000001000E040420F0000127A0082B0064B49
:1047E000002201920193019B03EB80030193019B43
:1047F000196002B0704700BF5028004010B51C205F
:1048000006F06EFD1121044606F046FD4CB123680A
:10481000A2885A83C8200AF01BFB2368A2881A8347
:1048200010BDBDE81040C8200AF012BB704700BFA1
:10483000704700BF704700BF10B5104C94F8E233CA
:1048400023B90F4B4FF480225A6110BD4FF0E02284
:10485000D2F8103D23F00603C2F8103DFDF742FEEA
:10486000D4F8E8339B68DB07EBD5D4F8E42413686D
:1048700023F0030161F307031360E2E790340020A3
:10488000003C01402DE9F04FA34CD4F8E4335A69C1
:10489000D5078BB002D50BB0BDE8F08F5A699B6984
:1048A00012EA0301F7D0C1F307430803019300F1B3
:1048B000E180019B5D073FD48807CEB203D5D4F8D1
:1048C000E43302225A610029C0F248820A05C1F38A
:1048D000072500F19981370708D5904B904853F888
:1048E000503C9847D4F8E43308225A61F60600F1A8
:1048F0000D82E80600F1BE81A80600F11781019B38
:10490000DA0609D5854B864853F8403C9847D4F8D9
:10491000E4334FF480125A61019B9B06BBD57F4B59
:104920007F4853F83C3C9847D4F8E4334FF40012E6
:104930005A610BB0BDE8F08FD4F8E8339E69DB69AB
:104940001E40B6B2002EB7D0754D4FF0000B05F1EA
:1049500018080F46F00740F18280D4F8E813D8F821
:10496000002008694B6B23FA0BF3DB01DBB2034336
:104970009068034013F00109D8B200F00D824B6B30
:10498000012000FA0BF023EA00034B63012393603C
:10499000624B634853F8583C5FFA8BF1984794F8A0
:1049A000DB33012B00F07C8219F0800F57D0D5E962
:1049B0004CC1D5F82431D8F800E0ACEB01029342A9
:1049C000DEF8180028BF134680B20333B0EB930F14
:1049D00045D9D4F8E83394F8DB93CDE9026BBA46B5
:1049E00067469C46B94237D2D5F82431781A9842A6
:1049F00028BF184600F1030BD5F828314FEA9B0B6E
:104A0000B9F1000F10D182B203329210D8F8B86019
:104A10000AD04946013153F8047B37608A42F9D104
:104A2000D5E94C71D5F82831014403448F42C5F8CB
:104A30002831C5F83411DEF818300AD195F81C0178
:104A4000012202FA00F0DCF8342022EA0002CCF85D
:104A500034209BB29B45C5D3DDE9026B57467608EF
:104A60000BF1010B05F1280508F104087FF472AF82
:104A7000394621E7D4F8E8339D69DB691D402D0CE8
:104A80003FF417AF04F57678DFF890B0029104F2A6
:104A90002C4600274FF00109C24608E06D0807F1D7
:104AA000010706F1040608F1280800F08F81EA07E3
:104AB000F4D53068D4F8E813836849690B40D9B25B
:104AC000DB0740F16E8194F8DB33C0F80890012BCE
:104AD00007D10169D8F87C33C1F312015B1AC8F819
:104AE0008C335BF85C3CF9B25046984794F8DB3362
:104AF000012BD3D1002FD1D194F8E934052BCDD19E
:104B0000D4F82C34074919610749596119684FF0E5
:104B100080211960C2E700BF90340020F810002007
:104B20006838002018000860343E0020D4F8E853AC
:104B3000D4F8F023AB68C3F34103022B136814BF0E
:104B40000021032161F30A0313606B6843F480734F
:104B500006A86B60FEF7B6F8D4F8E423079ED36886
:104B600023F47053D360A86810F0060FC0F341011E
:104B700000F03A819E499F483144814240F2AC8125
:104B80009D48A6F57401A1F51051814240F2A8811B
:104B90009A499B4831448142C0F0A6819948A6F1C8
:104BA0008C71A1F54341814240F2A2819649974818
:104BB00031448142C0F0A0819549964831448142F8
:104BC000C0F09E819448A6F1B771A1F55851814279
:104BD000C0F09E819149924831448142C0F0948155
:104BE000904891493044884234BF06200520402532
:104BF000012160F38D23D3604FF4005384F8DA135E
:104C0000A4F8DC5353617AE600238DF8133094F84E
:104C1000EA348DF81330854B854853F8483C984763
:104C2000D4F8E833D4F8E423986894F8E2334FF4E6
:104C300000615161002B3FF44EAEC3077FF54BAED0
:104C400094F8ED34012B7FF446AE9DF81330032B1E
:104C50007FF441AED4F8E43476491A6842F0010298
:104C60001A601A6842F003021A600B6943F00603E7
:104C70000B6130E6D4E9F9167368002723F00103CD
:104C800073600597059B43F020030593059B67F32D
:104C90008A130593059B0B61674BBC460A69059215
:104CA000013B02D0059A9206F8D494F8D92352B168
:104CB000624B03EB820EFF2253F8040F8260D86B25
:104CC00073458260F8D10B2363F3070763F3070C86
:104CD0004FF0FF33B3614FF00113F3617761C6F812
:104CE00010C03368564823F4FE63336094F8DB2326
:104CF000D4F82C34012A18616FD04FF480534B61E3
:104D00004A4B4B4853F84C3C9847F5E5D4F8E4330C
:104D10009A6922F010029A611A6AC2F3434002288B
:104D200002F00F0100F09080062812D101EB810102
:104D300004EBC101D4F8A864D1F86407C2F30A12E5
:104D400010443268C4F8A4293268C4F8A829C1F80C
:104D500064079A6942F010029A61CAE594F8E23356
:104D60003BB1D4F8E424136823F0030060F3070395
:104D70001360D4F8E8232D4B2D4853F8445C536856
:104D8000029123F001035360A847D4F8E433029959
:104D90004FF000425A6199E5010707D50823936057
:104DA0005DE68A0707D50223836077E6C3060FD541
:104DB0001023936053E60B077FF570AE5BF8543C0D
:104DC0005046984733680821996067E6029970E574
:104DD000410679D54023936041E61A4A5A611A6820
:104DE0004FF080221A6088E74FF40075092000E731
:104DF000401E1BFF3F420F00DFC810002013FBFEC8
:104E000020D61300FF69180000D3CEFE40771B00A8
:104E1000C05BB3FEC091210040AC2700C01D6AFEFC
:104E200040E13300803C36FEE09C4100F810002059
:104E30006838002000ED00E0410D03007C380020C0
:104E400018000860343E002047F6F070104280D011
:104E5000C2F30A1201EB810004EBC00002F1030C63
:104E60005FEAAC0CD0F85867D4F8A8E44FEA8108A0
:104E700018BF002006D00130DEF8007046F8047B31
:104E80008445F8D1414404EBC101D1F858071044DE
:104E9000C1F85807D1F864071044C1F8640758E70F
:104EA000BBF1000F7FF480AD94F8E934042B7FF45C
:104EB0007BADD4F82C34184A1A61184A5A611A6822
:104EC0004FF080221A606FE5830758BF81467FF557
:104ED0006BAD02239360C2E5012140250E2088E6D8
:104EE000012140250D2084E6012140250C2080E68B
:104EF000012140250B207CE6012140250A2078E68F
:104F000001214025092074E601214025072070E693
:104F10000121402508206CE618000860343E00207E
:104F200070B5194D194BC5F8F03A194B85F8FC1AB4
:104F3000002683F8386905F52F63C0E954330D2343
:104F4000C0F8583140F201130446C0F85C6100F526
:104F5000A271A0F844317CF0C9FF1F23C4E9EC36EC
:104F6000E378012205F614259342C4F8A853A4F867
:104F70009C2308BFC4F8AC5304F567712046BDE814
:104F800070407CF0B3BF00BF9034002055534253B3
:104F900098230020F0B50B7813F0600283B004462C
:104FA0002BD0202A30D14A78FE2A39D0FF2A2DD1A1
:104FB0004A88002A3BD1CA88002A38D11F0636D435
:104FC0006148624B80F83829C4F8B423E2780121A3
:104FD00083F8341AA4F89C1303F614231F21012A22
:104FE000C4F8B013C4F8A83304F5677108BFC4F857
:104FF000AC3320467CF07AFF06E04B780A2B1AD0BF
:105000000B2B08D0012B2AD0002002E07CF000FE00
:10501000022003B0F0BD4D4B4A8883F8012BF3E723
:105020004F8827B9CD88012D01D11B0642D42046D7
:105030007CF0EEFDECE7022180F811114FF4807155
:10504000A0F81C1142490123C0E94A11C0E94E33BE
:10505000C0E94C3200F58E717CF0E6FED4E78B8817
:10506000C0681E06DDB244D40192019A394B42F069
:1050700010020192019A026102690192013B02D081
:10508000019AD206F8D4314E294620467CF032FEF1
:10509000294696F8345A0223402220467CF05AFED4
:1050A000022DB1D1812120467CF0EAFD002386F853
:1050B000343AA9E7254ED6F8483A9B699847C0B2DA
:1050C00086F8000B0028B2D0022306F5306684F87B
:1050D00011314FF48073C4E94E55C4E94A66C4E9FE
:1050E0004C57A4F81C3104F58E7120467CF09CFED0
:1050F0008AE70092009A174B42F020020092009A31
:1051000065F38A120092009A026102690092013BE3
:1051100002D0009A9106F8D40C4E294620467CF025
:10512000E9FD294696F8345A0223402220467CF0B5
:1051300011FE022DB6D0012D3FF466AF01212046AD
:10514000FFF7EEFE60E700BF9823002090340020B8
:10515000913F0020410D030010B50D4B93F83839F5
:10516000022B07D0033B012B02D80021FFF7D8FE0A
:10517000002010BD074B93F8211A044675F07CFB04
:105180000028F5DA01212046FFF7CAFEF0E700BF4C
:105190009823002090340020F8B53F4C94F83869EB
:1051A00005467EB1012E01D00020F8BD3B4B93F89F
:1051B000211A75F061FB0028F6DA31462846FFF720
:1051C000AFFEF1E7354FB0F8B433D7F81C2AC7F873
:1051D000F82A1F2BD7F8182AC7F8F42A08D1304B21
:1051E000D7F8142A9A4203D197F8211A012919D91C
:1051F00097F8023B5A1CD2B207EBC303042A18BF2C
:105200001646052283F8042B4FF400522846C3F8B3
:10521000082B022387F8026B87F8343AFCF728FA48
:105220000020F8BD97F8223A013B0F2BE0D875F02B
:1052300023FB002827DB94F83839013B022BB3D934
:10524000B7F8243B1BB3042284F83829154AC5F863
:105250005C61C5E95422D7F81C2A87F8FC6A93429E
:1052600028BF1346D7F8F82AC5F8583140F2011183
:10527000A5F84411D21A05F5A2712846C7F8F82AF4
:105280007CF034FE90E72846FCF7F2F98CE71946EB
:105290002846FFF745FE87E798230020903400203A
:1052A00055534243C86E002010B54FEA511E0244C8
:1052B00000EB8E0C624529D901F01F034FF0FF343B
:1052C00050F82E1004FA03F30B4093FAA3F3B3FA49
:1052D00083F3DBB2202B16D10CF104018A4202D8F1
:1052E00017E08A4212D98C460431DCF8003093FA78
:1052F000A3F3B3FA83F3DBB2202BF2D0ACEB000CB8
:1053000003EBCC0010BD03EB4E1010BD4FF0FF308F
:1053100010BD204610BD00BF0369416890ED067ABC
:10532000F0B4C56A3B4E876853EA010204BFD6F861
:10533000C41C41606A1C30EE077A0133012A80EDFB
:10534000067A0361C26241D090ED075AD0ED096A36
:10535000D6F8C44C07EE902A70EE455AB8EEE76ACC
:10536000611AC5EE867AB94277EE857A30EE670A21
:10537000C0ED087AE5EE806AC0ED077AC0ED0A6AF2
:10538000C0ED096A01D8F0BC7047012A2ADD07EE9A
:10539000905AF8EEE77A86EEA76AB5EEC06AF1EEAB
:1053A00010FA1FDBF1EEC67AF4EE677AF1EE10FA2E
:1053B00018D6D0ED056AF4EEE76AF1EE10FA14D5CE
:1053C000037BF3B10323F0BC03707047D6F8C42C01
:1053D00080ED080A521ABA424FF0000180ED070A28
:1053E0004162D0D9DFED0C7AE3E707EE903AF8EEB0
:1053F000677A0223C7EE276AF0BC0370C0ED066A25
:105400007047D6F8C41C4160002203618261C36208
:10541000B9E700BF9823002000000000DFED504AEC
:1054200010B5844600F1480E0346B1EC017AD3ED85
:10543000067ADA6A77EE877A0132012AC3ED067AB4
:10544000DA6255D093ED075A93ED096A07EE902A78
:1054500077EE455AF8EEE77AC5EEA76A76EE857ADA
:10546000F0EE466A37EE677AC3ED087AE5EE876AB2
:10547000C3ED0A6AC3ED077AC3ED096A18337345B1
:10548000D3D1384C4168D4F8C42C0369521A8168CE
:1054900001338A4203612AD990ED056A00F1300E8A
:1054A000DCF82C20DCED0A6A012A02F1FF3126DD4E
:1054B00007EE901AF8EEE77A86EEA77AB5EEC07A94
:1054C000F1EE10FA1BDBF1EEC77AF4EE677AF1EE3B
:1054D00010FA14D6E645B4EEE76A0CF1180C16D0B3
:1054E000F1EE10FADCD5037B6BB30323037010BD20
:1054F000F0EE477AF0EE646A83ED087ABAE7DFED02
:10550000187AE645B4EEE76A0CF1180CE8D1F1EE32
:1055100010FAE8D407EE903AD0ED066A90ED0C7AD6
:10552000D0ED125AF8EE677A022386EEA76A03706E
:10553000C7EE276A85EEA77A80ED066AC0ED0C6A91
:1055400080ED127A10BD0022D4F8C41C41600361C2
:105550008261C362026343648264C36510BD00BF9D
:105560000000000098230020B0EEC06AF0EEE05A80
:10557000F4EEC65AF1EE10FAF0EE407A0EDCB5EE1B
:10558000400AF1EE10FA4BD0F4EEC65AF1EE10FAE2
:10559000F0EE466A50D5B0EE655A03E0F0EE656A6B
:1055A000B0EE465A85EE267A9FED252A9FED253AE4
:1055B0009FED254ADFED254ADFED252ADFED253A6F
:1055C000DFED256AA7EE023AE7EE223AA7EE034A9C
:1055D000B7EE005AE7EE044AA7EE235AE7EE246A34
:1055E000F4EEC65AB1EE667A87EE050AF1EE10FACD
:1055F00048BF9FED1A7AF5EEC00A48BF37EE400A61
:10560000F1EE10FA48BF9FED167AF5EEC07A48BF6A
:1056100037EE400AF1EE10FA48BFB1EE400A70478B
:10562000DFED107A9FED100AF5EEC00AF1EE10FAE8
:1056300058BFB0EE670A7047B0EE465AB2E700BFF7
:1056400039094E3DE3B59EBE88FA16BE45FE7FBFC2
:1056500099FB243F69A2163EA7DFA8B4DB0FC93F20
:10566000DB0F4940A7DFA834DA0F4940F7EE007A94
:10567000F0EEC06A77EEE67AB0EE407AF5EEC07AE8
:10568000F1EE10FA22DBF1EEE75AF4EE655AF1EE94
:1056900010FA1BD69FED0F5ADFED0F7A9FED0F6AC0
:1056A0009FED0F0AE6EE857AB5EEC07AA7EEA66A00
:1056B000F0EE407AE6EE267AF1EE10FA27EEA50A31
:1056C00044BFDFED087A37EEC00A7047DFED065AB7
:1056D000E0E700BF306E99BC2716983D843459BE70
:1056E000A40DC93FDB0F49400000000091ED007A96
:1056F000D0ED047A90ED054AD0ED064A90ED075AB8
:10570000D0ED085A90ED096AD0ED0A6AE7EE077A03
:10571000F7EE003AC0ED047A91ED007AD1ED017A0E
:10572000A7EE274A90ED0B7A80ED054A91ED024AEB
:1057300091ED003AD0ED0C7AE3EE044AC0ED064A52
:10574000D1ED004A35EE245A80ED075AD1ED014AD9
:1057500091ED005AE4EE855AC0ED085AD1ED015A98
:10576000A5EEA56A80ED096AD1ED015A91ED026AB4
:10577000E5EE866AC0ED0A6AD1ED016A37EE267A57
:1057800080ED0B7AD1ED026A91ED007AE6EE877A30
:10579000C0ED0C7A91ED026AD1ED016AD0ED0D7A7F
:1057A00090ED0E7A90ED0F4AD0ED104A90ED115A1F
:1057B000D0ED135AE6EE267A75EEA35AC0ED0D7AB7
:1057C000D1ED026AD0ED127A90ED006AA6EEA67ACB
:1057D000D0ED016A80ED0E7A91ED027A34EE074A3F
:1057E00090ED027A80ED0F4A91ED004A74EE844A02
:1057F000C0ED104AD1ED014A35EE245A80ED115A20
:1058000091ED025AC0ED135A77EE857AC0ED127A07
:10581000D1ED017AD1ED005A91ED025A67EEA77AE7
:10582000E5EEA57AE5EE057AA5EEA76A80ED006AB9
:1058300091ED016AE6EE276AC0ED016AD1ED026AD8
:10584000A6EEA77A80ED027A90ED037A77EE277ABA
:10585000C0ED037A704700BF2DE9F04F4FF000090B
:1058600089B0864600F110050646034600F130086F
:10587000074648462C46CDF80CE08B469C46B2467F
:1058800000283CD10CF1040CA445FBD1032800F105
:10589000010151D09C46AA46029398B1DCED047AEE
:1058A0000192AAEB0903B6467246F3EC016A92ED47
:1058B000007AE6EEC77A53450EF1100ECCED047A6D
:1058C000F2D1019ADCED046A15ED047AC6EE877A0E
:1058D0000CF1100CC4450AF1100ACCED007ADCD1B1
:1058E000029B04361433084608F1040814351034BA
:1058F000103709F104099C46B2460028C2D0DCEDFD
:10590000007A0192D64639467246F1EC016A92ED70
:10591000007AE6EEC77A99420EF1100ECCED007ACD
:10592000F2D10CF1040CA445019A0AF1040AE6D163
:10593000032800F10101ADD1DDF80CE00023594648
:1059400004930593069307937646774604AD0020AB
:10595000F2EC017AE5EC017AB0B104AC3B46B4EC70
:10596000017AF3EC016AE6EEC77AB34245ED017ABB
:10597000F5D1013004280BD0F2EC017A103714363F
:10598000E5EC017A0028E8D1103714360120DFE772
:1059900008AD75ED017A10310EF1400E0428744601
:1059A000A1F1040241ED017A1ED07346F3EC016AC5
:1059B000B1EC017AE6EEC77AA342C2ED007AF5D1E6
:1059C0005EED016A87EEA67A013882ED007A17D083
:1059D000AEF1140E103C114675ED017A0428A1F1C8
:1059E000040241ED017AE0D15EED016A87EEA67A0C
:1059F000103CAEF1140E032001ED017A1146EBE7E5
:105A000009B0BDE8F08F00BFDFED297AB4EEE70AF8
:105A1000F1EE10FA28DD9FED277A30EE470AB4EE5A
:105A2000E70AF1EE10FAF8DCDFED237AB4EEE70ACC
:105A3000F1EE10FA2FDD30EE670A37EEC00A60EEA5
:105A4000007A9FED1E7A9FED1E6ADFED1E6AA7EEBB
:105A5000876A9FED1D7AE7EE866A60EE275AA7EE09
:105A6000A67AA5EE870A7047DFED187AB4EEE70A4A
:105A7000F1EE10FAD8D59FED0F7A30EE070AB4EEAA
:105A8000E70AF1EE10FAF8D4DFED0B7AB4EEE70A8C
:105A9000F1EE10FACFDC9FED0E7AB4EEC70AF1EE0C
:105AA00010FA44BF30EE270A37EE400AC7E700BFBE
:105AB000DB0F4940DB0FC940DB0FC93F9A7C2E3614
:105AC000FAAF4FB93587083CA4AA2ABEDB0F49C0FC
:105AD000DB0FC9BF10B5404CB4FBF2F4A14219D39F
