:020000040800F2
:100000000000022011460C0895460C088DC7060812
:1000100095460C0895460C0895460C080000000013
:1000200000000000000000000000000095460C08E1
:1000300095460C080000000095460C08BD480508D0
:1000400095460C0895460C0895460C0895460C08F4
:1000500095460C0895460C08B5030508B903050834
:10006000BD030508C1030508C5030508E1420408EE
:10007000F5420408094304081D43040831430408F9
:10008000454304085943040895460C0895460C0856
:1000900095460C0895460C0895460C08C9030508BA
:1000A00095460C0895460C0895460C080D58040812
:1000B000215804083558040849580408093604082A
:1000C000FD3504083D3604083136040895460C0811
:1000D00095460C08B9610408C5610408D16104089B
:1000E000CD03050895460C0800000000855804085B
:1000F000D5580408FD580408715804086D430408D5
:1001000095460C0895460C085D58040895460C0861
:10011000DD61040895460C0895460C08BD77040877
:100120008143040895430408A9430408BD43040817
:10013000D143040895460C0895460C0895460C08D2
:1001400000000000000000000000000000000000AF
:10015000E5430408F94304080D440408E961040870
:10016000713604086536040895460C0895460C0857
:1001700095460C0895460C0895460C0800000000B2
:1001800095460C0895460C08F561040895460C0840
:1001900095460C0895460C0895460C0895460C08A3
:1001A00095460C0895460C0895460C0895460C0893
:1001B00095460C0895460C0895460C0895460C0883
:1001C00095460C0895460C0895460C0895460C0873
:1001D00095460C08CD63040895460C0895460C0816
:1001E00095460C0895460C0895460C0895460C0853
:1001F00095460C0895460C0895460C0895460C0843
:1002000095460C0895460C0895460C0895460C0832
:1002100099580408AD580408C158040895460C08BC
:1002200095460C0895460C0895460C080000000001
:1002300095460C0895460C080000000095460C08F1
:1002400095460C0895460C0895460C0895460C08F2
:1002500095460C0895460C0895460C0895460C08E2
:1002600095460C0895460C0895460C0895460C08D2
:1002700095460C0895460C0895460C0800000000B1
:1002800095460C080000000095460C080000000090
:080290000000000095460C0877
:0802980078360C0001000000A3
:1002A00094AA01240201000004035400B4AA01240A
:1002B0000207000004035400D4AA0124020800002D
:1002C00001035400F4AA0124010D0000000076008F
:1002D00014AB0124011100000000760034AB0124AE
:1002E000010E01000000770054AB0124011300004F
:1002F0000000760074AB01240115000000001E0010
:1003000094AB0124011B000000000D00B4AB0124DC
:10031000011C000000002C00D4AB012401160000D9
:1003200000000C00F4AB01240117000000000C00D9
:1003300014AC0124011D000000000E0034AC0124A7
:10034000011E000000001E0054AC01240118000032
:1003500000000C0074AC01240119000000000E0024
:1003600094AC0124011A000000000C00B4AC01247C
:100370000120000000000C00D4AC01240121000089
:1003800000000C00F4AC0124012A01000000180058
:1003900014AD0124012200000000480034AD012406
:1003A000012300000000490054AD01240124000095
:1003B00000004A0074AD01240125000000004B003C
:1003C00094AD01240126000000004C00B4AD0124CE
:1003D0000127000000004D00D4AD012401280000D9
:1003E00000004E00F4AD01240129000000004F0080
:1003F00014AE0124012D00000000290034AE0124B8
:10040000012E01000000290054AE0124012F01003B
:100410000000700074AE01240131000000003100C2
:1004200094AE01240130010000005200B4AE01245A
:100430000132010000002800D4AE01240133000085
:1004400000007600F4AE0124013401000000280011
:1004500014AF0124022B050000012C0034AF01244D
:10046000023804000000140054AF012401370000DA
:1004700000003C0074AF0124013A0000000020009D
:020000040804EE
:10000000836B5A6D12F0500F5A6D1AD1196842F471
:1000100000725A650A6812F0080FCA6816D012F406
:10002000406F15D1CA68920412D45A6D22F48072BE
:100030005A655A6DD1040BD45A6D42F001025A65CB
:100040007047D20604D4DB6CDB6C18479007ECD009
:10005000704700BF704700BF836B5A6D42F040028B
:100060005A659A6D42F004029A65704702685549D4
:1000700038B5554B554D564CAA4218BF9A420CBF45
:10008000012300238A4208BF43F001033031A2421A
:1000900008BF43F0010330348A4208BF43F0010334
:1000A0003031A24208BF43F0010330348A4208BF16
:1000B00043F0010301F55C71A24208BF43F0010364
:1000C00004F55C748A4208BF43F001033031A24258
:1000D00008BF43F0010330348A4208BF43F00103F4
:1000E0003031A24208BF43F0010330348A4208BFD6
:1000F00043F001033031A24208BF43F001038A42BA
:1001000008BF43F0010313B9324B9A4208D10423CC
:1001100080F83530136823F001031360002038BDE8
:100120002D4B2E4D1168AA4218BF9A422C4C21F03B
:100130000E0105F13C050CBF012300231160A24212
:1001400008BF43F0010311682834AA4208BF43F0F6
:10015000010321F00101A24208BF43F0010314345E
:100160001160A24208BF43F001031E498A4208BF42
:1001700043F0010313B91C4B9A4217D10123856D3B
:10018000D0E91714226801F01F0122F480728B401D
:1001900022606B60C36ED0E91921516033B11A68D7
:1001A000D0E91C1422F480721A604C6001210022F4
:1001B000036D80F8351080F83420002BAED09847BE
:1001C000ACE700BF4000024010000240280002409F
:1001D00058000240B80402401C5402580854025807
:1001E0003054025880540258945402580168002236
:1001F0000B6880F842205A0410B40ED50B6823F423
:1002000080430B6090F84130292B10D090F841309A
:100210002A2B24D05DF8044B70471B04F2D50B68E1
:1002200023F400430B6090F84130292BEED12822B3
:10023000212380F841200022036390F841300C68AC
:1002400003F02803282B14BF6FF0F2036FF0420372
:1002500023405DF8044B0B6080F840207047282253
:10026000222380F841200022036390F841300C687B
:1002700003F02803282B14BF6FF0F4036FF044033E
:1002800023405DF8044B0B6080F84020704700BFAE
:100290000023202210B4174C4363C462036380F828
:1002A000412080F842304B07026811D5526A436AF8
:1002B0001A70436A028D013343624AB1438D013A99
:1002C000013B02859BB24385436C43F004034364C6
:1002D0000368102490F84120002190F841201A680A
:1002E00022F0FE021A60DC615DF8044B80F84010D9
:1002F000704700BF0000FFFF70B5574B002590F816
:100300004120044680F84250283AC3624585436C38
:10031000022A41EA0301036841642FD890F8411092
:1003200090F84120282001F0280102F02802282915
:1003300014BFF6214621282A1A680CBFC9436FF062
:10034000F6010A4045491A6084F84100A06B226B0F
:10035000616318B1112A42D0212A40D0E06B18B154
:10036000122A51D0222A4FD094F84130602B4FF0FE
:1003700000032DD0236384F8403070BD90F84120F5
:1003800090F841201A6822F0FE021A609A699207DA
:1003900000D59D629A69D60703D49A6942F001029A
:1003A0009A6194F84120602A10D0202284F84120DC
:1003B0009A6995060AD59A69D00605D51022DA61A0
:1003C000626C42F0040262642022DA610021BDE71F
:1003D000202284F8403084F84120236370BD1A68DD
:1003E00051042CD490F83530012BBDD000221C4B89
:1003F000036584F8402090F83520022A24D080221A
:100400004265BDE8704018471A68120403D51A689F
:1004100022F400421A6090F83530012BA4D000225B
:100420000F4B036584F8402090F83520022AE6D16E
:10043000FFF71CFE0028A0D0E06B036DE1E71A680F
:1004400022F480421A60CDE7FFF710FE002894D016
:10045000A06B036DD5E700BF0000FFFFDD040408BB
:100460002D08040803689A69196810B4D40528D5C2
:100470000C0606D4416C11F00B0F1FD15DF8044B34
:100480007047416C4FF4807441F0010141645105A3
:10049000DC6120D5416C4FF48064920541F0080185
:1004A0004164DC61E6D5426C4FF4007142F0020217
:1004B0004264D961416C11F00B0FDFD05DF8044B41
:1004C0001AE7540502D50906E4D4D3E79405D1D53B
:1004D0000906E8D4CEE79205E5D4CBE7F8B590F865
:1004E00040300D46C16A012B00F008810123AE06A1
:1004F000044680F8403001D5900656D4EB0619D555
:10050000D70617D5638D9BB2002B40F0F98094F885
:100510004130B1F1007FDBB240F0D580282B40F0B4
:10052000D28029462046FFF7B3FE0023184684F800
:100530004030F8BD68071AD42F0701D516074AD4F2
:10054000A807F2D59307F0D5638D9BB2002B00F07E
:10055000FA80616A236811F8010B228D9862638D1D
:10056000013A6162013B22859BB26385DDE7530757
:10057000E2D5638D9BB26BB12268636A526A1A70CE
:10058000638D606A228D013B0130013A9BB260624B
:1005900022856385638D9BB2002BC6D111F5803F08
:1005A000C3D02046FFF722FEBFE72368202118684A
:1005B000E66A94F84120D961213A092A1ED8DFE879
:1005C00012F0C70015001D001D001D001D001D00BC
:1005D000F000C700150094F84130226803F02803AA
:1005E000282B00F0C5800823D3619EE794F84120B2
:1005F0001A6822F0FC021A60222222635A68894992
:1006000042F400425A605A680A405A609A69910757
:1006100001D500229A629A69D20703D49A6942F0FE
:1006200001029A6147047BD51A6822F480421A605D
:10063000A26B1AB111684A6892B262856A070BD53B
:100640005A6A25F00405636A1A70636A01336362AB
:10065000238D002B40F08580638D9BB21BB1636CB2
:1006600043F004036364EB061AD5C70618D5638DFF
:100670009BB2002B40F0AA8094F84130282B03D184
:10068000B6F1007F00F0C98094F8413016F5803F44
:100690002268DBB202D0292B00F0AD801023D36199
:1006A000002384F84230666C6363002E40F084803F
:1006B000E36A5D4DAB423DD194F84130202384F88C
:1006C0004130266331E794F841202368292A4FF00E
:1006D0001002DA617FF429AF11F5803F3FF425AFB6
:1006E0009A69960701D500229A629A69D5073FF563
:1006F00058AF9A6942F001029A6152E70220F8BDB0
:1007000023681022DA61636C43F00403636431F000
:1007100080737FF40AAF616C2046FFF7EDFD04E7BC
:1007200001048BD51A6822F400421A60E26B002A99
:1007300080D183E72046FFF759FD2023E56284F846
:1007400041302663F1E631F080737FF4EEAE28E7A6
:1007500094F841201A6822F0FA021A6021222263DA
:100760004CE7013B2385638D013B9BB2638573E7B7
:10077000E1689369022990699368D56836D1C3F31B
:10078000C21383EA104313F006032FD1A16C013189
:10079000A164A16C02297FF4C8AE0821A364D161D1
:1007A000C3E694F8412094F841201A6822F0FE0232
:1007B0001A600022226321E7616C2046FFF79CFD4E
:1007C00094F84130282B7FF4B0AEAAE623681022BB
:1007D000DA61636C43F00403636436F080737FF482
:1007E0005FAF616C2046FFF787FD59E7136823F080
:1007F000B803136099E61023D3619369980701D574
:10080000002393629369D90703D4936943F00103EA
:1008100093612046FFF7EAFC42E729462046FFF7AE
:1008200037FD3DE700E800FE0000FFFF836B9A6B99
:100830000AB100211165DA6B0AB10021116593F844
:100840004120602A05D000221A63002283F840204C
:1008500070470022202183F841101A63002283F898
:1008600040207047016870B4CC072DD5914A1369B8
:10087000926A03F03803102B00F0E180182B00F08F
:10088000D9804368B3F5803F00F00581002B00F06C
:100890005A81B3F5A02F874B1A6800F0678222F4C3
:1008A00080321A601A6822F480221A60824B41F268
:1008B000883C804C1D6804E01A68521B624500F2B7
:1008C0003F8122689603F7D58A0768D4CD0631D5D3
:1008D000784A1369926A03F03803082B00F0C0804D
:1008E000182B00F0B880C369724C002B00F05F81B8
:1008F0002268714B42F0800222601D6804E01A6891
:10090000521B022A00F21C812268D205F7D56B4BDC
:10091000026A1D6841F20303B3EB154FC0F0448235
:100920006368202A23F0F8430CBF43F0804343EA76
:10093000826363600D0713D543695E4C002B00F0A2
:100940001881626F5C4B42F0010262671D6804E02F
:100950001A68521B022A00F2F380626F9207F7D5E1
:100960008C0613D58369534C002B00F0118122684B
:10097000514B42F4805222601D6804E01A68521BF9
:10098000022A00F2DD8022689204F7D5490700F1BF
:100990008880436A002B40F0BC80002059E0454A23
:1009A0001369926A13F038032BD1424AC368126864
:1009B000520701D5002B4BD03E4C226822F0190281
:1009C0001A433D4B22601D6804E01A68521B022A3C
:1009D00000F2B68022685607F7D5384B02691D68C9
:1009E00041F20303B3EB154F6368C0F0028123F4B7
:1009F0007C33402A0CBF43F4003343EA0233636084
:100A000064E7182B00F0F180C3682A4C002B00F03B
:100A1000DD80226822F019021A43274B22601D68EC
:100A200004E01A68521B022A00F28A8022685207E8
:100A3000F7D5D2E702F00302022A7FF422AF1D4B62
:100A40001B689B037FF540AF4368002B7FF43CAFEE
:100A5000012070BC704702F00302012A7FF443AF0B
:100A6000144B1B68DC0502D5C369802BF0D1134CF5
:100A700041F20303026A2468B3EB144FC0F0BF8055
:100A8000202A00F09E810B4C636823F0F84343EA70
:100A9000826363604EE7074A136843F48033136050
:100AA00004E70749044B0A6842F480720A601C6834
:100AB0000CE000BF00440258002A00240010005C33
:100AC000004802581A68121B642A39D80A68D505EA
:100AD000F8D58268012A00F06E81002A00F04E816C
:100AE000052A9F4A116F00F0748121F001011167FE
:100AF000116F21F0040111671D6841F28834984993
:100B000003E01A68521BA2421AD80A6F9207F8D55E
:100B10003FE793490A6902F03802182A00F0D580AD
:100B20000A68022B8F4B22F080720A606FD018681F
:100B30000A6892017FF531AF1A68121A022AF7D9B2
:100B4000032070BC7047864C41F28835854B226883
:100B500022F480322260226822F4802222601E6801
:100B600003E01A68921BAA42EAD822689203F8D4DA
:100B7000AAE6626F7B4B22F0010262671D6803E008
:100B80001A68521B022ADBD8626F9607F8D4E7E690
:100B90002268744B22F4805222601D6803E01A68B8
:100BA000521B022ACCD822689604F8D4EEE62268BA
:100BB0006C4B22F0800222601D6803E01A68521B11
:100BC000022ABDD82268D605F8D4B3E62268654B60
:100BD00022F0010222601D6803E01A68521B022AFB
:100BE000AED822685607F8D470E694077FF40CAFAD
:100BF000DBE623F0FE4343EA0263636066E6584C9B
:100C0000E36823F07C5343EA0263E36092E61C68E6
:100C100003E01A68121B022A92D80A689501F8D4D8
:100C20008C6A514A2240846A2243C46A42EA04120E
:100C30008A62D0E90D24013A013C5202240492B2A6
:100C400004F4FE042243046B013CC4F30804224371
:100C5000C46B013C240604F0FE4422430A63CA6AC2
:100C600022F00102CA624A6B846C6FF3CF0242EA3F
:100C7000C4024A63CA6A046C22F00C022243384C54
:100C8000CA62CA6A406C22F002020243CA62CA6A9D
:100C900042F48032CA62CA6A42F40032CA62CA6A44
:100CA00042F48022CA62CA6A42F00102CA620A6839
:100CB00042F080720A601968226890013FF56DAEBB
:100CC0001A68521A022AF7D93AE7012B8A6A0D6B81
:100CD0003FF4BEAE02F00303846AA3427FF4B8AED1
:100CE000C2F30512C36A9A427FF4B2AE036BC5F336
:100CF0000802013B9A427FF4ABAE436BC5F3462238
:100D0000013B9A427FF4A4AE836BC5F30642013BDC
:100D10009A427FF49DAEC36BC5F30665013B9D42CD
:100D20007FF496AE4B6B816CC3F3CC0399423FF4D6
:100D300034AE0B480B4BC26A22F00102C2621A6841
:100D400018688242FCD0064A536B6FF3CF0343EA24
:100D5000C1035363D36A43F00103D3621DE600BFAE
:100D600000440258002A00240CFCFFFF42F48022B9
:100D70001A601A6842F480321A6097E5194941F204
:100D800088350A6F22F001020A670A6F22F0040216
:100D90000A671C6804E01A68121BAA423FF6D0AE2C
:100DA0000A6F9607F7D4F4E5E36823F07C5343EA2F
:100DB0000263E360BEE50B490A6F42F001020A6775
:100DC0009AE6084A536823F0F84343F0804353609F
:100DD000B0E541F004011167116F41F001011167A5
:100DE0008AE600BF00440258334B30B4996A9C6ACB
:100DF000DD6A14F47C7F5A6BC4F3051036D0C2F35D
:100E0000CC0205F0010501F0030107EE900A05FB95
:100E100002F20129B8EEE77A06EE902AFAEEE96AC4
:100E200002D0022942D019B3DFED247A87EE876A17
:100E30001B6BC3F3080307EE903AF7EE005AF8EE87
:100E4000E77A77EEA67A77EEA57A67EE867A1A4B7E
:100E50001B6BC3F34623013307EE103AF8EEC76A63
:100E600087EEA67AFCEEC77A17EE900A30BC704780
:100E70001A6892061DD51968F7EE005A104A1B6BC6
:100E8000C1F3C101C3F30803CA4007EE903A06EE6E
:100E9000102AF8EEE77AB8EEC66A77EEA66AC6EED2
:100EA000077A36EEA57A67EE877AD0E7DFED057A26
:100EB000BCE7DFED057AB9E7004402580024744A24
:100EC0000090D0030024F44A0024744CF0B5354A55
:100ED000B0F1804F344DA0EB02020368A0EB050E89
:100EE0004C69B2FA82F28F68BEFA8EFE0E684FEA43
:100EF00052124FEA5E1E1FD0F2B9DFF8B8C060454B
:100F000037D00CF5806C604533D00CF5806C6045B3
:100F100012D0BEF1000F0FD1244D254A904218BFC8
:100F2000A8422AD002F58062904226D023F08003A6
:100F3000C76286621C4314E04D6823F07003D1F849
:100F40000CC02B43C762866223F4407343EA0C0350
:100F500023F080031C4312B9BEF1000F16D00B69B9
:100F600003630368012243F00403036042610460E9
:100F7000F0BD23F070034A681343CA6823F440733A
:100F8000C7621343866223F080031C43074A084B61
:100F9000984218BF9042E2D003F580639842DED0B9
:100FA000DFE700BF000001400004014000400140B5
:100FB0000044014000040040836A1A0710B406D5BB
:100FC0000168846B4A6822F4004222434A60DC07CD
:100FD00006D50168C46A4A6822F4003222434A6096
:100FE000990706D50168046B4A6822F480322243CF
:100FF0004A605A0706D50168446B4A6822F4802289
:1010000022434A60DC0606D50168C46B8A6822F474
:10101000805222438A60990606D50168046C8A686A
:1010200022F4005222438A605A060AD50168446CB1
:101030004A68B4F5801F22F4801242EA04024A6032
:101040000BD01B0606D50268C16C536823F400233D
:101050000B4353605DF8044B70474A68846C22F47C
:10106000C00222434A60ECE70022836BA3F85E20B3
:10107000704700BF036942681F2B70B432D9A3F1D7
:10108000200520245168AC40214229D08169087C88
:10109000032838D0087C022801D100200874486851
:1010A0001F2BC968046906684D68C4F3032440799E
:1010B000164931F8100001EB840100F4F0508C68FF
:1010C000F16821EA0001F1601149085D295821F019
:1010D0000101295011D9A3F1200120238B40D360B5
:1010E00070BC7047202411689C402142F8D081696F
:1010F000087C0328CED19460F2E7202101FA03F3A3
:1011000070BC93607047D460EAE700BF88950C0814
:10111000BC960C08D0E907239A423CBFC16852181C
:10112000D01A7047D0E9092300699A4238BF1218D3
:101130000138D31AC01A7047D0E90902101AB0FA60
:1011400080F04009704700BF016A034640694A1CAD
:10115000405CD9688A4228BF00221A62704700BFEB
:10116000436A826910B4D154436A416B0469013304
:101170000A68A34228BF00235DF8044B42F08002B6
:1011800043620A60704700BF436BD86910F01000DB
:1011900002D0102201201A62704700BF024B01F0FA
:1011A00001011970704700BF00000024704700BFA4
:1011B000704700BF704700BF01207047034B58685D
:1011C0009B68C01AC0F30B00704700BF002A0024C0
:1011D000074B93F8A822012A01D10020704793F809
:1011E000A832032BF9D1034B1878C0B2704700BF67
:1011F000002A002400000024012380F849307047B1
:10120000EFF31182702383F312880849D2B2D1E937
:10121000BA3182F31188581E8B42A0EB01008CBFBB
:101220000023012300EB0330704700BF002A002495
:1012300070B5D0F8D442D0F8C86200EB840EDEF866
:10124000C05245B301F00F040A4604EB840C00EBD6
:101250008C0CDCF818306BB9DEF8C43200211B6945
:10126000C5F8141223B105F50471D5F808029847A2
:10127000002070BD04EBC40406EB8406F469B3FBE4
:10128000F4F604FB1633002BE6D11A46CCF81830DE
:1012900080F0E0FFECE7032070BD00BFD0F8D4225F
:1012A00000EB820210B5D2F8C042ACB101F00F03DE
:1012B000D0F8C802D2F8C42204F5037103EBC303CB
:1012C000D26800EB8303D4F80402D3F86832C4F880
:1012D0000C329047002010BD032010BDD0F8D4324E
:1012E00000EB830010B5D0F8C04284B1D0F8C4320E
:1012F0005BB194F80002FF2807D09B68214694F860
:1013000001229847FF2384F80032002010BD0320FB
:1013100010BD00BF30B52B4C86462379E5889D4231
:1013200042D91846043419461A4602E0954246D975
:1013300021780C440A44617892B20529F6D1A1784B
:101340008229F3D19C461A461F4903E0AA4234D2AF
:1013500091F800C06144624491F801C092B2BCF1BE
:10136000050FF3D191F802C0BCF1010FEED1164A7E
:1013700002E0A8421DD213781A44034492F801C037
:1013800098B2BCF1050FF4D19378812BF1D10CB157
:101390001023A37119B10020022308714B711AB1F7
:1013A000002102231171537143230748AEF8003026
:1013B00030BD0022002CEBD1ECE70021D7E7002460
:1013C000C0E700BF000000240400002430B52B4C0F
:1013D00086462379E5889D4242D918460434194649
:1013E0001A4602E0954246D921780C440A446178B5
:1013F00092B20529F6D1A1788229F3D19C461A46EA
:101400001F4903E0AA4234D291F800C0614462440B
:1014100091F801C092B2BCF1050FF3D191F802C06E
:10142000BCF1010FEED1164A02E0A8421DD213789A
:101430001A44034492F801C098B2BCF1050FF4D1EC
:101440009378812BF1D10CB11023A37119B1002035
:10145000402348710B711AB100214023517113715F
:1014600043230748AEF8003030BD0022002CEBD1FA
:10147000ECE70021D7E70024C0E700BF000000240C
:1014800004000024A2E700BF03460A2201481A8094
:10149000704700BF48000024064B4FF0120C064A6C
:1014A000A3F11400526DA1F800C0022A18BF18461B
:1014B000704700BF68000024004000580423014822
:1014C0000B8070477C0000241D48D0F80038D0F80D
:1014D000082830B59B184FF01A040C8001D1194828
:1014E00030BD184A0024D0F8040802F11005114656
:1014F0004FEA137EB3F1204FCC7001F102010EF1DF
:10150000370C38BF0EF1300C8D424FEA031381F8CF
:1015100000C0EDD102F108050024010FB0F1204F09
:10152000D47402F1020201F1370338BF01F1300334
:1015300095424FEA00101374EFD1024830BD00BF4E
:1015400000E0F11F80000024122301480B80704747
:101550005400002400207047212808B528D02228F4
:1015600018D0202814D199B1072A11D1184A086837
:10157000184BB1F804C0D2F8F0228979C3F89C0066
:10158000A3F8A0C083F8A21012B101460020904732
:10159000002008BD0029FBD0022AF9D10C4AD2F85C
:1015A000F432002BF4D00988D2F8F8029847EFE71C
:1015B0000029EDD0072AEBD1064B0020D3F89C2060
:1015C0000A60B3F8A0208A8093F8A2308B7108BD1E
:1015D000002A002400000024002070471149D1F89F
:1015E00050231379022B00D0704793689B07FBD5DB
:1015F000D1F854134FF4FA7C0B4B0CFB01F10B4860
:10160000A3FB013110B48909446843681B1B99424C
:10161000FBD2536913B11A689B8893615DF8044B40
:10162000704700BF002A0024D34D6210001000E074
:10163000034B93F82003003818BF0120704700BF08
:10164000002A00240E4BD3F84C2342B11068918835
:101650000269114203D0002283F82023704793F8D7
:1016600014230132D2B2072A83F81423F3D8D3F813
:1016700058130122C3F8101383F82023704700BFCA
:10168000002A0024034B93F82003032894BF002072
:1016900001207047002A002400487047242D0024B0
:1016A0002DE9F84F2C4E8B46D6F8C822D6F8588331
:1016B00005E0D6F85833A3EB0803322B44D8D2F810
:1016C0001472002FF5D1BBF1000F3ED000F1FF3AAC
:1016D0004FF07009D6F8EC321AF8012F1F49CA549E
:1016E0000133C3F30B03C6F8EC32EFF3118289F335
:1016F0001288D2B2D6E9BA3182F311888B42A3EBB9
:1017000001038CBF0022012203EB0233012B1FD106
:10171000D6F85833A3EB0803322B16D813F020F970
:1017200004460D4613F01CF9001B61EB0501B0F5F2
:101730007A7F71F10001F5D3EFF3118289F31288FA
:10174000D6E9BA31D2B2D7E700273846BDE8F88FDC
:101750000137BB45BED1F8E7002A00245C390024DC
:10176000F8B5104D95F8A832012B00D1F8BD95F8C9
:10177000A832032BFAD10C4B1B78002BF6D00F4666
:101780001446D5F8586308E0FFF78AFFD5F85833B8
:10179000241A07449B1B322BE8D8002C21463846DC
:1017A000F2DCF8BD002A002400000024F8B590F80F
:1017B00048305D1C0344EDB280F8485083F8341083
:1017C00090F8493053B1132D07D9002380F84830E1
:1017D000104F97F8A832012B05D1F8BD80F848309A
:1017E000002DF5D1F8BD97F8A832032BF5D1D7F825
:1017F000586300F1340429462046FFF751FFD7F81B
:1018000058332D1A04449B1B322BE6D8002DF2D1FD
:10181000F8BD00BF002A0024F8B5002390F8485016
:10182000A0F8483005B9F8BD0D4F97F8A832012B44
:10183000F9D097F8A832032BF5D1D7F8586300F107
:10184000340429462046FFF72BFFD7F858332D1ACA
:1018500004449B1B322BE6D8002DF2D1F8BD00BF0B
:10186000002A00242DE9F047046982B0C3681C40B7
:1018700046D0814688464FF0004501F1500701F1FE
:101880003806B4FA84F325FA03F21B3BD243144022
:10189000C9F81020B8F1000F5FD0042B2ED8DFE874
:1018A00003F052483D320300D8F81030D9F82CA08C
:1018B00033B19B6823B11FFA8AF108F108009847F9
:1018C000D8F8283033B19B6823B11FFA8AF108F1A8
:1018D00020009847D8F8403033B19B6823B11FFAF5
:1018E0008AF108F138009847D8F8583033B19B682E
:1018F00023B11FFA8AF108F150009847002CC0D19B
:1019000002B0BDE8F087D8F8103008F10800D9F827
:1019100034105B689847002CB3D1F1E7D8F8283031
:1019200008F12000D9F838105B689847002CA8D13E
:10193000E6E7D8F840303046D9F83C105B68984765
:10194000002C9ED1DCE7D8F858303846D9F8401042
:101950005B689847002C94D1D2E7042B07D8DFE8C6
:1019600003F01903140F0A00D9F83C300193019BCE
:10197000002C86D1C4E7D9F82C300193019BF7E7FE
:10198000D9F834300193019BF2E7D9F8383001934C
:10199000019BEDE7D9F840300193019BE8E700BFD8
:1019A000174A10B55368906891681B1AC3F30B036C
:1019B000002BF7D0B1F5805F0AD04B1C1148C3F360
:1019C0000B03445C936092F85C334BB9204610BD26
:1019D00001230C49936092F85C330C78002BF5D00E
:1019E0009368516803F6FF735B1AC3F30B03802BF4
:1019F000ECD9002382F85C3379F0AAF9204610BDB7
:101A0000002A00245C4900245A4B00215A4AD3F88A
:101A1000A4305A48A2FB032330B5DB0C584C83B0EA
:101A2000013BC4F87013C4F8681342F20F7194F8C4
:101A30009D23C4F86003C4F86C13C4F86433002A0F
:101A400000F0938002254F494C4884F89D53FFF7DE
:101A50003DFA01234C4A0621372084F8A83384F844
:101A60009E3384F89F3384F8A03384F8A13384F83C
:101A7000A23384F8A33384F8A43384F8A53384F81C
:101A8000A63384F8A73384F89D33D2F8E83043F0C6
:101A90002003C2F8E830D2F8E83003F020030193C5
:101AA000019B78F08FFD394B4FF400025A6094F897
:101AB0009D33012B3BD1D4F86023354B3548B2F12F
:101AC000804F18BF9A4284F89D53D1680CBF012300
:101AD000002341F00101824208BF43F0010300F5F9
:101AE0008060D160824208BF43F0010300F580604E
:101AF0002949824208BF43F0010300F57840824241
:101B000008BF43F001038A4208BF43F0010313B941
:101B1000224B9A4207D19168214B0B40062B06D0ED
:101B2000B3F5803F03D0136843F001031360D4F88A
:101B3000E03204EB8303D3F8CC3243B119480021DF
:101B4000194AC3F80802C3F81012C3F8042200258A
:101B50006560C4F8F452A560C4F8F05284F85C5390
:101B600079F0F6F8284603B030BD02F0FF0084F8A3
:101B70009C0367E70000002483DE1B430014004041
:101B8000002A0024642D00240044025800E100E0F3
:101B900000000140000400400018004000400140E7
:101BA000070001005C390024AC2D00242DE9F84326
:101BB0001B4E07460D687468C4F58058454516D815
:101BC0002A46254417483946C5F30B05204486F0BC
:101BD0001DFF7560B36803F6FF735B1BC3F30B0354
:101BE000802B16D979F0B4F80020BDE8F883DFF82F
:101BF00034900146424609EB0400A4F5805486F077
:101C000005FF07EB0801254448462A4686F0FEFEFC
:101C1000DFE70123032086F85C33BDE8F88300BFCB
:101C2000002A00245C4900242DE9F04101210446EA
:101C30004FF4077087F024FA054600286CD0D4F8DA
:101C4000D46204EB8606C6F8C002237CC4F8BC024A
:101C5000002B40D0402302228121204680F06CF8E6
:101C60000121402302222046218780F065F84FF0B1
:101C700001080823032282212046A4F8788180F0FD
:101C80005BF8294B0027E364D6F8C432C5F8047228
:101C90001B689847D5F80402C5F81472C5F8187285
:101CA00000283ED0227CD4F8C83222BBC3F88C2254
:101CB0004FF400749A7903F51E71C3F88402012A67
:101CC000A3F87882C3F8884223D0186880F0B2F96C
:101CD0000020BDE8F08120464FF4007302228121EC
:101CE00080F02AF801214FF4007302222046218758
:101CF00080F022F8BBE79A79402403F51E71C3F8FF
:101D00008C72012AC3F88402A3F87882C3F888424F
:101D1000DBD1C3F89402D8E7D4F8D432B03344F816
:101D200023000220BDE8F08101001000F8B5D0F8D2
:101D3000C85240F20112044695F894342A87012BC8
:101D40003ED00126002728683246314685F8946443
:101D500080F000FB27873A4631462868A5F878626C
:101D600085F8946480F0F6FA4FF48173A4F87871E2
:101D700032460221286885F89464A5F85C3080F02A
:101D8000E9FA85F89474D4F8D432002504EB83037F
:101D9000E564D3F8C0228AB1D3F8C4325B689847AF
:101DA000D4F8D432B03354F8230087F06DF8D4F867
:101DB000D432B03344F82350C4F8BC520020F8BDEC
:101DC00000224FF481710287A5F87832A0F87821BB
:101DD000A5F85C10D7E700BFD0F8D43200EB83033E
:101DE000F0B5002683B0D3F8C0728DF80560ADF869
:101DF00006605FB191F800C004460D461CF0600219
:101E00002FD0202A05D0204680F0DAF8032003B036
:101E1000F0BDCA884878002A42D01CF0800F00F03C
:101E20008380D3F8C43239469B689847EA880223F6
:101E30004FF48071072AC4F8943228BF0722D4F8DF
:101E4000C832C4E906225A629A79998203F11401D0
:101E5000012A1F629E6200D11F63186880F0EAF8B1
:101E600022E04B780B2BCED801A252F823F000BF12
:101E7000AD1E0408A91E0408071E0408071E040856
:101E8000071E0408071E0408071E0408071E04088E
:101E9000071E0408071E0408ED1E0408E31E0408BC
:101EA000D3F8C4329B6898470020B0E790F89C3282
:101EB000032BA8D10222D0F8C8320020C4F8942203
:101EC00003F11401C4E906220DF106049862C3E986
:101ED00008424FF480729A829A79012ABDD11C631C
:101EE000BBE790F89C32032BDED08CE790F89C3255
:101EF000032B88D101220221D0F8C832C0F89412F5
:101F000003F11401C0E906220DF10500C3E908023E
:101F10004FF4807200209A829A799862012A9CD1AB
:101F20000DF10500186398E7402A4FF0030387F886
:101F3000000228BF402287F80122C4F89432D4F866
:101F4000C832C4F85821C4F85C2103F51571C3F8F0
:101F500064229A79C3F86072012AC3F86862A3F810
:101F6000546208BFC3F8707277E700BF08B520B9A4
:101F7000044878F025F9044808BD044878F020F9B1
:101F8000014808BDFC420D08EC2D002420430D083B
:101F9000024808B578F014F9014808BD44430D081B
:101FA000EC2D0024024808B578F00AF9014808BD74
:101FB0004C430D08EC2D0024024808B578F000F9D8
:101FC000014808BD58430D08EC2D002408B520B980
:101FD000044878F0F5F8044808BD044878F0F0F8B3
:101FE000014808BD68430D08EC2D002488430D0806
:101FF000024808B578F0E4F8014808BDA8430D0888
:10200000EC2D0024024808B578F0DAF8014808BD44
:10201000B4430D08EC2D002470B5134D134AD5F8C8
:10202000A430A2FB03239B09013BB3F1807F01D3C2
:10203000012070BD4FF0E0220D4900240F285361AC
:102040004FF0F003064681F823304FF00703946108
:102050001361EDD801464FF0FF3078F0B3FA204617
:10206000C5F8A86070BD00BF00000024D34D621009
:1020700000ED00E03749024603688B4233D0183147
:10208000591AB1FA81F1490969BB3348834240D0FA
:102090001830834240D01830834236D01830834203
:1020A0003DD01830834240D0183083422CD000F508
:1020B0005670834237D029498B4233D018318B4236
:1020C00036D018318B4236D018318B4236D0183189
:1020D0008B4236D018318B4236D018318B4236D0F5
:1020E00023F0FF0013E0DBB21D491E48103B10B483
:1020F0001D4CA4FB03435DF8044B01EB131393F851
:102100002810C2E91601704716211848D16590655C
:10211000704710211348F9E716211248F6E7062107
:102120001248F3E706211248F0E710210F48EDE7C7
:1021300010210F48EAE716210D48E7E700210D4876
:10214000E4E706210B48E1E710210A48DEE7162103
:102150000848DBE71000024040000240280402402B
:1021600088950C0800000240ABAAAAAA040002400D
:102170000004024004040240F0B50C461146026817
:102180008646936913F0100C72D04FF0000C1023A8
:1021900038486546D36193699E065FD445B90368A4
:1021A0005B1AA3423DD893699F06F8D52023D361DB
:1021B0004CF0040C01209369D90552D54FF480717D
:1021C0005F054CF0010CD16104D54FF480614CF0F7
:1021D000080CD1619D0504D54FF400734CF0020C3E
:1021E000D3619369990701D5002393629369DB0753
:1021F00003D4936943F001039361536820241E497B
:1022000001200B4000215360DEF844308EF840106E
:1022100043EA0C03CEF844308EF841408EF8421069
:10222000F0BD57689EF842309669DBB2360408D597
:102230007E0406D4202B04D0536843F480435360BB
:10224000016893699F06A6D403685B1A192BF8D915
:1022500093694FF0200C01259E069FD5002DA5D037
:10226000A6E75E05B1D49C05B6D40028B9D1F0BD6F
:102270006046A0E7002A002400E800FE2DE9F047B0
:1022800007689A46089EBB6931EA03030CBF012325
:102290000023934220D180460C461546DFF85C901F
:1022A000324651464046FFF767FF20BBD9F8003061
:1022B000A3EB060CD44507D9BB6934EA03030CBF72
:1022C00001230023AB420AD0BB6934EA03030CBFED
:1022D00001230023AB42E3D00020BDE8F087D8F80B
:1022E0004430202288F840001343C8F8443088F86E
:1022F000412088F842000120BDE8F087002A002430
:102300000C4A136903F03803102B0DD0182B09D099
:1023100063B913689B060BD513680748C3F3C10361
:10232000D8407047FEF760BD0448704704487047C6
:1023300001487047004402580090D00300127A0010
:1023400000093D00194A136903F03803102B10B53A
:1023500025D0182B09D023BB13689B0623D51368FF
:102360001348C3F3C103D84001E0FEF73DFD0F4918
:10237000104A8B698969C3F303230F4C01F00F01E5
:1023800013440A4493F8301092F8303001F01F02E1
:1023900003F01F03D040C4F8A400D84010BD074884
:1023A000E5E70748E3E70248E1E700BF00440258D9
:1023B0000090D00388950C080000002400127A00D9
:1023C00000093D00474A70B4946A956AD66A15F4CC
:1023D0007C3FC5F30533D16B5BD0C1F3CC01C6F3B1
:1023E000001604F0030407EE903A06FB01F1012CFD
:1023F000B8EEE77A06EE901AFAEEE96A03D0022CFC
:102400006AD0002C4AD0DFED387A87EE876A936B6A
:10241000C3F3080307EE903AF7EE005AF8EEE77AB6
:1024200077EEA67A77EEA57A67EE867A2D4AB7EE32
:10243000006A936BC3F3462307EE103AB8EEC77AEF
:1024400070BC37EE067AC7EE876AFCEEE66AC0ED2E
:10245000006A936BC3F3064307EE103AB8EEC77AEF
:1024600037EE067AC7EE876AFCEEE66AC0ED016ACF
:10247000936BC3F3066306EE903AF8EEE66A76EEE7
:10248000866A87EEA67AFCEEC77A17EE903A8360EA
:10249000704770BCC0E900338360704713689B06C7
:1024A0001DD51468F7EE005A936B1049C4F3C102AE
:1024B000C3F30803D14007EE903A06EE101AF8EE87
:1024C000E77AB8EEC66A77EEA66AC6EE077A36EE07
:1024D000A57A67EE877AA9E7DFED057A95E7DFED64
:1024E000057A92E7004402580024744A0090D00311
:1024F0000024F44A0024744C474A70B4946A956AE4
:10250000D66A15F07C7FC5F30553516C5BD0C1F3DF
:10251000CC01C6F3002604F0030407EE903A06FB54
:1025200001F1012CB8EEE77A06EE901AFAEEE96AAC
:1025300003D0022C6AD0002C4AD0DFED387A87EE27
:10254000876A136CC3F3080307EE903AF7EE005A5C
:10255000F8EEE77A77EEA67A77EEA57A67EE867AD6
:102560002D4AB7EE006A136CC3F3462307EE103A08
:10257000B8EEC77A70BC37EE067AC7EE876AFCEE13
:10258000E66AC0ED006A136CC3F3064307EE103A27
:10259000B8EEC77A37EE067AC7EE876AFCEEE66ACF
:1025A000C0ED016A136CC3F3066306EE903AF8EED1
:1025B000E66A76EE866A87EEA67AFCEEC77A17EEB2
:1025C000903A8360704770BCC0E900338360704705
:1025D00013689B061DD51468F7EE005A136C10495A
:1025E000C4F3C102C3F30803D14007EE903A06EEEC
:1025F000101AF8EEE77AB8EEC66A77EEA66AC6EE6B
:10260000077A36EEA57A67EE877AA9E7DFED057AD5
:1026100095E7DFED057A92E7004402580024744AFA
:102620000090D0030024F44A0024744C02698368AB
:1026300070B5044605681343C069626986B02968AD
:102640001343AC4A03430A40616A1343E2682B60B8
:102650006B6823F440531343A2696B60A64B9D4201
:1026600000F06681236AAE681A43A44B33401A43D4
:10267000AA60EB6A23F00F030B43EB62A04B9D4271
:1026800028D0A04B9D421AD09F4B9D4217D09F4B04
:102690009D4214D09E4B9D4211D09E4B9D4219D01D
:1026A0009D4B9D420BD09D4B9D4208D001200023A5
:1026B0004FF001126367A266A36706B070BD984B26
:1026C0005B6D03F00703052BF0D8DFE803F09F7F75
:1026D0008A925F79924B5B6D03F03803282BE5D823
:1026E00001A252F823F000BF95280408AD26040883
:1026F000AD260408AD260408AD260408AD2604085E
:10270000AD260408AD260408CD270408AD2604082C
:10271000AD260408AD260408AD260408AD2604083D
:10272000AD260408AD260408E3270408AD260408F6
:10273000AD260408AD260408AD260408AD2604081D
:10274000AD260408AD260408F3270408AD260408C6
:10275000AD260408AD260408AD260408AD260408FD
:10276000AD260408AD2604088D270408AD2604080C
:10277000AD260408AD260408AD260408AD260408DD
:10278000AD260408AD260408C1270408B0F5004FA3
:10279000644853D0644B626803EB4103B3F84030A4
:1027A000B0FBF3F000EB52004FF6EF73B0FBF2F02A
:1027B000A0F110029A423FF679AFE860002076E778
:1027C000B0F5004F3AD04FF40040E3E7B0F5004FCA
:1027D0002DD003A8FFF7F6FD04980028EED0616A1B
:1027E000D8E7B0F5004F71D06846FFF785FE019835
:1027F000F3E7B0F5004F5ED0494B1A68920639D521
:102800001B684A48C3F3C103D840C3E7B0F5004F83
:1028100032D0FFF797FD424A434BD269C2F302120E
:10282000134493F8303003F01F03D840D5E703A8D2
:10283000FFF7C8FD04980028C0D0616A3A4B62686F
:1028400003EB41034FF6EF71B3F84030B0FBF3F008
:10285000530803EB4003B3FBF2F3A3F110028A42E7
:102860003FF624AF23F00F02C3F3420392B21343A7
:10287000EB60A3E72D488DE7FFF764FD284A2A4B5C
:10288000D269C2F30212134493F8303003F01F03ED
:10289000D840D0E7B0F5004F1DD0FFF753FD204AD8
:1028A000214BD269C2F30222134493F8303003F073
:1028B0001F03D84091E71A4B1A68900640F1A58093
:1028C0001B681A48C3F3C103D840B7E76846FFF74F
:1028D00013FE0198AFE7FFF735FD114A124BD2699D
:1028E000C2F30222134493F8303003F01F03D840A0
:1028F000A1E700BFF369FFCF000C0058FFF4FF1100
:10290000001001400044004000480040004C0040DE
:10291000005000400014014000780040007C00405E
:102920000044025800093D0088950C080090D0032F
:10293000A868374B03401343364AAB60EB6A23F079
:102940000F030B43EB62936D03F00703052B3FF678
:10295000ADAEDFE803F0413C3303524F2D4B1A6814
:1029600095064CD42C482D4B656803EB410305EBD1
:102970004501B3F84020B0FBF2F399423FF696AE22
:10298000B3EB053F3FF692AE0023194681F026FED9
:102990002A460902030241EA1061680818184FF03C
:1029A000000341F1000181F019FE1D4BA0F54072BA
:1029B0009A423FF67BAE1B4BD860FFE66846FFF7B6
:1029C0009BFD019800283FF4F9AE616ACBE703A8AC
:1029D000FFF7F8FC0498F5E7FFF7B4FC0D4A0F4B3E
:1029E000126AC2F30212134493F8303003F01F034B
:1029F000D840E7E74FF40040B5E70B48B3E71B6862
:102A00000548C3F3C103D840ADE7034816E700BF4C
:102A1000FFF4FF11004402580090D00388950C0881
:102A2000FFFC0F00000C005800093D00344A1368F9
:102A300030B423F08063334C1360256803E02368CF
:102A40005B1B022B54D813681B01F8D4936A0568EA
:102A500023F47C3343EA053393628368C568013B02
:102A6000013D5B022D049BB205F4FE052B43456836
:102A7000013DC5F308052B430569013D2D0605F011
:102A8000FE452B439363D36A456923F0C0032B4370
:102A9000D362D36A856923F020032B43D362D36AC0
:102AA00023F01003D362D36BC0696FF3CF0343EA03
:102AB000C003D363D36A43F01003D362D36AD1B1A6
:102AC00001290CBF43F4801343F40013D3620C4A72
:102AD000136843F080631360216803E023685B1A86
:102AE000022B05D813681B01F8D5002030BC7047B5
:102AF000032030BC704743F40023D362E7E700BFF4
:102B000000440258002A0024344A136830B423F0E9
:102B10008053334C1360256803E023685B1B022B52
:102B200054D813689B00F8D4936A056823F07C732B
:102B300043EA055393628368C568013B013D5B022C
:102B40002D049BB205F4FE052B434568013DC5F3FA
:102B500008052B430569013D2D0605F0FE452B4375
:102B60001364D36A456923F440632B43D362D36A69
:102B7000856923F400732B43D362D36A23F48073F3
:102B8000D362536CC0696FF3CF0343EAC00353644D
:102B9000D36A43F48073D362D36AD1B101290CBFE5
:102BA00043F4000343F08073D3620C4A136843F08C
:102BB00080531360216803E023685B1A022B05D859
:102BC00013689B00F8D5002030BC7047032030BC50
:102BD000704743F48003D362E7E700BF0044025824
:102BE000002A0024026810B452E8003F23F49073D6
:102BF00042E800310029F7D1144C02F1080353E8F0
:102C0000003F234002F1080C4CE800310029F4D1C8
:102C1000C36E012B08D0002320225DF8044BC0F8BE
:102C20008C204367C366704752E8003F23F01003CF
:102C300042E800310029EED052E8003F23F01003B3
:102C400042E800310029EFD1E5E700BFFEFFFFEFCA
:102C5000436BDA69F0B5970683B0044642D5586AEB
:102C6000E36AC0B2002B00F09580216B9847636B3C
:102C70001A681D4622F480721A609A6822F00102D6
:102C80009A609A6942F008029A61DA69D6072DD4EF
:102C9000DA69900701D502221A62DA69510701D573
:102CA00004221A62DA69120701D508221A62DA6967
:102CB000170612D5D4F8BC20212A0ED0D4E9091267
:102CC0008A4273D0A169895C0132C9B299622169D3
:102CD000B2FBF1F001FB1022A262DA69560608D4B9
:102CE00003B0F0BDDA691D46D607D1D501221A62BC
:102CF000CEE7DA6940F60F0C1E6804F1340012EAE0
:102D00000C0F996836D0B24F0F4040F0BB80DFF80F
:102D1000CCC216EA0C0F40F06381D4F8A050012D0C
:102D20004CD0D50202D54F0200F16781150606D5B9
:102D300001F4000106F080050D4340F04381510687
:102D4000CED57206CCD553E8002F22F0400243E8DE
:102D5000002141B1626B52E8003F23F0400342E89A
:102D600000310029F7D120220023C4F8BC20C4F888
:102D7000AC30B5E79506D0D506F0200501F08057B8
:102D80003D43CAD0D4F8A830002BA9D003B0BDE889
:102D9000F0401847E3696269D054E369E26801339F
:102DA000B3FBF2F102FB1133E36160E70022A4F808
:102DB0008A201A6822F080021A608EE7D706B0D502
:102DC000F506AED51022B4F890501A629A685706EC
:102DD00040F11D81D4F8B40001684A6892B2002A1B
:102DE00000F05081AA4280F04D81C169A4F8922080
:102DF000B1F5807F40D053E8002F22F4807243E881
:102E0000002141B1626B52E8001F21F4807142E859
:102E10000015002DF7D103F1080252E8002F22F02F
:102E2000010203F1080545E800210029F3D103F16F
:102E3000080252E8002F22F0400203F1080545E89D
:102E400000210029F3D12022C4F8C020C4F8A0102A
:102E500053E8002F22F0100243E80026002EF7D19D
:102E60005C490D6840B190F83530022B00F01381B9
:102E7000802380F8346043650223C4F8A430B4F89A
:102E800092302DE712F0010F0CD016F4807F09D09C
:102E90004FF0010CC3F820C0D4F8C4C04CF0010CB2
:102EA000C4F8C4C012F0020F7BD112F0040F0CD092
:102EB00011F0010F09D04FF0040CC3F820C0D4F872
:102EC000C4C04CF0020CC4F8C4C012F0080F0CD0FF
:102ED00006F0200C5CEA070C07D008271F62D4F824
:102EE000C47047F00807C4F8C47017050AD5770105
:102EF00008D54FF400671F62D4F8C43043F02003B4
:102F0000C4F8C430D4F8C430002B3FF4E9AE9206C4
:102F10000CD506F0200601F080510E4306D0D4F8FF
:102F2000A8301BB101909847656B0198D4F8C42074
:102F3000AB6802F0280203F04003134361D0FFF7AF
:102F400051FEAB685B067FF5CBAE05F1080353E895
:102F5000003F23F0400305F1080141E8003262B16F
:102F6000626B02F1080353E8003F23F0400302F1D3
:102F7000080040E800310029F3D1D4F8B40000285B
:102F80003FF4AEAE90F83520134B022A03653BD1D7
:102F9000FDF76CF800283FF4A3AED4F8B400036D3D
:102FA000F4E611F0010F90D04FF0020C12F0040F74
:102FB000C3F820C0D4F8C4C04CF0040CC4F8C4C09A
:102FC00083D078E7D4F8AC30002B7FF4DFAE87E60F
:102FD00001000010002A00246910040820010004E8
:102FE00012F0010F3FF471AF16F4807F7FF450AF01
:102FF00012F0020F7FF469AF57E74FF480121A62A4
:103000006EE6C4F8C4306BE680224265BEE6B4F8D2
:103010009220B4F8921092B289B2AA423FF460AE04
:1030200000293FF45DAE53E8002F22F4907243E88C
:10303000002141B1626B52E8001F21F4907142E817
:1030400000100028F7D1954803F1080252E8002F3C
:10305000024003F1080545E800210029F4D12022AF
:10306000C4F8A810C4F8C020C4F8A01053E8002F7A
:1030700022F0100243E800210029F7D10223C4F80E
:10308000A4302DE6AA427FF42BAEC369B3F5807F4E
:103090007FF426AEF2E70368814A824E824FB34244
:1030A00018BF934206F118060CBF01220022B3425A
:1030B00008BF42F001021836B34208BF42F00102D5
:1030C0001836B34208BF42F001021836B34208BFB7
:1030D00042F0010206F55676B34208BF42F0010203
:1030E0001836B34208BF42F001021836B34208BF97
:1030F00042F001021836B34208BF42F0010218360E
:10310000B34208BF42F001021836B34208BF42F092
:1031100001021836B34208BF42F00102A6F59266DA
:10312000BB4218BFB34207F592670CBF01260026C9
:10313000BB4208BF42F0010256EA020779D0D3F839
:1031400000C02CF01E0CC3F800C0D3F814C02CF043
:10315000800CC3F814C0D0F860C076BBD0F860C053
:10316000DCF8006026F48076CCF800601A6822F063
:1031700001021A6003E00A68521B052A24D81A6863
:10318000D607F8D4D0E9165101F01F012FB33F2321
:103190008B40AB60C36ED0E91921516033B11A681E
:1031A000016F22F480721A60436F4B60012200238A
:1031B00080F8352080F834305EE6DCF8002022F418
:1031C0008072CCF80020D1E7202103220023416542
:1031D00080F8343080F835204EE6344A344EB3421D
:1031E00018BF934206F114060CBF01220022B3421D
:1031F00008BF42F001021436B34208BF42F0010298
:103200001436B34208BF42F001021436B34208BF7D
:1032100042F00102012606FA01F1696025498B425C
:1032200008BF42F00102002AB4D1234A9342B1D030
:10323000BCE71E4EDFF878C0634518BFB3420CF1FF
:10324000140C0CBF01260026634508BF46F001069A
:103250000CF1140C634508BF46F001060CF1140C88
:10326000634508BF46F001060CF1140C634508BF26
:1032700046F00106D3F800C02CF00E0CC3F800C0D5
:10328000DFF830C0634508BF46F00106002E7FF42A
:1032900065AF094EB3423FF461AF67E7FEFFFFEF52
:1032A00040000240580002402800024008540258E2
:1032B0001C540258805402589454025882B000237F
:1032C000019302E00369002B09DB019B01330193A9
:1032D000019BB3F1706FF5D9032002B070478901EB
:1032E000002341F020010193016103E0036913F021
:1032F000200307D0019B01330193019BB3F1706F51
:10330000F4D9E9E7184602B0704700BF82B0002345
:10331000019302E00369002B09DB019B0133019358
:10332000019BB3F1706FF5D9032002B07047002202
:1033300010230192036103E0036913F0100307D027
:10334000019B01330193019BB3F1706FF4D9EBE75B
:10335000184602B0704700BF82B00023019302E01C
:103360000369002B09DB019B01330193019BB3F13E
:10337000706FF5D9032002B07047002301930369F1
:1033800043F00103036103E0036913F0010307D075
:10339000019B01330193019BB3F1706FF4D9E9E70D
:1033A0001846E8E72DE9F843056807460C46C5F3DB
:1033B0001009B9F1000F39D18A4B4FF6FF72B3F8FB
:1033C0008030934256D0002B54D0874A02EA4328DB
:1033D00008F10068454534BF4FF001084FF002087E
:1033E000824B9D4206D903F500339D4200F2CF8007
:1033F0004FF001097E4E96F80035012B12D00123C3
:10340000B8F1010F86F800354FF00003C6F8043517
:1034100036D0022077F082F8002800F0998000234F
:1034200086F800354FF0FF30BDE8F883704E96F80F
:103430000035012B4CD0012386F8003505F1784387
:10344000B3F5801F48D3A5F10163B3F5801F3FD2C8
:1034500000230220C6F8043577F060F8002870D108
:10346000644A4FF00208D2F80C3143EA0803C2F86C
:103470000C313FE0B5F1016F67D3052011F0CCFAB4
:10348000404677F04BF80028C9D14046DFF8648108
:10349000D8F80C3023F4E663C8F80C30D8F80C30B8
:1034A00043EA092343F0A403C8F80C3077F036F858
:1034B000D8F80C20504B1340C8F80C300028AED17F
:1034C00005F178430122B3F5801F86F8002503D368
:1034D0006FF00100BDE8F88300230120C6F8043531
:1034E00077F01CF868BB434A4FF00108D36843F0FB
:1034F0000203D360BFF36F8FBFF34F8F04F120023D
:1035000054F8043B944245F8043BF9D1BFF36F8F64
:10351000BFF34F8F404677F001F8B8F1010F354AFD
:1035200030D0D2F80C3123F00203C2F80C31002362
:1035300086F800350028CBD13B6820333B60BDE8DE
:10354000F883002386F80035C2E74FF0010847E70B
:10355000DFF8A0800220D8F80C3123F4E663C8F825
:103560000C31D8F80C3143EA092343F0A403C8F81E
:103570000C3176F0D3FFD8F80C211F4B1340C8F85C
:103580000C319BE7D36823F00203D360CFE703F548
:1035900000339D4211D903F500339D4210D903F544
:1035A00000339D4206D903F500339D420BD84FF0FE
:1035B00005091FE74FF004091CE74FF0020919E75E
:1035C0004FF0030916E703F500339D4206D9B5F124
:1035D000016FBFF452AF4FF007090BE74FF0060938
:1035E00008E700BF00E8F11F00FE1F00FFFF010811
:1035F000002A002400200052FBF8FFFF0148FCF7DE
:1036000031BF00BF0C2F0024084810B4D0F80C358F
:10361000D0F8404599691A682CB1234600F20C5045
:103620005DF8044B18475DF8044B7047002A0024EE
:103630000148FCF717BF00BF642F0024084810B4EE
:10364000D0F86435D0F8984599691A682CB12346AA
:1036500000F264505DF8044B18475DF8044B704766
:10366000002A00240148FCF7FDBE00BFBC2F002447
:10367000084810B4D0F8BC35D0F8F04599691A68FC
:103680002CB1234600F2BC505DF8044B18475DF89E
:10369000044B7047002A00242DE9F04FDFF86493B3
:1036A00000EB400583B0430009EB85050093D5F896
:1036B000AC300193002B00F062818046B5F8B20077
:1036C00076F0ACFD95F8B0000CF030FF044695F8AC
:1036D000B1000CF02BFF08F101030746DBB2002C10
:1036E00000F0728140F60C12A1882372E2802268F9
:1036F000002800F05D81037240F60C23C3809161C5
:103700003B68BA889A611121204609260CF0CAFE4E
:10371000112138460CF0C6FE6525002C00F03281E0
:103720002268A38811690B4200F02C811B0493616D
:1037300011F016F905468B4611F012F9401B61EBAA
:103740000B01052871F10001F6D314B12368A2889A
:103750009A6111F005F905468B4611F001F9401BFD
:1037600061EB0B01052871F10001F6D3013ED3D1C5
:103770001CB1A38822681B04936111F0F1F805467F
:103780000E4611F0EDF8401B61EB0601052871F1C2
:103790000001F6D31FB1BB883A681B04936111F096
:1037A000DFF805460E4611F0DBF8401B61EB060121
:1037B000052871F10001F6D314B12368A2889A613B
:1037C00011F0CEF805460E4611F0CAF8401B61EB29
:1037D0000601052871F10001F6D317B13B68BA88DC
:1037E0009A61009B20463E21434409EB830393F8F2
:1037F000B74022460CF078FE224638463E210CF0B7
:1038000073FE7A4C5823019A03FB0843C3F80C2536
:10381000774B9A4200F0C780FEF794FD754BDA694A
:10382000C2F30212744B134493F8303003F01F03B9
:10383000D840009B434409EB830393F8B430022B38
:1038400000F0BD80032B00F0B580012B14BF4FF4B6
:10385000C8714FF4487176F031FD034658220021BB
:1038600002FB0842C2F81415C2F81C15C2F8201554
:10387000C2F82815C2F82C150121C2F81035C2F87B
:10388000181592F84D1501F0FF00002900F0A480F2
:10389000582123F0706224264FF4004701FB0841B1
:1038A0005648D1F80C3581F84D651D6825F00105A5
:1038B0001D601A619A6822F400429A609F605A68FB
:1038C00022F400625A605A681043D1F824255860E7
:1038D0001202D86820F40040D860DA6000221A6032
:1038E000186840F0010018602020C1F8502581F8C8
:1038F0004D05C1F83C2581F84E2591F84D0520284D
:10390000C5B217D191F84C05012813D081F84D6547
:10391000186820F001001860186820F480501860C2
:1039200018681860186840F00100186081F84D555B
:1039300081F84C25009B02210126314F434409EBBD
:10394000830999F8B650284676F03CFE05F01F032F
:103950006A0999F8B55006FA03F30221284647F898
:10396000223076F02FFE582303FB084405F01F0396
:103970006D0906FA03F347F8253084F8086503B0AB
:10398000BDE8F08F013D2AD010F0EAFF83468A4659
:1039900010F0E6FFB0EB0B0061EB0A01052871F1B6
:1039A0000001F5D3B9E6FEF7CDFC124B1A6A37E7F2
:1039B0009161A8E6C82176F081FC03464EE76421B8
:1039C00076F07CFC034649E700283FF49CAE037286
:1039D00040F60C23C38093E682F84C0558E7002C90
:1039E0003FF4A6AEA3882268A0E600BF002A002408
:1039F000001C00580044025888950C080080000202
:103A000000E100E0000000242DE9F04F441C85B0E7
:103A100017469DF83C202DD05824DFF8A8831E4679
:103A2000054600FB04F408EB040393F80895B9F18C
:103A3000000F1FD044444900FF2F04F20C5403919F
:103A400000D0EEB9002A40F0C680582303FB05835E
:103A500093F84D25202A04D1B6B94FF40072C3F86B
:103A60005025B8F81036284601339BB2A8F8103616
:103A7000FFF712FE4FF00009484605B0BDE8F08F91
:103A800093F84D35202BECD14FF0580A0AFB058AEC
:103A90009AF84C35012BE4D00122D8F800B0192354
:103AA0004FF400418AF84C252046CDF800B0FEF7CF
:103AB000E5FB0028D5D10E9BDAF80C15CAF8303595
:103AC0002123BA4A8AF84D354023CAF840058AF8BE
:103AD0004E35CAF850052046AAF836654B681340A3
:103AE000039A1343B24A1A434A60594676F0E8FCF7
:103AF0000246002840F0FB80DAF80C358021204691
:103B00009F620A23CDF800B0FEF7B8FB002840F012
:103B1000EE80BAF836359BB2FF2B40F21681DAF808
:103B20000C15FF23A348AAF834354B68A24A03407A
:103B3000039803431A434A605826DDF80CA05F46F9
:103B4000039506FB058605E0B6F836359BB2002BDB
:103B500000F010813946204676F0B2FC002840F093
:103B6000F280D6F83015D6F80C5511F8012BB6F8BE
:103B70003435AA62C6F83015013BB6F836159BB24B
:103B80000139A6F8343589B2A6F83615B6F83615D7
:103B900089B2002BD8D10029D6D002460A23802131
:103BA00020460097FEF76AFBFF22002840F0CB80FA
:103BB000B6F836359BB2934240F2A080D6F80C1589
:103BC000A6F834254B687B4A13407B4A43EA0A0334
:103BD0001A434A60B8E74FF0580A0AFB058A9AF878
:103BE0004D35202B7FF43DAF9AF84C35012B3FF437
:103BF00038AF0122D8F8007019234FF400418AF839
:103C00004C2520460097FEF739FB00287FF429AFAA
:103C10000E9BCAF84005CAF8303521238AF84D3585
:103C200010238AF84E35CAF85005AAF83665BAF856
:103C300036359BB2FF2B00F2C780BAF836359BB2FF
:103C4000AAF83435002B40F0F180DAF80C1557480B
:103C50004B685A4A0340039803431A434A60582664
:103C6000AA4606FB0586B6F8363539469BB2002BC8
:103C700000F0D480204676F023FC002878D1D6F8D6
:103C80003015D6F80C5511F8012BB6F83435AA6268
:103C9000C6F83015013BB6F836159BB20139A6F8C7
:103CA000343589B2A6F83615B6F8361589B2002B28
:103CB000D9D10029D7D002460A2380212046009777
:103CC000FEF7DCFAFF22002852D1B6F836359BB257
:103CD000934225D9D6F80C15A6F834254B68354AF9
:103CE0001340039A1343344A1A434A60BBE75823EC
:103CF000002203FB058383F84C25B2E6B6F836357F
:103D0000D6F80C259BB22B485168A6F83435DBB2A7
:103D100001404AEA03430B4343F00073536013E747
:103D2000B6F83635D6F80C159BB2039A2148A6F89A
:103D30003435DBB242EA03434A680240134343F09E
:103D400000734B608FE7039D8BE6BAF83635DAF8DF
:103D50000C159BB2039A1748AAF83435DBB242EA35
:103D600003434A680240134343F000734B60E3E6A9
:103D7000554676E639462046039D76F073FB0028CB
:103D80007FF46FAED6F80C3520210D4CD9615A68FE
:103D900022405A605823002286F84D1503FB058304
:103DA00086F84E0583F84C2566E600BF009800FCB7
:103DB00000200101009C00FC0000FF010020000227
:103DC00000E800FE002A0024FF234FF47F00FE22BB
:103DD0004FF08076AAF83435039BDDF838E01E43B7
:103DE00058231EF801AB03FB0583DFF850C0D3F85E
:103DF0000C15C1F828A0A3F83425B3F83625C3F86C
:103E000030E5013A92B2A3F836254B6803EA0C0379
:103E10003343034343F400534B6020E720465546A9
:103E200076F020FB00287FF41CAEABE7013B4FF09F
:103E300000769AB2501CC0B20004CDE7009800FC96
:103E40002DE9F04F441C85B099469DF83C3000F0B8
:103E500096805825C34C064600FB05F504EB050B80
:103E60009BF808A5BAF1000F00F089802544FF2ACD
:103E700090464FEA410705F20C5540F08680002B32
:103E800000F083809BF84D35202B6FD19BF84C358B
:103E9000012B6BD00122D4F8008019234FF400418C
:103EA0008BF84C252846CDF80080FEF7E7F900286E
:103EB0005CD10E9BCBF84005CBF8303522238BF834
:103EC0004D3510238BF84E35CBF85005ABF83695B1
:103ED000BBF836359BB2FF2B00F21081BBF83635AC
:103EE000DBF80C159BB2A0484A68ABF83435DBB25E
:103EF000024047EA034313439C4A1A434A604FF087
:103F0000580909FB0649B9F836359BB2002B00F079
:103F10008481D9F80C359A69520700F13181424603
:103F20000A212846FEF728F9002840F0F480D9F845
:103F30000C359A69910640F1F9809A699A6912F0F4
:103F4000100200F0F18010222021894DDA61042254
:103F5000C9F85025D9615A682A405A6089F84D1528
:103F600089F84C0589F84E0522689B69B4F810362B
:103F7000304601339BB2A4F81036FFF78DFB4FF0AB
:103F8000000A504605B0BDE8F08F4FF0580B0BFB10
:103F9000064B9BF84D35202BE8D10E9B002B00F0F3
:103FA000A8809BF84C35012BE0D0236801224FF408
:103FB000004128468BF84C25039300931923FEF704
:103FC0005DF90028D2D12223DBF80C150E9A8BF86C
:103FD0004D354023CBF830258BF84E35CBF85005C6
:103FE000ABF83695DFF880914A68CBF84005284653
:103FF00002EA09023A4342F490324A60039976F0A9
:104000005FFA0246002840F03481402328461946D2
:10401000DBF80C35C3F82880039B00930A23FEF7D6
:104020002DF9002840F02581BBF836359BB2FF2BD7
:1040300040F22681DBF80C15FF234E4AABF83435ED
:104040004B6803EA09033B431A434A604FF05808A0
:10405000B946039F08FB064805E0B8F836359BB221
:10406000002B00F01F810A2300220421284600971C
:10407000FEF704F900287FF479AFD8F80C35596AB7
:10408000D8F830351970B8F83615D8F83035013908
:10409000013389B2C8F83035B8F83435A8F8361588
:1040A000013BB8F836159BB289B2A8F8343500291F
:1040B000D3D0002BD1D102460A2380212846009775
:1040C000FEF7DCF8FF2200287FF450AFB8F8363551
:1040D0009BB2934240F2BB80D8F80C15A8F8342567
:1040E0004B68254A1340254A43EA09031A434A60AC
:1040F000B3E74FF40073CBF8503537E7DBF80C1516
:10410000FF231948ABF834354B681A4A03403B4348
:104110001A434A60F3E6582303FB0643D3F80C35F1
:104120009A6922689B6921E7C9F850252268A2EBA9
:1041300008020A2A7FF6EFAE9A6912F004027FF4B1
:10414000EAAE582101FB0641D1F8500581F84C2513
:10415000202240F02000C1F8500581F84D259B69D0
:1041600004E700BF002A0024009800FC002400029D
:1041700000E800FE0024FF01009C00FC0000FF019D
:104180005A6AD9F830351A70B9F83635D9F8302569
:10419000013B01329BB2C9F83025A9F83635B9F890
:1041A0003435B9F83625013B92B29BB2A9F83435C3
:1041B000002A3FF4A8AE002B7FF4A5AE0A2300220C
:1041C00080212846CDF80080FEF758F800287FF4BB
:1041D000CDAEB9F836359BB2FF2B0CD9D9F80C15FA
:1041E000FF233B48A9F834354B683A4A03403B4328
:1041F0001A434A6087E6B9F83635D9F80C159BB2F0
:1042000033484A68A9F83435DBB2024047EA034331
:10421000134343F000734B6075E64146284676F041
:1042200021F900287FF4A2AED9F80C3520212A4DBF
:10423000D9615A682A405A6089F84D1589F84E05A7
:104240005822002302FB064484F84C3599E6B8F85E
:104250003635D8F80C259BB21D485168A8F834357E
:10426000DBB2014049EA03430B4343F00073536060
:10427000F3E65823002203FB064383F84C2575E63A
:10428000BBF83635DBF80C159BB24A68ABF8343511
:10429000DBB202EA090247EA034313430F4A1A4317
:1042A0004A60D3E60399284676F0DCF803460028F6
:1042B0007FF45CAED8F80C252020074DD061516802
:1042C0002940516088F84D0588F84E35B8E700BFA1
:1042D000009C00FC0000FF0100E800FE002400023A
:1042E0000348D0F8DC300BB1D0301847704700BF1E
:1042F000000000240348D0F8FC300BB1F030184720
:10430000704700BF000000240348D0F81C3113B1EF
:1043100000F5887018477047000000240348D0F863
:104320003C3113B100F59870184770470000002425
:104330000348D0F85C3113B100F5A87018477047F6
:10434000000000240348D0F87C3113B100F5B870A8
:1043500018477047000000240348D0F89C3113B17F
:1043600000F5C87018477047000000240348D0F8D3
:10437000BC3113B100F5D870184770470000002415
:104380000348D0F8DC3113B100F5E87018477047E6
:10439000000000240348D0F8FC3113B100F5F87098
:1043A00018477047000000240348D0F81C3213B1AE
:1043B00000F5047018477047000000240348D0F847
:1043C0003C3213B100F50C70184770470000002410
:1043D0000348D0F85C3213B100F5147018477047E9
:1043E000000000240348D0F87C3213B100F51C70A3
:1043F00018477047000000240348D0F89C3213B1DE
:1044000000F5247018477047000000240348D0F8D6
:10441000BC3213B100F52C7018477047000000241F
:104420000020704710B41C46436884466FF30F03A6
:1044300023434360036843F001030360036843F4CC
:1044400000730360002C3AD040F2E930DCF81430FD
:104450009B0748D5002A49D012F8013B40F2E930C9
:104460008CF82030DCF81430DB0720D40138F9D187
:10447000214B9C450CD0A3F578439C4538D003F5DF
:1044800080639C4536D003F578439C450BD10320CF
:104490001A4A00EB400002EBC002B2F8E4320133EA
:1044A0009BB2A2F8E43200205DF8044B70479CF800
:1044B0003000C0B209B101F8010B013CC4D1DCF8F5
:1044C00014301B07FBD5DCF8183001205DF8044BD5
:1044D00043F01003CCF81830DCF8003023F001036F
:1044E000CCF8003070470138B0D1C1E7FF23B5E701
:1044F0000120CDE70220CBE700300140000000247E
:104500002DE9F047002682B0294F00F10108DFF8BD
:10451000A890284CDFF8A4A00FE0012300220DF1A1
:104520000701FFF77FFFAB689B0725D59DF80700C4
:10453000FF2839D10136464536D0D7F8505395F982
:104540001030AA6803EB4303920709EBC303D3F8C7
:10455000D002E2D46B691BB19A88196812048A618F
:10456000D7F854236168D200AAFB0232920963682B
:104570005B1A9A42FBD2D0E74FF4FA73D7F8542370
:10458000616803FB02F2AAFB0232920963685B1ABC
:104590009A42FBD26B69002BC8D09DF807001A68BD
:1045A000FF289B889361C5D002B0BDE8F08700BFAB
:1045B000002A0024001000E000000024D34D621007
:1045C00070B5952282B00446002340F040008DF87B
:1045D00005200A0E8DF8041060F3070362F30F2321
:1045E0000A0C090A62F3174361F31F63009375F025
:1045F00083FD24B180F00100C0B200284AD1274DCC
:10460000274AD5F8504394F91030A16803EB4303CF
:1046100002EBC3038A07D3F8D00227D506236A46E4
:104620000021FFF7FFFEA3689B0704D5082002B016
:10463000BDE8704064E74FF4FA70D5F85423194B85
:1046400000FB02F21849A3FB0232486892094B684A
:104650001B1A9A42FBD26369002BE7D01A68082024
:104660009B88936102B0BDE8704049E763691BB164
:104670001A689B881B049361D5F85423094BD20018
:104680000949A3FB02324E6892094B689B1B9A4270
:10469000FBD2C3E7FF2002B070BD00BF002A002498
:1046A00000000024D34D6210001000E0F8B504466D
:1046B00008200D46FFF724FFFF2823D0FE2801D055
:1046C0000220F8BD274F284AD7F8506396F91030DA
:1046D00003EB430302EBC303D3F8D002B3689A079A
:1046E00012D52B4621460022FFF79CFEB3689B079C
:1046F00020D50022D7F85003022311467CF0B6FEE5
:104700000020F8BD0120F8BD73691BB19A881968B3
:1047100012048A61D7F85433144ADB001449A2FB0F
:104720000323D1F804C09B094A68A2EB0C02934210
:10473000FAD2D6E74FF4FA70D7F854230B4B00FBAC
:1047400002F20B49A3FB0232486892094B681B1A1C
:104750009A42FBD27369002BCBD01A689B88936175
:10476000C7E700BF002A002400000024D34D6210D8
:10477000001000E070B52F4C00234FF6FF5182B0BF
:10478000D4F85053C4F81C3395F910302A4A03EB7F
:104790004303ADF80410A96802EBC3038A07D3F8FA
:1047A000D00233D5022301AA0021FFF73BFEAB68FC
:1047B0009B0714D50120FFF7A3FEFF2809D0D4F8EA
:1047C000582309230020C4F8102384F8203302B0B2
:1047D00070BD0423022084F8203302B070BD4FF472
:1047E000FA70D4F85423154B00FB02F21449A3FBD2
:1047F0000232486892094B681B1A9A42FBD26B69D5
:10480000002BD7D01A689B889361D3E76B691BB1E3
:104810001A689B881B049361D4F85423074BD20079
:104820000749A3FB02324E6892094B689B1B9A42D0
:10483000FBD2B7E7002A002400000024D34D621009
:10484000001000E0F0B5CF4C85B0D4F8500300283C
:104850004FD094F82003431E082B40D8DFE813F014
:1048600034010900D4003F00AD0074005B003F003C
:104870004B00D4F8500308F073FC94F81653002151
:104880003720A5F10205FFF79BFE2920B5FA85F533
:104890006D09AD072946FFF793FE0546FCF79EFE1E
:1048A000ADB994F81633D4F85003022B00F0AF8161
:1048B000D4F8500384F8175308F052FC0021092063
:1048C000FFF77EFE002800F06181FCF787FED4F838
:1048D0005003022108F0FAFB94F82003431EDBB2D8
:1048E000022B40F21B81082818BF04280CBF0120AE
:1048F000002005B0F0BD75F0FFFB002840F0B4814A
:10490000D4F81033D4F85823FA33934280F0288136
:10491000FCF798FE9DE775F0EFFB0028F0D0D4F887
:104920001C330022012B84F8142340F2BB81D4F8FD
:104930001823013B08210132C4F81C3384F82013EA
:10494000C4F818230120D4E794F804038023D4F892
:10495000FC22002102EBC012D4F850037CF086FD4B
:1049600094F804330133DBB2042B84F8043340F0B1
:10497000F7800223844A0021D4F850037CF076FDAE
:10498000012300226946D4F850037CF06FFD9DF8A6
:10499000003003F01F03052B00F06F81FCF752FE7F
:1049A000D4F80853002D3FF454AFD4F80C33002250
:1049B000D4F800130120A8474BE74FF40071D4F856
:1049C000FC02FFF773FE0128054600F0B1800228C3
:1049D00000F0B580002840F0C380FCF7FFFD042301
:1049E000D4F8086384F8145384F82033002EA9D037
:1049F000D4F80C332846D4F8FC22D4F80013B0477E
:104A000094F82003431E6AE710216846FFF74EFE24
:104A100000287FF45CAF9DF800209DF8031062F33E
:104A200007009DF80D30BDF8012061F30F209DF8BF
:104A300004101B0152BA61F317409DF80510DBB258
:104A4000A4F8282361F31F609DF80E109DF808203C
:104A500043EA111301F00F01BDF8065003F5FA63A4
:104A600084F83813110902F00F02A4F83633DDF888
:104A70000930C4F82A031BBAA4F82E5384F834135F
:104A8000C4F8303384F83523FCF7A8FD94F81733C5
:104A9000D4F8500363B908F063FB4FF400711020A1
:104AA000FFF78EFD0546FCF799FD002D7FF430AF32
:104AB0000221D4F8500308F009FB00220423C4F8B3
:104AC0001C2384F82033C4E6D4F8500308F048FBD4
:104AD00000210846FFF774FD0546FCF77FFD012D18
:104AE0007FF4F5AE0026D4F8500384F8166308F07E
:104AF00037FB40F2AB110820FFF762FD05283CD0E0
:104B0000012800F09C8094F81653FCF767FD002DF7
:104B100000F0B080022384F820339AE6D4F85833AA
:104B2000D4F810239B1AC82B22D8002005B0F0BD62
:104B3000D4F81033D4F858236433934210D2FCF7DE
:104B40004DFDFCF77FFDD4F80853002D3FF481AEF6
:104B50000022D4F80C33D4F800131046A84778E6A6
:104B600094F82003431EDBB2022B3FF6BCAED5E720
:104B7000FCF768FD94F82003B5E684F81653FCF7BB
:104B80002DFDC7E7002A0024E0950C081021754888
:104B9000FFF78CFD00287FF498AE94F84B3313F0A8
:104BA00001033FF492AE94F83C23921100F081800F
:104BB000012A7FF48AAE94F8432316216A4E022517
:104BC0009200D2B2C5F108038B4228BF0B46C3F155
:104BD00008059840C91A42FA05F24FF0000540EA6C
:104BE000020016F8012FEDD101308002C4F8240331
:104BF000FCF7F4FCD4F8500308F0B2FA00210A20C4
:104C0000FFF7DEFC68BB032384F8203321E608F0BD
:104C1000A7FA29463A20FFF7D3FC2A460546042383
:104C20006946D4F850037CF021FCFCF7D7FC002D3A
:104C30007FF46EAE009D2DBAC5F3807538E604236F
:104C400032466946D4F850037CF010FC9DF80330DE
:104C5000AB2B7FF458AF022384F81633FCF7BEFC6D
:104C600058E7FCF7BBFC53E6FCF7B8FC042384F8D8
:104C7000203367E684F8205329E60722D4F8583316
:104C8000D4F8085384F82023C4F81033002D5BD0E7
:104C9000D4F80C330120D4E9BF21A84794F82003AD
:104CA000431E1CE652D0042384F82033FCF796FC04
:104CB00048E694F84113104694F84553062601F04F
:104CC0000F022A4FAD0103FA02F20323EDB2C6F13F
:104CD0000801994228BF1946C1F1080688405B1AAD
:104CE00045FA06F54FF0000640EA050017F8015FA7
:104CF000EDD194F842530230DFF874E00C26AD0198
:104D00004FF0060CEDB2CCF108014FF0000CB142AF
:104D100028BF3146C1F108078B40761A45FA07F5DE
:104D200043EA05031EF8015FEDD10133D517834037
:104D3000A3FB022103FB0511520A42EAC152C4F847
:104D40002423FCF74BFC55E72846D2E5FFF712FD7C
:104D500002287FF405AFFCF741FC94F82003431EC2
:104D6000BDE500BF3C2D0024432D0024452D00242B
:104D7000422D00242DE9F041054682B088461746B1
:104D80001E46354C94F8200304280BD0082807D180
:104D9000D4F81833AB423FD0FFF7ECFC0228F1D037
:104DA000012034E0D4F850331A79022A36D094F82E
:104DB00017337BB329461820FFF702FC002844D1A3
:104DC00094F82033082B27D0FE238DF80530FF23DD
:104DD00001AA0021D4F850038DF8043002237CF09E
:104DE00045FB80234246D4F8500300217CF03EFB73
:104DF000012206230020C4F8FC82C4F80053C4F842
:104E00000873C4F80C6384F8042384F8203302B0D8
:104E1000BDE8F0816902CEE7FC23D6E79A689207E5
:104E2000C5D55B691BB19A88196812048A61D4F8E8
:104E300054330A49DA000A4B4868A3FB023292094C
:104E40004B681B1A9A42FBD2B1E7FCF7C7FBFCF791
:104E5000F9FB0320DBE700BF002A0024001000E07C
:104E6000D34D621070B51D4C06460D4694F82033A4
:104E7000042B09D0082B23D1D4F8183383421DD03A
:104E8000FFF778FC02281BD1D4F8500308F068F92A
:104E900000213720FFF794FB29461720FFF790FBEE
:104EA000B0B994F817336BB971021920FFF788FB7A
:104EB00070B90823C4E9C66584F82033022070BDA8
:104EC000012070BD31461920FFF77AFB0028F0D091
:104ED000FCF784FBFCF7B6FB032070BD002A00241E
:104EE0002DE9F041294C07468846164694F820C320
:104EF0001D46BCF1040F09D0BCF1080F02D0002000
:104F0000BDE8F081FFF736FC0228F8D1D4F8503321
:104F10001A79022A22D094F81733B3B979021120F2
:104F2000FFF74EFBB8B90522D4F858330120C4F876
:104F3000FC82C4F80073C4F80863C4F80C5384F806
:104F40002023C4F81033BDE8F08139461120FFF763
:104F500037FB0028E7D0FCF741FBD0E79A689207BF
:104F6000D9D55B691BB19A88196812048A61D4F893
:104F700054330749DA00074B4868A3FB0232920911
:104F80004B681B1A9A42FBD2C5E700BF002A0024D7
:104F9000001000E0D34D62102DE9F84300242C4EA0
:104FA0008046036856F83450AB4209D001340E2CC9
:104FB000F8D1284A0021052005F060FD002019E005
:104FC000254B03EB8409D9F81476AFB198F8051096
:104FD00000204B1C01EB410203EB430307EBC20231
:104FE000DB00C2F80C80C2E90400F854182303FB6C
:104FF00001700830BDE8F8830721682005F0C6FD80
:105000000146C9F81406F0B13946682284F0B4F8B4
:10501000D9F8141606EBC4043B4689600C6009629B
:105020008963096556F83320954205D001330E2B6C
:10503000F8D14F600F46C9E7084F4C2202FB0377B7
:105040004F600F46C2E7064A052005F017FDB5E799
:10505000E4950C08C4430D08002A00244C300024B9
:10506000EC430D0830B40C4C0022234603E001321F
:105070001433092A0CD093F804C08445F7D1DD68B5
:10508000294201D10029F2D1142303FB024000E0A0
:10509000002030BC704700BF30030024F0B54468E6
:1050A000A37913F002025FD002224FF0080C0368CC
:1050B00064795B689B48204493F83C40012C90F84D
:1050C000CC0050D0012483F83C40142848D8DFE8B5
:1050D00010F01500470047004700840047004700D4
:1050E00047003B01470047004700BB00470047001F
:1050F0004700F2004700470047004D0018688A4CFF
:10510000056A8A4E25F00205B04242EA0502056AA8
:1051100025F0010505624768856904EA050444F045
:10512000600407D0824DA84204D005F57055A8420E
:1051300040F04D8122F0080247F440774CEA020229
:1051400022F004024760846141630262826942F096
:1051500008028261826922F00402826182698261AE
:10516000002283F83C20F0BD9446A0E718686F4EFB
:10517000046AB04224F4001444EA0252046A24F49B
:10518000801404626B4C4568476D04EA070444F4DC
:10519000C0440ED006F58066B0420AD0664F06F5D0
:1051A0008046B04218BFB84203D006F58066B042D0
:1051B00001D145F4802545604465C1650262426DB8
:1051C00042F400624265426D22F480624265426DA3
:1051D0004265002283F83C20C5E71868574C056AF1
:1051E000524E25F02005B04245EA0215026A22F02F
:1051F000100202624768826904EA020444F4C0446F
:1052000000F0DE804A4A904200F0DA804A4E4C4A72
:10521000904218BFB04203D002F58062904201D1A3
:1052200047F440674760846181630562826942F4A4
:1052300000628261826922F4806282618269826195
:10524000002283F83C208EE71868384E046AB0428A
:1052500024F4005444EA0232046A24F480540462C0
:10526000364C4568C76904EA070444F4C0440ED0CC
:1052700006F58066B0420AD02F4F06F58046B04250
:1052800018BFB84203D006F58066B04201D145F49C
:1052900080454560C46101640262C26942F40062F3
:1052A000C261C26922F48062C261C269C261002225
:1052B00083F83C2057E718681C4E046AB04224F477
:1052C000003444EA0242046A24F4803404621D4C2F
:1052D0004568476D04EA070444F060040ED006F503
:1052E0008066B0420AD0144F06F58046B04218BF1F
:1052F000B84203D006F58066B04201D145F480354E
:105300004560446581650262426D42F00802426573
:10531000426D22F004024265426D4265002283F82C
:105320003C2020E788950C088CFFFEFF0000014020
:1053300000040140FF8FFFFE00400140FF8CFFFE94
:10534000004401408FFFFEFF1868264C056A264E78
:1053500025F4007EB0424EEA0225026A22F48072F1
:1053600002624768C26904EA020444F0600420D083
:105370001E4A90421DD01E4E1E4A904218BFB04297
:1053800003D002F58062904201D147F44057476054
:10539000C461C1630562C26942F00802C261C269A8
:1053A00022F00402C261C269C261002283F83C207B
:1053B000D9E625F4006E4EEA0C2E2EF48065E4E763
:1053C00025F0800545EA0C1525F0400528E705F590
:1053D0008065A8423FF4AEAE05F58065A8427FF433
:1053E000B1AEA7E68CFFFEFF0000014000040140C3
:1053F000004001400044014042685379032B0FD81C
:10540000DFE803F00B0805021068403070471068B1
:105410003C3070471068383070471068343070473F
:1054200000207047D0E90002064B517992790B4475
:10543000406893F8CC10530701D57DF049B87DF052
:10544000C3B800BF88950C084268C36812695B68DE
:10545000C2F30322F0B53B4D05EB82029668EFF3F1
:105460001182102484F312884468374F94F805C0E1
:10547000D0F80CE035F81CC025680CF4F05CEC6842
:1054800024EA0C0417F806C0EC60DEF8105053F85C
:105490000C401F2D24F0010443F80C4042D9203D5C
:1054A0002024DEF804C0AC40CCF80C40D2B282F329
:1054B000118817F806C042F2107203EB0C0EDEF8EA
:1054C0000040E40702D500BF013AF8D153F80C20A0
:1054D00012F0010223D1DEF8044045696FF30F0496
:1054E00021434468CEF804106179032905D8DFE828
:1054F00001F02326022022683C32CEF80C50012114
:10550000CEF8082053F80C2042F0100243F80C208B
:1055100053F80C200A4343F80C200174F0BD00231B
:105520000374F0BD2024DEF804C0AC40CCF8084081
:10553000BCE722684032E0E722683432DDE72268C7
:105540003832DAE788950C08BC960C0803681A7E96
:10555000012A2ED0002293F83010012909D093F8A7
:10556000481001290ED093F8601001291BD02ABBE6
:105570007047022142F4806283F8301093F848109B
:10558000012904D1022142F4006283F8481093F803
:105590006010012907D01B6800211B685962D96877
:1055A0000A43DA607047022142F4805283F86010A7
:1055B000F1E702214FF400721976CCE74FF4007244
:1055C000E9E700BF08B5204B98420ED003F5806391
:1055D00098420AD01D4A03F58043984218BF904272
:1055E00003D003F5806398421BD1FCF7ABFE18494A
:1055F000184BCA69C969C2F30222C1F302211A44D5
:1056000092F8302002F01F02D040114A1269C2F312
:10561000C03241EAC202134493F8D03003FB00F0D9
:1056200008BDFCF78FFE0A490A4BCA69C969C2F373
:10563000021CC1F3021103EB0C0292F8302002F0BD
:105640001F02D040E1E700BF0000014000400140E0
