:020000040800F2
:1000000000000220F10E0608759A0008D158020877
:10001000A10F0608A10F0608A10F060800000000A6
:10002000000000000000000000000000C9B200084D
:10003000CBB2000800000000CDB20008B1210108D9
:10004000A10F0608A10F0608A10F0608A10F0608B8
:10005000A10F0608A10F060885FE000889FE00080A
:10006000A10F06088DFE000891FE00081DA10008E2
:1000700031A1000845A1000859A100086DA10008A0
:1000800081A1000895A10008A10F0608000000004A
:1000900000000000000000000000000095FE0008C5
:1000A00055A000087DA00008A5A000083FA00008FA
:1000B000CDA00008E1A00008F5A00008A10F0608E7
:1000C000A10F0608A10F0608A10F0608A10F060838
:1000D000A10F0608919B00089D9B000800000000EE
:1000E00099FE0008A10F0608CFB20008000000002A
:1000F000000000000000000000000000A9A10008AE
:1001000000000000A10F060809A10008A10F0608C1
:1001100000000000000000000000000000000000DF
:10012000BDA10008D1A10008E5A10008F9A10008BF
:100130000DA2000800000000000000000000000008
:1001400000000000000000000000000019B30008DB
:1001500021A2000835A2000849A20008A10F060844
:10016000A10F0608A10F0608000000000000000013
:10017000000000000000000000000000000000007F
:1001800000000000A10F06080000000000000000B1
:08019000A10F0608A10F0608EB
:08019800580006000100000000
:1001A00028470120020100000300140048470120F5
:1001B000020200000300140068470120010C000047
:1001C0000000770088470120010D00000000760044
:1001D000A84701200111000000007600C847012057
:1001E000010E010000007700E84701200113000024
:1001F00000007600084801200115000000001E00E4
:1002000028480120011B000000000D004848012083
:10021000011C000000002C006848012001160000AD
:1002200000000C00884801200117000000000C00AD
:10023000A8480120011D000000000E00C848012050
:10024000011E000000001E00E84801200118000007
:1002500000000C00084901200119000000000E00F8
:1002600028490120011A000000000C004849012023
:100270000120000000000C0068490120012100005D
:1002800000000C0088490120012A0100000018002C
:10029000A84901200122000000004800C8490120AF
:1002A0000123000000004900E8490120012400006A
:1002B00000004A00084A01200125000000004B0010
:1002C000284A01200126000000004C00484A012075
:1002D0000127000000004D00684A012001280000AD
:1002E00000004E00884A01200129000000004F0054
:1002F000A84A0120012D000000002900C84A012061
:10030000012E010000002900E84A0120012F010010
:1003100000007000084B0120013100000000310096
:10032000284B01200130010000005200484B012001
:100330000132010000002800684B01200133000059
:1003400000007600884B01200134010000002800E5
:10035000A84B0120022B050000012C00C84B0120F6
:100360000137000000003C00E84B0120013A00008A
:040370000000200069
:10800000D0E907239A423CBFC1685218D01A704782
:10801000D0E9092300699A4238BF1218D31A0138EF
:10802000C01A7047D0E90902131A584258417047E4
:10803000036A41690246C85CD16801338B4228BF9C
:10804000002313627047436A8269D154436A02690C
:108050000133934228BF0023426B4362D36843F04D
:108060008003D3607047436B188810F010001EBF68
:108070001A889B8801207047436B99891A88890662
:1080800010B592B2044607D5900605D5E26A2AB328
:108090009888216B80B29047636B99891A8809068A
:1080A00092B210D510060ED5D4E909128A4223D017
:1080B000A169895CC9B2998021690132B2FBF1F0F2
:1080C00001FB1022A262998A1A88C90592B204D5CE
:1080D000D20744BF4FF6F7721A8010BD9B88E26941
:1080E0006169DBB28B54E369E2680133B3FBF2F1FF
:1080F00002FB1133E361CFE7DA6822F08002DA6035
:10810000E1E7036942681F2B70B54FF0200185BF7E
:10811000A3F1200554681468A94098BF99402142F2
:108120000DD08069017C03290AD11F2B4FF020015B
:1081300085BF203B99409940D16098BF916070BD48
:108140004568002101742C686E79074DA18935F8C6
:10815000165089B221EA0501A181C16888680168C9
:1081600021F001010160E0E7643D06080E4BDA688A
:10817000D20310D4DA68D1060FD4DA68D2050ED44F
:10818000DA6812F0E00F0CD1DB6813F0020F0CBFBD
:108190000920082070470120704706207047022000
:1081A00070470720704700BF003C024007B5092315
:1081B0008DF80730FFF7DAFF8DF807009DF80730DC
:1081C000012BF7D09DF8070003B05DF804FB838A0C
:1081D000028B9BB243EA024399430CBF012000206B
:1081E000704782B000230193009301230090019314
:1081F000019B63B1009A21F07F4314320092009AF0
:1082000012681A4214BF0120002002B07047009A81
:108210001832F3E7024B01F001011970704700BFFB
:108220000000002070477047704701207047034BE3
:1082300018685B68C01AC0F30A0070477017002006
:10824000064B986830B19B68052B05BF044B187826
:108250000020C0B200F00100704700BF701700207E
:1082600000000020012380F849307047054BD86892
:108270001B69984234BF03F1FF3303F2FF73181AEE
:10828000704700BF7017002010B5D0F8E8350446DD
:108290001B699847032384F81231002010BD08B5EC
:1082A00090F8123180F81331042380F81231D0F89D
:1082B000E835DB689847002008BD08B5D0F8E435FC
:1082C000DB6903B19847002008BD08B5D0F8E43554
:1082D0001B6A9847002008BD08B5D0F8E4355B6AF2
:1082E0009847002008BD10B5064C6068FF2806D0EE
:1082F00005494A69183100F03BF8FF23636000200C
:1083000010BD00BF0000002070170020432301486B
:108310000B80704708000020122301480B80704733
:108320004B000020042301480B8070475D000020B3
:1083300070477047704770477047024B00229A6041
:10834000704700BF701700207047054B00200522C2
:108350009A60C3E908001860586083F828007047E5
:1083600070170020014B00209860704770170020A4
:10837000212838B50C461AD022282AD0202814D11A
:1083800099B1072A11D1194D6B6A13B10968002000
:1083900098472368C5F82930237985F82D3063790B
:1083A00085F82E30A37985F82F30002038BD0029BC
:1083B000FBD0072AF9D10D4BD3F829200A6093F896
:1083C0002D200A7193F82E204A7193F82F308B716B
:1083D000EBE70029E9D0022AE7D1044A136A002B0F
:1083E000E3D00988106B9847DFE700BF70170020C3
:1083F0002DE9F843184D2F46804657F8344BC4F505
:10840000006989450E4617D30A46014638195BF0C4
:1084100069F83444C4F30A042C606B6803F2FF73F8
:108420001B1BC3F30A03802B9DBF012385F8283053
:1084300002200020BDE8F88301463819A4F5006445
:108440004A4634445BF04EF8224608EB09013846B0
:108450005BF048F8E0E700BF7017002070477047F6
:10846000D0ED007AD0ED036A30EE677AE6EE877AD7
:10847000B0EE670AC0ED007A704790ED017AB5EE74
:10848000407AF1EE10FAF0EE407A09D19FED0E7AC3
:1084900060EE870AF7EE006A86EEA07A80ED017A38
:1084A00090ED017A90ED000A80ED021A31EE077A24
:1084B00077EEC07AC1EE076AA6EEA70AC0ED036A9E
:1084C00080ED000A704700BFDB0FC940D0ED056AA0
:1084D000D0ED017A90ED026AD0ED045AB0EE407A08
:1084E00026EEA70AD0ED007A80ED057AA7EE870A7E
:1084F000D0ED067AC0ED066AA6EE270AD0ED077A1F
:1085000090ED036AA6EE670A90ED086AC0ED087A5E
:10851000A5EEC60A80ED070A7047B0EE407AD0EDAE
:10852000007A90ED050AD0ED016AA7EE870AD0ED3A
:10853000037A67EEC07AE6EE877AD0ED066A76EEC9
:10854000A77AD0ED026AC0ED057AD0ED047A67EE25
:10855000C07AE6EE877AC0ED067A704703685A1C47
:108560000260197070472DE9F04F87B0836801935E
:10857000D0E90032511C91FBF3F403FB141141606C
:1085800000EB820181ED200AB1EE400A00F1800586
:10859000009281ED400A00F58070A3F1020E4FF0C9
:1085A000010C019A6245009A17DA01991A44521A8D
:1085B00092FBF3F103FB112205EB820500EB820035
:1085C000D5ED007A90ED007A77EEC77AB6EE000A24
:1085D00027EE800A07B0BDE8F08F0EEB020494FB93
:1085E000F3F103FB1144611C91FBF3F603FB16113D
:1085F00005EB840600EB840494ED007A03940CEB05
:108600000104D6ED007A029694FBF3F603FB1644C0
:10861000F246F14626460F46A3EB0C0BD9450CDB80
:10862000029AD2ED007A039A92ED007ADA454EDB97
:108630000CF1010CAEF1020EB3E7BB42D8BF00272C
:1086400005EB8702D2ED006A0492B342D8BF002640
:1086500000EB8702F4EEE76A92ED006A0592F1EE14
:1086600010FA00EB8602D2ED005A4FEA860811DDBF
:10867000A84498ED005AF4EEC56AF1EE10FA09DD4F
:10868000B4EEE75A049AF1EE10FA58BFF0EE457ACC
:10869000C2ED007AB4EEC76AF1EE10FA0EDDB4EE68
:1086A000E56AF1EE10FA09DDF4EEC75A059AF1EE2B
:1086B00010FA58BFB0EE657A82ED007A01370136C4
:1086C00009F10109B0EE467AF0EE667AA6E78B4230
:1086D000D8BF002105EB8108D8ED006AA342D8BFBE
:1086E0000024F4EEE76A00EB810700EB8409F1EE69
:1086F00010FA97ED006AD9ED005A4FEA840610D5BA
:108700002E4496ED005AF4EEC56AF1EE10FA08D543
:10871000B4EEE75AF1EE10FAD8BFF0EE457AC8EDA4
:10872000007AB4EEC76AF1EE10FA0DD5B4EEE56A40
:10873000F1EE10FA08D5F4EEC75AF1EE10FAD8BFF0
:10874000B0EE657A87ED007A013101340AF1010A51
:10875000B0EE467AF0EE667A68E703690133012BE2
:10876000036108D1DFED107A80ED010A80ED000A87
:10877000C0ED027A704790ED006A07EE903A70EE15
:10878000466AF8EEE77A86EEA77AD0ED027A37EEFF
:10879000067A30EE470A80ED017AE6EE807AB0EE96
:1087A000470AC0ED037AE1E70000000003685A1CA5
:1087B000026019707047007970470079C0F340106B
:1087C000704700794009704790F83C20034602F05A
:1087D000FF0012B1002283F83C2070474FF4006381
:1087E000838170474FF400638381704710B5064A58
:1087F0000423002152F8044B844208BF42F8041CB1
:10880000013BF7D110BD00BFA41F0020354BF0B5D0
:10881000B3F84408B3F85248B3F95C58B3F9567842
:10882000B3F94CE8B3F96468001BB3F850486043EF
:10883000B3F95A4805EBE035E40294FBF5F404EB98
:10884000E034A4F57A60B3F94A58C3F8604800FBF5
:1088500000FC4FEA2C3C45430CFB07F700FB0EFEE7
:10886000ED12B3F9540805EBE725B3F948780CFB92
:1088700000F0001405EB8705B3F84EC8D3F868384C
:1088800000EB6E30B54002300235A3EBA505801039
:108890004CF2503300F5004033416B430CFB00F0C9
:1088A0004FEAD03055BF5B00B3FBF0F3B3FBF0F3FE
:1088B0005B0071B1181240F6DE35404368430A4D43
:1088C00000145D4300EB254000F6CF6003EB20135E
:1088D0000B6022B10A235C43083424111460012088
:1088E000F0BD00BF7017002043E3FFFF0120704779
:1088F000012070472DE9F74F624E9046B6F8703868
:10890000D6F86C28B6F980C8B6F97E78B6F97CB886
:10891000C3EB22155B00C3EBE203B6F972286D438B
:108920005343B6F974282D135543AD1305EBE325D6
:10893000D6F88C380093A5F5FA30B6F97A38C6F82F
:108940008858894680FB001EDA1703FB0EF401FBF2
:108950000244A3FB01321444B6F9782882FB00A23A
:108960001B0A120343EA046342EA1A524FEA0A3A24
:1089700013EB0A0342EB2422B6F876A802F5004274
:108980000192A3FB0A23019A0AFB023A4FEAEA7317
:108990004FEA6A0253EA6A0A4FF000045ED087FB8E
:1089A00000704FEAEC7A0CFB0EFE400401FB0AEE6D
:1089B00040EAD730ACFB011C7F047F180099F444D7
:1089C0004CEB0000C1F5801C0CF00041E71941EAB6
:1089D0005C014FEACC7CBCEB070C40F6354400EB65
:1089E000CB0061EB0001ACFB040C04FB01C158F0AF
:1089F00015FA84460746430BB6F986084A1343EA3C
:108A0000C14300FB02FEC41703FB04EEA0FB0340BE
:108A10007044624303FB0022A4FB03431A44B6F9EB
:108A20008438640E44EAC2144FEAE37E03FB01F08B
:108A3000E4190EFB0C00A3FB0C3738444FEAD34378
:108A400043EA403341EB6262E41842EBE042B6F99C
:108A50008238240A44EA026404EB0314B9F1000FDB
:108A600002D0240AC9F80040B8F1000F05D005EB88
:108A7000850580352D12C8F80050012003B0BDE8EF
:108A8000F08F00BF7017002031B10A4BD3ED077A89
:108A9000FDEEE77AC1ED007A52B1064B9FED067A02
:108AA000D3ED087A67EE877AFDEEE77AC2ED007AB9
:108AB00001207047002000200000C8422DE9F74F38
:108AC000CDE90012574AB2F8C238D2F8B418B2F859
:108AD000BE68B2F8C4781B02C91AB2F8C0386EEB8F
:108AE0000E0EA3FB010403FB0E44B2F8BC38C00910
:108AF00040EA44601B04C018A6FB013506FB0E5576
:108B0000B2F8BA684FEA132343EA05634FEAC63660
:108B10004FEAE41444F100049B19A7FB012607FB6C
:108B20000E664FEAD25242EA46224FEA252545F127
:108B30000005F61512F5FA6C46F1000BBCF5FA6F5C
:108B40007BF1000750DA02FB06F8A2FB02794FF036
:108B5000050A09EB4809A7FB0A780AFB09884FEACE
:108B6000570949EAC879BF08B0EB090947EA88778D
:108B700064EB6804DF1B3B462B4F65EBA805BC4547
:108B80004FF0FF377BEB0707484622DA40F6AC5739
:108B9000D21946F100065643A2FB027202EB4602CE
:108BA0004FEAC208FE00BE1B48EA577862EB08088D
:108BB000361844EB08044FF00B083046A7FB087644
:108BC00008FB02627F0847EAC277DF1B3B4665EB82
:108BD000620501FB0EFEA1FB011202EB4E02C90F62
:108BE00041EA4201BCEB010C009A9AB10D4AD2F85D
:108BF000C818A1FB033201FB05225B0D43EAC22327
:108C00001B1A4FEA625262EB0402DB0B43EA424357
:108C1000009A1360019B0BB1C3F800C0012003B0A0
:108C2000BDE8F08F7017002024FAFFFF0120704785
:108C3000B0F900305943084B994208DBB1F5000FF9
:108C400007DA0029B8BFFF31081200B270470348A5
:108C5000FBE747F6FF70F8E701FF7FFF0080FFFFAB
:108C600001207047054901F6CC0300221A605A60C2
:108C70009A600023C1F8D83801207047701700208F
:108C8000114BD3F8DC28D3F8D818521AFA2A18D87E
:108C900003F6CC03D3ED007AFDEEE77A17EE902AC7
:108CA000D3ED017AC286FDEEE77A17EE902AD3ED76
:108CB000027A0287FDEEE77A17EE903A43870120A9
:108CC00070470020704700BF701700202DE9F8435F
:108CD000D0F8148007468946B8F1000F57D10568CF
:108CE000C5F30D0606B3D9F80060FFF75FFA09284F
:108CF00040F08680444C236923F440732361236948
:108D000043F400732361236943F0010323612E6060
:108D1000FFF74CFA2369092823F0010323616FD17F
:108D20003B6804333B6032E0384B9D4229D303F566
:108D300080439D4224D303F580439D422AD3344B84
:108D40009D4229D903F580339D4227D903F500338D
:108D50009D4225D903F500339D4223D903F5003305
:108D60009D4221D903F500339D421FD903F580238D
:108D70009D421DD9B5F1016F1CD3052009F0D9FA28
:108D80000826FFF713FA092816D04FF0FF3840469F
:108D9000BDE8F8831026F4E71826F2E72026F0E76E
:108DA0002826EEE73026ECE73826EAE74026E8E713
:108DB0004826E6E75826E4E7134C236923F440737A
:108DC0002361236943F400732361236923F0F803CB
:108DD00023612369334343F002032361236943F48E
:108DE00080332361FFF7E2F9236923F00203236153
:108DF0002369092823F0F80323613FF474AFC4E723
:108E00006FF00108C3E700BF003C024000400008CB
:108E1000FFFF000803682DE9F0410D464168134447
:108E20008B42044619D8AE1800F10C074FF0000829
:108E3000B54202D16069BDE8F08123695A1C226104
:108E4000234415F8011B1973042AF1D13946204631
:108E5000FFF73CFFC4E90480EAE74FF0FF30EAE7A0
:108E60002DE9F0479846444B914603EB80020546B6
:108E70009468002C51D02833636004F13E03A36151
:108E800004F59F73E3614FF48073C4E904332368EE
:108E900094F83D00E160A36307F02CF9064694F8CE
:108EA000440294F83CA0271D08B153F091FF94F8B8
:108EB000450208B153F08CFFD4F840321BB12F4A61
:108EC000116B0B43136318F0080F2FD00135EDB26F
:108ED0001EB140F20673F380357218F0100F94F84B
:108EE00046221DD00221304607F0C4F8D4F84822AB
:108EF00094F9471294F8473212010029D2B236DBB6
:108F00001F49C81880F800235809012203F01F03E5
:108F100002FA03F341F820303C462046BDE8F087D2
:108F200018F0200F0CBF32211221DCE719F0020FDC
:108F30000CD06B1CDBB21EB140F20652F2803372D1
:108F400094F846220221304607F094F819F0010FF8
:108F5000CCD0504607F0CEF80135EDB218B140F252
:108F60000663C380057294F846220221BCE70549D6
:108F700003F00F03CA54CFE7643D060800380240EF
:108F800000E100E014ED00E038B514460D4600297C
:108F90004BD0394B9FED397AD3F8E02807EE902A71
:108FA000F8EEE77AD3F8E428C7EE876A07EE902A4E
:108FB000D3F8EC28F8EEE77AC7EE875A07EE902A46
:108FC000D3F8F028B8EEE70A07EE902AB3F9FC28A8
:108FD00006EE102AB3F9F82807EE102AB8EEC66A92
:108FE000B8EEC77AF8EEE77AA6EE867AB3F9F428F7
:108FF000E6EE877AA6EEA70A07EE902AB3F9FA28DA
:10900000B3F9F63806EE102A07EE103AB8EEC66A43
:10901000B8EEC77AF8EEE77AA6EE867AE6EE877AB9
:10902000A5EEA70A58F0F2FE28601CB3124BDFED44
:10903000136AB3F9E82807EE902AD3F8E428B3F9C5
:10904000EA3807EE102AB8EEC77AF8EEE77A87EE2C
:10905000260A07EE103AB8EEC77A20EE070AB6EEF7
:10906000007AA7EE870ADFED067A20EE270A58F08D
:10907000CDFE2060012038BD701700200000F04AAE
:109080000000C8422DE9F341038A8689B6B205463D
:109090000C461E404FF0004816B902B0BDE8F08102
:1090A000B6FA86F328FA03F2D24391B22982164027
:1090B0001B3B002C3ED0042BEED8DFE803F0373109
:1090C0002B250300E368EF6A23B19B6813B1B9B2A3
:1090D000201D9847636A2BB19B681BB1B9B204F19C
:1090E0001C009847E36B2BB19B681BB1B9B204F12C
:1090F00034009847636D002BCED09B68002BCBD0FB
:10910000B9B204F14C0003E0E368696B5B68201DB1
:109110009847C1E7636AA96B5B6804F11C00F7E735
:10912000E36BE96B5B6804F13400F1E7636D296C74
:109130005B68E6E7042B06D8DFE803F00D0B0907B0
:109140000300EB6A0193019BA6E76B6BFAE7AB6B3D
:10915000F8E7EB6BF6E72B6CF4E7F8B5174C002556
:1091600004F51066626823689A4224D06368234439
:10917000012793F8345063680133C3F30A03636033
:109180006368236894F828308BB16368226803F21F
:10919000FF739B1AC3F30A03802B08D9002384F8BA
:1091A0002830074840233246012156F0BBFD002FEE
:1091B000D8D02846F8BD0027E4E700BF701700208C
:1091C000B0200020282303FB010110B5B1F88C1357
:1091D00004460648FFF70CF928B9044A4023012148
:1091E000204656F09FFD002010BD00BF70200020DB
:1091F00090F84820531C0244DBB280F8483082F8D3
:10920000341090F849200AB1132B01D956F0C1BD92
:109210007047002280F8492056F0BBBDF8B5174CC6
:10922000D4F8DC78054694F8343F23B96E18AE4282
:1092300010D10020F8BDD4F8DC38DB1B322BF2D97A
:109240000220F7E7D4F8DC38DB1B322BF8D80120FA
:1092500009F05AF8E36822690133C3F30A03934221
:10926000F0D0E36815F8012B234483F8352FE36829
:109270000133C3F30A03E360D9E700BF701700208E
:10928000F8B50D461446FEF7DBFF98B10A4ED6F846
:10929000DC78002C0EDD21462846FFF7BFFF0028B2
:1092A0000CBF23460023E41A1D44D6F8DC38DB1B30
:1092B000322BEED9F8BD00BF7017002010B5044660
:1092C00071BB90F81131032B1BD1D0F89023D0F84B
:1092D0007C339A4217D9C178012908BFD0F880138E
:1092E000A2EB030204BFC918C0F88013934228BF41
:1092F0001346C0F890239BB2D0F88023002156F08B
:1093000011FD002010BDD0F8E4351B6923B190F8A1
:109310001221032A00D19847204656F053FCF0E76B
:10932000D0F8E4359B69002BEBD090F81221032A8A
:10933000E7D19847E5E770B50A7812F06003054673
:109340000C4626D0202B2BD1CB884E78DBB11206D1
:109350000AD51C491A463046FFF70AF8E28819492F
:10936000284656F01BFC0CE0174A5660174A0321AA
:10937000536180F81111C0E9E4331832002156F02E
:10938000D1FC002070BD022211443046FEF7F0FFF0
:10939000F7E74B780A2B08D00B2B09D0062BF0D11E
:1093A000284656F04FFB0220ECE709490122D8E796
:1093B0008B781BB9074AC2F84036E2E756F042FB09
:1093C000DFE700BF88170020000000207017002092
:1093D000A82E002068280020F0B585B0D0F8CC1564
:1093E00090F8CC650291D0F8D0150391012180F856
:1093F000111106F01F01B0F8D22590F8CD75B0F824
:10940000CE35B0F8D055C0F840210129044600F00F
:109410000981022900F01A81002940F09381092F67
:109420005ED8DFE817F0B600F4005D00C8005D000C
:1094300057000A005D00A90076001D0A022DADF854
:1094400006200BD0032D25D0012D49D1D0F8EC35C5
:109450001B68A0780DF10601984709E0D0F8E435C3
:1094600080789B6A0DF1060198474570C4F8F005B5
:10947000BDF80620002A47D0BDF80E30002B43D09F
:109480009A4228BF1A46ADF806200146204656F0FB
:1094900085FB39E0DBB2052B22D8DFE803F00307B8
:1094A0000B0F1317D0F8EC355B68D2E7D0F8EC352A
:1094B0009B68CEE7D0F8EC35DB68CAE7D0F8EC352E
:1094C0001B69C6E7D0F8EC355B69C2E7D0F8EC352C
:1094D0009B69BEE72A4303D190F81211032903D1F7
:1094E000204656F0AFFA0FE003F07F05016980F8DF
:1094F000145163F30A120B681A430A6056F062FBB8
:109500002DB1022384F81231002005B0F0BD0123F3
:10951000F8E7D9B28D4D012985F84416E0D890F8C6
:109520001231022B0FD0032BDAD1C1B9022380F8FC
:109530001231D0F8E43580F810115B689847204666
:1095400056F040FBE0E70029F9D00121032380F821
:10955000101180F81231204656F036FAEFE790F8F5
:1095600010110129EBD0D0F8E4355B68984795F8E5
:10957000441684F81011EEE7012AB1D190F81231A7
:10958000022B04D0032BABD100F588717EE7704924
:109590007CE790F81231023B012BA1D86B4B0022E3
:1095A000C3F84C26D0F8182112B10222C3F84C2679
:1095B000684902226AE7012B08D1C4F81831D4F8AF
:1095C000E43502A99B6820469847B8E7022B9BD157
:1095D000EBB2002B98D103692D0A023D5A68032D86
:1095E00013D8DFE805F0020C0E10022363F3061215
:1095F000564BC3F85026012384F816319FE7032306
:10960000F4E70423F2E70523F0E70123EEE790F8FF
:109610001221023A012A3FF663AF012B7FF474AFA7
:109620000023CAE790F81231032B7FF459AFEDB253
:10963000012D3FF655AFD0F8E43502A99B68984755
:10964000BDF80E30002B7FF45FAF78E706F06006C0
:10965000202EE9B205D1D0F8E43502A99B689847DD
:1096600052E7012F35D0032F23D0002F7FF44CAFCA
:1096700090F81231022B5FD0032B7FF431AF15F03D
:10968000800F4FF028031BBF01F07F0103FB010196
:1096900003FB010191F81E3108BF91F876332B4985
:1096A000003B18BF0123C1F85436022201F2546175
:1096B000ECE690F81221022A3ED0032A7FF410AF84
:1096C000002B7FF47CAF4A063FF479AF56F088F95F
:1096D00075E790F81221022A2ED0032A7FF400AFFA
:1096E000002B7FF411AF11F07F023FF428AF6DB271
:1096F0002823002DB5BF03FB020303FB010303F581
:109700008E7303F55D73002199701A70E90F00EBF9
:1097100082025970002DB4BF9269526DD9781368D6
:10972000023923F4001301298CBFC3F30071012116
:1097300061F31C73136042E74B063FF4E5AE56F04D
:109740004FF9E1E606F08001F9E700BF6828002044
:10975000B02E0020B42E0020002310B51946044678
:10976000402256F07DF9402280212046002356F009
:1097700077F9012384F81231D4F8E835A0785B68D2
:109780009847002010BD38B54022044602238121AD
:1097900056F066F9204602234022012156F060F976
:1097A000204603230822822156F05AF9084B022250
:1097B000002583F84F2083F850500121FEF7C5FDA6
:1097C0002046044A402356F0ADFA284638BD00BF73
:1097D000000000207020002038B50122044640F22D
:1097E0000113A0F844310125114656F0B9FA294673
:1097F0002046A4F89C53002256F0B2FA4FF481732D
:10980000A4F86C3120462A46022156F0A9FAFEF748
:10981000A9FD002038BDF8B5204C94F8342F012A5A
:1098200003462BD11E4FD7F8585615B984F8345F2C
:1098300020E0402D20D8AEB2402E02D1022284F882
:10984000342F2169174A0A44C3E9542240F2011116
:109850000022A3F84411C3E9566203F5A271184629
:1098600056F0C7F923693344C3F30A03AD1B2361E0
:10987000C7F858560020F8BD4026E2E7022AF9D181
:10988000002540F20112C0E95455C0E95655A0F830
:10989000442100F5A27156F0ACF9C7E7701700201B
:1098A00068280020A5260020F8B5234FD7F85C369D
:1098B0000E2B04D80133C7F85C360020F8BD1F4CCE
:1098C0000023C7F85C3694F8343F002BF5D12269A9
:1098D000E3689A42F1D02269E3689A4295BFE5684D
:1098E00025692369C5F5006598BFED1A402D1FD87D
:1098F000AEB2402E0CBF02230123226984F8343F0C
:109900000F4B1344C0E9543340F201120023C0E965
:109910005663A0F8442100F5A27156F06AF9236954
:109920003344C3F30A03AD1B2361C7F85856C4E799
:1099300001234026E1E700BF6828002070170020BF
:10994000A526002008B5024853F0ACF8014808BD30
:1099500021E30608C82E002008B5024853F0A2F8FB
:10996000014808BD2BE30608C82E002008B50248B0
:1099700053F098F8014808BD30E30608C82E0020CF
:1099800008B5024853F08EF8014808BD3AE30608CE
:10999000C82E002008B5024853F084F8014808BDDD
:1099A00045E30608C82E0020024BD3F8600708F0F4
:1099B0000FBB00BF6828002008B5006854F009FFFD
:1099C000024BC3F8B408012008BD00BF7017002087
:1099D00008B5006854F0FDFE024BC3F8C80801202A
:1099E00008BD00BF7017002010B50D4B0D4CD3F80B
:1099F000DC38D4F864071B1AFA2B06D9042020F0AF
:109A00005FF9002084F8680710BD11B1D4F86C37F5
:109A10000B6012B1D4F8703713600120F4E700BF77
:109A200070170020682800200E49D1F8883043F4D0
:109A30007003C1F888300C4B1A68002042F0010214
:109A40001A6098601A6822F0847222F480321A60D8
:109A5000064A5A601A6822F480221A60D860044BC1
:109A60008B60704700ED00E00038024010300024A9
:109A700000000008704782B00023019300933C4B24
:109A80001A6842F480321A601A6802F400320092B6
:109A9000019A01320192009A1AB9019AB2F5A04FC7
:109AA000F2D11B6813F4003318BF01230093009B0D
:109AB000012B56D12E4B2F491A6C42F080521A645A
:109AC0000A6842F440420A609A689A609A689A600A
:109AD0009A6842F480529A60274A5A601A6842F0A3
:109AE00080721A601A689001FCD5244A40F2027113
:109AF00011609A6822F003029A609A6842F00202AA
:109B00009A601B4B9A6802F00C02082AFAD19A68F4
:109B100002F00C02042A26D0082A26D159685A6875
:109B20005B684902C3F388134CBF1549154902F01D
:109B30003F02B1FBF2F253430D4A5268C2F30142B5
:109B400001325200B3FBF2F3094A91680E4AC1F3A5
:109B500003110A4492F85C20D3400C4A536602B0C9
:109B6000704700BFFDE7064BEEE7064BECE700BF92
:109B7000003802400070004008304004003C0240C1
:109B800000127A000024F400643D06080000002062
:109B90000148FEF771BA00BF6C0000200148FEF7D3
:109BA0006BBA00BFB8020020064A002352F83310F7
:109BB000814201D1D8B2704701330E2BF6D1FF207C
:109BC000704700BFD03D0608704770B5002828D008
:109BD0004C684CB9426815685679AB8902229BB231
:109BE000B24023EA0203AB818A683AB943681D6830
:109BF000AB8923F001031B041B0CAB81816044B1D2
:109C0000436819685D798C890223AB4023439BB27A
:109C10008B8132B143681A6893899BB243F0010388
:109C2000938170BD0B4B30B51A4600241D798542D7
:109C300008D1DD68294203D0142303FB042030BD82
:109C40000029F9D00134092C03F11403EED10020CE
:109C5000F5E700BF000500200028ACBF00F1604020
:109C6000064B4FEA0111ACBF00F5614000F00F0058
:109C7000C9B2B4BF195480F80013704714ED00E066
:109C800038B503681B681C68244B07EE902A93EDD7
:109C9000197AF8EE677AB8EE477A013987EE270A23
:109CA0008DB2DFED1F7A30EE270A58F0AFF81D4A6B
:109CB00023880138944280B29BB212D002F58062B0
:109CC00094420ED0B4F1804F0BD0A2F58032944272
:109CD00007D002F58062944203D002F5806294427C
:109CE00006D123F070039BB223F440739BB206E0CD
:109CF0000D4A944203D002F580629442F4D123804D
:109D0000084BE5629C42208503D003F580639C42AA
:109D100001D1002323860123A38238BD0000002047
:109D20000AD7233C0000014000100040F0B5436812
:109D30009A795D7912F0040002F0020C11BF002242
:109D4000E6464FF4807284460FBF012496460420F5
:109D50001446032D38D8DFE805F0023872AC1B68D2
:109D60001D8C25F001052D042D0C1D841D8C9F8854
:109D70001E8B25F002052D0444EA0E042D0C26F05E
:109D800073062543634C3604360CA342BFB246F03B
:109D9000600603D004F58064A34209D14FF6F37442
:109DA0002C4044EA0C0427F4407744EA00051743AA
:109DB0009F801E8359631D841A8B22F008021204AF
:109DC000120C42F008021A83F0BD1D682B8C23F0A0
:109DD00010031B041B0C2B842B8CAF882E8B23F0C1
:109DE00020031B0444EA0E041B0C26F4E64643EA57
:109DF0000413484C3604360CA542BFB246F4C046A4
:109E000003D004F58064A5420CD123F0800343EA1B
:109E10000C1323F040039BB227F4406743EA00137E
:109E200047EA8207AF802E83A9632B842B8B23F410
:109E300000631B041B0C43F400632B83C4E71D6801
:109E40002B8C23F480731B041B0C2B842B8CAF886E
:109E5000AE8B23F400731B0444EA0E041B0C26F0A3
:109E6000730643EA04232B4C3604360CA542BFB2DA
:109E700046F0600603D004F58064A5420CD123F4BB
:109E8000006343EA0C2323F480639BB227F440571A
:109E900043EA002347EA0217AF80AE83E9632B84CD
:109EA000AB8B23F008031B041B0C43F00803AB83AC
:109EB0008AE71B68188C20F480500004000C18847A
:109EC000188C9E889D8B20F40050000444EA0E04F8
:109ED000000C25F4E64540EA04300E4C2D042D0C10
:109EE000A342B6B245F4C04503D004F58064A34252
:109EF00003D126F4804646EA82169E809D8319642B
:109F000018849A8B22F400621204120C42F400624C
:109F10009A8359E70000014043685A79032A0FD811
:109F2000DFE802F00205080B186834307047186843
:109F30003830704718683C307047186840307047B8
:109F40000020704710B543681A685879084B0344DD
:109F5000012093F8DC40138CA0409BB223EA00035D
:109F60001384138CA140194389B2118410BD00BF22
:109F7000643D060870B5EFF31184102383F3128853
:109F800045682A686E79134D938935F816509BB24F
:109F900023EA05039381C3689D682A6822F00102C1
:109FA0002A601A695D681F2A4FF0200385BF203A96
:109FB00093409340EB6098BFAB60E3B283F31188AA
:109FC000C3689B6859601A6842F001021A60012355
:109FD000037470BD643D06080268137D012B04BF45
:109FE0000223137592F82C100CBF4FF4007300235A
:109FF000012904BF022182F82C1092F8441008BFF6
:10A0000043F48063012904BF022182F8441092F8CE
:10A010005C1008BF43F4006301290DD1022182F8CE
:10A020005C1043F4805342681268002151629189A8
:10A0300089B20B43938101E0002BF4D17047034BAD
:10A040000348D3F87417FFF71DB800BF6828002035
:10A050000000014010B5064C0648D4F87417FFF70D
:10A0600011F8D4F894170448BDE81040FFF70AB877
:10A0700068280020000001400040014010B5064C57
:10A080000648D4F87417FEF7FDFFD4F89817044873
:10A09000BDE81040FEF7F6BF682800200000014030
:10A0A0000044014010B5064C0648D4F87417FEF77A
:10A0B000E9FFD4F89C170448BDE81040FEF7E2BF62
:10A0C000682800200000014000480140034B4FF089
:10A0D0008040D3F87817FEF7D5BF00BF682800206E
:10A0E000024B0348D3F87C17FEF7CCBF682800204A
:10A0F00000040040024B0348D3F88017FEF7C2BFAC
:10A100006828002000080040024B0348D3F8841759
:10A11000FEF7B8BF68280020000C00400348D0F8C4
:10A12000C03513B100F2B45018477047000000204A
:10A130000348D0F8E03513B100F2D4501847704707
:10A14000000000200348D0F8003613B100F2F450AC
:10A1500018477047000000200348D0F8203613B19C
:10A1600000F2146018477047000000200348D0F840
:10A17000403613B100F234601847704700000020E9
:10A180000348D0F8603613B100F2546018477047A6
:10A19000000000200348D0F8803613B100F274604C
:10A1A00018477047000000200348D0F8A03613B1CC
:10A1B00000F2946018477047000000200348D0F870
:10A1C000C03613B100F2B460184770470000002099
:10A1D0000348D0F8E03613B100F2D4601847704756
:10A1E000000000200348D0F8003713B100F2F460FB
:10A1F00018477047000000200348D0F8203713B1FB
:10A2000000F2147018477047000000200348D0F88F
:10A21000403713B100F23470184770470000002037
:10A220000348D0F8603713B100F2547018477047F4
:10A23000000000200348D0F8803713B100F274709A
:10A2400018477047000000200348D0F8A03713B12A
:10A2500000F294701847704700000020036823F054
:10A26000010303600023036043608360C3600361F4
:10A27000212343612A4B984203D13D2243F8082C05
:10A280007047284B984204D14FF4746243F8202C55
:10A290007047254B984204D14FF4741243F8382C80
:10A2A0007047224B984204D14FF0746243F8502C0F
:10A2B00070471F4B984203D11E4A43F8642C7047E5
:10A2C0001D4B984203D11D4A43F87C2C70471C4B10
:10A2D000984203D11B4A43F8942C70471A4B98427A
:10A2E00004D14FF03D5243F8AC2C17E0174B984285
:10A2F000C3D0174B9842C7D0164B9842CCD0164BC0
:10A300009842D1D0154B9842D6D0154B9842DAD00E
:10A31000144B9842DED0144B9842E2D0704700BFF5
:10A3200010600240286002404060024058600240D5
:10A33000706002403D00002088600240400F002015
:10A34000A060024000003D20B8600240106402405E
:10A350002864024040640240586402407064024035
:10A3600088640240A0640240B86402402DE9F041D4
:10A370000022012603250B6806FA02F737EA0303D9
:10A3800034D10368540005FA04FE23EA0E03036087
:10A390000B79D0F800806FEA0E0C03FA04FE013B43
:10A3A0004EEA080E012BC0F800E014D883680CEACE
:10A3B000030383604B79D0F808C0A34043EA0C0341
:10A3C0008360436823EA070343608B7947689340BF
:10A3D0009BB23B434360C36805FA04F723EA0703D3
:10A3E000C360CB79C768A3403B43C3600132102AE6
:10A3F000C1D1BDE8F081204B9A6802F00C02042A1A
:10A4000010B534D0082A34D159685A685B684902BB
:10A41000C3F388134CBF1949194902F03F02B1FB3D
:10A42000F2F25343144A5268C2F30142013252001D
:10A43000B3FBF2F3104C0360A168124AC1F303119D
:10A44000114491F8E010CB404360A168C1F3822130
:10A45000114491F8E01023FA01F18160A168C1F381
:10A4600042310A4492F8E020D340C36010BD034B50
:10A47000E0E7034BDEE700BF0038024000127A003D
:10A480000024F400643D0608F0B5446B8668A38997
:10A4900023F400531B041B0CA3818579290201F4CA
:10A4A000806C417901F001038907218A4FEA053266
:10A4B00089B221F4405102F4005242EA01022282A0
:10A4C000A289C5F3800722F4B0524FEA83034FEA12
:10A4D000073722F00C0248BF43F008034CEA07019B
:10A4E0001204120C0B431343A381A38A23F4407379
:10A4F0001B041B0C85B0A3826846FFF77CFF204B32
:10A500009C4203D003F580639C4237D1039BA28910
:10A510001921170401FB03F34FF064014CBF7600CF
:10A52000B600B3FBF6F3B3FBF1F001FB103302010D
:10A53000A08900044BBFDB001B01323332334BBF19
:10A54000B3FBF1F3B3FBF1F303F0070303F00F03E5
:10A5500013439BB22381A38A2A0755BF23F0080324
:10A560009BB21B0443F0080358BF1B0CA382A389B2
:10A570009BB243F40053A38105B0F0BD029BC6E734
:10A58000001001402DE9F8431E46204B9DF8205055
:10A590009DF824709842894690462CD13B462A4625
:10A5A00031460020FEF75CFC04460020C4E90700A9
:10A5B000C4E90900C4E90B986571A660A77120463B
:10A5C000FFF762FFEA0707D5636B4FF6DF721A8069
:10A5D000DA6842F02002DA60626BAB0742BFD368F0
:10A5E00043F08003D36093899BB243F4005393817B
:10A5F0002046BDE8F883064B984204D13B462A46E4
:10A6000031460120CEE70024F2E700BF00100140F0
:10A6100000440040816037E7417135E7817133E7DD
:10A620002DE9F043654F07EBC00985B005464FEAB9
:10A63000C00899F8B80705F05DFD064699F8B90716
:10A6400005F058FD044699F8BA0752F0C1FB6B1C9F
:10A65000DBB21EB140F60C12F28033721CB140F630
:10A660000C22E280237204223A21304605F002FDDA
:10A67000204604223A2105F0FDFC07EB0803D3F83D
:10A68000B4474F4B9C4263D103F5F2331A6A42F44C
:10A6900000121A621A6A22F400121A62474497F8EA
:10A6A000BB37022B6ED0032B6ED0464E464A012B91
:10A6B00018BF1646A78827F03F0768463F04FFF7F4
:10A6C0009AFE3F0C029A414BB2FBF3F398B2074358
:10A6D000A780218821F001010904090C21803C494F
:10A6E0008E4253D13B4BB2FBF3F2013091B20429BD
:10A6F00080B238BF04212084A18323889BB243F019
:10A7000001032380238823F4816323F002031B04C5
:10A710001B0C43F4806323804FF480432381238800
:10A7200023F080031B041B0C238023889BB243F07F
:10A7300001032380284B03EB4513012283F8B12743
:10A74000002283F8B05783F8B22705B0BDE8F08344
:10A75000224B9C4209D103F5F0331A6A42F480027D
:10A760001A621A6A22F4800297E71D4B9C4295D127
:10A7700003F5EE331A6A42F400021A621A6A22F4EE
:10A7800000028AE7124E95E7124E93E706EB460663
:10A79000B2FBF6F291B2C2F30B020AB941F0010129
:10A7A0004FF4967253434FF47A72B3FBF2F30133D2
:10A7B0009BB241F4004123849EE700BF00000020CB
:10A7C0000054004000350C00801A060040420F0083
:10A7D000A0860100400D03006828002000580040BA
:10A7E000005C00402DE9F047B94E440106EB4019EA
:10A7F00007F03AFD99F9B027B64B8846D10003EB34
:10A80000C2020746D2F8B45799F8B227013A142A7F
:10A8100000F28380DFE812F079008900A100BA001D
:10A82000C700D100DC00F40001010A0117016A0130
:10A830008801BA0111022402360241026102840237
:10A8400015005F184FF0090A97F8B80705F052FC99
:10A85000054697F8B90705F04DFCB6F810380133F6
:10A860009BB207462846A6F8103805F0D0FB3846BC
:10A8700005F0CDFB1121284605F0D3FB1121384608
:10A8800005F0CFFB4FF0650803E00520002107F03D
:10A890002BFD284605F0B2FB10B9B8F10108F4D140
:10A8A000284605F0B9FB0021052007F01DFD2846CC
:10A8B00005F0ADFB0520002107F016FDBAF1010AF5
:10A8C000E0D1284605F0A8FB0021052007F00CFD8B
:10A8D000384605F0A1FB0021052007F005FD2846BC
:10A8E00005F095FB0520002107F0FEFC384605F039
:10A8F0008EFB331993F9B007431C01D0FFF790FE8C
:10A900003319002283F8B22707E02B8813F4007371
:10A9100040F0D281321982F8B237331993F8B23746
:10A92000002B7FF465AFBDE8F0872B8823F400632C
:10A930001B041B0C2B802B889BB243F480632B8061
:10A940002B889BB243F480732B803319032283F846
:10A95000B227614B2344C3E9027860492846FDF7DA
:10A9600036FC002800F0A881331993F8C2275AB9A1
:10A9700093F8C327FF2A04D193F8C0270AB10A220B
:10A98000C0E733190422BDE70F22BBE7321992F862
:10A99000C13703F0FE032B82052382F8B2374E4BFA
:10A9A0002344C3E902784E492846FDF710FC0028ED
:10A9B00000F07A8133190622A4E7331993F8C327EC
:10A9C0002A82072283F8B227434B2344C3E9027843
:10A9D00044492846FDF7FBFB002800F06581321949
:10A9E000D2F8C43753B92B889BB243F400732B8041
:10A9F000394B2344C3E9027801238CE708238AE713
:10AA00002B889BB243F480732B803319092283F87F
:10AA1000B227314B2344C3E9027830492846FDF779
:10AA2000D6FB002800F048813319A8E7321992F8C4
:10AA3000C13743F001032B820B2382F8B237264B38
:10AA40002344C3E9027828492846FDF7C0FB0028C3
:10AA500000F02A813319D3F8C437012B1CD12B887D
:10AA600023F480631B041B0C2B80EFF31182102353
:10AA700083F312882B8B2B889BB243F400732B80BB
:10AA8000D3B283F311880C23321982F8B237124BF8
:10AA90002344C3E9027840E7022B15D12B889BB2EF
:10AAA00043F400632B80EFF31182102383F31288A9
:10AAB0002B8B2B8823F480631B041B0C2B80D3B2BD
:10AAC00083F311880D23DFE72B8B0E23DCE700BF18
:10AAD000682800200000002018300020010003003A
:10AAE0008200070084000700020003009449284602
:10AAF000FDF777FB934B002800F0DF8031192344EA
:10AB0000D1F8C827501CC1F8C807288A1070D1F89E
:10AB1000C427013AC1F8C4270122C3E9027881F8A9
:10AB2000CC2781F8B227F8E687492846FDF759FB7C
:10AB3000844B002800F0C180EFF3118C102282F3C7
:10AB400012882A88301992B2D0F8C81742F40072DD
:10AB50002A804A1CC0F8C8272A8A0A705FFA8CF239
:10AB600082F31188D0F8C827511CC0F8C817298A69
:10AB700011706FF00102C0F8C42723440122C3E919
:10AB8000027880F8CC2780F8B227C6E66E492846BE
:10AB9000FDF727FB6B4B002800F08F803219D2F8AD
:10ABA000C41703292AD1298821F480610904090CDA
:10ABB0002980EFF3118C102181F31288D2F8C80795
:10ABC000411CC2F8C817298A0170298889B241F44A
:10ABD000007129805FFA8CF181F31188D2F8C817CF
:10ABE000481CC2F8C807288A0870D2F8C41702396E
:10ABF000C2F8C4170C2182F8B21749E702290FD80E
:10AC0000298821F480610904090C2980298889B2E6
:10AC100041F400712980298A002182F8CC17E8E6E6
:10AC2000D2F8C817481CC2F8C807288A0870D2F89A
:10AC3000C4170139C2F8C4172AE72B8823F48063AC
:10AC400032191B041B0C2B8092F8C13703F0FE0352
:10AC50002B82102382F8B2373A4B2344C3E902789F
:10AC60003A492846FDF7B3FAF0B1331993F8C327F0
:10AC7000FF2A04D193F8C0270AB1132242E6331900
:10AC800011223FE6331993F8C3272A82122283F850
:10AC9000B2272C4B2344C3E902782D492846FDF7FF
:10ACA00096FA08B13319E8E72A492846FDF799FAD8
:10ACB00010B13319142225E6224B2344D3E9022391
:10ACC00042F21071BA1A68EB03038A4273F100036F
:10ACD000FFF423AE3319152214E63119194BD1F8BC
:10ACE000C4278AB1D1F8C807234410F801CBA5F8CE
:10ACF00010C0013AC3E90278C1F8C807C1F8C427F7
:10AD0000122381F8B23708E62A8892B2234442F42B
:10AD100000722A80C3E90278012381F8CC37F0E77A
:10AD20002B889BB243F400732B804FF6FF33AB822A
:10AD3000044B2344C3E9027801223319E2E500BF42
:10AD400040000010183000200400001082000700AE
:10AD5000840007000004001038B5114C04EB4014C7
:10AD600094F8B157D5B1C4F8C437049BC4F8C837B8
:10AD7000002384F8CC370223490084F8C32784F8E1
:10AD8000B23701229DF8143084F8C11784F8C22725
:10AD900084F8C037FFF726FD94F8CC57284638BD15
:10ADA0006828002038B5114C04EB401494F8B157D2
:10ADB000CDB1C4F8C437049BC4F8C8370223490096
:10ADC00084F8C32784F8B23700229DF8143084F841
:10ADD000C11784F8C22784F8CC2784F8C037FFF75E
:10ADE00001FD94F8CC57284638BD00BF68280020E4
:10ADF00082B000230193054B0193019B03EB800379
:10AE00000193019B196002B0704700BF50280040B9
:10AE1000F7B51C2005F06EF91121044605F001F983
:10AE2000204605F0F9F8C82007F06EFA204605F034
:10AE3000EEF81B2005F05EF920B140F20F13C3803D
:10AE40000023037224B140F20F23E3800023237216
:10AE5000C54B502283F843230822C3F88820BFF350
:10AE60004F8FBFF36F8FC14CC148236B43F0010379
:10AE700023634FF4C05140F20233CDE90013694619
:10AE8000FFF774FA436A23F470434362436A43F45E
:10AE900020434362436A23F470234362436A43F4CA
:10AEA000202343623F2005F025F9002105F0B9F881
:10AEB000636C43F480436364636B43F080036363B8
:10AEC000AC4BAD4C01205861AC4BC4F8243F03F1AE
:10AED0002C024833C4F82C3FA94BC4F84039A94B85
:10AEE000C4F84439022384F848394FF0A043C4F829
:10AEF0004C3903F50063C4F8503903F58073C4F886
:10AF0000583903F50073C4F89439A3F5F073C4F805
:10AF10005C3903F50073C4F89839A3F5F073C4F8ED
:10AF2000603903F50073C4F89C39A3F5F073C4F8D5
:10AF3000643903F50073C4F8A039A3F5EC63C4F8D1
:10AF400054394033C4F80C3AC033C4F8D0392033F4
:10AF5000C4F8D4392033C4F8D8392033C4F8DC39E4
:10AF60002033C4F8E0392033C4F8E4392033C4F87E
:10AF7000E8392033C4F8EC3903F52263C4F8282FEC
:10AF800084F84B09C4F8103A03F58053C4F8143A16
:10AF900003F58053C4F8183A03F58053C4F81C3AFB
:10AFA0004FF05023C4F8203A03F58053C4F8243AF4
:10AFB00003F58053C4F8283A03F58053C4F82C3ABB
:10AFC000A3F5E4430022C4F84C3A04F5146384F872
:10AFD000520A84F8542A19461546402681F81C2145
:10AFE000A1F822210132042AC1E9496581F81D0135
:10AFF00081F81F51C1F8305101F12801EED1002232
:10B000001646402183F87423A3F87A230132042AD8
:10B01000C3E9DF1683F8756383F87763C3F8886341
:10B0200003F12803EED14FF0A0450027AB6823F0D1
:10B030000103AB60EB6843F04003EB6051F018FF95
:10B0400094F84939DB1B18BF01231B0143F021038E
:10B0500063F31747AF63EB68C3F3076222F0600244
:10B0600042F0400262F31F63EB60474BC5F8006E8D
:10B070001A6866F3CC221A601A6842F003021A605A
:10B0800080236B6203F58003AB6203F14013C5F8C4
:10B0900004314FF4A073C5F808311020C5F80C3105
:10B0A00051F0C8FE0096009B43F010030093009BF4
:10B0B0002B61364B2A690092013B02D0009AD206DE
:10B0C000F8D4314A00234FF0FF311361536191618D
:10B0D0002F49D3611D46FF2051F8042F1668013314
:10B0E000002EACBF00264FF09046042B1660156171
:10B0F0009060F1D1002327491D46FF2051F8042F0D
:10B1000016680133002EACBF00264FF09046042B8A
:10B11000166015619060F1D11B4A136943F4807386
:10B1200013614FF0A0436FF080424FF0FF319D61FB
:10B130005A6159605A61184A9A619969174A0A43D3
:10B140009A619A6842F001029A60154BD3F8F83779
:10B150009847054B502283F8432308229A60114BED
:10B160002563236203B0F0BD00E100E00038024037
:10B1700000000240003C014070170020CC07002076
:10B18000080401004000400100080050410D030088
:10B19000C4200020002100200008008018383C0056
:10B1A0000000002015820008436D064A1A61C2782B
:10B1B000012A06D100F2CC5058611A684FF0802263
:10B1C0001A6070471800086038B5044600296DD130
:10B1D00090F81131022B28D1D0F83821D0F8241161
:10B1E0008A4230D9C378012B02BFD0F828315B18CE
:10B1F000C0F82831521AD0F82831C0F838214FF45D
:10B200008071002592B2A0F81C11C0E94A33C0F841
:10B210003451C0F8302100F58E7154F06BFC2B4690
:10B220002A462946204654F07DFD94F81631012B1C
:10B2300007D1244A2369D2F850265A60002384F8A3
:10B240001631002038BDD0F83C31B3FBF1F501FBDD
:10B250001535A5B9994212D8D0F8402193420ED2A3
:10B260004FF48073C0E94A55C0E94C55A0F81C3131
:10B2700000F58E7154F03EFCC4F84051CFE7D4F88D
:10B28000E435DB682BB194F81221032A01D1204662
:10B290009847052384F81131002320461A461946A1
:10B2A00054F040FD2046FFF77FFFBEE7D0F8E435BD
:10B2B0005B69002BC5D090F81221032AC1D19847B1
:10B2C000BFE700BF6828002070477047704710B57F
:10B2D0000F4C94F84A39B3B14FF0E022D2F8103D48
:10B2E00023F00603C2F8103DFEF79EFBD4F8503958
:10B2F0009B68DB0707D5D4F84C2A136823F00301B9
:10B3000061F307031360034B4FF480225A6110BDB1
:10B3100070170020003C01402DE9F04FB04CD4F8EC
:10B320004C395A69D0078BB000F194815A699B69F6
:10B3300012EA030A00F08E81CAF307431AF4002FC1
:10B3400001930FD0D4F85039DFF89C829E69DB69F5
:10B350001E40360C04F6941904F5146B0027002ED9
:10B3600040F07B81019B59070DD5D4F850399D4D94
:10B370009F69DB691F40BFB205F118064FF0000856
:10B38000002F40F0AB811AF0020F1FBF944BD3F88F
:10B390004C3902225A61BAF1000F5FFA8AF51BDAC2
:10B3A0008F4B93F84A293AB1D3F84C2A136823F00B
:10B3B000030161F307031360D4F8502989485368E7
:10B3C00023F001035360884BD3F848389847D4F8EA
:10B3D0004C394FF000425A611AF4006FCAF3072645
:10B3E0002FD000238DF8173094F8523A8DF817308B
:10B3F0007D4B7C48D3F844389847D4F84C29D4F88E
:10B4000050394FF400619B68516194F84A29C2B1E8
:10B41000DB0716D594F8553A012B12D19DF8173059
:10B42000032B0ED1D4F84C3A1A6842F001021A608C
:10B430001A6842F003021A606C4A136943F006036B
:10B4400013612F0708D5684B6648D3F83C389847F6
:10B45000D4F84C3908225A61ED0614D5D4F84C09B9
:10B46000836923F010038361036AC3F34341022914
:10B4700003F00F0200F0E781062900F00B828369D8
:10B4800043F010038361F00631D5D4F850596B684E
:10B49000002723F001036B60384651F0CBFC94F891
:10B4A00041C9534AB8463B46FF206345C0F000827D
:10B4B0004FF0FF33AB614FF00113EB610B2363F3EC
:10B4C000070763F307086F61C5F810802B684548CC
:10B4D00023F4FE632B60FFF767FED4F84C39414834
:10B4E0004FF480525A61404BD3F840389847B10628
:10B4F0006DD5D4F85069D4F85829B3681168C3F3EE
:10B500004103022B14BF0023032363F30A011160DC
:10B51000736843F48073736006A8FEF76CFFD4F879
:10B520004C590799E86820F47050E860B36813F04C
:10B53000060FC3F3410200F0C2812E4B2E4A0B448A
:10B54000934240F2C0812D4AA1F57403A3F5105334
:10B55000934240F2BC812A4B2A4A0B449342C0F0EA
:10B56000BA81294AA1F18C73A3F54343934240F277
:10B57000B681264B264A0B449342C0F0B481254B3A
:10B58000254A0B449342C0F0B281244AA1F1B7731B
:10B59000A3F558539342C0F0AD81214B214A0B448F
:10B5A0009342C0F0AB81204B204E0B44012240213E
:10B5B000B34234BF06230523094E63F38D204FF4B5
:10B5C0000053E86086F84229A6F844196B61019B94
:10B5D000DA0632D5044B0348D3F84C38984727E0B5
:10B5E00070170020B02000200000002000ED00E0D7
:10B5F000C4200020401E1BFF3F420F00DFC8100088
:10B600002013FBFE20D61300FF69180000D3CEFEE6
:10B6100040771B00C05BB3FEC091210040AC270007
:10B62000C01D6AFE40E13300803C36FEE09C4100D4
:10B63000D4F84C394FF480125A61019B9B0609D50E
:10B64000B04BB148D3F850389847D4F84C394FF440
:10B6500000125A610BB0BDE8F08FF10737D5D9F869
:10B660000010D4F850398D685B691D40EA071ED57B
:10B6700094F843390125AB428D6007D10969DBF8A5
:10B680007C33C1F312015B1ACBF88C33D8F8303815
:10B690009D48F9B2984794F84339012B07D137B93F
:10B6A00094F8513A052B02D19748FFF77DFDAB077F
:10B6B00042BFD9F8003002259D60280707D5D8F889
:10B6C000383891489847D9F8003008229A600137F5
:10B6D000760809F104090BF1280B40E6FA0772D548
:10B6E000D4F8503932681869D3F83490916829FA3F
:10B6F00008F94FEAC9195FFA89F949EA000909EA24
:10B70000010919F0010F1FD0596B012000FA08F050
:10B7100021EA000159637B4B7B48D3F834384FF062
:10B720000109C2F808905FFA88F1984794F8433904
:10B730004B4509D1B8F1000F06D194F8513A042BCA
:10B7400002D17148FFF730FD19F0080F1EBF3368B2
:10B750004FF00809C3F8089019F0100F1EBF3368A6
:10B760004FF01009C3F8089019F0400F1EBF33685E
:10B770004FF04009C3F8089019F0020F1EBF33685C
:10B780004FF00209C3F8089019F0800F1BD0D5E9DB
:10B790004C329B1AD5F82421D6F800B0934228BF2A
:10B7A00013465A4ADBF8180092F843C9D2F8509968
:10B7B00003339B080293029B80B2984203D9D5E9D8
:10B7C0004C03984205D808F101087F082835043653
:10B7D000D6E5C01AD5F82431984228BF1846C31CB4
:10B7E0009B080293BCF1000F1BD0D5F82811D5F8A7
:10B7F00034210144C5F82811D5F8301102448A4299
:10B80000DBF81800C5F83421D5D195F81C11D9F80A
:10B810003420012303FA01F122EA0102C9F834209D
:10B82000C9E782B2D6F8B810D5F828E103329310F0
:10B8300003930A466146039B8B42D6D05EF82130C3
:10B8400013600131F7E747F6F07119423FF417AE84
:10B85000282101FB0241C3F30A13DD1CD4F810CAEE
:10B86000D1F8C07CAD1000218D420DD1282101FB03
:10B870000242D2F8C01C1944C2F8C01CD2F8CC1C39
:10B880001944C2F8CC1CFAE5DCF800E047F821E0E6
:10B890000131E9E7D4F8101A0D68C4F80C5F0968A3
:10B8A000C4F8101F282101FB0242C3F30A13E5E785
:10B8B00052F8041F8860D16B01338860F5E54FF4BE
:10B8C0000071092378E6012240210E2374E601224B
:10B8D00040210D2370E6012240210C236CE6012259
:10B8E00040210B2368E6012240210A2364E601225D
:10B8F0004021E6E70122402108235DE601224021A4
:10B90000072359E600000020B02000207017002017
:10B91000F0B59C0827010E46154600EB0414A04222
:10B9200006F1100605F1100508D103F003033944B0
:10B930003A4404EB83039C4223D1F0BD84469CED42
:10B94000006A16ED045AD0ED016A56ED037A90EDC7
:10B95000027A56ED025A26EE056A66EEA76AD0ED27
:10B96000037A05ED046A16ED016A45ED036A27EED8
:10B97000257A67EE867A103005ED027A45ED017A78
:10B98000CDE7F4EC017AB1EC017A67EE877AE2EC6C
:10B99000017AD0E74A09012350F8222001F01F0163
:10B9A0008B40134214BF01200020704710B54C0992
:10B9B000012250F8243001F01F018A40134340F85F
:10B9C000243010BD70B54E09024400EB8604A2423B
:10B9D00005464FF0FF300FD901F01F0100FA01F3C7
:10B9E00055F826100B4093FAA3F3B3FA83F3DBB2B6
:10B9F000202B02D003EB461070BD211D914208465A
:10BA000002D34FF0FF30F7E70368043193FAA3F352
:10BA1000B3FA83F3DBB2202BF0D0401B03EBC00062
:10BA2000EAE780EA0120082241F2210103B2002B5B
:10BA3000B5BF81EA4303400098B280B2013AF5D124
:10BA4000704738B50C468D18AC4200D138BD14F89B
:10BA5000011BFFF7E6FFF7E74840082243B2002B3F
:10BA6000BBBF5B0083F0D5034000D8B2A8BFC0B213
:10BA7000013AF3D1704738B50C468D18AC4200D16D
:10BA800038BD14F8011BFFF7E7FFF7E770B506684C
:10BA900005460C460020B44203D3731C2B60307063
:10BAA00070BD14F8011BFFF7D7FFF4E7DFED0A7A4A
:10BAB000C0ED020A20EE270AB7EE007AC7EE007A40
:10BAC00000230360C0ED017A70EEA77A80EEA77ABA
:10BAD00080ED037A704700BFDB0FC94090ED017A1B
:10BAE000D0ED007AC0ED020A30EE877AC0EE876AA8
:10BAF00030EE677AE6EE877AB0EE670AC0ED007A3C
:10BB00007047012303700023C364836403650364E7
:10BB100043644365836283657047DFED157A80ED8A
:10BB2000010AF4EEE70AF1EE10FAC0ED020A80ED28
:10BB3000031AC0ED051A18DDB4EEE70AF1EE10FAAB
:10BB400008DC9FED0C7A80ED047A80ED0F2AC0EDC1
:10BB50000E2AD6E781EE007AC0EE207AF0EE006A77
:10BB600077EE877A86EEA77AEDE700238360E8E731
:10BB7000BD378635000000000F29A8BF0F2101291D
:10BB800070B5B8BF01214C00013400260460A40048
:10BB900005468160466022463146803057F067FF97
:10BBA0002246314605F58070BDE8704057F05FBF12
:10BBB000FDEEC07A17EE903A2033402B43D8DFEDEC
:10BBC000237A9FED237AB4EEE70AF1EE10FA28DC2F
:10BBD000DFED207A9FED1E7AB4EEE70AF1EE10FA5F
:10BBE00022D4DFED1D7AB4EEE70AF1EE10FA1EDD85
:10BBF00030EE670A37EEC00A60EE007ADFED176AB2
:10BC00009FED177AA7EEA67ADFED166AE7EE876A50
:10BC10009FED157AA7EEA67A20EE276AA6EE070A10
:10BC2000704730EE470ACEE730EE070AD4E79FEDC3
:10BC30000F7AB4EEC70AF1EE10FA44BF30EE270ACD
:10BC400037EE400AD8E79FED0A0A7047DB0F4940FC
:10BC5000DB0FC940DB0F49C0DB0FC93F9A7C2E3692
:10BC6000FAAF4FB93587083CA4AA2ABEDB0FC9BF7B
:10BC700000000000DFED027A30EE270A98E700BFEF
:10BC8000DB0FC93F10B51C46334BB3FBF2F39942AF
:10BC90009FED325AF0EE404AF7EE005A53D207EECB
:10BCA000901A9FED2F7ADFED2F6AF8EE677AF8EEA3
:10BCB000002A67EE877A07EE102AB8EE477A27EE59
:10BCC000267AC5EE876A87EEA64AB0EE440AFFF7E9
:10BCD0006FFFF0EE403AB0EE440AFFF7CBFF74EE90
:10BCE000A44A012C83EEA43A1CBF35EEC04AF6EEFE
:10BCF000006A33EE257A12BF64EE266AF0EE656ABA
:10BD000020EE224A86EE876AC4EE074A60EE227A67
:10BD100075EEC35AC7EE876AC5EE877AF0EE465ACB
:10BD2000C0ED005AC0ED014A80ED026AC0ED036A21
:10BD3000C0ED047A80ED065A80ED055A80ED085A70
:10BD400080ED075A10BDF0EE454AB0EE456AF0EEC0
:10BD5000456AF0EE457AE3E720A107000000000005
:10BD6000DB0FC940BD378635B0EEE06AF0EEC07A31
:10BD7000B4EEE76AF1EE10FAF0EE406A4BDCB5EE95
:10BD8000400AF1EE10FA4BD0B4EEE76AF1EE10FA89
:10BD9000F0EE675A41D5B0EE465A85EE257ADFEDD2
:10BDA000225A9FED225ADFED224AA7EE255ADFEDF7
:10BDB000215AE5EE075A9FED205AA5EE875ADFED8E
:10BDC0001F5AE5EE075A9FED1E5AE7EE054AB7EEF9
:10BDD000005AA4EE875AB1EE657A87EE050AB4EEF2
:10BDE000E76AF1EE10FA48BFDFED167AF5EEC00A09
:10BDF00048BF37EEC00AF1EE10FA48BFDFED127A05
:10BE0000F5EEC06A48BF37EEC00AF1EE10FA48BF3F
:10BE1000B1EE400A7047F0EE465AB0EE675ABCE702
:10BE20009FED0A7ABBE700BF39094E3DE3B59EBEE0
:10BE300069A2163E88FA16BE45FE7FBFA7DFA8B4EA
:10BE400099FB243FDB0FC93FDB0F49400000000096
:10BE500044F25063984203DDA0F50C40A0387047CF
:10BE6000034B9842BCBF00F50C40A030704700BFA8
:10BE7000B0B9FFFF48F69F43984203DDA0F50C40A0
:10BE8000A03870470028BCBF00F50C40A0307047B8
:10BE900091ED005A08B5B0EE450AFFF7EBFEF0EE63
:10BEA000405AB0EE450AFFF783FE91ED015AF0EEDD
:10BEB000404AB0EE450AFFF7DDFEF0EE403AB0EE44
:10BEC000450AFFF775FE91ED023AB0EE405AB0EE2A
:10BED000430AFFF7CFFEB0EE404AB0EE430AFFF749
:10BEE00067FE25EE806A63EEC07A24EE847AC0EDA8
:10BEF000017AF0EE467AE5EE077A25EE843A64EEB2
:10BF0000806AC0ED037AF0EE437AE5EE667AA5EE3C
:10BF1000067AE5EE436A23EE844A64EEE34A65EE70
:10BF2000A35A80ED004A80ED025AC0ED047AC0EDBC
:10BF3000054AC0ED066A80ED077AC0ED085A08BDD3
:10BF4000034600F1400100221A615A619A61DA61E8
:10BF500010338B42F8D11022002157F088BD91EDAB
:10BF6000007AD0ED047AE7EE077AC0ED047AD1EDDD
:10BF7000006A91ED017AD0ED057AE6EE877AC0EDA0
:10BF8000057AD1ED006A91ED027AD0ED067AE6EEFF
:10BF9000877AC0ED067A91ED007AD0ED077A77EED8
:10BFA000877AC0ED077AD1ED016A91ED007AD0ED84
:10BFB000087AE6EE877AC0ED087A91ED017AD0ED45
:10BFC000097AE7EE077AC0ED097AD1ED016A91EDC1
:10BFD000027AD0ED0A7AE6EE877AC0ED0A7A91ED20
:10BFE000017AD0ED0B7A77EE877AC0ED0B7A91ED7E
:10BFF000007AD1ED026AD0ED0C7AE6EE877AC0EDD8
:10C000000C7AD1ED026A91ED017AD0ED0D7AE6EE6F
:10C01000877AC0ED0D7A91ED027AD0ED0E7AE7EED7
:10C02000077AC0ED0E7A91ED027AD0ED0F7A77EEB5
:10C03000877AC0ED0F7A91ED007AD0ED107A77EE25
:10C04000877AC0ED107A91ED017AD0ED117A77EE12
:10C05000877AC0ED117A91ED027AD0ED127A77EEFF
:10C06000877AB7EE007AC0ED127AD0ED137A77EEC8
:10C07000877AC0ED137AD1ED017AD1ED006A91EDA6
:10C08000027A67EEA77AE6EEA67AE7EE077A90EDF7
:10C09000007AA6EEA77A80ED007AD1ED016A90EDE4
:10C0A000017AA6EEA77A80ED017AD1ED026A90EDD1
:10C0B000027AA6EEA77A80ED027A90ED037A77EE07
:10C0C000277AC0ED037A70472DE9F043034685B027
:10C0D00000F11007054600261C46AC4612E0F8ECBD
:10C0E000016A1EED047AD4ED007AE6EEC77AC4ED5B
:10C0F000007A98450EF1100EF1D10434BC420CF1D7
:10C10000040C03D0A7F11008E646F2E701361C46FE
:10C11000B646BEF1040F1DD000EB0E1CA84604F17C
:10C12000100907E0FCEC016A18ED047AE6EEC77A24
:10C13000C4ED047ACC45D4ED047A08F11008F1D1AD
:10C14000D3ED006A87EEA67A0EF1010E84ED047A33
:10C150006446DEE7042E03F1140305F1040507F13C
:10C160001007B9D1002300930193029303936C4607
:10C1700000231427F2EC017A00EB031507FB030CF4
:10C180006E466545C4ED007A1FD10133042B04F1DE
:10C190000404EFD104AD103100F1400275ED017AD5
:10C1A00000EB03170E461446BC4241ED017A13D151
:10C1B00052ED016A87EEA67A013BA2F1140221ED4D
:10C1C000017AEBD105B0BDE8F083F5EC016AB6EC7D
:10C1D000017AE6EEC77AD4E7F4EC016AB6EC017AAC
:10C1E000E6EEC77AE0E71FB50C4602466946103016
:10C1F000FFF76AFFDDED007AB6EE007A67EE877A28
:10C200000120C4ED007ADDED017A67EE877AC4ED96
:10C21000017ADDED027A67EE877AC4ED027A04B026
:10C2200010BDB5EEC00AF1EE10FA08B506DB55F008
:10C23000C3F9B4EE400AF1EE10FA01D79FED010AFE
:10C2400008BD00BF000000002DE9F041044626466D
:10C250001C3004F1640250ED017AB1EC010A77EE72
:10C26000807A40ED017AFCF778FA18309042F2D1EA
:10C270002C4F6268D7F8DC3825699B1AA268013513
:10C28000934225612BD904F13008F36A012BC3BF17
:10C2900003F1FF3307EE903A96ED0A7A9FED220AFA
:10C2A000C4BFF8EEE77A87EE270AFFF7BAFF4645E4
:10C2B000D4ED057A15D0F4EEC07AF1EE10FA06F15D
:10C2C0001806E2D5237B4BBBD7F8DC28626000223E
:10C2D0002361A261E36222636364A264E365BDE853
:10C2E000F081F4EEC07AF1EE10FAEBD407EE905A3A
:10C2F000D4ED066AF8EE677A022386EEA77AD4EDCB
:10C300000C6A84ED067A86EEA77AD4ED126A84ED83
:10C310000C7A86EEA77A84ED127A00E0032323706C
:10C32000DDE700BF701700200000000070B52DEDA4
:10C33000028B0378012B04463CD10569254E25B9B3
:10C34000426812B9D6F8DC28426094ED068A30EED5
:10C35000088A013584ED068A256104F11C00FCF78A
:10C36000FCF96268D6F8DC389B1AA268934221D99E
:10C37000E36A012BC3BF03F1FF3307EE903A94ED5C
:10C380000A7A9FED150AC4BFF8EEE77A87EE270A0E
:10C39000FFF747FFD4ED057AF4EEC07AF1EE10FA1C
:10C3A0000ED5237B4BB9D6F8DC28626000222361CE
:10C3B000A261E362BDEC028B70BD03232370F9E739
:10C3C00007EE905AF8EE677A022388EE277A84ED1A
:10C3D000067AF3E7701700200000000008B52DED85
:10C3E000028BF0EEC08AB0EE408AB7EE000A30EE63
:10C3F000680AFFF716FF9FED0E7ADFED0E7AE8EE82
:10C40000877A9FED0D7AA7EEA87ADFED0C7AE7EE3A
:10C41000287AB5EEC08ABDEC028BF1EE10FA20EE60
:10C42000270A44BFDFED067A37EEC00A08BD00BF19
:10C43000306E99BC2716983D843459BEA40DC93F6F
:10C44000DB0F494060EEA00AE0EE000AB0EE600AA1
:10C45000E7E660EEA00AE0EE000AE1EE010AB0EEC7
:10C46000600ADEE62DE9F74F90469DF83020002A5D
:10C470000CBF4FF0200A4FF0300A0D9A1C1E0546E3
:10C480000F46BABF64424FF0010B4FF0000B12F899
:10C49000011B01B14CB9BBF1000F2DD1264636B9B5
:10C4A000A1464FF0FF340D9E0FE0013CEFE7BD4287
:10C4B00002D251462846C047013EF0E7BD4203D2B2
:10C4C00001922846C047019A1646324612F8011BCF
:10C4D0000029F3D10D9BA9EB03094E44BBF1000FDA
:10C4E00006D0A146B9F1000F09DC002CA8BF36190F
:10C4F000304603B0BDE8F08F4FF00009D3E7BD42EE
:10C5000002D251462846C04709F1FF39EAE70FB485
:10C5100037B50C4D06ABD5F8A81953F8042BD5F850
:10C52000A409019353F0C0FC0446D5F8600705F058
:10C53000C0FD0028F9D0204603B0BDE8304004B06B
:10C54000704700BF682800200EB403B503AB08494C
:10C5500053F8042BCDE9003001A853F0A5FC019B52
:10C5600000221A7002B05DF804EB03B0704700BF00
:10C57000AD8700080CB430B52D4CD4F8AC39A5B05B
:10C580001BB9D4F8B039002B40D094F8B439994293
:10C5900006D9012303FA00F0D4F8B839184235D08F
:10C5A000244BD3F8DC184FF47A7304A8B1FBF3F2F0
:10C5B00003FB12132049FFF7C7FF04AB0344289A7B
:10C5C0001E490393054629AB03A8029353F06CFC64
:10C5D000039B591C03910A211970039B591C039159
:10C5E000002119700246D4F8AC09A0B103685B6A57
:10C5F0004BB9D4F8AC5904AC14F8011B31B128463E
:10C6000005F0E6FCF8E798470028F2D125B0BDE830
:10C61000304002B07047D4F8B039002BF6D0154442
:10C620000222009204A9AA18FD202DF079F9EDE765
:10C63000682800207017002053E306085D85000875
:10C64000184A38B5D2F8BC59033005EB9003B3F55E
:10C65000007F19D802F51C64C2F8BC39124A02EBFB
:10C66000810120F00300D1F8C820C3F50073024413
:10C67000C1F8C8209B000D4A0421002004EB85046A
:10C68000FFF778FF204638BD0021094A0846FFF72A
:10C6900071FF084AD2F8A43043F00073C2F8A43006
:10C6A0000024EFE768280020603900205FE30608D7
:10C6B00083E30608104C01202DE9F0470368214F61
:10C6C0000546002457F83420934213D11E4E06EB42
:10C6D00084094FEA8408D9F874A7BAF1000F21D170
:10C6E00007216420FFF7ACFF0146C9F8740760B961
:10C6F000164A04E001340E2CE4D1154A002105202D
:10C70000FFF738FF0020BDE8F0876422514657F05C
:10C71000AEF9D9F8743707EBC407C3E90073DB61DE
:10C720005B63DB6446446879D6F87437182404FBED
:10C73000003200211046C2E90311956011750430E2
:10C74000E1E700BFD03D060868280020B6E30608F0
:10C7500091E3060803685A1C026019700368090A0D
:10C760005A1C02601970704703685A1C02601970E5
:10C7700003685A1C02600A0A1A7003685A1C026095
:10C780000A0C1A700368090E5A1C0260197070476F
:10C7900038B504460068154656F0A4FE23682B44BD
:10C7A000236038BD03685A1C02601878704703681C
:10C7B0005A1C02601A4612F8021B0260587841EABD
:10C7C00000207047026810B5531C0360134613F82D
:10C7D000021B0360D31C5478036093781B0443EA64
:10C7E00004230B43111D0160D07843EA006010BDA3
:10C7F000D1E900329A4206D05A1C0A6008B11B786F
:10C8000003700120704700207047D1E900239B1A74
:10C81000012B10B50446084604DDFFF7C8FF208051
:10C82000012010BD0020FCE738B50546002428464D
:10C8300053F038FDA04200D838BD2B5DA3F1610252
:10C84000192A9CBF203B2B550134F0E730B50A4430
:10C850000546914201D1002011E015F8013B11F885
:10C86000014BA3F141001928A4F1410098BF2033E6
:10C87000192898BF2034181B01D1002CE9D130BDF4
:10C880006FF00042E2E710B50388827803F00301FD
:10C890000C24013A04FB01221149847901EB420284
:10C8A000A3F5FA63B2F8FE2040F2B5519B0801FBF4
:10C8B0000323C278013A13440279182101FB0323B0
:10C8C000427900893C2101FB0322064B234401FBF2
:10C8D00002334FF47A720021C3FB020110BD00BF86
:10C8E000643D060880436D38F8B5194604460023B8
:10C8F00010464FF47A7254F091FA244B3C250344CD
:10C9000093FBF5F005FB103390FBF5F105FB1100EF
:10C9100060711820A37191FBF0F300FB131140F23A
:10C92000B550217193FBF0F100FB1133B3F5896F22
:10C930004FEA810526DA40F2DA218B4224DCB3F596
:10C94000B77FB4BF00200120114E182101FB006603
:10C950000B2136F811709F4201DD0139F9D105F53F
:10C96000FA65054425804D1CA5700C2505FB0011BA
:10C970000848228100EB41010133B1F8FE105B1A37
:10C98000E370F8BD0320DFE70220DDE780BC92C73B
:10C99000623E0608643D0608F0B5294D07460E467E
:10C9A0000FCD8DB06C460FC40FCD0FC495E80F00AE
:10C9B00084E80F0017F003033FD1642197FBF1F2E5
:10C9C00001FB127242B94FF4C87297FBF2F302FBFB
:10C9D0001373003B18BF01237A1EC3F11D03002A05
:10C9E000019340F26D13114607FB03F3B8BFB91C66
:10C9F00003EBA1036FF0630192FBF1F10B444FF4E1
:10CA0000C87192FBF1F213442533072493FBF4F22F
:10CA1000C2EBC2029B1A013E6D46002155F8040F7D
:10CA200001310344B14293FBF4F2C2EBC202A3EB27
:10CA30000203F3D1C01A0DB0F0BD0123CCE700BF53
:10CA4000C43E0608084BD3E9541251EA020309D048
:10CA5000064BD3F8DC385B1842F10002C0E9003223
:10CA600001207047002070476039002070170020B7
:10CA700037B505466846FFF7E5FF044638B1DDE9FE
:10CA800000232846FFF730FF204603B030BD40F2B8
:10CA9000011328806B80A880A8712881F4E737B53E
:10CAA0000546FFF7E5FF044650B1074B0DF10602BE
:10CAB000B3F85831ADF80630294628464FF03CFA15
:10CAC000204603B030BD00BF60390020F0B501241E
:10CAD000B0FBF4F58D4203D200261CB91C70F0BDEA
:10CAE0004C43F5E7B0FBF4F5B4FBF1F704FB15009C
:10CAF0002EB9002D03DC8C420CD33C46EDE7092D0A
:10CB000008DD002A0CBF572437242C4403F8014BBE
:10CB10000136F2E73024F8E700280B46BEBF2D228D
:10CB200003F8012B404200220A21CFE703463038A8
:10CB3000C2B2092A0FD9A3F16102052A02D8A3F1D2
:10CB400057007047A3F14102052A02D8A3F137002C
:10CB500070474FF0FF30704770B504469442084666
:10CB60001546B4FBF2F602D33046FFF7F5FF05FB9E
:10CB70001644024B1B5D00F8013B70BDD0E3060874
:10CB8000B5EEC00ADFED2D7AF1EE10FACCBF30EE33
:10CB9000270A30EE670ADFED2A7A20EE270A30B541
:10CBA000FDEEC07A87B017EE904A054684EAE4703D
:10CBB000002303A9A0EBE470CDE90033029350F009
:10CBC00029F9002CB4BF2D23202303A88DF80030B1
:10CBD00053F068FB012822D130238DF8013043F255
:10CBE0003003ADF8023003A9684656F08EFE684661
:10CBF00053F058FBC41EE4B222466946284656F05C
:10CC000071FC00232B550F49284656F07EFE0DEB94
:10CC10000401284656F079FE284607B030BD0228A8
:10CC200005D130238DF801308DF80230DBE7032881
:10CC300004BF30238DF80130D5E700BF6F12033AEF
:10CC400000007A447E1B070830B50278202A03468C
:10CC500000F10100F9D0092AF7D02D2A4BD1034663
:10CC6000BFEE000A9FED3C7A1A46F2EE046A1346C4
:10CC700012F8010BA0F13001CCB2092C41D92E28B9
:10CC80000BD1F2EE046A1146B0EE666A0B4611F85B
:10CC9000012B303AD0B209283CD91A7802F0DF02D1
:10CCA000452A53D15A782D2A3FD102330120013B26
:10CCB00000220A2513F8011F3039CCB2092C3AD9C9
:10CCC000B2F59A7F1346DFED256A28BF4FF49A73B9
:10CCD0001A46F7EE007A072A30D8DA086FF0070113
:10CCE00001FB0233F2EE046A63BB88B3C7EE276A26
:10CCF00020EE260A30BD2B2A08BF0346B7EE000AF5
:10CD0000B0E707EE901AF8EEE77AE7EE267AB0EE93
:10CD1000677AACE707EE902AF8EEE77AC7EEA65AF4
:10CD200066EE866A37EE257AB0E72B2A14BF013308
:10CD300002330020BBE705FB0212BBE767EEA67AD1
:10CD4000083AC8E767EEA67A013BCDE7F7EE007A2E
:10CD500067EE276ACCE700BF0000000020BCBE4C95
:10CD600070B5034610F8012B202AFAD0092AF8D012
:10CD70002D2A0ABF034601254FF0FF35591E002416
:10CD80000A2611F8010FFFF7D1FE092802D905FB89
:10CD900004F070BD06FB0404F3E710B500238028FF
:10CDA00004D893420AD2C854581C10BD934205D0EF
:10CDB00060F07F04CC54C0090133F0E74FF0FF303E
:10CDC000F3E7F8B5144D2B787E2B23D101222946A9
:10CDD0000020FEF736FE114F6C1C228862B1A31DA5
:10CDE000BB4217D2A618BE4214D2052A12D9214638
:10CDF000FEF727FE3446F0E702222146FEF721FE29
:10CE00006388074AC31A0434641B5842A2F85C4181
:10CE10005841F8BD0020FCE70040000800800008F1
:10CE2000603900202DE9F04F01208FB003F07EFF24
:10CE3000DFF8E0B1724BA3EB0B02CDE901234FF019
:10CE40000308102200210AA856F011FE019B099345
:10CE5000029B08936B4BCDF81CB01A69002ABFBF28
:10CE6000694A5A6002F188325A600124F322DA607A
:10CE70004FF000097E23224604A907A88DF834400C
:10CE8000CDF830908DF81030FBF7C4FF4845C0F264
:10CE9000A180224604A94846FEF7D3FD5B4CADF8BD
:10CEA00012005B4B9C423CD30024022205A907A838
:10CEB000ADF81440FBF7AEFFA042C0F28B80BDF886
:10CEC0001200022205A9FEF7BCFD0222ADF81200F5
:10CED0000DF1120107A8FBF79DFFA0427ADB0B982A
:10CEE00080B1079B089A0344934273D80AABC0F100
:10CEF00004022146184456F0BAFD0AA907A8FBF718
:10CF0000E5FE0C900C9C002C64DB9DF8343023B1C2
:10CF10003C4A136943F000431361B4FA84F4640992
:10CF200059E062888DF81990C2F30B06B31DADF875
:10CF300014302388C3F30B011B0B8DF81830130436
:10CF4000ADF816101ED4062205A907A8FBF762FF4C
:10CF500000283FDBBDF81200062205A9FEF771FD8F
:10CF6000676805463246394607A8FBF753FF002895
:10CF700030DB324639462846FEF763FDADF8120035
:10CF800014348EE700273D460135EDB2062205A98F
:10CF900007A88DF81950FBF73DFF00281ADBBDF8F4
:10CFA0001200062205A9FEF74CFD6168824639444D
:10CFB000324607A80391FBF72DFF00280ADB0399EF
:10CFC00032465046FEF73DFD032DADF812003744C2
:10CFD000DAD1D5E70024B8F1010802D0002C3FF4E3
:10CFE00030AF002003F0A2FE14B9052005F0A1F92E
:10CFF000FFF7E7FE0028F8D00FB0BDE8F08F00BFC4
:10D0000000800008003C024023016745B447070840
:10D01000904D070800400008034AD2F8603123EA27
:10D020000003C2F8603170476039002003460649AA
:10D030000648884201D3002070470288C2F30B02E1
:10D040009342F9D01430F4E7904D0708B44707082D
:10D0500070B544880B460546C4F30B0422460021F4
:10D06000184656F004FD2969084A9142034607D341
:10D07000074A914205D22246BDE8704056F032BAC6
:10D0800019B1BDE870401846084770BD904D0708BB
:10D09000D752070810B4B0F902404288002C0B4662
:10D0A00041685DF8044BBEBFC2F30B02DBB203FB69
:10D0B0000211CDE730B5094B094CA34200D330BD76
:10D0C000B3F902205988002A06DA5A68DD68C1F3EC
:10D0D0000B0100FB01222A601433EEE7B447070876
:10D0E000904D070830B502460144002012F8015B5C
:10D0F000082480EA050343F3000323F0730383EA63
:10D100005003D8B2631E13F0FF044FEA5505F0D167
:10D110009142EBD130BD164B03EB800370B5D3F8D1
:10D12000340808B3134D0C2202FB005292F965310A
:10D13000591C1AD092F86D01B0B1E9188C2491F8FD
:10D14000B86192F86C110020142263435C1805EB5F
:10D150004404013AB4F8BC41314410FA84F0F5D1EA
:10D160001423B0FBF3F080B270BD0020FCE700BFD9
:10D1700070170020603900202DE9F04F002104468F
:10D1800091B0BE48542256F072FCBD4B611E184649
:10D19000033411F8012F551E052D88BF00228C4243
:10D1A00040F8042BF5D11946002251F8040B012850
:10D1B00000F059810132042AF7D1002253F8041BF0
:10D1C000022900F046810132042AF7D10320FBF73F
:10D1D0000DFB0420FBF70AFB0520FBF707FB0620ED
:10D1E000A64EDFF8B882FBF701FB34464FF01A0B6E
:10D1F0004FF0000A08F5C879277B57B3384694F9F1
:10D200000D5002F077FF28B105238371002380F8C9
:10D2100007B00372132102F004FF002319F8331042
:10D22000B94240F0DD8008EBC303D3F89431954A4E
:10D230002361182303FB052555F85C3C2375591C15
:10D240000723A375012345F85C1C637505F8603C52
:10D250009A440BF1010B5FFA8BFBBBF1200F04F139
:10D260000C04C9D1BAF1000F00F0B780864DDFF889
:10D27000308200272B7C002B00F0A78068794FF0CC
:10D28000A7FD28794FF0A4FDD5F808A05046FCF77B
:10D29000E5FF2C68D5F81490CDF80C800023CDE97B
:10D2A0000C33CDE90E330493069304F14C0302933F
:10D2B000EB680193142303FB09F34FF48062059399
:10D2C0004FF40063CDE907234FF400514FF480730E
:10D2D000CDE909134FF4003301A90B934FF08AFCF9
:10D2E000DAF80030694A43F00103CAF800305168A7
:10D2F000674B0B4043F4403353606268B9F1010F50
:10D3000022F04072D4BF0023012322F4807242EA4B
:10D3100003226260A2685F4B134043F00203A360E4
:10D32000E26A09F1FF3322F47002DBB242EA0353EE
:10D330000122E362304694464FFA87FE437D6BB389
:10D3400090F90D30734529D1037C90F81690092B84
:10D350004CD9A3F10A01D4F80CA001EB41014FF024
:10D36000070B0BFA01FB2AEA0B0A09FA01F141EA61
:10D370000A01E160062A48D8511ED4F8349001EB26
:10D3800081014FF01F0A0AFA01FA29EA0A0903FA91
:10D3900001F141EA090161630132D2B20CF1010CE1
:10D3A000BCF1070F00F10C00C8D1A36843F400736F
:10D3B000A360A36843F48073A360A36843F00103F0
:10D3C000A360A36843F08043A3600137032F05F1F6
:10D3D000180508F58C787FF44DAF11B0BDE8F08FDB
:10D3E0000133102B7FF41AAF002320E7216903EBF0
:10D3F000430B4FF0070A0AFA0BFA21EA0A0A09FA64
:10D400000BF141EA0A012161B4E70C2A10D8D11FBF
:10D41000D4F8309001EB81014FF01F0A0AFA01FAAB
:10D4200029EA0A0903FA01F141EA09012163B3E794
:10D43000A2F10D01D4F82C9001EB81014FF01F0AED
:10D440000AFA01FA29EA0A098B4043EA0903E3626E
:10D45000A2E7114B212283F87C2193F8B8210132F5
:10D4600083F8B821B2E60C4A202182F8701192F8B4
:10D47000B811013182F8B8119FE600BFC43A00200C
:10D48000A41F0020F8100020881000200023014075
:10D49000E030FCFFFDF7FFC060390020643D060866
:10D4A0001C3B0020C28970B5002302F00F0602F475
:10D4B0007F42C281012519464C1030F81440002CDF
:10D4C00018BF002511F0010F1ABFE4B2634083EAD0
:10D4D0001423082413F4004F18BF83F4C053013CF5
:10D4E0004FEA4303F6D101311029E5D13243C2811D
:10D4F00035B9C3F30330801B18BF4FF0FF3070BD48
:10D500004FF0FF30FBE710B5427A044632B10146D6
:10D51000406851F80A3B98470023637210BD10B46D
:10D52000447A621C0444D2B24272A172037A9342DA
:10D5300002D85DF8044BE6E75DF8044B704710B580
:10D5400003681A79022A044602D1987A51F032F916
:10D5500000232371236010BD2DE9F04F85B0B34D3A
:10D560000293B34B9D4220D26C798C4240F076817D
:10D570002C79844202D0002840F07081EC799442EA
:10D5800040F06C812C6884B11C220021201D56F0D3
:10D590006EFA25602B792371AA79A2600192012B82
:10D5A0002A7AE26006D0022B0DD00024204605B076
:10D5B000BDE8F08FE87A02F09DFD6B7A2374AB7AB8
:10D5C000A0616374F2E7E87A02F094FD95F90980AE
:10D5D000A06184F81080A87A02F08CFD0646606194
:10D5E000002800F03781934F142303FB087353F88E
:10D5F000285C002D00F02E8113F8162C002A40F034
:10D60000CF8013F8209C48464FF0E2FB09F01F0240
:10D610004FEA59190123A9F102099340B9F1030F07
:10D6200008D8DFE809F07B75026F83490A6922EAAE
:10D6300003030B61142303FB087308F1010913F8BA
:10D64000230C02F057FD5FFA89F9034620B140F63A
:10D650000A32C28080F80890142202FB08720393F9
:10D6600012F8210C02F046FD039B824620B140F6E1
:10D670000A52C28080F80890142202FB08720393B9
:10D6800012F8220C02F036FD039B834620B140F6CF
:10D690000A42C28080F80890142202FB087212F835
:10D6A0001F9C019A12F0040201924A463CD04A2182
:10D6B000184602F0DFFC4A462A21504602F0DAFC06
:10D6C0004A460A21584602F0D5FC142303FB08738E
:10D6D00013F824ACBAF1000F06D0504602F00AFD50
:10D6E0004A46092102F0C6FC544B9D4223D103F562
:10D6F00084335A6A42F480525A625A6A22F480523F
:10D700005A6225E04C494A6922EA03034B6191E7DA
:10D7100049490A6A22EA03030B628BE746494A6ACF
:10D7200022EA03034B6285E70A21184602F0A2FCB5
:10D730004A460A21C1E7424B9D423FD103F50033DF
:10D740001A6A42F480421A621A6A22F480421A6209
:10D75000019B002B66D1012202212B880A4303F48E
